:040000000CEF00F011
:10000800E9CF3AF0EACF3BF0E1CF3CF02BEF05F037
:1000180002EE52F06C0EF66E000EF76E10EE05F062
:100028002DEC00F000EE00F0220EEE6AE806FDE18D
:1000380000EE60F011EEF2F026EC00F0000EF86E23
:100048008EEF02F0EE6AE550E150FCE1E250FAE191
:1000580012000900F5CFEEFFE550E150FAE1E25059
:10006800F8E11200F37FE4010B00E8CF22F0225000
:100078002A0DF3CF23F0F4CF24F0225060EC0FF0D8
:100088002250DCEC08F02250DCEC13F004BA05D066
:10009800610EFFEC07F025B013D204AA1200630E1C
:1000A800FFEC07F025A812000BD21B900101C091AC
:1000B800C491D091CC91C89117D21B920101C093E1
:1000C800C493D093CC93C8930FD21B940101C095CD
:1000D800C495D095CC95C89507D21B960101C097B9
:1000E800C497D097CC97C897FFD11B980101C099A6
:1000F800C499D099CC99C899F7D11B9A0101C09B92
:10010800C49BD09BCC9BC89BEFD11B9C0101C09D7D
:10011800C49DD09DCC9DC89DE7D11B9E0101C09F69
:10012800C49FD09FCC9FC89FDFD11C50FE0B1C6E74
:100138000101C151FE0BC16FC551FE0BC56FD151F5
:10014800FE0BD16FCD51FE0BCD6FC951FE0B84D084
:100158001C50FD0B1C6E0101C151FD0BC16FC55137
:10016800FD0BC56FD151FD0BD16FCD51FD0BCD6F7F
:10017800C951FD0B71D01C50FB0B1C6E0101C15104
:10018800FB0BC16FC551FB0BC56FD151FB0BD16F79
:10019800CD51FB0BCD6FC951FB0B5ED01C50F70B3B
:1001A8001C6E0101C151F70BC16FC551F70BC56F2B
:1001B800D151F70BD16FCD51F70BCD6FC951F70B5B
:1001C8004BD01C50EF0B1C6E0101C151EF0BC16FDE
:1001D800C551EF0BC56FD151EF0BD16FCD51EF0B5F
:1001E800CD6FC951EF0B38D01C50DF0B1C6E0101CD
:1001F800C151DF0BC16FC551DF0BC56FD151DF0B8B
:10020800D16FCD51DF0BCD6FC951DF0B25D01C50FD
:10021800BF0B1C6E0101C151BF0BC16FC551BF0B94
:10022800C56FD151BF0BD16FCD51BF0BCD6FC95128
:10023800BF0B12D01C507F0B1C6E0101C1517F0BEC
:10024800C16FC5517F0BC56FD1517F0BD16FCD5198
:100258007F0BCD6FC9517F0BC96F46D11D50FE0B67
:100268001D6E0101C251FE0BC26FC651FE0BC66F57
:10027800D251FE0BD26FCE51FE0BCE6FCA51FE0B80
:1002880084D01D50FD0B1D6E0101C251FD0BC26FC4
:10029800C651FD0BC66FD251FD0BD26FCE51FD0B6F
:1002A800CE6FCA51FD0B71D01D50FB0B1D6E0101A5
:1002B800C251FB0BC26FC651FB0BC66FD251FB0B71
:1002C800D26FCE51FB0BCE6FCA51FB0B5ED01D50C7
:1002D800F70B1D6E0101C251F70BC26FC651F70B28
:1002E800C66FD251F70BD26FCE51F70BCE6FCA51F2
:1002F800F70B4BD01D50EF0B1D6E0101C251EF0BD8
:10030800C26FC651EF0BC66FD251EF0BD26FCE51F1
:10031800EF0BCE6FCA51EF0B38D01D50DF0B1D6E9F
:100328000101C251DF0BC26FC651DF0BC66FD2513C
:10033800DF0BD26FCE51DF0BCE6FCA51DF0B25D04A
:100348001D50BF0B1D6E0101C251BF0BC26FC651BC
:10035800BF0BC66FD251BF0BD26FCE51BF0BCE6F42
:10036800CA51BF0B12D01D507F0B1D6E0101C25127
:100378007F0BC26FC6517F0BC66FD2517F0BD26FF6
:10038800CE517F0BCE6FCA517F0BCA6FADD01E50B6
:10039800FE0B1E6E0101C351FE0BC36FC751FE0B4E
:1003A800C76FD351FE0BD36FCF51FE0BCF6FCB511D
:1003B800FE0B84D01E50FD0B1E6E0101C351FD0BB8
:1003C800C36FC751FD0BC76FD351FD0BD36FCF510F
:1003D800FD0BCF6FCB51FD0B71D01E50FB0B1E6E6A
:1003E8000101C351FB0BC36FC751FB0BC76FD3513F
:1003F800FB0BD36FCF51FB0BCF6FCB51FB0B5ED0F9
:100408001E50F70B1E6E0101C351F70BC36FC75186
:10041800F70BC76FD351F70BD36FCF51F70BCF6FD4
:10042800CB51F70B4BD01E50EF0B1E6E0101C35181
:10043800EF0BC36FC751EF0BC76FD351EF0BD36FE0
:10044800CF51EF0BCF6FCB51EF0B38D01E50DF0BD6
:100458001E6E0101C351DF0BC36FC751DF0BC76F9E
:10046800D351DF0BD36FCF51DF0BCF6FCB51DF0BE6
:1004780025D01E50BF0B1E6E0101C351BF0BC36FA9
:10048800C751BF0BC76FD351BF0BD36FCF51BF0B32
:10049800CF6FCB51BF0B12D01E507F0B1E6E0101C8
:1004A800C3517F0BC36FC7517F0BC76FD3517F0BEE
:1004B800D36FCF517F0BCF6FCB517F0BCB6F14D046
:1004C80002012051FF0F10E6E00F0EE7200F020D8A
:1004D800980EF324F66E280EF420F76E0900F550F6
:1004E8000900F5CFFAFFF96E0101C451D011CC1102
:1004F800C811EF6FC551D111CD11C911F06FC65197
:10050800D211CE11CA11F16FC751D311CF11CB112E
:10051800F26F1200F29EA2EC0DF090EC15F081EC57
:1005280015F08F928F96868086848A9E8A9C8BECA3
:1005380014F001EC15F0009C029ACEEC10F021C2E8
:1005480027F288EC10F0F28E040002013F6B416B39
:10055800050E3F6504D03F6B017A57EC11F002019C
:10056800275151EC13F00400270E02014165F0D722
:1005780000AC04D028C2E9F171EC15F0F29E028AB1
:1005880088EC10F0F28EF29E6F501F0B80096F6E90
:10059800B1EC13F0FBC129F0DCEC07F005EC0EF030
:1005A800FBC129F0D0EC07F005EC0EF0FBC129F0F7
:1005B800C4EC07F005EC0EF0FBC129F0B8EC07F02D
:1005C80005EC0EF0FBC129F0ACEC07F005EC0EF0E1
:1005D800FBC129F0A0EC07F005EC0EF0286AC00E6C
:1005E800296E2A6A9AEC07F013EC11F0286AC00EFB
:1005F800296E2A6A94EC07F013EC11F0FBC129F07C
:10060800DCEC07F005EC0EF0FBC129F0D0EC07F0AC
:1006180005EC0EF0FBC129F0C4EC07F005EC0EF078
:10062800FBC129F0B8EC07F005EC0EF0FBC129F08E
:10063800ACEC07F005EC0EF0FBC129F0A0EC07F0DC
:1006480005EC0EF0286AC00E296E010E2A6E9AEC8F
:1006580007F013EC11F0286AC00E296E010E2A6EFD
:1006680094EC07F013EC11F01F0E6F16F28E8A8AC5
:100678008A808A828A880201406B080E426F446B26
:100688001D6B1D511B0FE96EEA6AEF6AF30E02013A
:100698001D25E96EEA6A010EEA22000EEF6A1D25A1
:1006A800E96EEA6A020EEA22EF6AEF0E1D25E96E8C
:1006B800EA6A010EEA22EF6AC40E1D25E96EEA6AAB
:1006C800010EEA22EF6AD00E1D25E96EEA6A010ED4
:1006D800EA22EF6ACC0E1D25E96EEA6A010EEA22CB
:1006E800EF6AC80E1D25E96EEA6A010EEA22EF6A72
:1006F8001D2B030E1D65C5D704808C680398808068
:1007080080A003888F88640E466F3F6B00962E6B1F
:10071800049A04BC048A22C22AF20292048800982D
:1007280021C227F200A803D0009871EC15F004004C
:1007380019EC12F004AA04D00101DB51010903D01D
:100748000101DB51FE0BDB6F020131513CE021510D
:100758002EEC0BF0235022100DE124C2D6F11BC061
:10076800D7F11CC0D8F11DC0D9F11EC0DAF1F0ECE8
:1007780012F025D000A612D002012E510FE0040E6F
:10078800406F24C2D6F11BC0D7F11CC0D8F11DC0E0
:10079800D9F11EC0DAF1F0EC12F011D002A211D09A
:1007A800FE0E0201406F24C2D6F11BC0D7F11CC057
:1007B800D8F11DC0D9F11EC0DAF1F0EC12F00276C2
:1007C80002920201316B215139EC00F021EC13F057
:1007D800640E0201386504D00AEC04F00201386B9B
:1007E80000B002B406D003B204D02251250AD8B40E
:1007F800466B00B002B405D003B203D00A0E3B65C5
:1008080091D738EC0DF00201416B8CD701AC03B6DF
:1008180008D002A001B605D000B003B002D003A2F0
:100828008ED001AC03B605D002A001B602D000B04C
:1008380002D0270E05D003B002D003A202D03F0E8B
:10084800F46EF450F50F226EF4CF2CF02D6A2329A4
:100858006FEC07F081EC13F02A50236F23C2D9FF05
:10086800F36A2250D96043D001A606D0670ED92476
:10087800F66EF76A7F0E2FD003A206D0330ED92466
:10088800F66EF76A7F0E27D000B006D0BB0ED924CB
:10089800F66EF76A7F0E1FD001AC06D0830ED924FE
:1008A800F66EF76A7F0E17D003A606D0D70ED924A6
:1008B800F66EF76A7F0E0FD002A006D09F0ED924DD
:1008C800F66EF76A7F0E07D003A00FD0FF0ED9246B
:1008D800F66EF76A7E0EF722B00EF324E96EEA6A26
:1008E800010EEA220800F5CFEFFFD92A21D02250C5
:1008F8000508D924E96EEA6AB00EF324E16EE26ACB
:10090800010EE222EFCFE7FFD92AD9CF23F0246ADC
:10091800FF0EF424256E266AFF0E26222650800A32
:10092800276E2350255C2450800A2758D8A0D96AFE
:10093800F32A0A0EF36495D70288CCEF0CF002A8CC
:1009480014D0019E236BF36AF350050FE96EEA6A2F
:10095800B00EF324E16EE26A010EE222EFCFE7FF68
:10096800F32A0A0EF364F0D7029801AECCEF0CF02C
:1009780003B40BD0019E0201236BD96AD95061ECF4
:1009880007F0D964FBD7CCEF0CF003BC02D001A46C
:1009980053D0090E2C6E2D6A010E020123256FEC2F
:1009A80007F081EC13F02A50236FF46AB00EF42498
:1009B800E96EEA6A010EEA22B00EF424E16EE26AF8
:1009C800010E03AC0FD0E222E750236ED8902330FB
:1009D800EF6E02014FEC07F002D0D8902436232E98
:1009E800FCD70ED0E222E750236ED8902334EF6E66
:1009F80002014FEC07F002D0D8902432232EFCD706
:100A08002450F36EB00EF424E96EEA6A010EEA226D
:100A1800B00EF424E16EE26A010EE222E750F31010
:100A2800EF6E02012351080AD8B4019EF42A0A0E77
:100A3800F464BCD7CCEF0CF0019E0201236BD96A99
:100A4800D95061EC07F0D964FBD7CCEF0CF0E2CFBA
:100A58003DF0F3CF3EF0F4CF3FF0F2A4F9D0F2949A
:100A6800180ED66EFC0ED76E02014F4B502B0101AB
:100A7800F72BF82BF92BFA2B0201462B640E466153
:100A880002D08F9803D08F88640E466F45C235F028
:100A9800956A8A8A382B01808B6A8E6A8D68B00EB7
:100AA8000201F7EC07F039B08D90B00EF7EC07F0C3
:100AB80039B28D92B00EF7EC07F039B48D94B00EC0
:100AC800F7EC07F039B68D98B00EF7EC07F039B8A7
:100AD8008D9AB00EF7EC07F039BA8D9CB00EF7EC92
:100AE80007F039BC8D9E0490048020D08B803FD0C5
:100AF8008B823DD08B843BD08B8639D08B8837D086
:100B08008B8A35D08B8C33D08B8E31D08E802FD082
:100B18008E822DD08E842BD08E8629D08E8827D099
:100B28008E8A25D08E8C23D08E8E21D002011C5126
:100B3800DDE0010ADDE0030ADDE0010ADDE0070A85
:100B4800DDE0010ADDE0030ADDE0010ADDE00F0A6D
:100B5800DDE0010ADDE0030ADDE0010ADDE0070A65
:100B6800DDE0010ADDE0030ADDE0010ADDE00190D5
:100B78001C2B1C51100AD8B41C6B1C51030B366E6D
:100B8800366606D01B500101EF118C6E8A9007D093
:100B9800360407E11C500101F0118C6E8A808A929C
:100BA8001CD03650020A06E11D500101F1118C6E6D
:100BB8008A9012D03650030A13E11E500101F21137
:100BC800386E1F0E381603BC388A01B4388C04B648
:100BD800388E38C08CFF8A808A828A888A9A8A8A64
:100BE8008C6895688684868086B002D0038A01D096
:100BF800039A86B402D0018201D001920DEC0FF065
:100C08000201362B640E366521D0366B3E2B512BF4
:100C18003F2B412B3B2B472BDC0E256107D0252B87
:100C280004A204D0960E256501D0256FDC0E26613E
:100C380001D0262B376A040E3724E96EEA6A020EC1
:100C4800EA22EF2A372A070E3764F5D735C045F26E
:100C58007750D8A407EC08F03FC0F4FF3EC0F3FF7C
:100C68003DC0E2FF3CC0E1FF3BC0EAFF3AC0E9FFFC
:100C7800110000510101F3630BD03C0EF7650BD056
:100C8800010E236E000E70EC0AF00101F76B03D021
:100C9800F76BF3C100F202010151010101EEF4F01A
:100CA800EF620DD001EEF8F03C0EEF640BD0090EA8
:100CB800236E010E70EC0AF00101F86B03D0F86B9B
:100CC800F4C101F202010251010101EEF5F0EF62F7
:100CD8000DD001EEF9F03C0EEF640BD0110E236E2F
:100CE800020E70EC0AF00101F96B03D0F96BF5C143
:100CF80002F202010351010101EEF6F0EF620DD09C
:100D080001EEFAF03C0EEF640BD0190E236E030EC1
:100D180070EC0AF00101FA6B03D0FA6BF6C103F22A
:100D2800D96A010EF36E0201180ED924E96EEA6A37
:100D3800020EEA22EF1CD8A401BC30D0F46A0201EA
:100D4800180ED924E96EEA6A020EEA22EF50F3146B
:100D58001FE1D9501B0FE96EEA6AD9501B0FE16EEB
:100D6800E26AE750226EF31C2214EF6E0101C00EF6
:100D7800D924E96EEA6A010EEA22C00ED924E16E8E
:100D8800E26A010EE222E750226EF31C2214EF6E93
:100D9800D890F336F42A070EF464D1D7D92A030E73
:100DA800D964BFD700AE20D0F36A140EF324E96EDD
:100DB800EA6A020EEA22EF6AC00EF324E96EEA6AD2
:100DC800010EEA22000EEF6A0201F324E96EEA6AD4
:100DD800020EEA22F3501B0FE16EE26AEFCFE7FF43
:100DE800F32A030EF364E1D703AE25D000B41FD075
:100DF80000B224D0009203BE0082D96A140ED9240E
:100E0800E96EEA6A020EEA22EF6A0101C00ED924ED
:100E1800E96EEA6A010EEA22EF6AD9501B0FE96E01
:100E2800EA6AEF6AD92A030ED964E8D707D00082A4
:100E380003BE009203D0009203BE0082049400B067
:100E480002AC120000B412000101F6AF12000484D3
:100E5800010E0201256F010C2624E96E000E2720E1
:100E6800EA6EEF5012002624E96E000E2720EA6E83
:100E7800EF50286E1200EA6AEF50296E282A1200F5
:100E8800D89058325732563255321200EA0E516E07
:100E9800010E526E120023510808236EF450050FFC
:100EA800E96EEA6AEF50246E232A1200F66E7F0E6E
:100EB800F76E0800F5CF22F01200050FE96EEA6A16
:100EC800B00ED924E16EE26A010EE222EFCFE7FF0D
:100ED800D92A0A0E12002A6E2B6A000E2B22120043
:100EE800080E465C000E475812004120496E48C063
:100EF800E9FF49C0EAFF600E4A6E4B6A42504A2633
:100F080043504B2246504A24E16E47504B20E26E34
:100F1800EFCFE7FF120046504024486EE86A1200FF
:100F28002B6A7F0E266E276A010E12002B6A7F0E2F
:100F3800266E000E276A1200FCC12AF0FDC12BF0B4
:100F4800FEC12CF01FC027F020C028F0050E1200AB
:100F5800FCC12AF0FDC12BF0FEC12CF01FC027F008
:100F680020C028F0040E1200FCC12AF0FDC12BF0AD
:100F7800FEC12CF01FC027F020C028F0030E12007D
:100F8800FCC12AF0FDC12BF0FEC12CF01FC027F0D8
:100F980020C028F0020E1200FCC12AF0FDC12BF07F
:100FA800FEC12CF01FC027F020C028F0010E12004F
:100FB800FCC12AF0FDC12BF0FEC12CF01FC027F0A8
:100FC80020C028F0000E1200E222E750246EF31C25
:100FD8002414EF6E1200D924E96EEA6A020EEA229E
:100FE800EF50F31412001C25E96EEA6A010EEA229A
:100FF800EF50396E12002324E96E000E2420EA6EA9
:10100800EF50256E120077AE02D0779E120077ACB3
:1010180002D0779C120077AA13D0779A71BE719E7E
:1010280071BC719C71BA719A71B8719871B67196E8
:1010380071B4719471B2719271B07190716A120049
:1010480077A202D07792120077A0120002013E6BBD
:10105800E0EC0BF00DAB83D00CA73AD0040E446E35
:10106800456AD89044364536D89044364536D890A7
:10107800443645361E512A0D4450F324426E4550DD
:10108800F420436E660E406E0F0E416E466A476A44
:101098008FEC07F046BEE86879EC07F0464A472A25
:1010A80074EC07F0F5E3010E0201316F040E1E2502
:1010B800E96EEA6A020EEA22EF6A1E51AFEC09F005
:1010C80002011E51ECEC14F000096FE1316B6DD098
:1010D800316B0C51070B446E456AD890443645363F
:1010E800D89044364536D890443645361E512A0D98
:1010F8004450F324426E4550F420436E660E406E11
:101108000F0E416E466A476A8FEC07F046BEE868E4
:1011180079EC07F0464A472A74EC07F0F5E34550A6
:10112800441043E102011E51ECEC14F000093DE1CA
:10113800600E4224E96E000E4320EA6EEF6A610EEB
:101148004224E96E000E4320EA6EEF6A620E4224E2
:10115800E96E000E4320EA6E000EEF6A26D0316B6E
:101168001E51ECEC14F0000920E0660E406E0F0EE4
:10117800416E466A476A8FEC07F046BEE868412030
:10118800496E48C0E9FF49C0EAFF0101DC0E462468
:10119800E16EE26A010EE222EFCFE7FF464A472AF4
:1011A80074EC07F0E8E35BEC0CF07790609E1200BB
:1011B800E8CFD9FFD9502A0DF3CF26F0F4CF27F086
:1011C800019A0292870E2624E96E000E2720EA6E05
:1011D8002A51EF6201D002827F0E2624E96E000EAA
:1011E8002720EA6EEF50436F600E2624E96E000E4A
:1011F8002720EA6EEF50206F20512B5D03E32B511F
:10120800206104D0018E20C22BF2236B670E2624A6
:10121800E96E000E2720EA6EEF502A6E660E26242D
:10122800E96E000E2720EA6EEF50296E000EB0EC32
:101238000FF0029C04AA06D0630E37EC07F028A82A
:1012480006D004D0610E37EC07F028B0028C009A63
:10125800610E37EC07F028B2008A0094620E37EC72
:1012680007F028B20084039C610E37EC07F028BE13
:10127800038C0194620E37EC07F028B00184039EBA
:10128800630E37EC07F028B0038E0392630E37EC39
:1012980007F028B203820394630E37EC07F028B4F2
:1012A8000384019C620E37EC07F028B8018C620EAB
:1012B8002624E96E000E2720EA6EEF50286E02946D
:1012C800620E37EC07F028BA02840196610E37ECFB
:1012D80007F028B601860396630E37EC07F028BEA0
:1012E8000386009E630E37EC07F028BC008E009042
:1012F800610E37EC07F028BA00800390610E37ECD6
:1013080007F028B403800290630E37EC07F028BA80
:1013180002800496750E2624E96E000E2720EA6ED8
:10132800EF50286E190E285CD8A0048600A0048609
:1013380003A001D08A8E03B001D08A9E8A9C610ED8
:1013480037EC07F028BC8A8C029E620E37EC07F057
:1013580028BC028E1200E8CF4CF04C502A0DF3CF77
:101368004EF0F4CF4FF0660E4E24E96E000E4F207B
:10137800EA6E390EEF62390C670E4E24E96E000EE4
:101388004F20EA6E310EEF62310C610E4E24E96E89
:10139800000E4F20EA6EEF50506E50BA1200700ED9
:1013A8004E24E96E000E4F20EA6EEF50C00BC00AC3
:1013B800D8A41200700E4E24E96E000E4F20EA6E7B
:1013C800EF50030B4D6E546A4DC053F001014AECC7
:1013D80007F0BEEC12F0700E4E24E96E000E4F209E
:1013E800EA6EEF500C0B4D6ED8904D32D8904D32BE
:1013F800010E546E4DC053F04AEC07F0BEEC12F0EB
:10140800700E4E24E96E000E4F20EA6EEF50300B3E
:101418004D6E4D3A0F0E4D16020E546E4DC053F0E0
:101428004AEC07F0BEEC12F0740E4E24E96E000E82
:101438004F20EA6EEF50030B4D6E030E546E4DC0F5
:1014480053F04AEC07F0BEEC12F0740E4E24E96E2D
:10145800000E4F20EA6EEF500C0B4D6ED8904D32B7
:10146800D8904D32040E546E4DC053F04AEC07F03C
:10147800BEEC12F0710E4E24E96E000E4F20EA6E9B
:10148800EF50536EEB0E516E010E526E16EC15F0C6
:10149800720E4E24E96E000E4F20EA6EEF50536E26
:1014A800E80E516E010E526E16EC15F0730E4E24B6
:1014B800E96E000E4F20EA6EEF50536EE70E516E44
:1014C800010E526E16EC15F04C28536EE40E516E58
:1014D800010E526E16EF15F0E8CFD9FF010EF36E2C
:1014E800F46A0201000EEFEC07F001E182D023500C
:1014F800F4CF24F0256A2426000E252243C226F0C4
:10150800276A262A000E27222750800A286E245090
:10151800265C2550800A28586CE3140EEFEC07F07F
:1015280063E1140ED924E96EEA6A020EEA22140E67
:10153800D924E16EE26A020EE222E750F310EF6E60
:10154800466B0086030E2E6FD9501B0FE96EEA6AB0
:10155800EF50F314D8A401BC1FD003A845D0D9502C
:101568001B0FE96EEA6AD9501B0FE16EE26AE75079
:10157800246EF31C2414EF6E0101C00ED924E96E09
:10158800EA6A010EEA22C00ED924E16EE26A010E6F
:10159800E222E750F31027D0F45023C024F0256A44
:1015A8002426000E25222051241825101DE0D9508C
:1015B8001B0FE96EEA6AD9501B0FE16EE26AE75029
:1015C800F310EF6E0101C00ED924E96EEA6A010E2C
:1015D800EA22C00ED924E16EE26A010EE222E75047
:1015E800246EF31C2414EF6E00AE2DD00201466B5E
:1015F8002AD0140ED924E96EEA6A020EEA22140EE1
:10160800D924E16EE26A020EE8EC07F000AE1BD0C6
:10161800D9501B0FE96EEA6AD9501B0FE16EE26AD6
:10162800E750246EF31C2414EF6E0101C00ED92478
:10163800E96EEA6A010EEA22C00ED924E16EE26A76
:10164800010EE8EC07F0D890F336F42A070EF4649C
:1016580048D7070CE8CF25F0010E2D6E2E6A296AAF
:101668002A6AFE0E406F25502A0DF3CF2BF0F4CFD7
:101678002CF06D0E2B24E96E000E2C20EA6EEF5034
:10168800276E6E0E2B24E96E000E2C20EA6EEF50AA
:10169800286E6C0E2B24E96E000E2C20EA6EEF509B
:1016A800266E6F0E2B24E96E000E2C20EA6EEF508A
:1016B800246E26C01FF227C0FFF128C021F0255054
:1016C80041EC10F00009D8B401BC20D02D6A2E6A74
:1016D80027500101FF1908E0010E0201406F0101C6
:1016E800FF511F0B20090AD02850211809E0010ECC
:1016F8000201406F21501F0B20090101D56F36D020
:10170800265002011F19010E2EE025D0255060EC4D
:101718000EF000092BE12D6A2E6A305104E0406B6F
:1017280030C2D5F123D027500101FF1902E0030E82
:10173800D4D72850211802E0030EDAD702011F512E
:10174800266205D001B800AA0DD000B40BD004BAA7
:1017580024B404D0030E406F1F51CDD704AA24B07F
:1017680001D0F8D7010E2D6E000E2E6A01BC02D0F2
:1017780003AE1DD01C500101F0111D10F1111E10F7
:10178800F2111B10EF11020134112411F36EF46AE7
:10179800F450F3100CE10101C06BC16BC26BC36B59
:1017A800FD0E0201406F0101D56B2D6A2E6A2DC016
:1017B80022F02EC023F0120061504E6E4D6A62CFA7
:1017C8004FF0506A4F504D102C6F50504E102D6FE7
:1017D800050E556ED8902D332C33552EFBD76250FD
:1017E800030B516E526A536A546A51C055F052C085
:1017F80056F053C057F054C058F056C058F055C072
:1018080057F0566A556A55C00CF256C00DF257C0CB
:101818000EF258C00FF26350516E526A536A546AFE
:1018280053C054F052C053F051C052F0516A515055
:101838000C1352500D1353500E1354500F13645081
:10184800516E526A536A546A51500C1352500D1318
:1018580053500E1354500F13556AC00E0D15566E83
:10186800576A586A0F0E02D044EC07F0E82EFCD7EE
:1018780055504C6E4C50030B1E6F4C50030B2F6F82
:10188800556AC00E0D15566E030E0E15576E586A22
:101898000F0E02D044EC07F0E82EFCD755504C6EE2
:1018A8004C50070B1E6F4C50070B2F6F12004C6AE1
:1018B8004D6A4E6A4F6A02011E5121631200C1EC43
:1018C80014F00009D8A4120002010CC24CF04D6AB1
:1018D8002FD0DEC132F2DFC1C4F1E0C1C5F1E1C1F0
:1018E800C6F1E2C1C7F120D0DEC133F2DFC1D0F1C9
:1018F800E0C1D1F1E1C1D2F1E2C1D3F115D0DEC12D
:1019080039F2DFC1CCF1E0C1CDF1E1C1CEF1E2C1E4
:10191800CFF10AD0DEC13AF2DFC1C8F1E0C1C9F1A6
:10192800E1C1CAF1E2C1CBF1010E4E6E4F6A11D08E
:101938004CC050F04DC051F00AD05050800AC9E058
:10194800010AD2E0030ADBE0010AE4E002D05150C8
:10195800F4E04E044F10D8A412003251331139115B
:101968003A11346F0101C451D011CC11C811EF6F75
:10197800C551D111CD11C911F06FC651D211CE1177
:10198800CA11F16FC751D311CF11CB11F26F1200E9
:1019980003B415D00B0EF36EF350050FE96EEA6A27
:1019A800B00EF324E16EE26A010EE222EFCFE7FF08
:1019B800F32A0F0EF364F0D70201296B120003BC5F
:1019C80002D001A43CD00B0E2C6E2D6A010E020130
:1019D80029252A6E2B6A000E2B2281EC13F02A503F
:1019E800296F080E2961080C29510708E16E0B0EB2
:1019F800D96EE1CF28F0D950050FE96E03AC08D0B5
:101A08003FEC07F002D0D8902936282EFCD707D013
:101A18003FEC07F002D0D8902932282EFCD7295065
:101A2800F36E0101B00ED924E96EEA6A010EEA22CA
:101A3800F3CFEFFFD92A0F0ED964DBD70F0C0B0EAB
:101A4800D96ED950050FE96EEA6AB00ED924E16E55
:101A5800E26A010EE222EFCFE7FFD92A0F0ED9641E
:101A6800F0D70201296B1200226AE16AE96A02A42E
:101A780023D0080E276E286AFF0E2025256E266AB9
:101A8800FF0E2622DDEC11F02550226E2005070BF3
:101A9800E96EE9CF23F0010E246E232A02D0D890F4
:101AA8002436232EFCD72450D96E22501B0FE96E02
:101AB800EA6AEF50D914E16ED96AD950226209D086
:101AC800D9501B0FE96E00A007D0EA6AE1CFEFFFFB
:101AD80005D0D9501B0FE96EEA6AEF6A0101C00E02
:101AE800D924E96EEA6A010EEA22EF6AC40ED92403
:101AF800E96EEA6A010EEA22EF6AD00ED924E96E8D
:101B0800EA6A010EEA22EF6ACC0ED924E96EEA6A83
:101B1800010EEA22EF6AC80ED924E96EEA6A010EBC
:101B2800EA22EF6AEF0ED924E96EEA6A010EEA2288
:101B3800EF6AD92A030ED964C0D7030CF29EF29C2F
:101B4800F28AF298F296F294F292F290F18EF19C67
:101B5800F19AF198F184F190F06AD58ED59CD59AD6
:101B6800D598D596D594D592D580D390D392A89A66
:101B7800A888A886A884A892A880D190D09ED0983A
:101B8800D096D094D092D090CD8ACD88CD82CD8673
:101B9800CD94CD9CCD9ECD80CA6AC76AC69EC69C90
:101BA800C69AC698C696C684C692C680C56AC26AD0
:101BB800C16AC06A0F015D6B5C6BBB6A506B4D6B91
:101BC8004A6B476BBF6ABE6AB56AB16AAC6AAB6AF0
:101BD8007F9E7F9C7F9C7F987F967F947F927F904B
:101BE800786A776A766AA56AA46AA36AA26AA16A09
:101BF800A06A9F6A9E6A9D6A469F469D469B469933
:101C08001200E8CFD9FF27C02FF028C030F0050E0A
:101C1800D8902F363036E82EFBD7E00E2F14276EDB
:101C28003050286E030E2B162C6A2BC02DF02CC0BA
:101C38002EF02D5027122E50281229C0F3FF2AC04B
:101C4800F4FFD9500AE0010A0BE0030A0CE0010A8C
:101C58000DE0070A0EE0010A0FE00E01E00E0ED0BB
:101C68000E01E40E0BD00E01E80E08D00E01EC0EAA
:101C780005D00E01F00E02D00E01F40EE16E0E0E2C
:101C8800E26E2850E76EE128E96E000EE220EA6E67
:101C980027500809EF6E020EE124E96E000EE220DB
:101CA800EA6EF450EF6E030EE124E96E000EE220B6
:101CB800EA6EF3CFEFFF1200010E326E316E306A1A
:101CC800020120052F6E3D6B0198336A30501B0FBF
:101CD800E96EEA6AEF5031141AE033502F6006D0EB
:101CE800335054EC12F0000912E110D02F50336039
:101CF80004D033508AEC12F0F6D702011F5102E0EB
:101D08001F8B03D0335020091F6F0188326AD89087
:101D18003136316603D0010E316E302A332A1F0E58
:101D28003364D4D702013D51D8A43CBB02D03C8BCC
:101D3800326A306B04BE02D08FA615D000B413D01F
:101D480004AA09D004AE04D0308504B430890AD07E
:101D58008FB6308707D004AE03D0308104B4308901
:101D68008FB63083326A32501200E8CFD9FF22C0D2
:101D78002AF023C02BF0050ED8902A362B36E82EF1
:101D8800FBD7E00E2A14226E2B50236E030E261664
:101D9800276A26C028F027C029F028502212295087
:101DA800231224C0F3FF25C0F4FF2CD023500F01C9
:101DB800216F22C022FF2287F450236FF3CF24FF24
:101DC800120023500F01116F22C012FF1287F45026
:101DD800136FF3CF14FF120023500F01016F22C0BD
:101DE80002FF0287F450036FF3CF04FF1200235061
:101DF8000F01216F22C022FF2287F450236FF3CFF7
:101E080024FF1200D950D2E0010ADBE0030AE4E023
:101E1800EED702011C51030B406E406611D08A9028
:101E28008A928A988A9A83CF42F083CF42F0421CE2
:101E38000101F36FEF1D416E4150F3178A8A1200BA
:101E4800400411E18A808A928A988A9A83CF42F064
:101E580083CF42F0421C0101F46FF01D416EF4156E
:101E6800F46F8A8A12004050020A11E18A908A822D
:101E78008A988A9A83CF42F083CF42F0421C0101AC
:101E8800F56FF11D416EF515F56F8A8A1200405005
:101E9800030AD8A412008A808A828A988A9A83CFF1
:101EA80042F083CF42F0421C0101F66FF21D416EF1
:101EB800F615F66F8A8A1200E8CFD9FFD9502A0D95
:101EC800F3CF26F0F4CF27F0680E2624E96E000E33
:101ED8002720EA6EEF50286E690E2624E96E000E60
:101EE8002720EA6EEF50296E6A0E2624E96E000E4E
:101EF8002720EA6EEF502A6E6B0E2624E96E000E3C
:101F08002720EA6EEF502B6E285010631BD0295003
:101F180002EE11F0EF6216D02A5002EE12F0EF62D4
:101F280011D02B5002EE13F0EF620CD0352B050EBA
:101F3800356509D028C018F229C019F22AC01AF24A
:101F48002BC01BF2356B28C010F229C011F22AC031
:101F580012F22BC013F212002950D00F2C6E2C5005
:101F680012E02B6A2CC02DF02B5005EC14F0060E55
:101F78002B6E2A50D00F2C6E2CC02DF02B5005EC58
:101F880014F00A6A18D0E16AE150050FE96EEA6AAE
:101F9800EF6AE12A0A0EE164F7D704B802D0030E0B
:101FA80001D0060E2B6E2A50D00F2C6E2CC02DF0AF
:101FB8002B5005EC14F00B0ED96ED950050FE96EB5
:101FC800EA6AEF6AD92A150ED964F7D7D96A03AC39
:101FD80004D00B0E2B6E0A0E04D001A412000B0EB7
:101FE8002B6E2D6E2B5005EF14F0F7CFF3FFF8CFC3
:101FF800F4FF26503F0BE16EE150265E000E275A93
:1020080026C0F6FF27C0F7FF0A002550241030E04D
:10201800D96A0B00E150D95C1AE32550241017E067
:1020280022C0E9FF23C0EAFFEF50F56E224A232AB7
:10203800D9502624286EE86AD9BEE8682720296E78
:1020480028C0F6FF29C0F7FF2406D8A025060C00F3
:10205800D92A3F0ED964DDD7940E7F6E3DEC15F07A
:102068003DEC15F0400E2626000E2722E16ACDD75A
:10207800F3CFF7FFF4CFF8FF1200E8CFD9FF010E36
:102088002F6ED9502A0DF3CF31F0F4CF32F06C0E09
:102098003124E96E000E3220EA6EEF501F6F6D0E8C
:1020A8003124E96E000E3220EA6EEF500101FF6F15
:1020B8006E0E3124E96E000E3220EA6EEF50216E6A
:1020C80002011F519AEC11F0306E305002011F19B5
:1020D80003E030C01FF22F6A0101FF519AEC11F0A2
:1020E800306E30500101FF1903E030C0FFF12F6A54
:1020F80021509AEC11F0306E3050211803E030C0B6
:1021080021F02F6A2F5012009CEC15F0A6EC14F069
:10211800708A70980E01459D609E608C609A6094EC
:102128006090609660920F01309F308D309B3095A3
:102138003083309130970E01E187E587E987ED8795
:10214800F187F5872AEC15F029EC14F00F01259D8D
:102158002097109700977892786A769E769C768A70
:102168000E017F997F977F957E837E811F0E6F1664
:10217800F36AF46A600EF324E96E000EF420EA6E46
:10218800EF6AF34AF42A500EF35C010EF458D8B003
:102198001200F0D76CEC14F0F30EF66E7F0EF76EAB
:1021A80008000201F5CF27F2F60EF66E7F0EF76EE5
:1021B8000800F5CF37F2020E376501D0376BF70EFE
:1021C800F66E7F0EF76EF80EF66E7F0EF76E08004D
:1021D800F5CF28F2F90EF66E7F0EF76E0800F5CFF0
:1021E80022F00492F90E5AEC07F022B20482F90E9A
:1021F800F66E7F0EF76E0800F5CF22F00498F90E00
:102208005AEC07F022B60488049CF90E5AEC07F041
:1022180022B8048CFA0EF66E7F0EF76E1200E8CF25
:10222800D9FF26C02EF027C02FF0050ED8902E36E5
:102238002F36E82EFBD7E00E2E14266E2F50276E71
:10224800030E2A162B6A2AC02CF02BC02DF02C5016
:1022580026122D50271228C0F3FF29C0F4FF1ED0E4
:1022680027500E01F86F26C0F9FEF450FA6FF3CF2D
:10227800FBFE120027500E01FC6F26C0FDFEF45035
:10228800FE6FF3CFFFFE120027500E01F86F26C035
:10229800F9FEF450FA6FF3CFFBFE1200D950E0E0DC
:1022A800010AE8E0F1D701AA33D02251800A02E1FD
:1022B800310E0ED02251810A02E1320E09D022518C
:1022C800820A02E1330E04D02251830A02E1340E5D
:1022D800226E22C02AF0430E296E000EB0EC0FF0D9
:1022E800090E2D6E0B0E05EC14F0D96AD950050FA6
:1022F800E96EEA6A0101B00ED924E16EE26A010EC4
:10230800E222EFCFE7FFD92A0F0ED964EFD70F0CDF
:10231800E16A0101B00EE124E96EEA6A010EEA22DF
:10232800EF6AE12A0F0EE164F4D70F0CE8CFD9FF6A
:10233800D9AA3DD0D9CF33F01F0E3316D8903332F7
:10234800D8903332D8903330F36ED950070BE16E02
:10235800E1CF33F0010E346E332A02D0D8903436F0
:10236800332EFCD73450F46EF3501B0FE96EEA6A33
:10237800EF50F4141CE10101C00EF324E96EEA6A7F
:10238800010EEA22EF50F41412E0D99AC00EF32499
:10239800E96EEA6A010EEA22C00EF324E16EE26AEF
:1023A800010EE222E750336EF41C3314EF6ED9505D
:1023B8001200E16A28AE06D0276C281ED8B0282A59
:1023C800010EE16E26AE06D0256C261ED8B0262A50
:1023D800010EE11AF36AF46A285027101BE0010E77
:1023E800D96ED89028BE05D027362836D92AF9D7ED
:1023F800D890F336F4362750255C2850265805E344
:102408002750255E2850265AF380D8902832273244
:10241800D92EEED7E15004E0F36CF41ED8B0F42ABC
:10242800F3CF25F0F4CF26F012000E01426B416B7A
:10243800D96A0201040ED924E96EEA6A020EEA2278
:10244800780EEF6421D0D9502A0DF3CF22F0F4CFC3
:1024580023F0E16A600E246E256AE1502426000EFE
:10246800252222502424E96E23502520EA6EEF6AA3
:10247800E12A290EE164EED70201040ED924E96E9F
:10248800EA6A020EEA22EF6AD92A070ED964D1D77E
:10249800640E3E65640C88EC10F002013E6B12007D
:1024A800E8CFD9FFE96AFFC1F3FF03BC02D001A45A
:1024B80002D003AC22D00101FF511F0BE16EE1668F
:1024C80001D00ED0E150D96001D00AD0D950E160D6
:1024D80010D0FF51E00B400A03E0FF51E00B04E18C
:1024E800D9502009FF6F09D002013D2B010EE96E7A
:1024F80004D0D950E16201D0FF8BE90401E1010C5D
:10250800F3500101FF1901E0000C010CE8CFD9FFDD
:10251800E96A21C0F3FF03BC02D001A402D001A4E0
:1025280021D021501F0BE16EE16601D00ED0D950A9
:10253800E16001D00AD0E150D96010D02150E00B01
:10254800800A03E02150E00B04E1D9502009216EF4
:1025580009D002013D2B010EE96E04D0D950E16289
:1025680001D0218AE90401E1010CF350211801E0AE
:10257800000C010C010E556E5428566E02D0D890EE
:102588005536562EFCD751C0E9FF52C0EAFFEF502E
:10259800551412E05304D8A4120051C0E9FF52C0E8
:1025A800EAFFEF50566E551C561451C0E9FF52C051
:1025B800EAFFEF6E00881200010E5364010C51C04F
:1025C800E9FF52C0EAFFEF50551051C0E9FF52C071
:1025D800EAFFEF6E008812000F0120B71200020117
:1025E8003151D8B4120021511E631200B1EC13F01E
:1025F80042C222F0000E60EC15F0FBC124F0FCC1D1
:1026080025F0FDC126F0FEC127F01FC022F020C032
:1026180023F0000EB9EC0EF040C2D4F1260E226E63
:102628000F0E236ED7EC14F0786A78840F01208798
:1026380002012E51D8A42E07120003BA02D004A416
:102648000DD0DC0E0201256106D0255104E08F82F1
:10265800048E248108D08F92049E04D08F92049E09
:102668000201256B249101B200BA0DD000B004BE5E
:102678000AD0DC0E266105D0265103E08F8624831C
:1026880005D08F9602D08F96266B249304AE02AEA7
:102698003DEF06F08F823DEF06F0E8CFE1FFE15015
:1026A8002A0DF3CF22F0F4CF23F002BA1200660EFF
:1026B8002224E96E000E2320EA6E430EEF62430CDB
:1026C800670E2224E96E000E2320EA6E4D0EEF629B
:1026D8004D0C610E2224E96E000E2320EA6EEF50A5
:1026E800246E24BA12002CC2D9FFD9502819D8B4A4
:1026F8001200D9CF28F2008C1200E16A2BAE06D066
:102708002A6C2B1ED8B02B2A010EE16E2DAE04D0F8
:102718002C6C2D1ED8B02D2A2D502C1017E0010E30
:10272800D96E2DBE05D0D8902C362D36D92AF9D79A
:102738002C502A5C2D502B5804E32C502A5E2D5027
:102748002B5AD8902D322C32D92EF2D7E15004E0F2
:102758002A6C2B1ED8B02B2A1200020128C227F09F
:10276800286AF36AF46A070ED890F336F436E82E2E
:10277800FBD7F35027101F6EF4502810206E296ADB
:102788002A6A2B6A2C6A215129120E0ED8902936F2
:102798002A362B362C36E82EF9D72A51291229C089
:1027A800FBF12AC0FCF12BC0FDF12CC0FEF1120098
:1027B800E8CFE1FFE1502A0DF3CF26F0F4CF27F060
:1027C800D96A6C0E30EC07F017E16D0E30EC07F0AB
:1027D80013E16E0E30EC07F0D8B400B40DD003ACA2
:1027E80001B40AD002BC08D00101F051F111F21174
:1027F800EF1102E0010ED96ED966120002013B6B9F
:102808001200E8CF2EF02D50050DF3CFE1FFD96A65
:10281800280E2F6E7E0E306ED9502F26000E3022D5
:10282800E1502F26000E30222FC0F6FF30C0F7FFF0
:10283800D950050F2E24E96EEA6A0800F5CFEFFF9C
:10284800D92A040ED964E4D7040CB1EC13F0286A31
:10285800296A2A6A2B6A02AA0DD07F0E266E000EFC
:10286800276A13EC11F0286A296A2A6A2B6A7F0EF4
:10287800266E0AD0000E266A276A13EC11F0286A21
:10288800296A2A6A2B6A266A276A010E13EF11F051
:10289800B200C200D200E200F200020112012201DD
:1028A800320158017E01A401CA01F00116023C025E
:1028B80064028A02B002D602FC02220348036E03B5
:1028C8009603BC03E20308042E0454047A04A0040B
:1028D800F36A19D00101E40EF324E96EEA6A010EE5
:1028E800EA22F30E236E7F0E246EF3502326000E89
:1028F800242223C025F024C026F0276A286A4FEC3A
:1029080015F0EF6EF32A0A0EF364E4D70A0C80B6CA
:1029180080AA03D00201216B120080A680AA04D0ED
:10292800010E0201216F010C80B680BA04D0020E9C
:102938000201216F020C80A680BA1200030E020168
:10294800216F030C0E01448F448D459545934581B5
:10295800449544834491449B44994487439F439DB1
:10296800439B43894397439543834381438B4399CF
:1029780043974385438343811200010E526E04AA94
:1029880003D00101E3B1526A04BA03D00101E3A103
:10299800526A0101E3A105D0640E0201446101D02D
:1029A800442B52501200D96A0101D40ED924E96E81
:1029B800EA6A010EEA22D9502224E16E000E232091
:1029C800E26EEFCFE7FFD92A070ED964EDD7070CDF
:1029D80027512F63000C0DBB010C0CC24CF04C505E
:1029E800800A09E04C50810A06E04C50820A03E054
:1029F8004C50830A01E1010C000C80B480A203D082
:102A08000201226B0DD080A480A202D0010E06D054
:102A180080B480B202D0020E01D0030E0201226FF0
:102A2800228F12005350D8B41200530651C0E9FF48
:102A380052C0EAFFEF505318D8B4120051C0E9FF52
:102A480052C0EAFF53C0EFFF00881200B1EC13F048
:102A5800266A296A2A6A2B6A2C6A1FC027F020C0B6
:102A680028F0265005EC0EF0262A050E2664F1D72C
:102A7800050C7FB2FED7D890F2BED880F29E7F8434
:102A8800550E7E6EAA0E7E6E7F8200F0B79C7F94F4
:102A9800D8B0F28EAA0CF7CFD9FFF8CFE1FF25C046
:102AA800F6FF26C0F7FF27C0F8FF0800D9CFF7FFC9
:102AB800E1CFF8FFF5501200E8CFD9FFD95004E074
:102AC800010A05E0030A06E022C025FF120022C021
:102AD80015FF120022C005FF120052C226F053C291
:102AE80027F00B0E246E000E256A54C222F055C240
:102AF80023F0F9EC0FF0FF001200F28AF294D58E61
:102B0800D59CD59AD598D596D594D582D590180EBA
:102B1800D66EFC0ED76EFC0C9268936A946A956A1E
:102B2800966A976A988098929884989698981200CE
:0E2B3800938693946F501F0B80096F6E1200EE
:107E28003E5149453E00427F40004261514946214A
:107E380041454B311814127F1027454545393C4AB6
:107E48004949300171090503364949493606494906
:107E5800291E04027F020410207F201008142241EA
:107E680000141414141400412214080201510906C4
:107E7800324979413E7E1111117E7F494949363E8A
:107E8800414141227F4141221C7F494949417F09A3
:107E98000909013E4149497A7F0808087F00417F66
:107EA80041002040413F017F081422417F4040406B
:107EB800407F020C027F7F0408107F3E4141413E13
:107EC8007F090909063E4151215E7F091929464665
:107ED8004949493101017F01013F4040403F1F208E
:107EE80040201F3F4038403F631408146307087060
:107EF8000807615149454300003E4141413E001F8A
:107F08002040201F007F49494941007F091929461F
:107F1800007F40404040003E4141413E007E1111FB
:107F2800117E007F4141221C00000000007F0909EA
:107F38000906007E1111117E007F09192946007F6C
:107F4800081422410000417F4100007F0408107F8F
:107F5800003E4149497A000000000000000000008E
:107F6800007F49494941007F020C027F003E414998
:107F7800497A00000000000000000000007F0909A5
:107F880009010000417F4100007F09192946007F4F
:107F98004949494100000000007F09090901003FE3
:107FA8004040403F007F40404040007F40404040CC
:107FB800000000000000417F4100007F0408107F9E
:107FC8000046494949310000000000000000000057
:107FD8000046494949310001017F0101003E414104
:107FE800413E007F0909090600000000000000006A
:087FF80041000059534500004F
:020000040030CA
:0E00000011130A19FF8F91FF0FC00FE00F4080
:00000001FF
