:020000040000FA
:100000000CEF00F0A701F703D8CFFFF2FACFFEF212
:10001000E0CF0FF0F9EF1AF001EEB3F012EEE3F0DB
:1000200044EC1EF000EE10F010EE17F044EC1EF061
:1000300000EE9EF011EE00F044EC1EF001EEA3F095
:1000400011EEB3F0700EF66E000EF76E000EF86E45
:100050003CEC1EF000EEFCF011EE00F0040EF66E2B
:10006000000EF76E000EF86E3CEC1EF02AEF1AF050
:100070000000000000000000000000000000000B75
:10008000F28AF294D58ED59CD59AD598D596D594EA
:10009000D582D590180ED66EFC0ED76E1200F29E49
:1000A000F29CF28AF298F296F294F292F290F18E29
:1000B000F19CF19AF198F184F190F06AD58ED59C7B
:1000C000D59AD598D596D594D592D580D390D392FC
:1000D000D29AD288D286D284D292D280D190D09E27
:1000E000D098D096D094D092D0908382CD8ACD886B
:1000F000CD96CD94CD92CD80CA6AC76AC69EC69C65
:10010000C69AC698C696C684C692C680C56AC28A72
:10011000C288C286C284C292C290C186C184C18292
:10012000C180C198C19AC06ABD9ABD98BD96BD9460
:10013000BD82BD80BA9EBA9CBA9ABA98BA96BA9451
:10014000BA92BA80B76AB69EB69CB69AB698B68688
:10015000B694B682B690B56AB49EB49CB49AB4987C
:10016000B496B484B482B480B16AAC6AAB6AA69E19
:10017000A69CA69CA698A696A694A692A690A56ACA
:10018000A46AA36AA26AA16AA06A9F6A9E6A9D6A1B
:10019000969E969C969A96981200B2000001B551D0
:1001A0003F0BF36EF350B55F000EB65B0001B45128
:1001B000D8B41200D96AF350D95CD8A01FD000017E
:1001C000B451D8B41BD0B2C0F6FFB3C0F7FFD950BA
:1001D00010EEB8F0E126000EE222020EF76403D022
:1001E0000800F55005D0F6CFE9FFF7CFEAFFEF5052
:1001F000E76E0001B24BB32BB4071DD0D9500001FC
:10020000B525006E000EB621016E00C0F6FF01C0DC
:10021000F7FFD95000EEB8F0E926000EEA22020EF0
:10022000F76403D00800F55005D0F6CFE1FFF7CF13
:10023000E2FFE750EF6ED92A3F0ED964BCD7B5C0B4
:10024000F6FFB6C0F7FF940EA66EF8EC1DF00001A5
:10025000B76B0001B75100EEB8F0E926000EEA22B4
:10026000EF50F56EB751D8A402D00C0001D00F00AA
:100270000001B751070B070AD8B4F8EC1DF00001D4
:10028000B72B3F0EB765E5D7400EB527000EB62356
:10029000F36A8CD7066A046A056A0250031003E108
:1002A000006A016A000C1F0E0612D890062A023658
:1002B0000336FCE3033202320250005C0350015863
:1002C00004E3016E0250005ED88004360536062E27
:1002D00006BAF0D706AE05D0041E042AD8B4050627
:1002E000051E0450026E0550036E06AC000C001E85
:1002F000002AD8B40106011E000CA6A21200FDD7E8
:1003000000060B073F06DBCFE6EDFD27FFEF5C00A5
:10031000003E4141413E001F2040201F007F4949CF
:100320004941007F09192946007F40404040003E76
:100330004141413E007E1111117E007F4141221C4E
:1003400000000000007F09090901003F4040403FD4
:10035000007F40404040007F40404040000000009F
:100360000046494949310001017F0101003E4141F8
:10037000413E007F0909090600000000007F0909CD
:1003800009010000417F4100007F09192946007FD3
:100390004949494100000000007F49494941007F27
:1003A000020C027F003E4149497A00000000000033
:1003B000417F4100007F0408107F004649494931D0
:1003C00000000000007F09090906007E1111117E5E
:1003D000007F09192946007F081422410000417F4F
:1003E0004100007F0408107F003E4149497A000027
:1003F000000000000000000000000000414A5359C6
:040400005345000060
:10040400B300E16E0001B551B4C002F0036A025EAC
:10041400000E035AB351E1CF00F0016A005E000EF2
:10042400015A0150800A046E0350800A045C02E100
:100434000250005CD8A003D0B351E15C03D00001AA
:10044400B551B45D006EB6510024D96ED950120076
:10045400B5000101BC05E8CFE3F12A0E026E036A80
:10046400B5C000F0B6C001F009EC1EF004C09EF067
:1004740005C09FF0000102EE1AF09E51E9269F513B
:10048400EA22EF50006E0004E8CFE1F102EE39F009
:100494009E51E9269F51EA22EFCFE8F102EE38F0AF
:1004A4009E51E9269F51EA22EFCFE7F102EE37F0A1
:1004B4009E51E9269F51EA22EFCFE6F102EE27F0A2
:1004C4009E51E9269F51EA22EFCFE4F102EE28F093
:1004D4009E51E9269F51EA22EFCFE5F102EE1FF08B
:1004E4009E51E9269F51EA22EFCFE2F102EE1FF07E
:1004F4009E51E9269F51EA22EFCFE9F102EE1BF06B
:100504009E51E9269F51EA22EF50006E00AE07D0BB
:10051400E4C1E8FFE00BD8A4E4C1E9F111D0000183
:1005240002EE1CF09E51E9269F51EA22EF50006E24
:1005340000A006D0E5C1E8FFE00BD8A4E5C1E9F1CD
:10054400000CF8C1E8FF2A0DF3CFF6FFF4CFF7FF54
:1005540002EE1EF0F650E926F750EA22EF50006E44
:1005640000B208D014AE08D0F8C1E8FF0101F719B1
:10057400D8B402D0000E01D0010E1200B5002A0E2C
:10058400026E036AB5C000F0B6C001F009EC1EF0BB
:1005940004C0F6FF05C0F7FF02EE22F0F650E9268C
:1005A400F750EA22EF500001B76F02EE23F0F65045
:1005B400E926F750EA22EF50B86F02EE24F0F65025
:1005C400E926F750EA22EF50B96F02EE25F0F65013
:1005D400E926F750EA22EF50BA6F080E026E036A5A
:1005E400BCC100F0016AFF0E00060122E3EC1DF01D
:1005F4000450F36E0101BC05070BE16EE1CF01F07D
:10060400010E006E012A02D0D8900036012EFCD7CC
:100614000050D96EF35000EEB7F0E926000EEA223E
:10062400EF50006ED914D8A403D0010E006E01D08F
:10063400006A016A1200B700000101EEF2F0B7513E
:10064400E926B851EA22EF6A01EEEEF0B751E92645
:10065400B851EA22FF0EEF6E2A0E026E036AB7C08B
:1006640000F0B8C001F009EC1EF004C0F6FF05C0AC
:10067400F7FF02EE1DF0F650E926F750EA22EF509C
:10068400006E00B04ED002EE1BF0F650E926F75093
:10069400EA22EF50006E00AA44D002EE1BF0F6509E
:1006A400E926F750EA22EF50006E00B63AD002EE87
:1006B4001DF0F650E926F750EA22EF50006E00B222
:1006C40030D002EE1CF0F650E926F750EA22EF5043
:1006D400006E00B826D002EE1CF0F650E926F75062
:1006E400EA22EF50006E00B41CD002EE1EF0F65069
:1006F400E926F750EA22EF50006E00A208D000016C
:10070400F7C1E8FFB71901E1B853D8A40AD014AE71
:100714000BD00001F7C1E8FFB71901E1B853D8B411
:1007240003D0010E006E1ED012EE39F0F650E12611
:10073400F750E222000101EEF2F0B751E926B85178
:10074400EA22E7CFEFFF12EE38F0F650E126F75039
:10075400E22201EEEEF0B751E926B851EA22E7CFE2
:10076400EFFF006A016A1200B500B5C0B7F0B6C069
:10077400B8F062DF01500010D8B409D0000101EED6
:10078400D2F0B551E926B651EA22000E41D000015B
:1007940002EE1CF09E51E9269F51EA22EF50006EB2
:1007A40000A208D0000101EED2F0B551E926B651FD
:1007B400EA22EF6AE4C1E8FFE00BD8A40DD0E5C15A
:1007C400E8FFE00BD8A408D0000101EED2F0B55147
:1007D400E926B651EA22EF6A000101EED2F0B551E2
:1007E400E926B651EA22EF50006E150E005CD8A03F
:0C07F40013D0E1C1E8FF1F0B0101E31965
:10080000D8B40CD0000101EED2F0B551E926B651B2
:10081000EA22150EEF6E010E006E01D0006A016A29
:100820001200B300B3C0B5F0B4C0B6F014DEE8C136
:10083000E8FF0101E35DD8A002D0010E01D0000E57
:100840001200B300B3C0B5F0B4C0B6F004DEE3C12B
:10085000E8FF0101E86102D0010E01D0000E120094
:10086000B300B3C0B5F0B4C0B6F0F5DDE7C1E8FF42
:100870000101E36102D0010E01D0000E1200B300AD
:10088000B3C0B5F0B4C0B6F0E6DDE3C1E8FF0101E6
:10089000E75DD8A002D0010E01D0000E1200B30017
:1008A000B3C0B5F0B4C0B6F06CDE01500010D8A4EF
:1008B0001FD0B3C0B5F0B4C0B6F059DF015000107E
:1008C000D8A416D0000102EE1DF09E51E9269F51DA
:1008D000EA22EF50006E00BA0BD0000102EE1EF0CB
:1008E0009E51E9269F51EA22EF50006E00A002D0EF
:1008F000010E01D0000E1200B800D96EE7C1E8FF6A
:10090000D96001D015D0D9500101E86101D010D0D3
:100910000001B8510101E86101D00AD0E7C1E8FF48
:100920000001B86101D004D0D9500001B86102D0F3
:10093000000E64D0026A000102EE2BF09E51E926FF
:100940009F51EA22EF500001B96F000102EE2CF036
:100950009E51E9269F51EA22EF500001BA6F000133
:1009600002EE2DF09E51E9269F51EA22EF50000140
:10097000BB6F000102EE2EF09E51E9269F51EA2244
:10098000EF500001BC6FD950F36EF46AF3CF00F062
:10099000F4CF01F0D89001320032D8900132003209
:1009A000D890013200320050036EF350070BE96E0D
:1009B000E9CF01F0010E006E012A02D0D890003676
:1009C000012EFCD70050E16E14D0035000EEB9F0B8
:1009D000E926000EEA22EF50006EE114D8A4022AA4
:1009E000D890E136E150D8A403D0010EE16E032A7D
:1009F000D92AD9500001B861E8D702501200010E7F
:100A00000001B56F000102EE1BF09E51E9269F51D7
:100A1000EA22EF50006E00AE27D0E3C1E8FF0101EB
:100A2000E16112D0E9C1E8FFA00BD8B43FD00101C9
:100A3000E3050001B66F0101E1290001B76FB6516E
:100A4000B86FB7515ADF24D0E1C1E8FF0101E3617B
:100A50002DD0E8C1B6F00101E1290001B76FB65110
:100A6000B86FB7514ADF14D0000102EE1CF09E515E
:100A7000E9269F51EA22EF50006E00A017D0010135
:100A8000E1050001B66FE7C1B7F0B86FB75135DFC8
:100A9000006E00C002F0036A0350800A800F020E4D
:100AA000D8B4025CD8A002D00001B56B0001B551EA
:100AB0001200010E0001B56F000102EE1BF09E5105
:100AC000E9269F51EA22EF50006E00AE0BD00101E3
:100AD000E1290001B76FE8C1B6F0B651B86FB75160
:100AE0000CDF2FD0000102EE1CF09E51E9269F5131
:100AF000EA22EF50006E00A032D0E1C1E8FF010110
:100B0000E36112D0E9C1E8FF600BD8B428D001013D
:100B1000E1050001B66F0101E3290001B76FB6518D
:100B2000B86FB751EADE0DD0E3C1E8FF0101E16122
:100B300016D0E1050001B66FE7C1B7F0B86FB75145
:100B4000DCDE006E00C002F0036A0350800A800FF2
:100B5000020ED8B4025CD8A002D00001B56B00012F
:100B6000B5511200B300B3C0B5F0B4C0B6F073DC39
:100B700046DF0009D8A402D0000E82D0E6C1E8FF0B
:100B8000E00BD8B40AD0E2C100F01F0E0016E6C197
:100B9000E8FF1F0B0018D8A402D0010E71D0E2C1EB
:100BA000E8FF1F0B0101E319D8A403D00101E2BF44
:100BB0000AD0E6C1E8FF1F0B0101E319D8A405D054
:100BC0000101E6AF02D0020E5BD0010ED96E00012A
:100BD00002EE1BF09E51E9269F51EA22EF50006E73
:100BE00000AE29D0E3C1E8FF0101E16111D0E6C107
:100BF00000F01F0E0016E3C1E8FF005CD8B03FD044
:100C0000E2C100F01F0E0016E6C1E8FF1F0B31D055
:100C1000E1C1E8FF0101E36132D00101E6AD23D07B
:100C2000E2C100F01F0E0016E6C1E8FF1F0B00181E
:100C3000D8A4D96A18D0000102EE1CF09E51E92612
:100C40009F51EA22EF50006E00A019D0E6C100F0DB
:100C50001F0E0016E2C1E8FF1F0B005CD8B003D0E6
:100C60000101E6BDD96AE6C100F01F0E0016E3C11E
:100C7000E8FF005CD8B003D00101E6BFD96AD950C3
:100C80001200B300B3C0B5F0B4C0B6F02BEC02F064
:100C900010DF0009D8A402D0000E8AD0E2C100F013
:100CA0001F0E0016E6C1E8FF1F0B0018D8B405D0D0
:100CB000E6C1E8FFE00BD8A402D0010E79D0E2C172
:100CC000E8FF1F0B0101E319D8A403D00101E2BD25
:100CD0000AD0E6C1E8FF1F0B0101E319D8A405D033
:100CE0000101E6AD02D0020E63D0010ED96E000103
:100CF00002EE1BF09E51E9269F51EA22EF50006E52
:100D000000AE17D0E6C1E8FF1F0B0101E36103D07D
:100D10000101E6BDD96AE2C100F01F0E0016E6C16E
:100D2000E8FF1F0B005CD8B042D00101E6AF3FD016
:100D30003DD0000102EE1CF09E51E9269F51EA22AF
:100D4000EF50006E00A033D0E1C1E8FF0101E36184
:100D500013D0E6C1E8FF1F0BE36129D0E6C100F024
:100D60001F0E0016E2C1E8FF1F0B005CD8B01FD0B9
:100D70000101E6AD1CD01AD0E3C1E8FF0101E16139
:100D800016D00101E6AF0AD0E2C100F01F0E001636
:100D9000E6C1E8FF1F0B0018D8A4D96AE6C1E8FF36
:100DA0001F0B0101E36103D00101E6BDD96AD950EF
:100DB0001200B300000101EEEAF0B351E926B4518C
:100DC000EA22640EEF6EE9C1E8FF1F0B0101E3198F
:100DD000D8A409D0000101EEEAF0B351E926B451DC
:100DE000EA22000E40D0E9C1E8FF1F0B0101E11922
:100DF000D8A431D0000102EE1CF09E51E9269F518B
:100E0000EA22EF50006E00A209D0000101EEEAF0E4
:100E1000B351E926B451EA22030E25D0000102EEB7
:100E20001BF09E51E9269F51EA22EF50006E00A26E
:100E300009D0000101EEEAF0B351E926B451EA22EB
:100E4000010E11D0000101EEEAF0B351E926B451D0
:100E5000EA22020E08D0000101EEEAF0B351E926C1
:100E6000B451EA22090EEF6E1200B100000101EE4A
:100E7000D6F0B151E926B251EA22FF0EEF6EB1C0B1
:100E8000B5F0B2C0B6F02BEC02F0B1C0B3F0B2C016
:100E9000B4F006DD006E00C002F0036A03500210D9
:100EA000D8A434D00101F653D8A41AD0B1C0B3F0FD
:100EB000B2C0B4F0B7DC006E00C002F0036A0350A9
:100EC0000210D8A423D0B1C0B3F0B2C0B4F0C9DCD2
:100ED000006E00C002F0036A03500210D8A416D0BE
:100EE000B1C0B3F0B2C0B4F03EDE006E00C002F09C
:100EF000036A03500210D8A40BD0000101EED6F013
:100F0000B151E926B251EA22640EEF6E010EC0D152
:100F1000B1C0B3F0B2C0B4F04DDF010EF36E14B641
:100F200002D08BAEB4D1F36AE1C1E8FF0101E36105
:100F300086D0000102EE1CF09E51E9269F51EA2264
:100F4000EF50006E00A033D00101E9AD11D00001D7
:100F500001EED6F0B151E926B251EA22E7C1E8FF2D
:100F60000101E15D016EE7C1E8FF0101E35D23D10D
:100F7000E9C1E8FF1F0B0101E36101D054D000017A
:100F800001EED6F0B151E926B251EA22E9C1E8FFFB
:100F90001F0BB36FE3C1B4F0E9C1E8FF1F0BB56FDE
:100FA000070EB66FE1C1E8FF03EC02F06FD100015C
:100FB00002EE1BF09E51E9269F51EA22EF50006E8F
:100FC00000AE31D0000101EED6F0B151E926B251A8
:100FD000EA22E1C1E8FF0101E85D016EE3C1E8FF3B
:100FE000E85D006E01500024080FEF6EE9C1E8FFD4
:100FF000E00B200AD8A44BD1000101EED6F0B1518C
:10100000E926B251EA22E1C1B3F0E9C1E8FF1F0BC2
:10101000B46FE3C1B5F0080EB66FE9C1E8FF1F0B6E
:1010200003EC02F033D1000101EED6F0B151E92614
:10103000B251EA22E3C1E8FF0101E15DBFD0E3C1A3
:10104000E8FF0101E16152D0000102EE1BF09E5168
:10105000E9269F51EA22EF50006E00BE3BD000010E
:1010600002EE1CF09E51E9269F51EA22EF50006EDD
:1010700000A030D0000101EED6F0B151E926B25106
:10108000EA22E7C1E8FF0101E15D016EE7C1E8FF87
:101090000101E35D006E01500024080FEF6E0101B5
:1010A000E9BDF5D0000101EED6F0B151E926B2510B
:1010B000EA22E9C1E8FF1F0BB36FE3C1B4F0E9C155
:1010C000E8FF1F0BB56F080EB66FE1C1E8FF03EC38
:1010D00002F0DCD0000101EED6F0B151E926B251A8
:1010E000EA22E1C1E8FF0101E35D68D0000102EE00
:1010F0001BF09E51E9269F51EA22EF50006E00AE90
:1011000078D002EE1BF09E51E9269F51EA22EF5063
:10111000006E00B00BD0000102EE1DF09E51E926DA
:101120009F51EA22EF50006E00A809D0000101EEA5
:10113000D6F0B151E926B251EA22000EA7D0E2C1A1
:10114000E8FF1F0B0101E319D8B468D0E9C1E8FF3B
:101150001F0B0101E36162D0E9C1E8FFE00B200A47
:10116000D8A417D0000101EED6F0B151E926B25152
:10117000EA22E1C1B3F0E9C1E8FF1F0BB46FE3C19C
:10118000B5F0080EB66FE9C1E8FF1F0B03EC02F0E3
:10119000EF6E0101E9AF14D0000101EED6F0B151BC
:1011A000E926B251EA22E1C1E8FF0101E85D016EE2
:1011B000E3C1E8FFE85D006E01500024080F66D02F
:1011C000000101EED6F0B151E926B251EA22E1C1A7
:1011D00000F0E9C101F01F0E01160050015C016E24
:1011E000E7C100F0E9C102F01F0E02160050025CD8
:1011F000E2D7000102EE1CF09E51E9269F51EA223F
:10120000EF50006E00A03AD0E9C1E8FF1F0B0101CA
:10121000E319D8A418D00101E9AF09D0000101EE0B
:10122000D6F0B151E926B251EA22010E2FD00101C8
:10123000E9BD8DD6000101EED6F0B151E926B251DB
:10124000EA22030E23D00101E9BD81D6000101EE9F
:10125000D6F0B151E926B251EA22E9C1E8FF1F0BED
:10126000B36FE3C1B4F0E9C1E8FF1F0BB56F080E1F
:10127000B66FE1C1E8FF03EC02F008D0000101EE17
:10128000D6F0B151E926B251EA22020EEF6EF350C8
:101290001200B100B1C0B5F0B2C0B6F02BEC02F054
:1012A000000101EECAF0B151E926B251EA22FF0E67
:1012B000EF6EB1C0B3F0B2C0B4F050EC04F0006E09
:1012C00000C002F0036A03500210D8A436D0010116
:1012D000F653D8A41CD0B1C0B3F0B2C0B4F022EC25
:1012E00004F0006E00C002F0036A03500210D8A49C
:1012F00024D0B1C0B3F0B2C0B4F040EC04F0006E42
:1013000000C002F0036A03500210D8A416D0B1C086
:10131000B3F0B2C0B4F0B6DC006E00C002F0036AF5
:1013200003500210D8A40BD0000101EECAF0B15155
:10133000E926B251EA22640EEF6E010ECBD1B1C0A4
:10134000B3F0B2C0B4F036DD010EF36E11B002D0CE
:101350008BACBFD1F36AE1C1E8FF0101E3614ED07C
:10136000000102EE1BF09E51E9269F51EA22EF5048
:10137000006E00AE2ED0000101EECAF0B151E92698
:10138000B251EA22E1C1E8FF0101E85D016EE3C16B
:10139000E8FFE85D006E01500024080FEF6E0101C8
:1013A000E9BF97D1000101EECAF0B151E926B2516F
:1013B000EA22E1C1B3F0E9C1E8FF1F0BB46FE3C15A
:1013C000B5F0080EB66FE9C1E8FF1F0B03EC02F0A1
:1013D0007FD1000102EE1CF09E51E9269F51EA22C6
:1013E000EF50006E000101EECAF0B151E926B25192
:1013F000EA22E3C1E8FF0101E15D26D0E3C1E8FF95
:101400000101E161A1D0000102EE1BF09E51E9262D
:101410009F51EA22EF50006E00AE4AD00101E9AFC1
:1014200015D0000101EECAF0B151E926B251EA220D
:10143000E1C1E8FF0101E85D016EE3C1E8FF0101E0
:10144000E85D006E01500024080F42D1E9C100F0B0
:101450001F0E0016E3C1E8FF005CD8B012D00001F7
:1014600001EECAF0B151E926B251EA22B36BE3C1F1
:10147000B4F0E1C1B5F0080EB66F000E03EC02F057
:1014800027D1000101EECAF0B151E926B251EA229A
:10149000E1C1B3F0E9C1E8FF1F0BB46FE3C1B5F0E0
:1014A000070EB66FE9C1E8FF1F0B03EC02F010D185
:1014B000000102EE1CF09E51E9269F51EA22EF50F6
:1014C000006E00A035D0000101EECAF0B151E9264E
:1014D000B251EA22E9C1E8FF1F0B0101E15D016E93
:1014E000E9C1E8FF1F0B0101E85D006E0150002417
:1014F000080FEF6EE9C1E8FFE00B200AD8A4E9D09D
:10150000000101EECAF0B151E926B251EA22E9C167
:10151000E8FF1F0BB36FE3C1B4F0E9C1E8FF1F0B95
:10152000B56F080EB66FE1C1E8FF03EC02F0D0D052
:10153000000101EECAF0B151E926B251EA22E1C13F
:10154000E8FF0101E35D80D7000102EE1CF09E512F
:10155000E9269F51EA22EF50006E00A06DD002EE06
:101560001BF09E51E9269F51EA22EF50006E00B019
:101570000BD0000102EE1DF09E51E9269F51EA2298
:10158000EF50006E00A809D0000101EECAF0B15181
:10159000E926B251EA22000E9BD0E2C1E8FF1F0B00
:1015A0000101E319D8B45DD0E9C100F01F0E0016A7
:1015B000E3C1E8FF005CD8B054D0E9C1E8FFE00B1C
:1015C000200AD8A418D0000101EECAF0B151E926D2
:1015D000B251EA22E9C1E8FF1F0BB36FE3C1B4F0D7
:1015E000E9C1E8FF1F0BB56F080EB66FE1C1E8FF58
:1015F00003EC02F06DD00101E9AD11D0000101EE64
:10160000CAF0B151E926B251EA22E7C1E8FF01016F
:10161000E15D016EE7C1E8FF0101E35D12D7000162
:1016200001EECAF0B151E926B251EA22E9C1E8FF60
:101630001F0B0101E15D00D7000102EE1BF09E517E
:10164000E9269F51EA22EF50006E00AE39D0E2C188
:10165000E8FF1F0B0101E319D8A418D00101E2AD86
:1016600009D0000101EECAF0B151E926B251EA22D7
:10167000010E2ED00101E2BFD4D6000101EECAF066
:10168000B151E926B251EA22030E22D00101E9BF8D
:10169000C8D6000101EECAF0B151E926B251EA22E2
:1016A000E1C1B3F0E9C1E8FF1F0BB46FE3C1B5F0CE
:1016B000080EB66FE9C1E8FF1F0B03EC02F008D07B
:1016C000000101EECAF0B151E926B251EA22020E40
:1016D000EF6EF35012008B9C0101B96B1190109EBC
:1016E0000201046B139A13980101D26B0101D36BB1
:1016F0000101D46B0101D56B12008B9E0101C06BFF
:10170000149614940201056B139C139E0101D26B75
:101710000101D36B0101D46B0101D56B1200F7C13C
:10172000E8FF2A0DF3CFF6FFF4CFF7FF02EE1EF02D
:10173000F650E926F750EA22EF50006E00A202D0E0
:10174000148E01D0149E010E0001AE6FD96A010102
:10175000E06BFF0EE8CFDFF10001AF6B0001AF518E
:10176000B76FB86B1EEC03F001500010D8A40DD079
:101770000001AF51B56FB66BC1EC02F00150001023
:10178000D8A40BD00001AE6B08D00001AF5101EE20
:10179000D2F0E926000EEA22EF6A0001AF5101EE15
:1017A000F2F0E926000EEA22EF500101E06109D0D3
:1017B0000001AF5101EEF2F0E926000EEA22EFCF70
:1017C000E0F10001AF5101EEEEF0E926000EEA2251
:1017D000EF50006EDFC1E8FF005CD8B008D0AF5119
:1017E00001EEEEF0E926000EEA22EFCFDFF1000174
:1017F000AF2B030EAF65B2D70101F653D8A417D0B3
:10180000BCC100F0FF0E0024026E036AFF0E03222B
:10181000DFC100F0016A0150800A046E0350800AA3
:10182000045C02E10250005CD8B055DF16D0DFC185
:1018300000F0016ABCC102F0FF0E0224F66EF76AE6
:10184000FF0EF722F750800A026E0150800A025CF8
:1018500002E10050F65CD8A03EDFF7C1E8FFDBEC08
:1018600018F00009D8A403D0010E0001AE6F0001EA
:10187000AE51D8A498D0BCC100F0FF0E0024026E77
:10188000036AFF0E0322E0C100F0016A0150800AE2
:10189000046E0350800A045C02E10250005CD8A090
:1018A00082D014A031D0DC0E0101C06131D0C05310
:1018B000D8B42ED00101F653D8A402D0D96A02D0F0
:1018C000010ED96EBCC100F0FF0E0024026E036A47
:1018D000FF0E0322D950E0C100F0016A0026000E7D
:1018E00001220350800A046E0150800A045C02E168
:1018F0000050025CD8A08BBE0BD08B8E1486149443
:10190000030EE8CF05F204D00101C06B139E139CB7
:1019100010AA40D0DC0E0101B96147D0B953D8B448
:1019200044D0BCC100F0FF0E0024026E036AFF0E1B
:101930000322DFC100F0016A0150800A046E0350E7
:10194000800A045C02E10250005CD8A004D00101CE
:10195000F653D8B42AD00101F653D8A407D0010E0B
:101960000101BC6522D08BBC20D007D0F7C1E8FFB5
:10197000EAEC15F00009D8A407D08B8C1180109EDA
:10198000030EE8CF04F211D08B9C1190109E02013F
:10199000046B0BD00101B96B139A13980101F65334
:1019A000D8B403D0F1D797DEA8DE1200D96ED95093
:1019B0002A0DF3CFF6FFF4CFF7FFE9501F0BF36EBC
:1019C00002EE1FF0F650E926F750EA22EF50E16EE2
:1019D0001092119E119CF3CF00F0016ABCC102F07D
:1019E000FF0E0224F66EF76AFF0EF7220150F71879
:1019F00002E10050F618D8A419D0BCC1E8FF0101DB
:101A0000B76314D014B202D010AC32D010A030D0D2
:101A100010A409D0E1AE03D0118E108229D0E1AC20
:101A200027D0118CFAD714A2FCD7F6D7D9500101D0
:101A3000C16313D0D9500101BA630FD0BCC1E8FF14
:101A40000101B76102D010AC118EB7C1E8FF0101EE
:101A5000BC610ED014A2118C0BD0D9500101C1630E
:101A600002D0118E05D0D9500101BA6301D0118C7A
:101A700010A21FD00A0E016EB5C1E8FFB5EC1DF033
:101A80000050E8CFB5F111AE09D0040E0101B565E3
:101A900002D0149A01D0148A8A9218D011AC16D0B0
:101AA000040E0101B56502D08A9201D08A82149A8F
:101AB0000DD011AE02D0148A06D011AC03D08A82A8
:101AC000149A02D0149A8A920101B56B14AA02D01A
:101AD0008A8001D08A9012001590000CE8CF00F0A7
:101AE000016A00C0B5F001C0B6F02BEC02F0E1C114
:101AF000E8FF1F0B0101E319D8A44ED014BC0BD092
:101B0000000102EE1BF09E51E9269F51EA22EF50A0
:101B1000006E00B00DD014AC3FD0000102EE1DF0FD
:101B20009E51E9269F51EA22EF50006E00A834D062
:101B3000000102EE1BF09E51E9269F51EA22EF5070
:101B4000006E00BE07D0000E006A016A0101F66354
:101B5000002A03D0010E006E016A01500010D8B4B3
:101B600008D0BADF0009D8A404D08B9E14960201D5
:101B7000056B000102EE1CF09E51E9269F51EA22FE
:101B8000EF50006E00A008D0A7DF0009D8A404D051
:101B90008B9C11900201046B1200D96AD9509EDF10
:101BA000D92A030ED964FAD71200938693940F01B1
:101BB0006F8F6F9D6F9B12000F01718F718D7295EA
:101BC00072937281719571837191719B7199718713
:101BD000709F709D709B70897097709570837081F5
:101BE000708B709970977085708370811200AE0051
:101BF000D96EAEC000F0AFC001F0050ED89000362F
:101C00000136E82EFBD7E00E00140001AE6F015044
:101C1000AF6F030EB217B36BB2C0F3FFB3C0F4FFE4
:101C2000F350AE13F450AF13B0C000F0B1C001F0E8
:101C300042D04DD00001AFC004FFAEC005FF0F0180
:101C400005870150E8CF06FF00C007FF4CD0000118
:101C5000AFC008FFAEC009FF0F0109870150E8CFF0
:101C60000AFF00C00BFF3FD00001AFC00CFFAEC0A9
:101C70000DFF0F010D870150E8CF0EFF00C00FFFD1
:101C800032D00001AFC010FFAEC011FF0F011187AD
:101C90000150E8CF12FF00C013FF25D00001AFC0F4
:101CA00014FFAEC015FF0F0115870150E8CF16FFD6
:101CB00000C017FF18D0D950BCE0010ABBE0030AEE
:101CC000C6E0010AD1E0070ADCE0010AE7E0000112
:101CD000AFC000FFAEC001FF0F0101870150E8CF88
:101CE00002FF00C003FF1200AE00D96EAEC000F0CC
:101CF000AFC001F0050ED89000360136E82EFBD7B4
:101D0000E00E00140001AE6F0150AF6F030EB2176A
:101D1000B36BB2C0F3FFB3C0F4FFF350AE13F45093
:101D2000AF13B0C000F0B1C001F00CD00FD0000173
:101D3000AFC01CFFAEC01DFF0150E8CF1EFF00C0AA
:101D40001FFF0ED0D950F2E0010AF1E00001AFC050
:101D500018FFAEC019FF0150E8CF1AFF00C01BFFEB
:101D60001200AE00D96EAEC000F0AFC001F0050E9B
:101D7000D89000360136E82EFBD7E00E00140001A3
:101D8000AE6F0150AF6F030EB217B36BB2C0F3FF6B
:101D9000B3C0F4FFF350AE13F450AF13B0C000F073
:101DA000B1C001F01BD020D00001AFC031FFAEC0E8
:101DB00032FF0F0132870150E8CF33FF00C034FFFC
:101DC0001FD00001AFC021FFAEC022FF0F0122874C
:101DD0000150E8CF23FF00C024FF12D0D950E3E028
:101DE000010AE2E0030AEDE00001AFC041FFAEC02E
:101DF00042FF0F0142870150E8CF43FF00C044FF7C
:101E00001200AE00D96E07D00CD0AEC035FF0BD09B
:101E1000AEC025FF08D0D950F7E0010AF6E0030A6A
:101E2000F7E0AEC045FF1200766A756AD96AD950EC
:101E300002EE06F0E926000EEA22EF50006E790E5F
:101E4000005CD8A01FD0D9502A0DF3CFF6FFF4CFF5
:101E5000F7FFE16AE150F624006E000EF720016EF4
:101E60001A0E0024E96E020E0120EA6EEF6AE12AE2
:101E7000290EE164EFD7D95002EE06F0E926000EF4
:101E8000EA22EF6AD92A030ED964D1D7640E02017F
:101E9000016503D077DA0201016B120000C2F6FF80
:101EA000F76AF36AF46A070ED890F336F436E82E30
:101EB000FBD7F350F610E8CFA4F0F450F710E8CFBA
:101EC000A5F0F7C104F0056A066A076A020ED89009
:101ED0000436053606360736E82EF9D703C200F079
:101EE000016A026A036A005004120150051202508E
:101EF0000612035007120E0ED89004360536063629
:101F00000736E82EF9D7B6C100F0016A026A036A03
:101F1000005004120150051202500612035007121D
:101F200004C0A6F005C0A7F006C0A8F007C0A9F03D
:101F300012006150F76EF66A6250F36EF46AF35065
:101F4000F610E8CFA2F0F450F710E8CFA3F0050E9A
:101F5000006E00EEA2F0002804D0D890EC32ED52D2
:101F6000EF32E82EFAD76250030B0001F86FF96BDD
:101F7000FA6BFB6B100EF8C000F0F9C001F0FAC06C
:101F800002F0FBC003F023EC1EF000C0AAF001C079
:101F9000ABF002C0ACF003C0ADF06350006E016A5C
:101FA000026A036A02C003F001C002F000C001F03F
:101FB000006A00EEAAF00050EE120150EE1202503C
:101FC000EE120350ED12ED52ED526450006E016AB4
:101FD000026A036A00EEAAF00050EE120150EE12FF
:101FE0000250EE120350ED12ED52ED52AAC000F075
:101FF000ABC001F0ACC002F0ADC003F0006AC00E8F
:102000000116026A036A0E0E2EEC1EF00050D96E05
:10201000D950030BE8CF02F2D950030BE8CFF8F107
:1020200012003CDFE16AA4C0AEF0A5C0AFF0000131
:10203000B06BB16BB26BB36BE150DADDE12A050E28
:10204000E164F1D712002ADF15AC15D07F0E000134
:10205000AE6FAF6BB06BB16BB26BB36B000E45DEA6
:102060007F0E0001AE6FAF6BB06BB16BB26BB36B39
:10207000010E3BDE12D00001AE6BAF6BB06BB16BEB
:10208000B26BB36B000E31DE0001AE6BAF6BB06BA9
:10209000B16BB26BB36B010E28DE12000F0140B7BB
:1020A0003DD00101FF53D8B439D003C2E8FF02018B
:1020B000026334D0F3DEFCC1AEF0000EA3DEA4C098
:1020C000AEF0A5C0AFF000EEB0F0A6C0EEFFA7C026
:1020D000EEFFA8C0EEFFA9C0EEFF000E43DEFBC17D
:1020E0000AF20AC246FF0BC247FF0CC248FF0DC2EC
:1020F00049FF0EC24AFF0FC24BFF10C24CFF11C274
:102100004DFFA56AA5840F0140870101FE6B020106
:102110000453D8B403D00201010E040712000F01CA
:1021200030B73DD00101FF53D8B439D003C2E8FF26
:102130000201026334D0B2DEFDC1AEF0010E62DEF8
:10214000A4C0AEF0A5C0AFF000EEB0F0A6C0EEFFA8
:10215000A7C0EEFFA8C0EEFFA9C0EEFF010E02DE91
:10216000FBC10AF20AC236FF0BC237FF0CC238FFAE
:102170000DC239FF0EC23AFF0FC23BFF10C23CFF37
:1021800011C23DFFA56AA5860F0130870101FE6BD4
:1021900002010553D8B403D00201010E0507120055
:1021A000A4AE02D0A49EEDD0A4AC02D0A49CE9D0F1
:1021B000A4AA2BD0A49A0F0174AF02D00F01749F70
:1021C0000F0174AD02D00F01749D0F0174AB02D0EA
:1021D0000F01749B0F0174A902D00F0174990F01B4
:1021E00074A702D00F0174970F0174A502D00F01DC
:1021F00074950F0174A302D00F0174930F0174A1A1
:1022000002D00F017491746ABCD0A4A202D0A4922F
:10221000B8D0A4A0B6D00201016B8BDE0001ABAB3D
:1022200087D0AAA746D0040EF66EF76AD890F63685
:10223000F736D890F636F736D890F636F73602C22B
:10224000E8FF2A0DF650F324026EF750F420036ED7
:10225000660ED96E0F0EDA6EF36AF46AF350D92463
:10226000E96EF450DA20EA6E02C000F003C001F01B
:10227000F3500026F45001221A0E0024E16E020EE3
:102280000120E26EEFCFE7FFF34AF42A000EF45C80
:10229000080ED8B4F35CD8A0E1D7010EE8CFFFF167
:1022A00002C2E8FF02EE06F0E926000EEA22EF6A1B
:1022B00065D00101FF6BAAC0E8FF070BF66EF76A55
:1022C000D890F636F736D890F636F736D890F636F8
:1022D000F73602C2E8FF2A0DF650F324026EF750DB
:1022E000F420036E660ED96E0F0EDA6EF36AF46A8E
:1022F000F350D924E96EF450DA20EA6E02C000F0FF
:1023000003C001F0F3500026F45001221A0E0024FD
:10231000E16E020E0120E26EEFCFE7FFF34AF42AEE
:10232000000EF45C080ED8B4F35CD8B027D0E0D728
:102330000101FF6BA3EC02F00009D8B41FD0660EB8
:10234000D96E0F0EDA6EF36AF46AF350D924E16E97
:10235000F450DA20E26E02EE12F0F350E926F45067
:10236000EA22E7CFEFFFF34AF42A000EF45C080EEE
:10237000D8B4F35CD8A0E9D724EC19F0A4900F01ED
:10238000609F120012DC18DC0F01738B7399729D31
:10239000609F608D609B60956091609B6093509F93
:1023A000508D509B509550835091509B01870587CD
:1023B00009870D871187158734DE45DE0F01459D9E
:1023C000409730972097A592A46AA39EA39CA38AC6
:1023D000A398A396A394A382A3806F9F6F9D6F9BE6
:1023E000F36AF46A02EE1AF0F350E926F450EA2296
:1023F000000EEF6AF34AF42AF45CA80ED8B4F35C3A
:10240000D8B01200EFD7D96ED9502A0DF3CFF6FF0E
:10241000F4CFF7FF15BC21D002EE20F0F650E926EC
:10242000F750EA22EF50430AD8A417D002EE21F069
:10243000F650E926F750EA22EF504D0AD8A40DD005
:1024400002EE1BF0F650E926F750EA22EF50006E3C
:1024500000BA03D0A2C000F215841200D96ED95080
:102460002A0DF3CF02F0F4CF03F01194129202EE92
:1024700041F00250E9260350EA22EF500101B6195B
:10248000D8B4128202EE20F00250E9260350EA226C
:10249000EF504A0AD8A416D002EE21F00250E926E5
:1024A0000350EA22EF50440AD8A40CD002EE1BF0ED
:1024B0000250E9260350EA22EF50006E00BA02D023
:1024C000138201D0139213B249D102EE39F00250B7
:1024D000E9260350EA22EFCFBEF102EE1AF00250D5
:1024E000E9260350EA22EFCFB7F110D0010E0BD04E
:1024F000020E09D0040E07D0080E05D0100E03D02E
:10250000200E01D0400EE8CFC3F115D002EE1AF034
:102510000250E9260350EA22EF50010AE7E0030ADD
:10252000E7E0010AE7E0070AE7E0010AE7E0030A5B
:10253000E7E0010AE7E002EE1DF00250E926035051
:10254000EA22EF50006E00A402D00101C38FC3C184
:102550008CFF02EE1DF00250E9260350EA22EF50F4
:10256000006E00AA02D08A8E01D08A9E02EE1BF075
:102570000250E9260350EA22EF50006E00AE02D06E
:102580008B8A01D08B9A02EE1CF00250E926035090
:10259000EA22EF50006E00A002D08A8801D08A980B
:1025A000129C14AC0BD002EE1DF00250E926035031
:1025B000EA22EF50006E00A80BD009D002EE1BF00B
:1025C0000250E9260350EA22EF50006E00B0128C50
:1025D000109602EE1BF00250E9260350EA22EF505B
:1025E000006E00B21086109402EE1CF00250E92634
:1025F0000350EA22EF50006E00B210848A9A02EE75
:102600001CF00250E9260350EA22EF50006E00BE93
:102610008A8A8A9C02EE1BF00250E9260350EA22C5
:10262000EF50006E00BC8A8C149202EE1BF0025038
:10263000E9260350EA22EF50006E00BE1482109C7F
:1026400002EE1CF00250E9260350EA22EF50006E21
:1026500000B0108C149802EE1DF00250E9260350D1
:10266000EA22EF50006E00B01488139002EE1DF0C5
:102670000250E9260350EA22EF50006E00B21380A8
:10268000139402EE1DF00250E9260350EA22EF50A7
:10269000006E00B41384119602EE1CF00250E9267D
:1026A0000350EA22EF50006E00B81186129602EE37
:1026B0001CF00250E9260350EA22EF50006E00B4ED
:1026C0001286129402EE1CF00250E9260350EA2210
:1026D000EF50006E00BA1284119202EE1BF002500D
:1026E000E9260350EA22EF50006E00B611821396DD
:1026F00002EE1DF00250E9260350EA22EF50006E70
:1027000000BE1386109802EE1DF00250E926035019
:10271000EA22EF50006E00BC1088109002EE1BF011
:102720000250E9260350EA22EF50006E00BA1080F2
:10273000129E02EE1BF00250E9260350EA22EF50EF
:10274000006E00B4128E119A02EE1DF00250E926BE
:102750000350EA22EF50006E00BA118A000C13B445
:1027600015D00B0ED96ED95012EEC3F0E126000E33
:10277000E222D95002EED3F0E926000EEA22E7CF9A
:10278000EFFFD92A0F0ED964EED760D014B202D071
:1027900010AC48D00B0E026E036A010EB3C100F0FC
:1027A000016A0026000E0122E3EC1DF000C0B3F127
:1027B000080E0101B3614CD0B3C1E8FF0708E16E18
:1027C0000B0ED96EE1CF00F014A20FD0D95002EE5B
:1027D000C3F0E926000EEA22EF50016E002A02D073
:1027E000D8900136002EFCD70ED0D95002EEC3F09F
:1027F000E926000EEA22EF50016E002A02D0D8909E
:102800000132002EFCD70150F36ED95002EED3F006
:10281000E926000EEA22F3CFEFFFD92A0F0ED96482
:10282000D1D716D00B0ED96ED95012EEC3F0E126D7
:10283000000EE222D95002EED3F0E926000EEA2281
:10284000E7CFEFFFD92A0F0ED964EED70101B36BA2
:10285000120011B202D010B046D00101C7291F0BDF
:10286000E8CFC7F1C7C1D9FFF36A150ED96023D0ED
:1028700011A20AD0D9CF00F0016A0050970FF66E6E
:102880000150F76E030E0BD010B013D0D9CF00F06B
:10289000016A0050AD0FF66E0150F76E030EF7227D
:1028A000F35002EED3F0E926000EEA220800F5CF3D
:1028B000EFFFD92A13D0D95012EEAEF0E126000E68
:1028C000E222F35002EED3F0E926000EEA22E7CF2F
:1028D000EFFFD92A1F0ED96401D0D96AF32A0A0E54
:1028E000F364C3D7B2D011A613B602D011AA5BD03D
:1028F000270E026E036A010EC7C100F0016A0026AE
:10290000000E0122E3EC1DF000C0C7F1C7C1D9FFE2
:10291000F36A1C0ED9602FD011A60AD0D9CF00F0CF
:10292000016A00507B0FF66E0150F76E030E17D050
:1029300013A60AD0D9CF00F0016A00505F0FF66EDF
:102940000150F76E030E0BD011AA13D0D9CF00F0AF
:10295000016A0050430FF66E0150F76E030EF72226
:10296000F35002EED3F0E926000EEA220800F5CF7C
:10297000EFFFD92A13D0D95012EEA7F0E126000EAE
:10298000E222F35002EED3F0E926000EEA22E7CF6E
:10299000EFFFD92A260ED96401D0D96AF32A0A0E8C
:1029A000F364B7D752D012BE02D013A050D03F0E5E
:1029B000026E036A010EC7C100F0016A0026000E14
:1029C0000122E3EC1DF000C0C7F1C7C1D9FFF36AD3
:1029D000340ED96023D013A00AD0D9CF00F0016AF9
:1029E0000050C30FF66E0150F76E030E0BD012AEFF
:1029F00013D0D9CF00F0016A00500F0FF66E0150CE
:102A0000F76E030EF722F35002EED3F0E926000E24
:102A1000EA220800F5CFEFFFD92A13D0D95012EEE1
:102A20008FF0E126000EE222F35002EED3F0E92609
:102A3000000EEA22E7CFEFFFD92A3E0ED96401D07B
:102A4000D96AF32A0A0EF364C3D7128A88D612AA67
:102A500017D011980101C76BD96AD95012EEC3F093
:102A6000E126000EE222D95002EED3F0E926000E54
:102A7000EA22E7CFEFFFD92A0A0ED964EED7129ADD
:102A800011A86DD613B417D011980101C76BD96A7C
:102A9000D95012EEC3F0E126000EE222D95002EE28
:102AA000D3F0E926000EEA22E7CFEFFFD92A0A0E7B
:102AB000D964EED754D614B202D010AC74D0090E3B
:102AC000026E036A010EC7C100F0016A0026000E03
:102AD0000122E3EC1DF000C0C7F1D96A14A224D092
:102AE000D95012EED3F0E126000EE222D95002EEC8
:102AF000D3F0E926000EEA22EF50006ED8900030A5
:102B0000E76EC7C1E8FF0808006ED95002EEC3F0B7
:102B1000E926000EEA22EF50016E002A02D0D8907A
:102B20000136002EFCD723D0D95012EED3F0E12687
:102B3000000EE222D95002EED3F0E926000EEA227E
:102B4000EF50006ED8900034E76EC7C1E8FF080868
:102B5000006ED95002EEC3F0E926000EEA22EF50D3
:102B6000016E002A02D0D8900132002EFCD701500D
:102B7000F36ED95012EED3F0E126000EE222D950C6
:102B800002EED3F0E926000EEA22EF50006EF310B9
:102B9000E76EC7C1E8FF080AD8B41198D92A0A0E0F
:102BA000D9649CD7DCD511980101C76BD96AD9507B
:102BB00012EEC3F0E126000EE222D95002EED3F06D
:102BC000E926000EEA22E7CFEFFFD92A0A0ED964E0
:102BD000EED7C5D50101F653D8B48BBC01D039D09E
:102BE0000101F653D8B437D0E8CF00F0016A00C035
:102BF000B5F001C0B6F02BEC02F0E1C1E8FF1F0B0D
:102C00000101E319D8A427D0000102EE1BF09E5168
:102C1000E9269F51EA22EF50006E00AA1CD014ACA6
:102C20000BD0000102EE1DF09E51E9269F51EA22D1
:102C3000EF50006E00B80DD014BC0DD0000102EEB4
:102C40001BF09E51E9269F51EA22EF50006E00A032
:102C500002D0000E01D0010E1200B100E8CF00F04A
:102C6000016A00C0B5F001C0B6F02BEC02F0020E14
:102C7000D96E030EE8CFFBF10001B151D8B40DD0ED
:102C8000E3C1E8FF8009E8CF0BF20101F653D8B4A5
:102C900009D0E3C1E8FF200903D0E3C1E8FF400900
:102CA000E8CF0BF20CC2E8FF14AC02D0010901D04E
:102CB000FE0BE8CF0CF2E3C1E8FF0101E16163D054
:102CC0000001B151D8B435D0000102EE1CF09E5184
:102CD000E9269F51EA22EF50006E00A003D0010EBA
:102CE000D96EE0D0E4C1E8FFE00BD8B4DAD0E4C19B
:102CF000E8FF1F0B0101E36101D0D3D0E4C100F074
:102D00001F0E0016E3C1E8FF005CD8B007D0E4C195
:102D1000E8FFE00B400AD8A4E2D7C3D0E4C1E8FF43
:102D20001F0B0101E319D8A4BDD00101E4AFB9D054
:102D30006AD0000102EE1CF09E51E9269F51EA2262
:102D4000EF50006E00B0CBD7E4C1E8FFE00BD8B481
:102D5000A8D0E4C1E8FF1F0B0101E36101D0BFD798
:102D6000E4C100F01F0E0016E3C1E8FF005CD8A02C
:102D7000CED7E4C1E8FF1F0B0101E319D8A492D01C
:102D8000E4C1E8FF3CD0E1C1E8FF0101E3616CD0A0
:102D90000001B151D8B439D0000102EE1BF09E51B0
:102DA000E9269F51EA22EF50006E00BE98D7E5C198
:102DB000E8FFE00BD8B475D0E5C100F01F0E001697
:102DC000E3C1E8FF005CD8B004D0F6C1E8FF020A16
:102DD0000AD0E5C1E8FF1F0B0101E36107D0E5C19F
:102DE000E8FFE00B800AD8B45CD079D7E5C1E8FFF2
:102DF0001F0B0101E319D8A455D0E5C1E8FFE00B92
:102E0000200AD8B44ED0020E6BD7000102EE1BF0A0
:102E10009E51E9269F51EA22EF50006E00BE5FD717
:102E2000E5C1E8FFE00BD8B43CD0E5C100F01F0ECF
:102E30000016E3C1E8FF005CD8A033D0E5C1E8FF8D
:102E40001F0B0101E36105D0E5C1E8FFE00B800A3B
:102E500062D7E5C1E8FF1F0B0101E319D8A422D016
:102E60000101E5BDD0D71DD00001B151D8B40FD0BC
:102E7000000102EE1BF09E51E9269F51EA22EF501D
:102E8000006E00BE0ED00101F653D8B40BD0000185
:102E900002EE1CF09E51E9269F51EA22EF50006E8F
:102EA00000B0D96A000102EE1CF09E51E9269F5144
:102EB000EA22EF50006E00B00FD0000102EE1BF0CE
:102EC0009E51E9269F51EA22EF50006E000E00BE8F
:102ED000010E006E016A03D0010E006E016A0150FE
:102EE0000010D8B4D96AD9501200010E0001AF6F9A
:102EF000B06BFF0EE8CFC1F1E8CFDEF115A00AD02C
:102F0000810EE8CFFBF10101BC052009E8CF0BF2EF
:102F1000006A71D00001AE6B0001AE5101EED6F037
:102F2000E926000EEA22FF0EEF6EAE51B16FB26BD2
:102F300036EC07F0006E00C002F0036A0350021086
:102F4000D8A403D00001AF6BB06B0001AE2B030E11
:102F5000AE65E2D7B051AF11D8A475D00201036BB2
:102F6000D96AD95001EED6F0E926000EEA22EF50D8
:102F7000006E03C2E8FF01EED6F0E926000EEA2259
:102F8000EF50005CD8A025D0D95001EED6F0E9264C
:102F9000000EEA22EF50006E03C2E8FF01EED6F009
:102FA000E926000EEA22EF500018D8A414D0D95018
:102FB00001EEEAF0E926000EEA22EF50006E03C2AD
:102FC000E8FF01EEEAF0E926000EEA22EF50005C8D
:102FD000D8A0D9CF03F2D92A030ED964C2D7040EE0
:102FE0000101DE6102D0DEC103F203C2C1F1010EB4
:102FF00014B603D0006E016A2AD00001B16F03C27B
:10300000E8FF2CDE0001AF6FB06BB051AF11D8A458
:1030100004D0030EE8CFFBF116D00001AF05B011CC
:10302000D8A411D003C2B3F0B46BB3EC05F0000127
:10303000AF6FB06BAF05B011D8A405D0020EE8CFCA
:10304000FBF1AF6BB06BAFC000F0B0C001F012008D
:10305000010E0001AF6FB06BFF0EE8CFBAF1E8CF01
:10306000DEF115A00AD0810EE8CFFBF10101BC050D
:103070002009E8CF0BF2006A71D00001AE6B0001AD
:10308000AE5101EECAF0E926000EEA22FF0EEF6E05
:10309000AE51B16FB26B4AEC09F0006E00C002F0A5
:1030A000036A03500210D8A403D00001AF6BB06BC9
:1030B0000001AE2B030EAE65E2D7B051AF11D8A41C
:1030C00075D00201036BD96AD95001EECAF0E92626
:1030D000000EEA22EF50006E03C2E8FF01EECAF0D4
:1030E000E926000EEA22EF50005CD8A025D0D95086
:1030F00001EECAF0E926000EEA22EF50006E03C28C
:10310000E8FF01EECAF0E926000EEA22EF500018AF
:10311000D8A414D0D95001EEEAF0E926000EEA2234
:10312000EF50006E03C2E8FF01EEEAF0E926000E60
:10313000EA22EF50005CD8A0D9CF03F2D92A030EBF
:10314000D964C2D7040E0101DE6102D0DEC103F2F0
:1031500003C2BAF111B004D0010E006E016A2AD088
:103160000001B16B03C2E8FF79DD0001AF6FB06B06
:10317000B051AF11D8A404D0030EE8CFFBF116D0A4
:103180000001AF05B011D8A411D003C2B3F0B46BE5
:1031900042EC06F00001AF6FB06BAF05B011D8A4E0
:1031A00005D0020EE8CFFBF1AF6BB06BAFC000F003
:1031B000B0C001F01200D96E010E0001B06FD950FD
:1031C000B56FB66B2BEC02F0F6C100F00004D8A48A
:1031D0002AD0000102EE1CF09E51E9269F51EA22FE
:1031E000EF50006E00A20BD0E2C1E8FF1F0B0101FF
:1031F000E319D8A416D0010E0001B06F14D0E1C1BC
:10320000E8FF1F0B0101E319D8B4F5D7000102EE66
:103210001BF09E51E9269F51EA22EF50006E00B24A
:10322000EAD70001B06B0001B0511200010ED96E57
:1032300014AC03D0020114B1D96A14BC03D002014A
:1032400014A1D96AD950120013C200F01F0E001643
:1032500000C0F6FFF76ABCC100F0FF0E0024026E4A
:10326000036AFF0E0322F750031802E1F65002181A
:10327000D8A423D0DBDF0009D8A41FD012C200F0ED
:103280000004D8A40BD0020113AF02D08B9E149679
:10329000020113AD12D08B9C11900FD012C2E8FF27
:1032A000FE0AD8B40AD0020113BF14B401D08B8E29
:1032B000020113BD10BE01D08B8C1200B500E96E67
:1032C00011B40AD026D01F0E05D0060E03D00B0E67
:1032D00001D0070ED96E0AD00001B551F4E0020A00
:1032E000F4E0010AF4E0070AF4E0D96A8B50E00B3D
:1032F000E16ED9108B6EE9CF00F0016A0050040F27
:10330000F66E0150F76E030EF7220800F5508C6E32
:1033100003D0E00E8B168C6A040012000101BC6B16
:1033200080B002D00101BC8180B202D00101BC8317
:1033300080B402D00101BC8580B602D00101BC87F7
:1033400080B802D00101BC89120011A432D0E6DF9E
:103350000A0E016EBCC1E8FFB5EC1DF0D96ED9CFE5
:1033600000F0016A0050000FF66E0150F76E030E78
:10337000F7220800F550D96E8B50E00BE16ED910A2
:103380008B6E0A0E016EBCC1E8FFB5EC1DF000505B
:10339000D96ED9CF00F0016A0050040FF66E0150CB
:1033A000F76E030EF7220800F5508C6E8A988B9A00
:1033B0000BD0E00E8B160A0EF66E030EF76E0800A9
:1033C000F5508C6E8A888B8A12009684968296803D
:1033D000959E959C959A959895969594959295908D
:1033E000949E949C949A9498949694949492949085
:1033F000939E939C939A939893869394939293908D
:10340000928C928A928892869284928292808D94F3
:103410008D928D908C9E8C9C8C9A8C988C968C9492
:103420008C928C908B9E8B9C8B9A8B988B968B948A
:103430008B928B908A9E8A9C8A9A8A988A968A9482
:103440008A828A90899C899A899889968994899296
:1034500089901200F29E4FEC00F0B7DF40EC00F0D4
:103460008B9A8A988A908A928A9C8A9A8B9C8B9E45
:10347000149611901494109E0201056B0201046BC6
:103480001594159C4BDFDDEC1BF0C2EC11F0F28EB5
:1034900011980101B46B129A0101C46B0101C66B52
:1034A0000101D26BBCC1B6F1149C0101F9A106D097
:1034B000BCC1E8FF400FE8CFB6F1148C1292139212
:1034C000050E0101BB6503D0BB6B11743EDFF7C174
:1034D000E8FF03EC12F00400030E0101D265F0D7FF
:1034E00015A404D000C2E8FF5AEC1CF0F29E158C23
:1034F000C2EC11F0F28E11840101BB6B26DF030ECA
:10350000E8CFFCF1E8CFFDF10101FB6B0101BD6BE0
:10351000F6C100F00004D8A403D0020EE8CFBDF13C
:103520000400F7C1E8FF2EEC12F013B209D0F7C186
:10353000E8FFD6EC0CF0CDEC0DF08FEC0BF002D0E8
:103540009AEC1CF00101FF53D8B4EAD702C2E8FF9D
:1035500075EC17F001500010D8A403D08FEC10F0D8
:1035600014D014A613D002010553D8B40FD002C250
:1035700003F2040EE8CFFBF10101BC05D96ED9506E
:103580008009E8CF0BF28FEC10F0129202C2E8FF34
:1035900028EC18F001500010D8A407D00101F65310
:1035A000D8A403D04EEC10F014D011A013D0020117
:1035B0000453D8B40FD002C203F2040EE8CFFBF1DB
:1035C0000101BC05D96ED9504009E8CF0BF24EEC91
:1035D00010F0129212A20AD0F7C103F2FE0EE8CF49
:1035E000FBF102010B6B12924EEC10F00101FF6B2C
:1035F00097D7E8CFFDF2E9CFFCF2EACFFBF2E1CFBB
:10360000FAF2E2CFF9F2D9CFF8F2DACFF7F20EC040
:10361000F6F20DC0F5F20CC0F4F20BC0F3F20AC0E2
:10362000F2F209C0F1F208C0F0F207C0EFF206C0F2
:10363000EEF205C0EDF204C0ECF203C0EBF202C002
:10364000EAF201C0E9F200C0E8F2F7CFE7F2F6CF04
:10365000E6F2F5CFE5F2F4CFE4F2F3CFE3F2F2A431
:103660006BD0F294180ED66EFC0ED76E0101C82BEB
:1036700084B202D0148001D0149084B002D0108A99
:1036800001D0109A0101C52B640EC56555D0C56BDC
:103690000201012BD96AD95002EE06F0E926000E8C
:1036A000EA22EF2AD92A030ED964F5D70101BB2BF0
:1036B0000101B52BDC0E026E036ABDC1E8FF025E9C
:1036C000000E035AC0C100F0016A0150800A046E66
:1036D0000350800A045C02E10250005CD8B002D0C2
:1036E0000101C02BDC0E026E036ABDC1E8FF025E61
:1036F000000E035AB9C100F0016A0150800A046E3D
:103700000350800A045C02E10250005CD8B002D091
:103710000101B92B0101C62B0A0EC6650DD0C66B7F
:10372000D96AD95001EED2F0E926000EEA22EF2A3A
:10373000D92A030ED964F5D7A450D8A4D0EC10F040
:10374000E3C2F3FFE4C2F4FFE5C2F5FFE6C2F6FF11
:10375000E7C2F7FFE8C200F0E9C201F0EAC202F0F6
:10376000EBC203F0ECC204F0EDC205F0EEC206F0CD
:10377000EFC207F0F0C208F0F1C209F0F2C20AF09D
:10378000F3C20BF0F4C20CF0F5C20DF0F6C20EF06D
:10379000F7C2DAFFF8C2D9FFF9C2E2FFFAC2E1FFCD
:1037A000FBC2EAFFFCC2E9FFFDC2E8FFFEC2FAFF6E
:1037B0000FC0E0FFFFC2D8FF1000F70EF66E030E39
:1037C000F76E0800F550E8CFF7F1F80EF66E030E2D
:1037D000F76E0800F5CFC2F2020E0201C26501D0F9
:1037E000C26BF90EF66E030EF76E0800F5CFF9F115
:1037F000010E0101F96501D0F96BFA0EF66E030EA8
:10380000F76E0800F5CFFAF1020E0101FA6501D05A
:10381000FA6BFB0EF66E030EF76E0800F5CFF6F1AD
:10382000FC0EF66E030EF76E0800F550E8CF00F2BE
:10383000120014A00FD0640E0101C06503D0158ED4
:1038400016900FD00101C053D8B402D0168008D012
:10385000169006D00101C06B16A002D016901682F9
:10386000159E10AA0FD0640E0101B96503D015860C
:1038700015980FD00101B953D8B402D0158808D0DB
:10388000159806D00101B96B15A802D01598158AB4
:1038900015961200B2000001B46F050E0101BB6560
:1038A00008D0BB6B11740001B351B56FB4515FEC1C
:1038B00019F012000001AE6FAF6B0001B2C1E8FF5A
:1038C000AF5DD8B017D00001F70EAF25B26FB36B64
:1038D000030EB323B46BB56B18EC1EF0006E000141
:1038E000AF5101EEA7F0E926000EEA2200C0EFFF7B
:1038F000AF2BE3D7AEC0ACF1FCC0B2F0FDC0B3F06B
:10390000B2C1B4F0B50EF66E000EF76E020EF7649B
:1039100007D0FEC0F5FF0D00FFC0F5FF0C0008D07A
:10392000F6CFE9FFF7CFEAFFFEC0EEFFFFC0EFFFE3
:10393000CEEF00F00001B06BB16BB06B0001B2C113
:10394000E8FFB05DD8B017D00001F70EB025B26F18
:10395000B36B030EB323B46BB56B18EC1EF0006EA3
:103960000001B05101EEA7F0E926000EEA2200C0E6
:10397000EFFFB02BE3D704000001B105D8A417D0A6
:10398000020EB16F14D01C0E0001AE6F040E04D0F5
:10399000180E0001AE6F020EAF6F14D0230EF9D7D0
:1039A000160E01D0120E0001AE6F030EF5D7000106
:1039B000B151E9E0010AECE0030AF0E0010AF0E0AD
:1039C000070AF0E00001AE51B26FB151B36FB151CF
:1039D00001EEA7F0E926000EEA22EF505CDF29DFB6
:1039E00016A211D0050E026E036A010EB1C000F0DE
:1039F000016A0026000E0122E3EC1DF000500001D8
:103A0000B16F169223D015AA21D00001B15101EE59
:103A1000A7F0E926000EEA22EF50D96EAFC002F0FF
:103A2000036A010ED9CF00F0016A0026000E0122C0
:103A3000E3EC1DF00050D96EB15101EEA7F0E9267C
:103A4000000EEA22D9CFEFFF159A158215BE02D0DB
:103A500015A691D715A21FD0FCC0B2F0FDC0B3F0DF
:103A6000B2C1B4F0B50EF66E000EF76E020EF7643A
:103A700007D0FEC0F5FF0D00FFC0F5FF0C0008D019
:103A8000F6CFE9FFF7CFEAFFFEC0EEFFFFC0EFFF82
:103A9000CEEC00F0159291DEFF001200010ED96EFF
:103AA00015920101C06B0101B96B0101C86B0101E5
:103AB000C853D8B4FCD7BDDE15AE02D0D96A03D046
:103AC000040014B0F8D7D950D8A42DD00001AE6BA3
:103AD0000001B2C1E8FFAE5DD8B017D00001F70E0B
:103AE000AE25B26FB36B030EB323B46BB56B18EC9A
:103AF0001EF0006E0001AE5101EEA7F0E926000EA7
:103B0000EA2200C0EFFFAE2BE3D7D96A1C0E0001FA
:103B1000B26FB36BA7C1E8FFBEDE8BDE040015AE4B
:103B200015B6F3D707DF15A248D6FCC0B2F0FDC02A
:103B3000B3F0B2C1B4F0B50EF66E000EF76E020E21
:103B4000F76407D0FEC0F5FF0D00FFC0F5FF0C00C5
:103B500008D0F6CFE9FFF7CFEAFFFEC0EEFFFFC0C7
:103B6000EFFFCEEC00F0159228D6006E046AD890D4
:103B7000FD0E01241AE3036AF00E011403E1040EA2
:103B8000036E013A026AD890032A0136FDE301323E
:103B90000150005CD8B0006E0236032EF8D704BE88
:103BA000026C025004BE006C1200013206E20132C7
:103BB000D8A0006AD8900032D8A0D89000C002F0F7
:103BC000006A0036ECD7066A01AE06D0001E004A35
:103BD0000106011E068C068E0350800B061A03AEEA
:103BE0004BEF01F0021E024A0306031E4BEF01F0E9
:103BF0007DEC01F0A684D890F2BED880F29E550EDE
:103C0000A76EAA0EA76EA68200F0D8B0F28EA69478
:103C1000120002500002F3CF04F0F4CF05F00102CD
:103C2000F350052603500002F35005261200B2009F
:103C30000001B251F66EB351F76EB451F86E080040
:103C4000F86AF5501200046E042A0406D8B4000C79
:103C5000D8900036013602360336F7D7046E042AB0
:103C60000406D8B4000CD89003320232013200327C
:103C7000F7D70900F5CFEEFFEA50E262FAD7E95034
:103C8000E162F7D71200EE6AEA50E262FCD7E9502F
:063C9000E162F9D7120009
:020000040030CA
:0E000000FF06160DFF8081FF0FC00FE00F40BE
:020000040000FA
:00000001FF
