:020000040000FA
:100000000CEF00F0D700E803D8CFFFF2FACFFEF2F2
:10001000E0CF0FF095EF17F000EEE7F012EEE3F00F
:1000200008EC1EF000EE10F010EE17F008EC1EF0D9
:1000300000EE73F010EED7F008EC1EF000EED7F0F3
:1000400010EEE7F0700EF66E000EF76E000EF86E12
:1000500000EC1EF000EED3F010EED7F0040EF66EBA
:10006000000EF76E000EF86E00EC1EF022EF16F098
:1000700000000000000000000000000B0000000075
:10008000F28AF294D58ED59CD59AD598D596D594EA
:10009000D582D590180ED66EFC0ED76E1200F29E49
:1000A000F29CF28AF298F296F294F292F290F18E29
:1000B000F19CF19AF198F184F190F06AD58ED59C7B
:1000C000D59AD598D596D594D592D580D390D392FC
:1000D000D29AD288D286D284D292D280D190D09E27
:1000E000D098D096D094D092D0908382CD8ACD886B
:1000F000CD96CD94CD92CD80CA6AC76AC69EC69C65
:10010000C69AC698C696C684C692C680C56AC28A72
:10011000C288C286C284C292C290C186C184C18292
:10012000C180C198C19AC06ABD9ABD98BD96BD9460
:10013000BD82BD80BA9EBA9CBA9ABA98BA96BA9451
:10014000BA92BA80B76AB69EB69CB69AB698B68688
:10015000B694B682B690B56AB49EB49CB49AB4987C
:10016000B496B484B482B480B16AAC6AAB6AA69E19
:10017000A69CA69CA698A696A694A692A690A56ACA
:10018000A46AA36AA26AA16AA06A9F6A9E6A9D6A1B
:10019000969E969C969A96981200890000018C5122
:1001A0003F0BF36EF3508C5F000E8D5B00018B51A3
:1001B000D8B41200D96AF350D95CD8A01FD000017E
:1001C0008B51D8B41BD089C0F6FF8AC0F7FFD95035
:1001D00010EE8FF0E126000EE222020EF76403D04B
:1001E0000800F55005D0F6CFE9FFF7CFEAFFEF5052
:1001F000E76E0001894B8A2B8B071DD0D950000177
:100200008C25006E000E8D21016E00C0F6FF01C02E
:10021000F7FFD95000EE8FF0E926000EEA22020E19
:10022000F76403D00800F55005D0F6CFE1FFF7CF13
:10023000E2FFE750EF6ED92A3F0ED964BCD78CC0DD
:10024000F6FF8DC0F7FF940EA66EBCEC1DF000010A
:100250008E6B00018E5100EE8FF0E926000EEA222F
:10026000EF50F56E8E51D8A402D00C0001D00F00D3
:1002700000018E51070B070AD8B4BCEC1DF0000139
:100280008E2B3F0E8E65E5D7400E8C27000E8D23FA
:10029000F36A8CD7066A046A056A0250031003E108
:1002A000006A016A000C1F0E0612D890062A023658
:1002B0000336FCE3033202320250005C0350015863
:1002C00004E3016E0250005ED88004360536062E27
:1002D00006BAF0D706AE05D0041E042AD8B4050627
:1002E000051E0450026E0550036E06AC000C001E85
:1002F000002AD8B40106011E000CA6A21200FDD7E8
:1003000000003E4141413E001F2040201F007F4928
:10031000494941007F09192946007F40404040007B
:100320003E4141413E007E1111117E007F4141223C
:100330001C00000000007F09090901003F40404007
:100340003F007F40404040007F4040404000000070
:10035000000046494949310001017F0101003E4149
:1003600041413E007F0909090600000000007F09A5
:100370000909010000417F4100007F091929460059
:100380007F4949494100000000007F494949410037
:100390007F020C027F003E4149497A0000000000C4
:1003A00000417F4100007F0408107F004649494911
:1003B0003100000000007F09090906007E111111BB
:1003C0007E007F09192946007F0814224100004160
:1003D0007F4100007F0408107F003E4149497A00B8
:1003E00000000000000000000000000000414A532F
:1003F0005953450000060B073F06DBCFE6EDFD270E
:10040000FFEF5C008300E16E0001855184C002F0C3
:10041000036A025E000E035A8351E1CF00F0016AC5
:10042000005E000E015A0150800A046E0350800ADB
:10043000045C02E10250005CD8A003D08351E15C6F
:1004400003D000018551845D006E86510024D96E71
:10045000D950120088000201AD05E8CFECF02A0E59
:10046000026E036A88C000F089C001F0CDEC1DF077
:1004700004C073F005C074F0000101EE33F0735155
:10048000E9267451EA22EF50006E0004E8CFEAF04A
:1004900001EE52F07351E9267451EA22EFCFF1F0E8
:1004A00001EE51F07351E9267451EA22EFCFF0F0DA
:1004B00001EE50F07351E9267451EA22EFCFEFF0CC
:1004C00001EE40F07351E9267451EA22EFCFEDF0CE
:1004D00001EE41F07351E9267451EA22EFCFEEF0BC
:1004E00001EE38F07351E9267451EA22EFCFEBF0B8
:1004F00001EE38F07351E9267451EA22EFCFF2F0A1
:1005000001EE34F07351E9267451EA22EF50006E87
:1005100000AE07D0EDC0E8FFE00BD8A4EDC0F2F0CC
:1005200014D0000101EE35F07351E9267451EA222E
:10053000EF50006E00A007D0EEC0E8FFE00BD8A49B
:10054000EEC0F2F002D0EAC0F2F0000C0DC1E8FFFC
:100550002A0DF3CFF6FFF4CFF7FF01EE37F0F65098
:10056000E926F750EA22EF50006E00B208D016A438
:1005700008D00DC1E8FF01010C19D8B402D0000E5B
:1005800001D0010E120083000201AD05E8CFECF0AE
:10059000000101EE52F07351E9267451EA22EFCFC7
:1005A000F1F02A0E026E036A83C000F084C001F0ED
:1005B000CDEC1DF004C0F6FF05C0F7FF01EE3BF0E7
:1005C000F650E926F750EA22EF500001836F01EE62
:1005D0003CF0F650E926F750EA22EF50846F01EE26
:1005E0003DF0F650E926F750EA22EF50856F01EE14
:1005F0003EF0F650E926F750EA22EF50866FF1C040
:10060000E8FF0001EC5DD8B040D0080E026E036A2E
:10061000010EECC000F0016A0026000E0122A7ECDA
:100620001DF00450E16E0001EC29070BE96EE9CFE3
:1006300001F0010E006E012A02D0D8900036012E82
:10064000FCD70050D96E0001EC29F36EE15000EEAA
:1006500083F0E926000EEA22EF50006ED914D8B4D8
:1006600002D0006A14D0D890D936D950D8A407D077
:10067000E150030AD8B409D0E12A010ED96EF32A59
:10068000F1C0E8FFF35CD8A0E1D7010E006E016A6B
:10069000120083002A0E026E036A83C000F084C039
:1006A00001F0CDEC1DF004C0F6FF05C0F7FF01EE30
:1006B0003BF0F650E926F750EA22EF500001836F35
:1006C00001EE3CF0F650E926F750EA22EF50846F35
:1006D00001EE3DF0F650E926F750EA22EF50856F23
:1006E00001EE3EF0F650E926F750EA22EF50866F11
:1006F000010E0001EC6101D032D0080E026E036AD7
:10070000ECC000F0016AFF0E00060122A7EC1DF00C
:100710000450E16E0001EC05070BE96EE9CF01F032
:10072000010E006E012A02D0D8900036012EFCD7AF
:100730000050D96EE15000EE83F0E926000EEA2267
:10074000EF50006ED914D8B402D0006A0AD0D89005
:10075000D932D950D8A4EED7E150D8A404D0010E94
:10076000006E016A03D0E106800EE3D71200870015
:100770002A0E026E036A87C000F088C001F0CDEC3B
:100780001DF004C0F6FF05C0F7FF01EE3BF0F65088
:10079000E926F750EA22EF500001896F01EE3CF0A4
:1007A000F650E926F750EA22EF508A6F01EE3DF04D
:1007B000F650E926F750EA22EF508B6F01EE3EF03B
:1007C000F650E926F750EA22EF508C6F080E026EC1
:1007D000036AADC200F0016AFF0E00060122A7EC19
:1007E0001DF00450F36E0201AD05070BE16EE1CF81
:1007F00001F0010E006E012A02D0D8900036012EC1
:10080000FCD70050D96EF35000EE89F0E926000EB7
:10081000EA22EF50006ED914D8A403D0010E006E66
:1008200001D0006A016A12008900000101EE03F0A4
:100830008951E9268A51EA22EF6A00EEFBF08951DC
:10084000E9268A51EA22FF0EEF6E2A0E026E036A33
:1008500089C000F08AC001F0CDEC1DF004C0F6FFA5
:1008600005C0F7FF01EE36F0F650E926F750EA2210
:10087000EF50006E00B04ED001EE34F0F650E92695
:10088000F750EA22EF50006E00AA44D001EE34F097
:10089000F650E926F750EA22EF50006E00B63AD043
:1008A00001EE36F0F650E926F750EA22EF50006EDE
:1008B00000B230D001EE35F0F650E926F750EA22CA
:1008C000EF50006E00B826D001EE35F0F650E92664
:1008D000F750EA22EF50006E00B41CD001EE37F062
:1008E000F650E926F750EA22EF50006E00A208D039
:1008F00000010CC1E8FF891901E18A53D8A40AD08C
:1009000016A40BD000010CC1E8FF891901E18A533C
:10091000D8B403D0010E006E1ED011EE52F0F65086
:10092000E126F750E222000101EE03F08951E926A9
:100930008A51EA22E7CFEFFF11EE51F0F650E1269F
:10094000F750E22200EEFBF08951E9268A51EA22B3
:10095000E7CFEFFF006A016A1200870087C089F0C5
:1009600088C08AF062DF01500010D8B409D00001BD
:1009700002EECBF08751E9268851EA22000E41D0E1
:10098000000101EE35F07351E9267451EA22EF506F
:10099000006E00A208D0000102EECBF08751E926DC
:1009A0008851EA22EF6AEDC0E8FFE00BD8A40DD031
:1009B000EEC0E8FFE00BD8A408D0000102EECBF0B7
:1009C0008751E9268851EA22EF6A000102EECBF056
:1009D0008751E9268851EA22EF50006E150E005C1F
:1009E000D8A013D0EAC0E8FF1F0B0001EC19D8B45F
:1009F0000CD0000102EECBF08751E9268851EA22A3
:100A0000150EEF6E010E006E01D0006A016A120031
:100A1000830083C088F084C089F01DDDF1C0E8FF49
:100A20000001EC5DD8A002D0010E01D0000E120032
:100A3000830083C088F084C089F00DDDECC0E8FF3E
:100A40000001F16102D0010E01D0000E12008300FE
:100A500083C088F084C089F0FEDCF0C0E8FF0001AC
:100A6000EC6102D0010E01D0000E1200830083C0A1
:100A700088F084C089F0EFDCECC0E8FF0001F05D95
:100A8000D8A002D0010E01D0000E1200850085C052
:100A900087F086C088F06CDE01500010D8A41FD00B
:100AA00085C087F086C088F059DF01500010D8A4B7
:100AB00016D0000101EE36F07351E9267451EA2296
:100AC000EF50006E00BA0BD0000101EE37F0735109
:100AD000E9267451EA22EF50006E00A002D0010E08
:100AE00001D0000E12008300D96EF0C0E8FFD9607B
:100AF00001D015D0D9500001F16101D010D0000112
:100B000083510001F16101D00AD0F0C0E8FF00017B
:100B1000836101D004D0D9500001836102D0000E5E
:100B200064D0026A000101EE44F07351E926745169
:100B3000EA22EF500001836F000101EE45F073518E
:100B4000E9267451EA22EF500001846F000101EEA2
:100B500046F07351E9267451EA22EF500001856F87
:100B6000000101EE47F07351E9267451EA22EF507B
:100B70000001866FD950F36EF46AF3CF00F0F4CF22
:100B800001F0D89001320032D89001320032D89072
:100B9000013200320050036EF350070BE96EE9CFCB
:100BA00001F0010E006E012A02D0D8900036012E0D
:100BB000FCD70050E16E14D0035000EE83F0E9261C
:100BC000000EEA22EF50006EE114D8A4022AD89059
:100BD000E136E150D8A403D0010EE16E032AD92AF0
:100BE000D95000018361E8D702501200010E0001C4
:100BF000836F000101EE34F07351E9267451EA224B
:100C0000EF50006E00AE22D0ECC0E8FF0001EA61B8
:100C10000DD00001EC050001846F0001EA290001FC
:100C2000856F8451836F85515FDF24D0EAC0E8FF70
:100C30000001EC612DD0F1C084F00001EA2900012F
:100C4000856F8451836F85514FDF14D0000101EE11
:100C500035F07351E9267451EA22EF50006E00A07E
:100C600017D00001EA050001846FF0C085F0836FA2
:100C700085513ADF006E00C002F0036A0350800A1B
:100C8000800F030ED8B4025CD8A002D00001836BA1
:100C9000000183511200010E0001836F000101EE7B
:100CA00034F07351E9267451EA22EF50006E00AE21
:100CB0000BD00001EA290001856FF1C084F0845156
:100CC000836F855111DF2AD0000101EE35F0735199
:100CD000E9267451EA22EF50006E00A02DD0EAC040
:100CE000E8FF0001EC610DD00001EA050001846F0E
:100CF0000001EC290001856F8451836F8551F4DE7A
:100D00000DD0ECC0E8FF0001EA6116D0EA05000151
:100D1000846FF0C085F0836F8551E6DE006E00C001
:100D200002F0036A0350800A800F030ED8B4025CFD
:100D3000D8A002D00001836B000183511200830010
:100D4000010E0001836F83C088F084C089F02BEC12
:100D500002F04CDF0009D8A402D0000E01D0010E31
:100D600012008300010E0001836F83C088F084C0ED
:100D700089F02BEC02F08FDF0009D8A402D0000E1E
:100D800001D0010E12008300000100EEF3F0835148
:100D9000E9268451EA22640EEF6EF2C0E8FF1F0BD1
:100DA0000001EC19D8A409D0000100EEF3F0835142
:100DB000E9268451EA22000E40D0F2C0E8FF1F0B62
:100DC0000001EA19D8A431D0000101EE35F07351C9
:100DD000E9267451EA22EF50006E00A209D000010A
:100DE00000EEF3F08351E9268451EA22030E25D068
:100DF000000101EE34F07351E9267451EA22EF50FC
:100E0000006E00A209D0000100EEF3F08351E92644
:100E10008451EA22010E11D0000100EEF3F083515B
:100E2000E9268451EA22020E08D0000100EEF3F018
:100E30008351E9268451EA22090EEF6E12008300E5
:100E4000D96A000102EED3F08351E9268451EA22E7
:100E5000FF0EEF6E83C088F084C089F02BEC02F0A7
:100E600083C085F084C086F012DE006E00C002F000
:100E7000036A03500210D8A43ED001010B53D8A43A
:100E800024D083C083F084C084F0C3DD006E00C032
:100E900002F0036A03500210D8A42DD083C083F05F
:100EA00084C084F0D5DD006E00C002F0036A0350F8
:100EB0000210D8A420D083C083F084C084F0C4EC96
:100EC00002F001500010D8A416D083C083F084C073
:100ED00084F036DF006E00C002F0036A0350021097
:100EE000D8A40BD0000102EED3F08351E92684513F
:100EF000EA22640EEF6E010E15D183C083F084C028
:100F000084F042DF010ED96E15BA02D08BAE09D142
:100F1000D96AEAC0E8FF0001EC6170D0000101EE7F
:100F200035F07351E9267451EA22EF50006E00A0AB
:100F300059D00001F2AD30D0F2C0E8FF1F0B000124
:100F4000EC6115D0000102EED3F08351E926845103
:100F5000EA22F0C0E8FF0001EA5D016EF0C0E8FFA0
:100F60000001EC5D006E015000240A0FD9D0000191
:100F700002EED3F08351E9268451EA22F0C0E8FF63
:100F80000001EA5D016EF0C0E8FF0001EC5D006E5B
:100F9000015000240C0FC4D0F2C000F01F0E001648
:100FA000ECC0E8FF005CD8B011D0000102EED3F035
:100FB0008351E9268451EA22F2C0E8FF1F0B0001A9
:100FC000EA5D016EF2C0E8FF1F0BDFD7000102EE01
:100FD000D3F08351E9268451EA22ECC0E8FF0001F6
:100FE000EA5D27D0000101EE34F07351E926745117
:100FF000EA22EF50006E00AEE9D75CD0ECC0E8FF0B
:101000000001EA6124D0000101EE34F07351E926B9
:101010007451EA22EF50006E00AE0DD0000102EED6
:10102000D3F08351E9268451EA22EAC0E8FF0001A7
:10103000EC5D080F75D0000101EE35F07351E92623
:101040007451EA22EF50006E00B091D7E7D700014B
:1010500001EE34F07351E9267451EA22EF50006E2C
:1010600000AE38D001EE34F07351E9267451EA2213
:10107000EF50006E00B00BD0000101EE36F073515E
:10108000E9267451EA22EF50006E00A809D0000151
:1010900002EED3F08351E9268451EA22000E40D0BB
:1010A000EBC0E8FF1F0B0001EC19D8A403D000012E
:1010B000EBAD25D0000102EED3F08351E926845137
:1010C000EA22EAC0E8FF0001F15D016EECC0E8FF32
:1010D000F15D5DD7000101EE35F07351E9267451E1
:1010E000EA22EF50006E00A013D0EBC0E8FF1F0B08
:1010F0000001EC19D8A43BD70001EBAF38D70001B1
:1011000002EED3F08351E9268451EA22010E08D081
:10111000000102EED3F08351E9268451EA22020E47
:10112000EF6ED95012008300D96A83C088F084C062
:1011300089F02BEC02F0000102EEBBF08351E926AE
:101140008451EA22FF0EEF6E83C085F084C086F0E2
:101150009EDC006E00C002F0036A03500210D8A4A7
:101160003ED001010B53D8A424D083C083F084C0A7
:1011700084F05FDC006E00C002F0036A03500210CE
:10118000D8A42DD083C083F084C084F070DC006EBE
:1011900000C002F0036A03500210D8A420D083C01C
:1011A00083F084C084F04AEC03F001500010D8A40E
:1011B00016D083C083F084C084F0D4DD006E00C0FC
:1011C00002F0036A03500210D8A40BD0000102EE13
:1011D000BBF08351E9268451EA22640EEF6E010EC2
:1011E0002AD183C083F084C084F0CEDD010ED96E95
:1011F00012B202D08BAC1ED1D96AEAC0E8FF00015E
:10120000EC6135D0000101EE34F07351E9267451E0
:10121000EA22EF50006E00AE15D0000102EEBBF0E6
:101220008351E9268451EA22EAC0E8FF0001F15D1A
:10123000016EECC0E8FF0001F15D006E015000247A
:101240000C0FF7D0000101EE35F07351E92674510F
:10125000EA22EF50006E000102EEBBF08351E92656
:101260008451EA22ECC0E8FF0001EA5D76D0ECC0D0
:10127000E8FF0001EA6173D0000101EE34F0735120
:10128000E9267451EA22EF50006E00AE3FD0000113
:10129000F2AF19D0F2C000F01F0E0016ECC0E8FF4C
:1012A000005CD8B0BAD7000102EEBBF08351E9264A
:1012B0008451EA22EAC0E8FF0001F15D016EECC052
:1012C000E8FFF15D1ED0F2C0E8FF1F0B0001EC61EA
:1012D00039D0000102EEBBF08351E9268451EA22A5
:1012E000EAC000F0F2C001F01F0E01160050015CD0
:1012F000016EECC000F0F2C002F01F0E02160050AA
:10130000025C006E015000240A0F93D0000101EE30
:1013100035F07351E9267451EA22EF50006E00A0B7
:1013200011D0000102EEBBF08351E9268451EA227C
:10133000F2C0E8FF1F0B0001EA5D016EF2C0E8FF9A
:101340001F0B79D7000102EEBBF08351E9268451CF
:10135000EA22EAC0E8FF0001EC5D080F6AD0000154
:1013600001EE35F07351E9267451EA22EF50006E18
:1013700000A039D001EE34F07351E9267451EA220D
:10138000EF50006E00B00BD0000101EE36F073514B
:10139000E9267451EA22EF50006E00A809D000013E
:1013A00002EEBBF08351E9268451EA22000E41D0BF
:1013B000EBC0E8FF1F0B0001EC19D8A403D000011B
:1013C000EBAF26D0000102EEBBF08351E926845139
:1013D000EA22F0C0E8FF0001EA5D016EF0C0E8FF1C
:1013E0000001EC5D2AD7000101EE34F07351E926CB
:1013F0007451EA22EF50006E00AE13D0EBC0E8FF4C
:101400001F0B0001EC19D8A408D70001EBAD05D7DC
:10141000000102EEBBF08351E9268451EA22010E5D
:1014200008D0000102EEBBF08351E9268451EA2284
:10143000020EEF6ED95012008B9C0201AA6B129221
:1014400012900101196B149E149C0201CB6B0201D6
:10145000CC6B0201CD6B0201CE6B12008B9E0201A0
:10146000B16B159A159801011A6B1590159202012E
:10147000CB6B0201CC6B0201CD6B0201CE6B120073
:101480000CC1E8FF2A0DF3CFF6FFF4CFF7FF01EE12
:1014900037F0F650E926F750EA22EF50006E00A22E
:1014A00002D0168401D01694010E0001856FD96A0E
:1014B0000001E96BFF0EE8CFE8F00001866B000148
:1014C0008651896F8A6B15EC04F001500010D8A486
:1014D0000DD000018651876F886BB8EC03F0015086
:1014E0000010D8A40BD00001856B08D000018651F4
:1014F00002EECBF0E926000EEA22EF6A00018651E7
:1015000001EE03F0E926000EEA22EF500001E96146
:1015100009D00001865101EE03F0E926000EEA220F
:10152000EFCFE9F00001865100EEFBF0E926000E56
:10153000EA22EF50006EE8C0E8FF005CD8B008D0A7
:10154000865100EEFBF0E926000EEA22EFCFE8F02C
:101550000001862B070E8665B2D701010B53D8A474
:1015600017D0ADC200F0FF0E0024026E036AFF0E1A
:101570000322E8C000F0016A0150800A046E0350A3
:10158000800A045C02E10250005CD8B055DF16D03E
:10159000E8C000F0016AADC202F0FF0E0224F66E50
:1015A000F76AFF0EF722F750800A026E0150800A98
:1015B000025C02E10050F65CD8A03EDF00018551DC
:1015C000D8A411D0010E856F866B0001865166ECA0
:1015D0001BF00009D8B402D00001856B0001862BF6
:1015E000070E8665F2D700018551D8A498D0ADC208
:1015F00000F0FF0E0024026E036AFF0E0322E9C012
:1016000000F0016A0150800A046E0350800A045CF5
:1016100002E10250005CD8A082D015A431D0DC0ECB
:101620000201B16131D0B153D8B42ED001010B53B6
:10163000D8A402D0D96A02D0010ED96EADC200F092
:10164000FF0E0024026E036AFF0E0322D950E9C088
:1016500000F0016A0026000E01220350800A046E89
:101660000150800A045C02E10050025CD8A08BBEED
:101670000BD08B8E158A1598030EE8CF1AF104D083
:101680000201B16B1592159011AC40D0DC0E020135
:10169000AA6147D0AA53D8B444D0ADC200F0FF0E1F
:1016A0000024026E036AFF0E0322E8C000F0016A04
:1016B0000150800A046E0350800A045C02E102506B
:1016C000005CD8A004D001010B53D8B42AD001018A
:1016D0000B53D8A407D0010E0201AD6522D08BBCFC
:1016E00020D007D00CC1E8FF79EC18F00009D8A48D
:1016F00007D08B8C12821290030EE8CF19F111D013
:101700008B9C129212900101196B0BD00201AA6BF3
:10171000149E149C01010B53D8B403D0F1D78CDE76
:101720009DDE1200D96ED9502A0DF3CFF6FFF4CF0B
:10173000F7FF01EE38F0F650E926F750EA22EF50B5
:10174000E16EE1501F0BE96E119413921390E9CFF3
:1017500000F0016AADC202F0FF0E0224F66EF76AD5
:10176000FF0EF7220150F71802E10050F618D8A436
:1017700019D0ADC2E8FF0201A86314D015B602D09B
:1017800011AE30D011A22ED011A609D0E1AE03D0F7
:101790001382118427D0E1AC25D01380FAD715A687
:1017A000FCD7F6D7D9500201B26311D0D95002014B
:1017B000AB630DD0ADC2E8FF0201A86101D0138276
:1017C000A8C2E8FF0201AD610DD013800BD0D95043
:1017D0000201B26302D0138205D0D9500201AB637B
:1017E00001D0138011A41FD00A0E016EA6C2E8FF1B
:1017F00079EC1DF00050E8CFA6F213A209D0040E38
:101800000201A66502D0159E01D0158E8A9218D0CD
:1018100013A016D0040E0201A66502D08A9201D050
:101820008A82159E0DD013A202D0158E06D013A069
:1018300003D08A82159E02D0159E8A920201A66B61
:1018400015AE02D08A8001D08A9012001696000C44
:10185000E8CF00F0016A00C088F001C089F02BECED
:1018600002F0EAC0E8FF1F0B0001EC19D8A44ED02B
:1018700016B00BD0000101EE34F07351E92674511B
:10188000EA22EF50006E00B00DD016A03FD000014C
:1018900001EE36F07351E9267451EA22EF50006EE2
:1018A00000A834D0000101EE34F07351E9267451E0
:1018B000EA22EF50006E00BE07D0000E006A016AF7
:1018C00001010B63002A03D0010E006E016A015072
:1018D0000010D8B408D0BADF0009D8A404D08B9E79
:1018E000159A01011A6B000101EE35F07351E926DA
:1018F0007451EA22EF50006E00A008D0A7DF000963
:10190000D8A404D08B9C12920101196B1200D96AE1
:10191000D9509EDFD92A070ED964FAD712009386D0
:1019200093940F016F8F6F9D6F9B12000F01718F4A
:10193000718D729572937281719571837191719BA2
:1019400071997187709F709D709B70897097709569
:1019500070837081708B70997097708570837081BF
:1019600012008500D96E85C000F086C001F0050E1A
:10197000D89000360136E82EFBD7E00E00140001A7
:10198000856F0150866F030E89178A6B89C0F3FF3C
:101990008AC0F4FFF3508513F450861387C000F01B
:1019A00088C001F042D04DD0000186C004FF85C040
:1019B00005FF0F0105870150E8CF06FF00C007FFB4
:1019C0004CD0000186C008FF85C009FF0F010987C0
:1019D0000150E8CF0AFF00C00BFF3FD0000186C0D6
:1019E0000CFF85C00DFF0F010D870150E8CF0EFFE2
:1019F00000C00FFF32D0000186C010FF85C011FF6C
:101A00000F0111870150E8CF12FF00C013FF25D04E
:101A1000000186C014FF85C015FF0F011587015016
:101A2000E8CF16FF00C017FF18D0D950BCE0010A5C
:101A3000BBE0030AC6E0010AD1E0070ADCE0010AC4
:101A4000E7E0000186C000FF85C001FF0F010187AC
:101A50000150E8CF02FF00C003FF12008500D96EDD
:101A600085C000F086C001F0050ED8900036013622
:101A7000E82EFBD7E00E00140001856F0150866F41
:101A8000030E89178A6B89C0F3FF8AC0F4FFF350F5
:101A90008513F450861387C000F088C001F00CD085
:101AA0000FD0000186C01CFF85C01DFF0150E8CF8C
:101AB0001EFF00C01FFF0ED0D950F2E0010AF1E076
:101AC000000186C018FF85C019FF0150E8CF1AFF3A
:101AD00000C01BFF12008500D96E85C000F086C0D3
:101AE00001F0050ED89000360136E82EFBD7E00E47
:101AF00000140001856F0150866F030E89178A6BF1
:101B000089C0F3FF8AC0F4FFF3508513F4508613A5
:101B100087C000F088C001F01BD020D0000186C033
:101B200031FF85C032FF0F0132870150E8CF33FF0C
:101B300000C034FF1FD0000186C021FF85C022FFF6
:101B40000F0122870150E8CF23FF00C024FF12D0ED
:101B5000D950E3E0010AE2E0030AEDE0000186C0AB
:101B600041FF85C042FF0F0142870150E8CF43FF8C
:101B700000C044FF12008500D96E07D00CD085C08C
:101B800035FF0BD085C025FF08D0D950F7E0010AFA
:101B9000F6E0030AF7E085C045FF1200766A756A31
:101BA000D96AD95001EE23F0E926000EEA22EF505F
:101BB000006E790E005CD8A01FD0D9502A0DF3CF4B
:101BC000F6FFF4CFF7FFE16AE150F624006E000E55
:101BD000F720016E330E0024E96E010E0120EA6E3B
:101BE000EF6AE12A290EE164EFD7D95001EE23F024
:101BF000E926000EEA22EF6AD92A070ED964D1D766
:101C0000640E0101166503D089DA0101166B12001A
:101C100015C1F6FFF76AF36AF46A070ED890F33637
:101C2000F436E82EFBD7F350F610E8CF79F0F450F5
:101C3000F710E8CF7AF0046A056A066A076A18C1E5
:101C400000F0016A026A036A005004120150051292
:101C500002500612035007120E0ED89004360536B5
:101C600006360736E82EF9D7A7C200F0016A026AE5
:101C7000036A00500412015005120250061203506C
:101C8000071204C07BF005C07CF006C07DF007C0E1
:101C90007EF012006150F46EF36A6250F66EF76ADD
:101CA000F650F310E8CF77F0F750F410E8CF78F063
:101CB000050E006E00EE77F0002804D0D890EC32CC
:101CC000ED52EF32E82EFAD76250030B0001CF6FCE
:101CD000D06BD16BD26B100ECFC000F0D0C001F032
:101CE000D1C002F0D2C003F0E7EC1DF000C07FF0DD
:101CF00001C080F002C081F003C082F06350006E2A
:101D0000016A026A036A02C003F001C002F000C067
:101D100001F0006A00EE7FF00050EE120150EE126A
:101D20000250EE120350ED12ED52ED526450006E6F
:101D3000016A026A036A00EE7FF00050EE12015061
:101D4000EE120250EE120350ED12ED52ED527FC032
:101D500000F080C001F081C002F082C003F0006A90
:101D6000C00E0116026A036A0E0EF2EC1DF000505E
:101D7000D96ED950030BE8CF17F1D950030BE8CF38
:101D80000DF17FC000F080C001F081C002F082C080
:101D900003F0006AC00E0116030E0216036A0E0E4F
:101DA000F2EC1DF00050D96ED950070BE8CF17F1B7
:101DB000D950070BE8CF0DF112002ADFE16A79C094
:101DC00085F07AC086F00001876B886B896B8A6B1F
:101DD000E150C8DDE12A050EE164F1D7120018DFF9
:101DE00010AA15D07F0E0001856F866B876B886BFC
:101DF000896B8A6B000E33DE7F0E0001856F866B68
:101E0000876B886B896B8A6B010E29DE12D000010B
:101E1000856B866B876B886B896B8A6B000E1FDE08
:101E20000001856B866B876B886B896B8A6B010EF3
:101E300016DE12000F0140B73DD001011453D8B493
:101E400039D018C1E8FF0101176334D0E1DE11C1B8
:101E500085F0000E91DE79C085F07AC086F000EE44
:101E600087F07BC0EEFF7CC0EEFF7DC0EEFF7EC042
:101E7000EEFF000E31DE10C11BF11BC146FF1CC17D
:101E800047FF1DC148FF1EC149FF1FC14AFF20C1B6
:101E90004BFF21C14CFF22C14DFFA56AA5840F0154
:101EA00040870101136B01011953D8B403D001011C
:101EB000010E190712000F0130B73DD00101145374
:101EC000D8B439D018C1E8FF0101176334D0A0DEBF
:101ED00012C185F0010E50DE79C085F07AC086F01F
:101EE00000EE87F07BC0EEFF7CC0EEFF7DC0EEFF12
:101EF0007EC0EEFF010EF0DD10C11BF11BC136FFED
:101F00001CC137FF1DC138FF1EC139FF1FC13AFF79
:101F100020C13BFF21C13CFF22C13DFFA56AA58630
:101F20000F0130870101136B01011A53D8B403D09C
:101F30000101010E1A071200A4AE02D0A49EEDD03A
:101F4000A4AC02D0A49CE9D0A4AA2BD0A49A0F01DF
:101F500074AF02D00F01749F0F0174AD02D00F0156
:101F6000749D0F0174AB02D00F01749B0F0174A913
:101F700002D00F0174990F0174A702D00F0174975A
:101F80000F0174A502D00F0174950F0174A302D044
:101F90000F0174930F0174A102D00F017491746A40
:101FA000BCD0A4A202D0A492B8D0A4A0B6D0010103
:101FB000166B70DE000180AB87D07FA746D0040E81
:101FC000F66EF76AD890F636F736D890F636F736CA
:101FD000D890F636F73617C1E8FF2A0DF650F324ED
:101FE000026EF750F420036E660ED96E0F0EDA6E95
:101FF000F36AF46AF350D924E96EF450DA20EA6EF9
:1020000002C000F003C001F0F3500026F45001229A
:10201000330E0024E16E010E0120E26EEFCFE7FFE8
:10202000F34AF42A000EF45C080ED8B4F35CD8A08E
:10203000E1D7010EE8CF14F117C1E8FF01EE23F05C
:10204000E926000EEA22EF6A65D00101146B7FC019
:10205000E8FF070BF66EF76AD890F636F736D89099
:10206000F636F736D890F636F73617C1E8FF2A0D60
:10207000F650F324026EF750F420036E660ED96E0C
:102080000F0EDA6EF36AF46AF350D924E96EF45055
:10209000DA20EA6E02C000F003C001F0F35000261F
:1020A000F4500122330E0024E16E010E0120E26E95
:1020B000EFCFE7FFF34AF42A000EF45C080ED8B421
:1020C000F35CD8B027D0E0D70101146BA6EC02F086
:1020D0000009D8B41FD0660ED96E0F0EDA6EF36AFF
:1020E000F46AF350D924E16EF450DA20E26E01EE86
:1020F0002BF0F350E926F450EA22E7CFEFFFF34A42
:10210000F42A000EF45C080ED8B4F35CD8A0E9D72A
:1021100002EC15F0A4900F01609F120000DC06DCB9
:102120000F01738B7399729D609F608D609B6095AA
:102130006091609B6093509F508D509B5095508351
:102140005091509B0187058709870D871187158757
:1021500034DE45DE0F01459D409730972097A592CC
:10216000A46AA39EA39CA38AA398A396A394A382E4
:10217000A3806F9F6F9D6F9BF36AF46A01EE33F04B
:10218000F350E926F450EA22EF6AF34AF42A010EEA
:10219000F45C500ED8B4F35CD8B01200EFD7D96E0F
:1021A000D9502A0DF3CFF6FFF4CFF7FF10BA21D0A4
:1021B00001EE39F0F650E926F750EA22EF50430AD3
:1021C000D8A417D001EE3AF0F650E926F750EA22EB
:1021D000EF504D0AD8A40DD001EE34F0F650E926A8
:1021E000F750EA22EF50006E00BA03D077C015F125
:1021F00010821200D96ED9502A0DF3CFF6FFF4CF1A
:10220000F7FF1298139601EE5AF0F650E926F750B0
:10221000EA22EF500201A719D8B4138601EE39F073
:10222000F650E926F750EA22EF504A0AD8A416D011
:1022300001EE3AF0F650E926F750EA22EF50440A50
:10224000D8A40CD001EE34F0F650E926F750EA227B
:10225000EF50006E00BA02D0148601D0149614B666
:1022600087D101EE52F0F650E926F750EA22EFCF7F
:10227000AFF201EE33F0F650E926F750EA22EFCF45
:10228000A8F201EE33F0F650E926F750EA22EFCF3C
:10229000B4F201EE36F0F650E926F750EA22EF509C
:1022A000006E00A402D00201B48FB4C28CFF020100
:1022B000B36B01EE36F0F650E926F750EA22EF5004
:1022C000006E00A202D00201B38901EE36F0F65092
:1022D000E926F750EA22EF50006E00AE02D002016C
:1022E000B38301EE4BF0F650E926F750EA22EF50A7
:1022F000006E00AA02D00201B38501EE36F0F6505E
:10230000E926F750EA22EF50006E00A80CD001EE4B
:1023100035F0F650E926F750EA22EF50006E00A89B
:1023200002D00201B38101EE34F0F650E926F750F5
:10233000EA22EF50006E00A00CD001EE35F0F6500E
:10234000E926F750EA22EF50006E00A802D0020101
:10235000B3818B50E00BE8CFA5F2B3C2E8FF0201D6
:10236000A513A5C28BFF01EE36F0F650E926F75013
:10237000EA22EF50006E00AA02D08A8E01D08A9E17
:1023800001EE34F0F650E926F750EA22EF50006EE5
:1023900000AE02D08B8A01D08B9A01EE35F0F65058
:1023A000E926F750EA22EF50006E00A002D08A889A
:1023B00001D08A98149016A00BD001EE36F0F6509A
:1023C000E926F750EA22EF50006E00A80BD009D0A2
:1023D00001EE34F0F650E926F750EA22EF50006E95
:1023E00000B01480119801EE34F0F650E926F75051
:1023F000EA22EF50006E00B21188119601EE35F01E
:10240000F650E926F750EA22EF50006E00B211862E
:102410008A9A01EE35F0F650E926F750EA22EF509D
:10242000006E00BE8A8A8A9C01EE34F0F650E926DE
:10243000F750EA22EF50006E00BC8A8C159601EE30
:1024400034F0F650E926F750EA22EF50006E00BE55
:102450001586119E01EE35F0F650E926F750EA2276
:10246000EF50006E00B0118E159C01EE36F0F65064
:10247000E926F750EA22EF50006E00B0158C149454
:1024800001EE36F0F650E926F750EA22EF50006EE2
:1024900000B21484149801EE36F0F650E926F75095
:1024A000EA22EF50006E00B41488129A01EE35F063
:1024B000F650E926F750EA22EF50006E00B8128A73
:1024C000139A01EE35F0F650E926F750EA22EF5064
:1024D000006E00B4138A139801EE35F0F650E92629
:1024E000F750EA22EF50006E00BA1388129601EE00
:1024F00034F0F650E926F750EA22EF50006E00B6AD
:102500001286149A01EE36F0F650E926F750EA22C8
:10251000EF50006E00BE148A119A01EE36F0F650AC
:10252000E926F750EA22EF50006E00BC118A1192A2
:1025300001EE34F0F650E926F750EA22EF50006E33
:1025400000BA1182149201EE34F0F650E926F750E9
:10255000EA22EF50006E00B41482129E01EE36F0B3
:10256000F650E926F750EA22EF50006E00BA128EBC
:10257000000C14B815D00B0ED96ED95012EE84F0A1
:10258000E126000EE222D95002EE94F0E926000E78
:10259000EA22E7CFEFFFD92A0F0ED964EED760D039
:1025A00015B602D011AE48D00B0E026E036A010EB2
:1025B000A4C200F0016A0026000E0122A7EC1DF063
:1025C00000C0A4F2080E0201A4614CD0A4C2E8FF2E
:1025D0000708E16E0B0ED96EE1CF00F015A60FD003
:1025E000D95002EE84F0E926000EEA22EF50016E87
:1025F000002A02D0D8900136002EFCD70ED0D95038
:1026000002EE84F0E926000EEA22EF50016E002A65
:1026100002D0D8900132002EFCD70150F36ED95071
:1026200002EE94F0E926000EEA22F3CFEFFFD92A5A
:102630000F0ED964D1D716D00B0ED96ED95012EE29
:1026400084F0E126000EE222D95002EE94F0E92651
:10265000000EEA22E7CFEFFFD92A0F0ED964EED79A
:102660000201A46B120012B602D011B246D00201D0
:10267000B8291F0BE8CFB8F2B8C2D9FFF36A150E1C
:10268000D96023D012A60AD0D9CF00F0016A005039
:10269000880FF66E0150F76E030E0BD011B213D0F7
:1026A000D9CF00F0016A00509E0FF66E0150F76E10
:1026B000030EF722F35002EE94F0E926000EEA2210
:1026C0000800F5CFEFFFD92A13D0D95012EE6FF0E2
:1026D000E126000EE222F35002EE94F0E926000E0D
:1026E000EA22E7CFEFFFD92A1F0ED96401D0D96AB9
:1026F000F32A0A0EF364C3D7B2D012AA14BA02D0D6
:1027000012AE5BD0270E026E036A010EB8C200F053
:10271000016A0026000E0122A7EC1DF000C0B8F2ED
:10272000B8C2D9FFF36A1C0ED9602FD012AA0AD002
:10273000D9CF00F0016A00506C0FF66E0150F76EB1
:10274000030E17D014AA0AD0D9CF00F0016A0050A6
:10275000500FF66E0150F76E030E0BD012AE13D071
:10276000D9CF00F0016A0050340FF66E0150F76EB9
:10277000030EF722F35002EE94F0E926000EEA224F
:102780000800F5CFEFFFD92A13D0D95012EE68F028
:10279000E126000EE222F35002EE94F0E926000E4C
:1027A000EA22E7CFEFFFD92A260ED96401D0D96AF1
:1027B000F32A0A0EF364B7D752D014B202D014A48D
:1027C00050D03F0E026E036A010EB8C200F0016ADB
:1027D0000026000E0122A7EC1DF000C0B8F2B8C21E
:1027E000D9FFF36A340ED96023D014A40AD0D9CF0C
:1027F00000F0016A0050B40FF66E0150F76E030E40
:102800000BD014A213D0D9CF00F0016A0050000FF2
:10281000F66E0150F76E030EF722F35002EE94F0BD
:10282000E926000EEA220800F5CFEFFFD92A13D0DF
:10283000D95012EE50F0E126000EE222F35002EEE3
:1028400094F0E926000EEA22E7CFEFFFD92A3E0EE8
:10285000D96401D0D96AF32A0A0EF364C3D7138E60
:1028600088D613AE17D0129C0201B86BD96AD95022
:1028700012EE84F0E126000EE222D95002EE94F02E
:10288000E926000EEA22E7CFEFFFD92A0A0ED96423
:10289000EED7139E12AC6DD614B817D0129C02015D
:1028A000B86BD96AD95012EE84F0E126000EE2220C
:1028B000D95002EE94F0E926000EEA22E7CFEFFFAE
:1028C000D92A0A0ED964EED754D615B602D011AE65
:1028D00074D0090E026E036A010EB8C200F0016ADC
:1028E0000026000E0122A7EC1DF000C0B8F2D96A44
:1028F00015A624D0D95012EE94F0E126000EE22263
:10290000D95002EE94F0E926000EEA22EF50006E54
:10291000D8900030E76EB8C2E8FF0808006ED950C2
:1029200002EE84F0E926000EEA22EF50016E002A42
:1029300002D0D8900136002EFCD723D0D95012EE09
:1029400094F0E126000EE222D95002EE94F0E9263E
:10295000000EEA22EF50006ED8900034E76EB8C245
:10296000E8FF0808006ED95002EE84F0E926000E58
:10297000EA22EF50016E002A02D0D8900132002ED8
:10298000FCD70150F36ED95012EE94F0E126000E00
:10299000E222D95002EE94F0E926000EEA22EF502E
:1029A000006EF310E76EB8C2E8FF080AD8B4129CB4
:1029B000D92A0A0ED9649CD7DCD5129C0201B86BC7
:1029C000D96AD95012EE84F0E126000EE222D950E5
:1029D00002EE94F0E926000EEA22E7CFEFFFD92AB3
:1029E0000A0ED964EED7C5D5010ED96E16A003D054
:1029F00001012DB1D96A16B003D001012DA1D96A08
:102A0000D95012002CC100F01F0E001600C0F6FFB6
:102A1000F76AADC200F0FF0E0024026E036AFF0EDB
:102A20000322F750031802E1F6500218D8A423D06D
:102A3000DBDF0009D8A41FD02BC100F00004D8A40C
:102A40000BD001012CAF02D08B9E159A01012CAD49
:102A500012D08B9C12920FD02BC1E8FFFE0AD8B483
:102A60000AD001012CBF15B801D08B8E01012CBDFD
:102A700012B001D08B8C12008C00E96E12B80AD013
:102A800026D01F0E05D0060E03D00B0E01D0070E68
:102A9000D96E0AD000018C51F4E0020AF4E0010A78
:102AA000F4E0070AF4E0D96A8B50E00BE16ED9102C
:102AB0008B6EE9CF00F0016A0050F80FF66E0150FE
:102AC000F76E030EF7220800F5508C6E03D0E00E6F
:102AD0008B168C6A040012000201AD6B80B002D02C
:102AE0000201AD8180B202D00201AD8380B402D078
:102AF0000201AD8580B602D00201AD8780B802D058
:102B00000201AD89120012A832D0E6DF0A0E016E72
:102B1000ADC2E8FF79EC1DF0D96ED9CF00F0016AA3
:102B20000050F40FF66E0150F76E030EF722080006
:102B3000F550D96E8B50E00BE16ED9108B6E0A0EFA
:102B4000016EADC2E8FF79EC1DF00050D96ED9CF0F
:102B500000F0016A0050F80FF66E0150F76E030E98
:102B6000F7220800F5508C6E8A988B9A0BD0E00EF5
:102B70008B16F80EF66E030EF76E0800F5508C6E8D
:102B80008A888B8A1200968496829680959E959C60
:102B9000959A95989596959495929590949E949CD7
:102BA000949A94989496949494929490939E939CCF
:102BB000939A93989386939493929390928C928AFB
:102BC000928892869284928292808D948D928D903A
:102BD0008C9E8C9C8C9A8C988C968C948C928C90DD
:102BE0008B9E8B9C8B9A8B988B968B948B928B90D5
:102BF0008A9E8A9C8A9A8A988A968A948A828A90DD
:102C0000899C899A899889968994899289901200D9
:102C1000ECC0E8FF1F0B0001EA19D8A40FD0EBC0ED
:102C2000E8FF1F0B0001EC19D8A408D00001ED53F8
:102C3000D8A404D00001EE53D8B402D0000E01D0C5
:102C4000010E1200F29E4FEC00F09DDF40EC00F010
:102C50008B9A8A988A908A928A9C8A9A8B9C8B9E5D
:102C6000159A12921598129001011A6B0101196BB5
:102C70001092109A31DFA1EC1BF08EEC10F0F28E66
:102C8000129C0201A56B139E0201B56B0201B76B8A
:102C90000201CB6BADC2A7F2169001010EA106D0C6
:102CA000ADC2E8FF400FE8CFA7F216801396149646
:102CB000050E0201AC6503D0AC6B127824DF0CC1A9
:102CC000E8FFCFEC10F00400030E0201CB65F0D753
:102CD00010A204D015C1E8FF1EEC1CF0F29E108A71
:102CE0008EEC10F0F28E12880201AC6B0CDF030E3A
:102CF000E8CF11F1E8CF12F10101106B0201AE6BC8
:102D00000BC100F00004D8A403D0020EE8CFAEF24D
:102D100004000CC1E8FFFAEC10F014B609D00CC1A5
:102D2000E8FF92EC0BF087EC0CF040EC0AF002D0DC
:102D30005EEC1CF016920001836B846B00018451E1
:102D400002EED3F0E926000EEA22FF0EEF6E845168
:102D5000886F896B2BEC02F016B28CD00001845185
:102D6000856F866B47EC05F0006E00C002F0036AC9
:102D700003500210D8A47ED04BDF0009D8B42DD068
:102D8000000101EE35F07351E9267451EA22EF504B
:102D9000006E00B00FD0000101EE34F07351E9264F
:102DA0007451EA22EF50006E000E00BE010E006E5C
:102DB000016A03D0010E006E016A01500010D8A410
:102DC00059D00001845102EED3F0E926000EEA2228
:102DD000EF6A010E836F16824DD0EBC0E8FF1F0B28
:102DE0000001EC19D8B443D0000101EE35F0735165
:102DF000E9267451EA22EF50006E00B00FD00001B6
:102E000001EE34F07351E9267451EA22EF50006E5E
:102E1000000E00BE010E006E016A03D0010E006EAE
:102E2000016A01500010D8A425D0010E0001836F63
:102E3000ECC0E8FF0001EA610ED00001845102EE0F
:102E4000D3F0E926000EEA22EAC0E8FF0001EC5DBB
:102E5000020FEF6E0FD00001845102EED3F0E9268D
:102E6000000EEA22ECC0E8FF0001EA5DF1D716820D
:102E70000001836B0001842B070E84655FD78351AB
:102E8000D8B426D00101186BD96AD95002EED3F01C
:102E9000E926000EEA22EF50006E0028D8B414D0C4
:102EA000D95002EED3F0E926000EEA22EF50006E70
:102EB00018C1E8FF02EED3F0E926000EEA22EF5037
:102EC000005CD8A0D9CF18F1D92A070ED964DDD774
:102ED00001011453D8B41CD700018351D8B416D0C3
:102EE000030EE8CF10F10201AD05D96ED9502009CB
:102EF000E8CF1CF11DC1E8FF16A002D0010901D0E6
:102F0000FE0BE8CF1DF15BEC0FF0139613A60AD071
:102F10000CC118F1FE0EE8CF10F101011C6B1396E5
:102F20001AEC0FF00101146BF3D6E8CFFDF2E9CFF4
:102F3000FCF2EACFFBF2E1CFFAF2E2CFF9F2D9CF1D
:102F4000F8F2DACFF7F20EC0F6F20DC0F5F20CC0CF
:102F5000F4F20BC0F3F20AC0F2F209C0F1F208C0B9
:102F6000F0F207C0EFF206C0EEF205C0EDF204C0C9
:102F7000ECF203C0EBF202C0EAF201C0E9F200C0D9
:102F8000E8F2F7CFE7F2F6CFE6F2F5CFE5F2F4CFCD
:102F9000E4F2F3CFE3F2F2A46BD0F294180ED66E03
:102FA000FC0ED76E0201B92B84B202D0158401D079
:102FB000159484B002D0118C01D0119C0201B62B63
:102FC000640EB66555D0B66B0101162BD96AD9507F
:102FD00001EE23F0E926000EEA22EF2AD92A070E95
:102FE000D964F5D70201AC2B0201A62BDC0E026ED0
:102FF000036AAEC2E8FF025E000E035AB1C200F0DF
:10300000016A0150800A046E0350800A045C02E1E8
:103010000250005CD8B002D00201B12BDC0E026E6F
:10302000036AAEC2E8FF025E000E035AAAC200F0B5
:10303000016A0150800A046E0350800A045C02E1B8
:103040000250005CD8B002D00201AA2B0201B72BBB
:103050000A0EB7650DD0B76BD96AD95002EECBF026
:10306000E926000EEA22EF2AD92A070ED964F5D7FD
:10307000A450D8A49CEC0FF0E3C2F3FFE4C2F4FF29
:10308000E5C2F5FFE6C2F6FFE7C2F7FFE8C200F0CF
:10309000E9C201F0EAC202F0EBC203F0ECC204F0B4
:1030A000EDC205F0EEC206F0EFC207F0F0C208F084
:1030B000F1C209F0F2C20AF0F3C20BF0F4C20CF054
:1030C000F5C20DF0F6C20EF0F7C2DAFFF8C2D9FF72
:1030D000F9C2E2FFFAC2E1FFFBC2EAFFFCC2E9FF6C
:1030E000FDC2E8FFFEC2FAFF0FC0E0FFFFC2D8FF3B
:1030F000100001010B53D8B48BBC01D039D00101B1
:103100000B53D8B437D0E8CF00F0016A00C088F084
:1031100001C089F02BEC02F0EAC0E8FF1F0B0001B0
:10312000EC19D8A427D0000101EE34F07351E92640
:103130007451EA22EF50006E00AA1CD016A00BD0EA
:10314000000101EE36F07351E9267451EA22EF5086
:10315000006E00B80DD016B00DD0000101EE34F0B5
:103160007351E9267451EA22EF50006E00A002D09C
:10317000000E01D0010E12008300E8CF00F0016ABA
:1031800000C088F001C089F02BEC02F0020ED96E6D
:10319000030EE8CF10F100018351D8B40DD0ECC07C
:1031A000E8FF8009E8CF1CF101010B53D8B409D026
:1031B000ECC0E8FF200903D0ECC0E8FF4009E8CFED
:1031C0001CF11DC1E8FF16A002D0010901D0FE0BC1
:1031D000E8CF1DF1ECC0E8FF0001EA6163D0000117
:1031E0008351D8B435D0000101EE35F07351E92692
:1031F0007451EA22EF50006E00A003D0010ED96E88
:10320000E0D0EDC0E8FFE00BD8B4DAD0EDC0E8FFC5
:103210001F0B0001EC6101D0D3D0EDC000F01F0EF8
:103220000016ECC0E8FF005CD8B007D0EDC0E8FFA6
:10323000E00B400AD8A4E2D7C3D0EDC0E8FF1F0BD3
:103240000001EC19D8A4BDD00001EDAFB9D06AD00F
:10325000000101EE35F07351E9267451EA22EF5076
:10326000006E00B0CBD7EDC0E8FFE00BD8B4A8D01B
:10327000EDC0E8FF1F0B0001EC6101D0BFD7EDC02E
:1032800000F01F0E0016ECC0E8FF005CD8A0CED7FF
:10329000EDC0E8FF1F0B0001EC19D8A492D0EDC0DF
:1032A000E8FF3CD0EAC0E8FF0001EC616CD000010F
:1032B0008351D8B439D0000101EE34F07351E926BE
:1032C0007451EA22EF50006E00BE98D7EEC0E8FFBE
:1032D000E00BD8B475D0EEC000F01F0E0016ECC0A5
:1032E000E8FF005CD8B004D00BC1E8FF020A0AD0A6
:1032F000EEC0E8FF1F0B0001EC6107D0EEC0E8FF55
:10330000E00B800AD8B45CD079D7EEC0E8FF1F0B81
:103310000001EC19D8A455D0EEC0E8FFE00B200A5C
:10332000D8B44ED0020E6BD7000101EE34F07351C9
:10333000E9267451EA22EF50006E00BE5FD7EEC05E
:10334000E8FFE00BD8B43CD0EEC000F01F0E001632
:10335000ECC0E8FF005CD8A033D0EEC0E8FF1F0B44
:103360000001EC6105D0EEC0E8FFE00B800A62D7F7
:10337000EEC0E8FF1F0B0001EC19D8A422D0000119
:10338000EEBDD0D71DD000018351D8B40FD00001BD
:1033900001EE34F07351E9267451EA22EF50006EC9
:1033A00000BE0ED001010B53D8B40BD0000101EECA
:1033B00035F07351E9267451EA22EF50006E00B0E7
:1033C000D96A000101EE35F07351E9267451EA2201
:1033D000EF50006E00B00FD0000101EE34F07351D9
:1033E000E9267451EA22EF50006E000E00BE010E75
:1033F000006E016A03D0010E006E016A01500010D8
:10340000D8B4D96AD9501200010E0001846F856BBF
:10341000FF0EE8CFB2F216A60AD0810EE8CF10F167
:103420000201AD052009E8CF1CF1006A71D000014E
:10343000836B0001835102EED3F0E926000EEA22ED
:10344000FF0EEF6E8351836F846B20EC07F0006EEC
:1034500000C002F0036A03500210D8A403D0000198
:10346000846B856B0001832B070E8365E2D784058F
:103470008511D8B42EEC0AF00101186BD96AD95025
:1034800002EED3F0E926000EEA22EF50006E18C1DA
:10349000E8FF02EED3F0E926000EEA22EF50005CCE
:1034A000D8A025D0D95002EED3F0E926000EEA22AA
:1034B000EF50006E18C1E8FF02EED3F0E926000ECF
:1034C000EA22EF500018D8A414D0D95000EEF3F03F
:1034D000E926000EEA22EF50006E18C1E8FF00EE68
:1034E000F3F0E926000EEA22EF50005CD8A0D9CF15
:1034F00018F1D92A070ED964C2D700018551841169
:10350000D8A42ED018C1B2F2010E15BA03D0006EA5
:10351000016A2AD00001836F18C1E8FF2EDE000186
:10352000846F856B85518411D8A404D0030EE8CF35
:1035300010F116D0000184058511D8A411D018C14E
:1035400083F0846BA0EC06F00001846F856B84052A
:103550008511D8A405D0020EE8CF10F1846B856BDD
:1035600084C000F085C001F01200010E0001846FDC
:10357000856BFF0EE8CFABF216A60AD0810EE8CF1E
:1035800010F10201AD052009E8CF1CF1006A71D0ED
:103590000001836B0001835102EEBBF0E926000EAF
:1035A000EA22FF0EEF6E8351836F846B94EC08F078
:1035B000006E00C002F0036A03500210D8A403D0CA
:1035C0000001846B856B0001832B070E8365E2D7B6
:1035D00084058511D8B41CEC0AF00101186BD96A76
:1035E000D95002EEBBF0E926000EEA22EF50006E41
:1035F00018C1E8FF02EEBBF0E926000EEA22EF5008
:10360000005CD8A025D0D95002EEBBF0E926000E10
:10361000EA22EF50006E18C1E8FF02EEBBF0E92687
:10362000000EEA22EF500018D8A414D0D95000EEB2
:10363000F3F0E926000EEA22EF50006E18C1E8FF11
:1036400000EEF3F0E926000EEA22EF50005CD8A06D
:10365000D9CF18F1D92A070ED964C2D700018551F4
:103660008411D8A42ED018C1ABF212B204D0010E2E
:10367000006E016A2AD00001836B18C1E8FF7DDD6E
:103680000001846F856B85518411D8A404D0030E8A
:10369000E8CF10F116D0000184058511D8A411D00F
:1036A00018C183F0846BB2EC06F00001846F856B67
:1036B00084058511D8A405D0020EE8CF10F1846BE3
:1036C000856B84C000F085C001F01200D96E010E38
:1036D0000001876FD950886F896B2BEC02F00BC10A
:1036E00000F00004D8A42AD0000101EE35F0735197
:1036F000E9267451EA22EF50006E00A20BD0EBC015
:10370000E8FF1F0B0001EC19D8A416D0010E000130
:10371000876F14D0EAC0E8FF1F0B0001EC19D8B482
:10372000F5D7000101EE34F07351E9267451EA2215
:10373000EF50006E00B2EAD70001876B000187519D
:103740001200E80EF66E030EF76E0800F550E8CF93
:103750000CF1E90EF66E030EF76E0800F5CF83F25A
:10376000020E0201836501D0836BEA0EF66E030E32
:10377000F76E0800F5CF0EF1010E01010E6501D0C4
:103780000E6BEB0EF66E030EF76E0800F5CF0FF121
:10379000020E01010F6501D00F6BEC0EF66E030EE9
:1037A000F76E0800F5CF0BF1ED0EF66E030EF76E17
:1037B0000800F550E8CF15F1120015A40FD0640EE3
:1037C0000201B16503D0108C109E0FD00201B153DD
:1037D000D8B402D0108E08D0109E06D00201B16B72
:1037E00010AE02D0109E1180109C11AC0FD0640E50
:1037F0000201AA6503D0108410960FD00201AA53CB
:10380000D8B402D0108608D0109606D00201AA6B58
:1038100010A602D0109610881094120089000001A2
:103820008B6F050E0201AC6508D0AC6B12780001FD
:103830008A518C6F8B513DEC15F012000001856FA1
:10384000866B0001E2C0E8FF865DD8B017D00001AA
:10385000E80E8625896F8A6B030E8A238B6B8C6B2F
:10386000DCEC1DF0006E0001865100EED7F0E92679
:10387000000EEA2200C0EFFF862BE3D785C0DCF004
:10388000D3C089F0D4C08AF0E2C08BF08C0EF66E03
:10389000000EF76E020EF76407D0D5C0F5FF0D00DD
:1038A000D6C0F5FF0C0008D0F6CFE9FFF7CFEAFF4E
:1038B000D5C0EEFFD6C0EFFFCEEF00F00001876B62
:1038C000886B876B0001E2C0E8FF875DD8B017D036
:1038D0000001E80E8725896F8A6B030E8A238B6BA4
:1038E0008C6BDCEC1DF0006E0001875100EED7F010
:1038F000E926000EEA2200C0EFFF872BE3D7040081
:1039000000018805D8A417D0020E886F14D01C0EB1
:103910000001856F080E04D0180E0001856F020E9D
:10392000866F14D0230EF9D7160E01D0120E0001A7
:10393000856F030EF5D700018851E9E0010AECE03C
:10394000030AF0E0010AF0E0070AF0E00001855107
:10395000896F88518A6F885100EED7F0E926000EF2
:10396000EA22EF505CDF29DF11A011D0050E026EB4
:10397000036A010E88C000F0016A0026000E0122D1
:10398000A7EC1DF000500001886F119023D010A803
:1039900021D00001885100EED7F0E926000EEA227E
:1039A000EF50D96E86C002F0036A010ED9CF00F045
:1039B000016A0026000E0122A7EC1DF00050D96E0E
:1039C000885100EED7F0E926000EEA22D9CFEFFFAA
:1039D0001098108010BC02D010A491D710A01FD056
:1039E000D3C089F0D4C08AF0E2C08BF08C0EF66EA2
:1039F000000EF76E020EF76407D0D5C0F5FF0D007C
:103A0000D6C0F5FF0C0008D0F6CFE9FFF7CFEAFFEC
:103A1000D5C0EEFFD6C0EFFFCEEC00F0109091DEE7
:103A2000FF001200010ED96E10900201B16B02016D
:103A3000AA6B0201B96B0201B953D8B4FCD7BDDE41
:103A400010AC02D0D96A03D0040015B4F8D7D9500D
:103A5000D8A42DD00001836B0001E2C0E8FF835D94
:103A6000D8B017D00001E80E8325896F8A6B030E4A
:103A70008A238B6B8C6BDCEC1DF0006E0001835194
:103A800000EED7F0E926000EEA2200C0EFFF832BFC
:103A9000E3D7D96A1C0E0001896F8A6BD7C0E8FF93
:103AA000BEDE8BDE040010AC10B4F3D707DF10A02D
:103AB00048D6D3C089F0D4C08AF0E2C08BF08C0E17
:103AC000F66E000EF76E020EF76407D0D5C0F5FF54
:103AD0000D00D6C0F5FF0C0008D0F6CFE9FFF7CFF8
:103AE000EAFFD5C0EEFFD6C0EFFFCEEC00F010909D
:103AF00028D6006E046AD890FD0E01241AE3036AEA
:103B0000F00E011403E1040E036E013A026AD8902C
:103B1000032A0136FDE301320150005CD8B0006E8B
:103B20000236032EF8D704BE026C025004BE006CAD
:103B30001200013206E20132D8A0006AD8900032A9
:103B4000D8A0D89000C002F0006A0036ECD7066A10
:103B500001AE06D0001E004A0106011E068C068E2C
:103B60000350800B061A03AE4BEF01F0021E024A0F
:103B70000306031E4BEF01F07DEC01F0A684D89004
:103B8000F2BED880F29E550EA76EAA0EA76EA68230
:103B900000F0D8B0F28EA694120002500002F3CFCB
:103BA00004F0F4CF05F00102F350052603500002A3
:103BB000F35005261200890000018951F66E8A51E2
:103BC000F76E8B51F86E0800F86AF5501200046E1B
:103BD000042A0406D8B4000CD89000360136023608
:103BE0000336F7D7046E042A0406D8B4000CD89024
:103BF0000332023201320032F7D70900F5CFEEFF6F
:103C0000EA50E262FAD7E950E162F7D71200EE6AB1
:103C1000EA50E262FCD7E950E162F9D71200FFFFF7
:103C2000FFFFFFFFFFFFFFFFFFFFFFFFFFFFFFFFA4
:103C3000FFFFFFFFFFFFFFFFFFFFFFFFFFFFFFFF94
:103C4000FFFFFFFFFFFFFFFFFFFFFFFFFFFFFFFF84
:103C5000FFFFFFFFFFFFFFFFFFFFFFFFFFFFFFFF74
:0200000400F00A
:020000040030CA
:0E000000FF06160DFF8081FF0FC00FE00F40BE
:020000040020DA
:08000000FFFFFFFFFFFFFFFF00
:00000001FF
