:040000000CEF00F011
:10000800E9CF3AF0EACF3BF0E1CF3CF080EF14F0D3
:1000180002EE50F01E0EF66E0E0EF76E10EE04F0A5
:100028002DEC00F000EE00F0140EEE6AE806FDE19B
:1000380000EE60F011EEF0F026EC00F0000EF86E25
:1000480007EF0DF0EE6AE550E150FCE1E250FAE10D
:1000580012000900F5CFEEFFE550E150FAE1E25059
:04006800F8E11200A9
:100E0000000000000000410000595345003F06DB90
:100E1000CFE6EDFD27FFEF5C00060B070000B801F1
:100E2000010B02012A512A0DF3CF18F0F4CF19F06B
:100E3000640E1824E96E000E1920EA6EEF501A6E47
:100E40001AA202D0038401D00394010E166E176A11
:100E5000346B4669156A146A176A17C029F02A6A42
:100E6000E3EC10F02A5029103FE117C026F0276A62
:100E70008EEC15F0275026103EE1166A17C02AF0B6
:100E80002B6A45EC13F017C01FF0206AE7EC1AF04C
:100E9000000911E117C01FF0206ADCEC1CF000090A
:100EA0000AE117C01FF0206A5EEC18F020501F10F6
:100EB00002E1010E156E17C023F0246AF4EC1CF059
:100EC000000919E117C023F0246A0AEC1BF000099D
:100ED00012E117C023F0246A7AEC16F02450231094
:100EE0000AE1010E146E07D0EC0E1724E96EEA6ACF
:100EF000010EEA22EF6A0201100E1724E96EEA6A77
:100F0000020EEA22EF50346108D0100E1724E96E69
:100F1000EA6A020EEA22EF50346F180E1724E96EC7
:100F2000EA6A020EEA22EF501A6E46511A5C08E293
:100F3000180E1724E96EEA6A020EEA22EF50466F95
:100F4000172A070E176489D7156602D000EC1DF02A
:100F5000146602D00AEC1DF016660DD0010E166E56
:100F6000176A175097EC1AF00009D8A4166A172AC6
:100F7000070E1764F6D71666AAD0FF0E0101FD25ED
:100F80001A6E1B6AFF0E1B22020134C21CF0CEEC4B
:100F90000CF001E29CD002A640D015503EE0DC0EE1
:100FA00036613ED036513CE00101FE6702D0176A3F
:100FB00002D0010E176E175034C21AF01B6A1A269F
:100FC000000E1B22FF0E0101FD251C6E1D6AFF0E87
:100FD0001D221D50800A1E6E1A501C5C1B50800A78
:100FE0001E581EE203A215D002A404D08BAE39EC29
:100FF0001DF016D002A203D02BEC1DF011D08BBE39
:1010000004D039EC1DF002840BD02BEC1DF00282D1
:1010100007D08BAE39EC1DF003D0366B02940292F0
:1010200000A845D0145043E0DC0E02013E61DC0C08
:101030003E51D8B41200FF0E0101FD251A6E1B6A45
:10104000FF0E1B2246C21CF0CEEC0CF003E3FE5157
:10105000D8B412000101FE671CD0010EFD65010C21
:1010600003A213D002A004D08BAC32EC1DF012000E
:1010700001BE1DEF1DF08BBC04D032EC1DF00280D0
:1010800012001DEC1DF0018E12008BAC32EC1DF035
:10109000120002012A51BFEC1AF0000902E132EFFE
:1010A0001DF043EC1DF0009C0201326B12000201A6
:1010B0003E6B0290019E03B212000101FE51D8B4B2
:1010C000120043EC1DF0009C0201326B12000AEC8E
:1010D0001DF000EF1DF0E8CFE1FFE1502A0DF3CF46
:1010E00014F0F4CF15F001900196870E1424E96EE8
:1010F000000E1520EA6E3F51EF6201D00186860E88
:101100001424E96E000E1520EA6EEF50166E860E5E
:1011100073EC0CF016AE0AD06DEC0CF004E1028614
:101120000A0E0201366F860E73EC0CF0EA6EEF5079
:10113000166E16AC0CD0860E1424E96E000E152027
:101140006DEC0CF004E100880A0E02013E6F600EA7
:101150001424E96E000E1520EA6EEF500201386F7C
:10116000660E1424E96E000E1520EA6E420EEF6240
:1011700002D01F0E1DD0660E67EC0CF0310EEF6230
:1011800002D0060E15D0660E1424E96E000E15204E
:10119000EA6E320EEF6202D00B0E0AD0660E1424F5
:1011A000E96E000E1520EA6E330EEF6203D0070ED3
:1011B000446F01D0446B8B50E00BD96E4451D9126F
:1011C000D9CF8BFF670E1424E96E000E1520EA6E4E
:1011D000EF50D00F3B6F3B510D0F166E16C0F6FF50
:1011E0000E0EF76E0800F5CF48F2446704D03B05B9
:1011F00002E1300E0AD0670E1424E96E000E1520AD
:10120000EA6E460EEF6202D0710E486F630E5FEC1D
:101210000CF016A203D0446BF30E486F48C28CFF4B
:10122000630E5FEC0CF016AA02D08A8E01D08A9E63
:10123000610E5FEC0CF016AE02D08B8A01D08B9A57
:10124000620E5FEC0CF016A002D08A8801D08A985A
:10125000019A02AE06D0630E5FEC0CF016A806D021
:1012600004D0610E5FEC0CF016B0018A610E1424FC
:10127000E96E000E1520EA6EEF50166E620E142411
:10128000E96E000E1520EA6EEF50166E0298610EA0
:101290005FEC0CF016BE0288009A620E5FEC0CF058
:1012A00016B0008A630E1424E96E000E1520EA6E53
:1012B000EF50166E630E1424E96E000E1520EA6ED0
:1012C000EF50166E019C630E5FEC0CF016B4018CAF
:1012D000620E67EC0CF0EF50166E620E1424E96E8D
:1012E000000E1520EA6EEF50166E620E1424E96EA1
:1012F000000E1520EA6EEF50166E610E1424E96E92
:10130000000E1520EA6EEF50166E630E1424E96E7F
:10131000000E1520EA6EEF50166E630E1424E96E6F
:10132000000E1520EA6EEF50166E0090610E5FEC15
:101330000CF016BA0080610E1424E96E000E152020
:10134000EA6EEF50166E630E1424E96E000E15203F
:10135000EA6EEF50166E750E1424E96E000E15201D
:10136000EA6EEF50166E8A9A620E5FEC0CF016BEB3
:101370008A8A8A9C610E5FEC0CF016BC8A8C120083
:10138000D96A1AC02AF01BC02BF045EC13F01A5092
:10139000040FE96EEA6AFF0EEF681AC023F01BC063
:1013A00024F050EC1BF0000901E0010CFE671CD09A
:1013B0001AC023F01BC024F0F4EC1CF0000901E07B
:1013C000010C1AC023F01BC024F00AEC1BF000092A
:1013D00001E0010C1AC023F01BC024F07AEC16F0D7
:1013E0002450231001E0010C1AC023F01BC024F08C
:1013F000E1EC15F0010E1C6E00BE02D08BACFDD0EE
:101400001C6AF451EB6120D0610E16EC0CF01DAE9D
:101410000CD01A5011EC0CF02551020D0101EB51CA
:10142000F35C1D6EF4511D5CA9D0620EC325E96EFC
:10143000000EC421EA6EEF501D6E1A50040FE96EC3
:10144000EA6AEB51F45D48D0EB51F46164D0610E6F
:1014500016EC0CF01DAE42D0020129AF05D01A5097
:10146000040FE96EEA6AD8D729511F0B0101EB611D
:101470004BD01A50040FE96EEA6A020129511F0B82
:10148000020D0101EB51F35C1D6EF4511D5C0C0F5C
:10149000EF6E29C21DF01F0E1D161DC01EF01F6A23
:1014A000EB51020140C220F0216A2026000E2122C9
:1014B0002150800A226E1E50205C1F50800A225844
:1014C0007CE31A50040FE96EEA6A29C21DF01F0E70
:1014D0001D160101EB511D5C080F6ED0620EC32575
:1014E000E96E000EC421EA6EEF501D6E1A50040F13
:1014F000E96E1DA00CD0EA6A020129511F0BFE0DF6
:10150000F3502525010139D01A50040FE96EEA6A1B
:10151000F451EB5DE1D7620EC325E96E000EC421E4
:10152000EA6EEF501D6E610EC325E96E000EC421F8
:101530001DA02AD0EA6EEF501D6E1DB002BE01D074
:1015400006D0630E16EC0CF01DB802AE06D01A5091
:10155000040FE96EEA6A000E2FD002010CEC0CF0C9
:101560000FE102011A50040FE96E2BAF1DD0EA6A99
:101570002751FE0DF3500101EB25F4250C0F1CD073
:101580001A5011EC0CF0F4D7EA6EEF501D6E1DAE40
:101590000ED002010CEC0CF001E03BD702011A5016
:1015A000040F2BAD5ED7E96EEA6A010E05D01A5022
:1015B000040FE96EEA6A020EEF6E1AC023F01BC038
:1015C00024F0B3EC1CF0000918E11A50040FE96E86
:1015D000EA6A990EEF6406D01A50040FE96EEA6ABF
:1015E000FE0E0AD01A50040FE96EEA6A1A50040F70
:1015F000E16EE26AE750640FEF6E1C501200D96A88
:101600001A500C0FE96EEA6AFF0EEF681AC02AF052
:101610001BC02BF045EC13F01AC023F01BC024F0C4
:1016200050EC1BF0000901E0010CFE671CD01AC051
:101630001FF01BC020F0E7EC1AF0000901E0010CDC
:101640001AC01FF01BC020F0DCEC1CF0000901E008
:10165000010C1AC01FF01BC020F05EEC18F02050E7
:101660001F1001E0010C1AC023F01BC024F0E1ECB4
:1016700015F0010E1C6E02BC02D08BAECBD01C6AE2
:10168000F451EB6147D0620E47EC0CF01DA03CD04A
:10169000020129AD0BD01A500C0FE96EEA6A2751EE
:1016A000FE0DF3500101EB25F42572D029C21DF087
:1016B00041EC0CF022E21A500C0FE96EEA6A0201CA
:1016C00029511F0BFE0DF3500101EB25F4250C0FE2
:1016D000EF6E020129511F0B40251D6E41EC0CF0ED
:1016E00079E31A500C0FE96EEA6A29C21DF01F0E49
:1016F0001D161D50EB5D080F6CD01A500C0FE96ED3
:10170000EA6AEB51F45DF7D7610E47EC0CF01DAEC1
:10171000F4D740D0EB51F46110D0610E47EC0CF0DF
:101720001DBE05D0620E47EC0CF01DB049D01A501A
:101730000C0FE96EEA6AF451DDD7610E47EC0CF04C
:101740001DAE2CD0610E47EC0CF01DB002BE01D0D6
:1017500006D0630E47EC0CF01DB802AE06D01A504E
:101760000C0FE96EEA6A000E34D002013CEC0CF07A
:1017700011E102011A500C0FE96E2BAD1ED0EA6A7E
:101780002551020D0101EB51F35C1D6EF4511D5CFE
:101790000C0F1FD01A5037EC0CF0F2D7620E47EC4A
:1017A0000CF01DA011D002013CEC0CF009E102018B
:1017B0001A500C0F2BAF71D7E96EEA6A010E09D0EF
:1017C0001A5037EC0CF06BD71A500C0FE96EEA6A1E
:1017D000020EEF6E1AC01EF01BC01FF0C1EC1CF011
:1017E000000918E11A500C0FE96EEA6A9A0EEF64CC
:1017F00006D01A500C0FE96EEA6AFE0E0AD01A5093
:101800000C0FE96EEA6A1A500C0FE16EE26AE750BB
:10181000640FEF6E1C5012002B511F0B0101EB19CE
:101820001200040FE96EEA6A02011200C325E96E94
:10183000000EC421EA6EEF501D6E1200610EC3252A
:10184000E96E000EC421EA6EEF50146E1200C3253B
:10185000E96E000EC421EA6EEF501F6E1200C32520
:10186000E96E000EC421EA6EEF501F6E12000C0FDD
:10187000E96EEA6A020112002B511F0B0101EB19FC
:1018800012001F0E1D160101EB511D5C1200C32535
:10189000E96E000EC421EA6EEF501D6E1200EA6E72
:1018A000EF500C0B4D6E1200BE0E516E010E526EBB
:1018B0001200D89058325732563255321200142442
:1018C000E96E000E1520EA6EEF50166E1200142419
:1018D000E96E000E1520EA6E1200EA6EEF503F0B23
:1018E0000101FD1912001424E96E000E15201200EA
:1018F000080E465C000E475812004120496E48C051
:10190000E9FF49C0EAFF600E4A6E4B6A42504A2620
:1019100043504B2246504A24E16E47504B20E26E22
:10192000EFCFE7FF120046504024486EE86A1200ED
:10193000146E060E142614C0F6FF0E0EF76E080085
:10194000F5CF15F01200386A3850800A396E3550DC
:10195000375C3650800A395812003424E96EEA6A3E
:10196000010EEA22EF2A342A070E12002B24E96E18
:10197000000E2C20EA6EEF502D6E1200C325E96E8A
:10198000000EC421EA6EEF502C6E1200C325E96EE2
:10199000000EC421EA6EEF50246E12001D6A1D5025
:1019A000800A1E6E1A501C5C1B50800A1E581200C2
:1019B000C325E96E000EC421EA6EEF50256E1200B9
:1019C0002624E96EEA6A010EEA22EF6A1200265125
:1019D0001F0B0101EB1912001F0E1B160101EB5129
:1019E0001B5C1200C325E96E000EC421EA6EEF50A5
:1019F000296E12001F0E1B16EB511B5C1200C32533
:101A0000E96E000EC421EA6EEF501B6E1200F29ECA
:101A10001DEC14F0DEEC17F088EC1CF08B9A8A9821
:101A20008A908A928A9C8A9A8B9C8B9E029C009EAA
:101A3000029A009C0201336B326B00960198CFEC46
:101A40001CF0B4EC13F00FEC17F0F28E02013B6BBC
:101A50004C6B0101EC6BFDC13FF2029E03A005D06F
:101A6000FD51400F02013F6F028E01960094050E5A
:101A700002014B6504D04B6B017021EC18F00201A0
:101A80002A5113EC1AF00400030E0101EC65EFD7A4
:101A900000A604D037C2BDF1A5EC1CF0F29E01886F
:101AA0000FEC17F0F28E018002014B6B21EC18F065
:101AB000030E0201476F496F416B456B0101FE0543
:101AC00003E1020E0201456F00A403D00094A5ECCF
:101AD0001CF00400D5EC18F02A516BEC08F02A51E8
:101AE00055EC10F014EC1DF011EC07F00201395127
:101AF000EBE0EFEC1BF0020124516CEC11F01550FF
:101B0000141003E1B1EC19F025D002AC10D00201A1
:101B100033510DE024C228F2040E416F0101FD058E
:101B2000D96ED9508009B16FB1EC19F013D003A26E
:101B300017D002AA11D0020133510EE024C228F2BC
:101B4000010E416F0101FD05E16EE1508009B16FA9
:101B5000B1EC19F0019604D00201336701D0029A6A
:101B600002012451E5EC11F01550141006E10101B9
:101B7000FE6703D0E2EC19F025D000AE10D00201D0
:101B800032510DE024C228F2040E416F0101FD051F
:101B9000D96ED9504009B16FE2EC19F013D003A20D
:101BA00017D000AC11D0020132510EE024C228F24D
:101BB000010E416F0101FD05E16EE1504009B16F79
:101BC000E2EC19F0019604D00201326701D0009CCA
:101BD00001A60AD02AC228F2FE0E0201416F0101BD
:101BE000B16B0196E2EC19F00201396B6DD777AE5B
:101BF00002D0779E120077AC02D0779C120077AAB1
:101C000013D0779A71BE719E71BC719C71BA719A32
:101C100071B8719871B6719671B4719471B2719214
:101C200071B07190716A120077A202D0779212009F
:101C300077A0120002014A6B5EEC12F021AB83D058
:101C400020A73AD0040E446E456AD89044364536F3
:101C5000D89044364536D8904436453624512A0D1E
:101C60004450F324426E4550F420436E660E406E9D
:101C70000F0E416E466A476A93EC0CF046BEE86868
:101C80007DEC0CF0464A472A78EC0CF0F5E3010EA7
:101C90000201396FF50E2425E96EEA6A010EEA2287
:101CA000EF6A245198EC0FF0020124516FEC1BF005
:101CB00000096FE1396B6DD0396B2051070B446E11
:101CC000456AD89044364536D89044364536D89043
:101CD0004436453624512A0D4450F324426E455073
:101CE000F420436E660E406E0F0E416E466A476AE0
:101CF00093EC0CF046BEE8687DEC0CF0464A472AAF
:101D000078EC0CF0F5E34550441043E10201245116
:101D10006FEC1BF000093DE1600E4224E96E000EFD
:101D20004320EA6EEF6A610E4224E96E000E432002
:101D3000EA6EEF6A620E4224E96E000E4320EA6EFC
:101D4000000EEF6A26D0396B24516FEC1BF00009AE
:101D500020E0660E406E0F0E416E466A476A93ECB5
:101D60000CF046BEE8684120496E48C0E9FF49C012
:101D7000EAFF0101DB0E4624E16EE26A010EE22277
:101D8000EFCFE7FF464A472A78EC0CF0E8E36EEC29
:101D90001AF07790609E1200E8CFE1FFE1CF2AF0C1
:101DA0002B6A45EC13F0020ED96E030E0201416F4F
:101DB0001A5009E00101EB518009B16FFE5107E0B3
:101DC000EB51200903D00101EB514009B16FB25131
:101DD00002AE02D0010901D0FE0BB26FEB51F461EB
:101DE0003CD01A5022E0620EFFEC0CF01BA003D096
:101DF000010ED96E90D0FF51E00B01E18BD0FF5165
:101E00001F0BEB6101D086D0FFC11BF0FAEC0CF088
:101E100005E2FF51E00B400AEBE17CD0FF511F0BC4
:101E2000EB1979E1FFAF76D043D0620EFFEC0CF0F6
:101E30001BB0DED7FF51E00B6DE0FF511F0BEB61D4
:101E400001D0D6D7FFC11BF0FAEC0CF0E2E3FF5152
:101E50001F0BEB1960E1FF5128D0F451EB614BD01F
:101E60001A5028E0610EFFEC0CF01BBEC1D7020136
:101E70002651E00B4FE026C21BF0ECEC0CF003E225
:101E8000FE51020A0AD0020126511F0B0101EB612B
:101E900006D002012651E00B800A3CE0A9D70201DE
:101EA000E7EC0CF038E102012651E00B200A32E0A9
:101EB000020E9FD7610EFFEC0CF01BBE99D70201FA
:101EC0002651E00B27E026C21BF0ECEC0CF022E3DD
:101ED000020126511F0B0101EB6105D002012651C1
:101EE000E00B800A99D70201E7EC0CF014E1020143
:101EF00026BDDED70FD01A5009E0610EFFEC0CF0C2
:101F00001BBED96A03B207D0FE5105E0620EFFEC9A
:101F10000CF01BB0D96A620E0101FFEC0CF01BB093
:101F200005D0610EFFEC0CF01BAED96AD95012003F
:101F3000E8CF4CF04C502A0DF3CF4EF0F4CF4FF0D9
:101F4000660E4E24E96E000E4F20EA6E390EEF62E7
:101F5000390C670E4E24E96E000E4F20EA6E310EEA
:101F6000EF62310C610E4E24E96E000E4F20EA6ED6
:101F7000EF50506E50BA1200700E4E24E96E000EF3
:101F80004F20EA6EEF50C00BC00AD8A41200700EAA
:101F90004E24E96E000E4F20EA6EEF50030B4D6E9B
:101FA000546A4DC053F0010154EC0CF07FEC19F071
:101FB000700E4E24E96E000E4F204FEC0CF0D890BE
:101FC0004D32D8904D32010E546E4DC053F054EC4A
:101FD0000CF07FEC19F0700E4E24E96E000E4F20CD
:101FE000EA6EEF50300B4D6E4D3A0F0E4D16020E4D
:101FF000546E4DC053F054EC0CF07FEC19F0740E9D
:102000004E24E96E000E4F20EA6EEF50030B4D6E2A
:10201000030E546E4DC053F054EC0CF07FEC19F0ED
:10202000740E4E24E96E000E4F204FEC0CF0D89049
:102030004D32D8904D32040E546E4DC053F054ECD6
:102040000CF07FEC19F0710E4E24E96E000E4F205B
:10205000EA6EEF50536EBF0E516E010E526E2DECB4
:102060001CF0720E4E24E96E000E4F20EA6EEF5007
:10207000536EBC0E516E010E526E2DEC1CF0730EA1
:102080004E24E96E000E4F20EA6EEF50536EBB0EE9
:10209000516E010E526E2DEC1CF04C28536EB80E92
:1020A000516E010E526E2DEF1CF0E8CF14F014505B
:1020B0002A0DF3CF15F0F4CF16F0650E1524E96E56
:1020C000000E1620EA6EEF50D96ED9501F0BE16E4C
:1020D000009201940192FF0E0101FD25176E186A0E
:1020E000FF0E1822E150171818101EE1FD510201D1
:1020F00038631AD002B802D000AA16D000A014D0BB
:1021000001AA04D002A80ED001840DD06C0E1524B3
:10211000E96E000E1620EA6EEF50D96ED9BEF4D7E4
:10212000D9AC02D00182008200A223D00A0E196E1F
:1021300002013A5119EC1CF03A6F01A40CD0040EC4
:102140003A6502D08A9001D08A808A9214503D6309
:1021500012008A82120001A21200040E3A6502D017
:102160008A9201D08A828A901450356312008A8044
:1021700012001450020135630FD014503D630CD08F
:102180000101FD510201386101D001843851010182
:10219000FD610BD0018209D01450356302D0018457
:1021A00004D014503D6301D0018201A402D08A8082
:1021B00006D001A203D08A828A9002D08A908A92A5
:1021C00002013A6B12000201100E2924E96EEA6A3C
:1021D000020EEA22EF6A180E2924E96EEA6A020E5C
:1021E000EA22EF682A0E326E000E336A29C030F000
:1021F0002AC031F0D9EC1BF030C02BF031C02CF0EC
:10220000630EB6EC0CF02DA004D0010E296E2A6AE4
:10221000000C610EB6EC0CF02DBA04D0010E296E44
:102220002A6A000C610EB6EC0CF02DA604D0010E4B
:10223000296E2A6A000C630EB6EC0CF02DA204D0B5
:10224000010E296E2A6A000C620EB6EC0CF02DA865
:1022500004D0010E296E2A6A000C620EB6EC0CF056
:102260002DA404D0010E296E2A6A000C640EB6EC6F
:102270000CF02DA208D02A5129182A1004E0010ED2
:10228000296E2A6A000C03A408D02A5129182A10A2
:1022900004E0010E296E2A6A000C7F0E2B24E96EE1
:1022A000000E2C20EA6E100E2924E16EE26A020E66
:1022B000E222EFCFE7FF7E0E2B24E96E000E2C20EA
:1022C000EA6E180E2924E16EE26A020EE222EFCFD6
:1022D000E7FF296A2A6A1200010E176E186A35692B
:1022E00003A609D0810E416F0101FD052009B16FE0
:1022F000146A156A1200166A16500C0FE96EEA6A23
:10230000FF0EEF6816C01AF01B6AFFEC0AF0000916
:1023100002E1176A186A162A070E1664EDD7020141
:10232000286BD96AD9500C0FE96EEA6AEF50196E22
:10233000020128510C0FE96EEA6AEF50195C1DE3A7
:1023400028510C0FE96EEA6AD9500C0FE16EE26A6F
:10235000E750EF6214D0E30ED924E96EEA6A010E69
:10236000EA22EF50196EE30E2825E96EEA6A0101B0
:10237000010EEA22EF50195CD8A0D9CF28F2D92A51
:10238000070ED964CFD7185017101AE128C235F2BA
:10239000010E02BC03D0146E156A000C1A6E020105
:1023A0002851CCEC0EF0176E186A1850171004E183
:1023B000030E0201416F04D0010E176E000E186A61
:1023C00017C014F018C015F01200010E176E186A2D
:1023D0003D6903A609D0810E416F0101FD05200969
:1023E000B16F146A156A1200166A1650040FE96E6E
:1023F000EA6AFF0EEF6816C01AF01B6AC0EC09F01B
:10240000000902E1176A186A162A070E1664EDD74A
:102410000201286BD96AD950040FE96EEA6AEF50BD
:10242000196E02012851040FE96EEA6AEF50195C37
:102430001DE32851040FE96EEA6AD950040FE16EDA
:10244000E26AE750EF6214D0E30ED924E96EEA6A3B
:10245000010EEA22EF50196EE30E2825E96EEA6AB2
:102460000101010EEA22EF50195CD8A0D9CF28F261
:10247000D92A070ED964CFD7185017101AE128C2ED
:102480003DF200BE04D0010E146E156A000C1A6AEB
:1024900002012851CCEC0EF0176E186A1850171074
:1024A00004E1030E0201416F04D0010E176E000E0D
:1024B000186A17C014F018C015F0120061504E6E63
:1024C0004D6A62CF4FF0506A4F504D10426F5050DE
:1024D0004E10436F050E556ED89043334233552E40
:1024E000FBD76250030B516E526A536A546A51C053
:1024F00055F052C056F053C057F054C058F056C073
:1025000058F055C057F0566A556A55C020F256C06B
:1025100021F257C022F258C023F26350516E526A22
:10252000536A546A53C054F052C053F051C052F031
:10253000516A5150201352502113535022135450BA
:1025400023136450516E526A536A546A51502013D7
:10255000525021135350221354502313556AC00E66
:102560002115566E576A586A0F0E02D059EC0CF0BE
:10257000E82EFCD755504C6E4C50030B246F556A17
:10258000C00E2115566E030E2215576E586A0F0E97
:1025900002D059EC0CF0E82EFCD755504C6E4C5044
:1025A000070B246F1200E8CFD9FF02012751D96031
:1025B00001D0000CD950256101D0000C2A502561B2
:1025C00001D0000C27512A6001D0000CD9502A609C
:1025D00001D0000CF46A710E0101C325E96E000EF2
:1025E000C421EA6EEF502D6E720EC325E96E000E07
:1025F000C421EA6EEF502E6E730EC325E96E000EF5
:10260000C421EA6EEF502F6E740EC325E96E000EE2
:10261000C421EA6EEF50306ED9CF2BF02C6A2BC05C
:1026200031F02CC032F0D89032323132D890323280
:102630003132D890323231323150F36E2B50070B99
:10264000E96EE9CF31F0010E326E312A02D0D89016
:102650003236312EFCD73250E16E12D02D0EF324DB
:10266000E96EEA6A000EEA22EF50E114D8A4F42AD7
:10267000D890E136E16603D0010EE16EF32AD92A43
:10268000D9502A60EBD7F45012000101FD05EB6F21
:102690002A0E326E000E336A2AC030F02BC031F0A1
:1026A000D9EC1BF030C0C3F131C0C4F1600EC325BA
:1026B000E96E000EC421EA6EEF502C6E2C04F46F0C
:1026C0007F0EC325E96E000EC421EA6EEF500201B1
:1026D000256F7E0E0101C325E96E000EC421EA6E4E
:1026E000EF500201276F6D0E0101C325E96E000E48
:1026F000C421EA6EEF50FF6F6E0EC325E96E000E27
:10270000C421EA6EEF500201266F650E0101C32558
:10271000E96E000EC421EA6EEF5002012B6F650EC8
:102720000101C325E96E000EC421EA6EEF500201DB
:10273000296F610E0101BEEC0CF02CAE06D0FF51EA
:10274000E00BD8A4FFC129F21200620EBEEC0CF01F
:102750002CA007D002012651E00BD8A426C229F2F2
:102760001200F4C129F21200C2EC1BF0010EF66E49
:102770000E0EF76E08000201F5CF2AF2010E146E5C
:10278000030E142614C0F6FF0E0EF76E0800F5CFE8
:102790004DF2020E4D6501D04D6B010E146E040E0C
:1027A000142614C0F6FF0E0EF76E0800F5CFFEF1EA
:1027B000010E146E050E142614C0F6FF0E0EF76EF1
:1027C00008000201F5CF37F20392010E98EC0CF0ED
:1027D00015B00382010E146E060E142614C0F6FF07
:1027E0000E0EF76E0800F5CF15F0010E146E060EF2
:1027F000142614C0F6FF0E0EF76E0800F5CF15F084
:10280000010E146E060E142614C0F6FF0E0EF76E9F
:102810000800F5CF15F00390010E98EC0CF015B8F8
:102820000380010E146E070E142614C0F6FF0E0E60
:10283000F76E0800F5CF40F21200F29EF29CF28A89
:10284000F298F296F294F292F290F18EF19CF19A53
:10285000F198F184F190F06AD58ED59CD59AD598EF
:10286000D596D594D592D580D390D392A89AA8889E
:10287000A886A884A892A880D190D09ED098D096FF
:10288000D094D092D090CD8ACD88CD82CD86CD9473
:10289000CD9CCD9ECD80CA6AC76AC69EC69CC69A8C
:1028A000C698C696C684C692C680C56AC26AC16A00
:1028B000C06A0F015D6B5C6BBB6A506B4D6B4A6B02
:1028C000476BBF6ABE6AB56AB16AAC6AAB6A7F9E83
:1028D0007F9C7F9C7F987F967F947F927F90786A81
:1028E000776A766AA56AA46AA36AA26AA16AA06ADC
:1028F0009F6A9E6A9D6A469F469D469B4699120026
:10290000E2CF3DF0F3CF3EF0F4CF3FF0F2A446D05B
:10291000F294180ED66EFC0ED76E02014F2B84B2C5
:1029200002D0028601D0029684B002D0008801D085
:1029300000984E2B640E4E6531D04E6B4A2B346A94
:10294000F50EADEC0CF03464FBD702014B2B3A2BA7
:10295000DC0E356E366A4551355E000E365A36C28B
:1029600037F0A3EC0CF0D8A0362BDC0E356E366AAF
:102970004551355E000E365A3EC237F0A3EC0CF0DE
:10298000D8A03E2B4C2B0A0E4C6508D04C6B346AF9
:102990000101EC0EADEC0CF03464FAD77750D8A4FA
:1029A000F7EC0DF03FC0F4FF3EC0F3FF3DC0E2FF87
:1029B0003CC0E1FF3BC0EAFF3AC0E9FF1100E8CFAD
:1029C000D9FF19C021F01AC022F0050ED890213687
:1029D0002236E82EFBD7E00E2114196E22501A6E13
:1029E000030E1D161E6A1DC01FF01EC020F01F50D2
:1029F000191220501A121BC0F3FF1CC0F4FFD9504B
:102A00000AE0010A0BE0030A0CE0010A0DE0070AE4
:102A10000EE0010A0FE00E01E00E0ED00E01E40EF2
:102A20000BD00E01E80E08D00E01EC0E05D00E0101
:102A3000F00E02D00E01F40EE16E0E0EE26E1A5090
:102A4000E76EE128E96E000EE220EA6E19500809EF
:102A5000EF6E020EE124E96E000EE220EA6EF45001
:102A6000EF6E030EE124E96E000EE220EA6EF3CF72
:102A7000EFFF1200E8CFD9FF14C01CF015C01DF005
:102A8000050ED8901C361D36E82EFBD7E00E1C1420
:102A9000146E1D50156E030E1816196A18C01AF020
:102AA00019C01BF01A5014121B50151216C0F3FF58
:102AB00017C0F4FF2CD015500F01216F14C022FF56
:102AC0002287F450236FF3CF24FF120015500F011B
:102AD000116F14C012FF1287F450136FF3CF14FF5D
:102AE000120015500F01016F14C002FF0287F4504D
:102AF000036FF3CF04FF120015500F01216F14C0B4
:102B000022FF2287F450236FF3CF24FF1200D95005
:102B1000D2E0010ADBE0030AE4E0EED72A0E326ECF
:102B2000000E336A26C030F027C031F0D9EC1BF01C
:102B300030C028F031C029F0680E2824E96E000E5C
:102B40002920EA6EEF502A6E690E2824E96E000EE5
:102B50002920EA6EEF502B6E6A0E2824E96E000ED3
:102B60002920EA6EEF502C6E6B0E2824E96E000EC1
:102B70002920EA6EEF502D6E0101FD05D96ED9387E
:102B8000E8461F0BF36ED9CF2EF0070E2E16010E5E
:102B90002F6E2E2A02D0D8902F362E2EFCD72F50F3
:102BA000E16E2A0EF324E96EEA6A000EEA22EF5083
:102BB000E11404E1010E266E276A000C266A276ADA
:102BC0001200E30E2324E96EEA6A010EEA22640E83
:102BD000EF6E020129511F0B0101EB1908E1E30E11
:102BE0002324E96EEA6A010EEA22EF6A000C020170
:102BF00029511F0B0101F41928E1620EC325E96E6A
:102C0000000EC421EA6EEF50256E25A209D0E30E16
:102C10002324E96EEA6A010EEA22030EEF6E030C2A
:102C2000610EC325E96E000EC421EA6EEF50256ED9
:102C3000E30E2324E96EEA6A010EEA2225A202D0FD
:102C4000EF6E010C020EEF6E020CE30E2324E96E10
:102C5000EA6A010EEA22090EEF6E090CE8CFD9FFED
:102C6000D9CF2AF02B6A45EC13F00101F4511F0B68
:102C7000EB19D8A412001EEC0CF014AA120002BE2C
:102C800004D01EEC0CF014B00CD002AE1200630E97
:102C9000C325E96E000EC421EA6EEF50146E14A82D
:102CA0001200610EC325E96E000EC421EA6EEF50DA
:102CB000146E14BE02D0FE5108E04CEC1DF0000969
:102CC00004E140EC1DF00201336B620E0101C325EB
:102CD000E96E000EC421EA6EEF50146E14A01200CB
:102CE0004CEC1DF00009D8A4120043EC1DF00201C9
:102CF000326B12000101FE6702D0E96A02D0010EB8
:102D0000E96EE950EBC126F0276A2626000E27223D
:102D1000020127C228F0296A2950800A2A6E26500B
:102D2000285C2750800A2A5804E3010E236E246A87
:102D3000000C27C2F3FF0101FE6703D0010ED96E1C
:102D400001D0D96AD950EB5DF46EF338E8461F0B19
:102D5000E16EF3CF26F0070E2616010E276E262A07
:102D600002D0D8902736262EFCD72750256EF4CFD8
:102D70002DF0F3CF2CF025C02BF0E15055EC17F0DF
:102D80002B50E16EE1CF23F0246A120026C029F017
:102D900027C02AF0E3EC10F02A5029100BE00101C3
:102DA000EC0E2624E96EEA6A010EEA22EF6A266E2C
:102DB000276A000C620E0101C325E96E000EC421D2
:102DC000EA6EEF50286E28A203D0EC0EE0EC0CF077
:102DD000FF51E00B07E102012651E00B03E1EC0E8D
:102DE000E0EC0CF00101EC0E2624E96EEA6A010E1B
:102DF000EA22140EEF6410D0F4511F0BEB190CE013
:102E0000EC0E2624E96EEA6A010EEA22150EEF6E38
:102E1000010E266E276A000C266A276A120024EC2F
:102E20001DF0A7EC1BF0708A70980E01459D609E06
:102E3000608C609A60946090609660920F01309F01
:102E4000308D309B30953083309130970E01E18783
:102E5000E587E987ED87F187F58741EC1CF02DECDC
:102E60001BF00F01259D2097109700977892786AA4
:102E7000769E769C768A0E017F997F977F957E83DA
:102E80007E811F0E6F16F36AF46A600EF324E96EFA
:102E9000000EF420EA6EEF6AF34AF42A500EF35C57
:102EA000010EF458D8B01200F0D7E8CFD9FF680E61
:102EB000C325E96E000EC421EA6EEF502E6E690E36
:102EC000C325E96E000EC421EA6EEF502F6E6A0E24
:102ED000C325E96E000EC421EA6EEF50306E6B0E12
:102EE000C325E96E000EC421EA6EEF50316E2E0E3E
:102EF000D924E96EEA6A000EEA22EF502B1403E0AF
:102F00002B6A2C6A1200D8902B362B660AD0D95027
:102F1000030A04E1010E2B6E2C6A000CD92A010E63
:102F20002B6E2D502C5C04E3010E2B6E2C6A000CD2
:102F30002C2ADDD7E8CFD9FF18C020F019C021F026
:102F4000050ED89020362136E82EFBD7E00E20144F
:102F5000186E2150196E030E1C161D6A1CC01EF03F
:102F60001DC01FF01E5018121F5019121AC0F3FF77
:102F70001BC0F4FF1ED019500E01F86F18C0F9FEE7
:102F8000F450FA6FF3CFFBFE120019500E01FC6FE4
:102F900018C0FDFEF450FE6FF3CFFFFE1200195073
:102FA0000E01F86F18C0F9FEF450FA6FF3CFFBFE74
:102FB0001200D950E0E0010AE8E0F1D79684968249
:102FC0009680959E959C959A9598959695949592B0
:102FD0009590949E949C949A949894969494949298
:102FE0009490939E939C939A9398938693949392A0
:102FF0009390928C928A92869284928292808D94FF
:103000008D928D908C9E8C9C8C9A8C988C968C94A6
:103010008C928C908B9E8B9C8B9A8B988B968B949E
:103020008B928B908A9E8A9C8A9A8A988A968A9496
:103030008A828A90899C899A8996899489928990B2
:10304000120001A02BD0CFEC1CF00A0E156EFD5122
:103050008CEC1BF0F36EF350180F146E14C0F6FFD7
:103060000E0EF76E0800F5CFF3FF8B50E00BD96E14
:10307000D950F3108B6E0A0E196EFD5119EC1CF02D
:10308000F46EF4500D0F146E14C0F6FF0E0EF76EB2
:103090000800F5CF8CFF8A988B9A1200E00E8B16F1
:1030A0000D0E146E090E142614C0F6FF0E0EF76EE8
:1030B0000800F5CF8CFF8A888B8A1200FE6702D049
:1030C000E96A02D0010EE96E02012551E924F46E8D
:1030D000F4500101EB5D04E3010E1F6E206A000C49
:1030E000FE6703D0010ED96E01D0D96AD950EB2505
:1030F000F36EF338E8461F0BE16EF3CF22F0070EB4
:103100002216010E236E222A02D0D8902336222EB8
:10311000FCD72350216EF4CF2DF0F3CF2CF021C03B
:103120002BF0E15055EC17F02B50E16EE1CF1FF082
:10313000206A1200010E266E610E0101F2EC0CF005
:1031400029AE0ED0F429276E25C228F028C02AF017
:103150002750D3EC12F0296E030E295C24E322D011
:10316000620EF2EC0CF029A01ED0F451EB610AD0F3
:10317000F405286EEB29276E28C02AF02750D3ECDF
:1031800012F00CD0EB51F4610ED0F405286E27C27A
:1031900027F028C02AF02750D3EC12F0296E030E36
:1031A000295CD8B0266A265012000E01426B416B92
:1031B000D96AF50ED924E96EEA6A010EEA22780E80
:1031C000EF6420D0D9502A0DF3CF14F0F4CF15F0CE
:1031D000E16A600E166E176AE1501626000E17227D
:1031E00014501624E96E15501720EA6EEF6AE12A92
:1031F000290EE164EED7F50ED924E96EEA6A010ED4
:10320000EA22EF6AD92A070ED964D3D7640E0201E5
:103210004A65640C0FEC17F002014A6B1200F7CFFD
:10322000F3FFF8CFF4FF18503F0BE16EE150185E4A
:1032300018C0F6FF0A001750161025E0D96A0B00D7
:10324000E150D95C11E3175016100EE014C0E9FFED
:1032500015C0EAFFEF50F56E144A152A1850D9240C
:10326000F66E1606D8A017060C00D92A3F0ED964B0
:10327000E6D7940E7F6E54EC1CF054EC1CF0400E1C
:103280001826E16AD8D7F3CFF7FFF4CFF8FF120082
:10329000010E216E610E0101C6EC0CF024AE1AD0B5
:1032A000EB51F4610AD0EB05236EF429226E23C0A2
:1032B0002AF02250D3EC12F01BD0F451EB611DD058
:1032C00025C223F0F429226E23C02AF02250D3EC29
:1032D00012F00ED0620EC6EC0CF024A00ED0F40555
:1032E000236E27C222F023C02AF02250D3EC12F022
:1032F000246E030E245CD8B0216A21501200010E06
:10330000556E5428566E02D0D8905536562EFCD79E
:1033100051C0E9FF52C0EAFFEF50551412E05304C8
:10332000D8A4120051C0E9FF52C0EAFFEF50566E18
:10333000551C561451C0E9FF52C0EAFFEF6E0084DD
:103340001200010E5364010C51C0E9FF52C0EAFFA4
:10335000EF50551051C0E9FF52C0EAFFEF6E0084F4
:1033600012000F0110B7120002013951D8B4120037
:1033700028512463120043EC1AF049C214F0010EE4
:1033800066EC1CF02CC216F02DC217F02EC218F0FD
:103390002FC219F030C214F031C215F0010E3AEC10
:1033A00015F041C2B0F1160E146E0F0E156E04EC3E
:1033B0001CF0786A78860F01108702013351D8A477
:1033C000330712000F0120B7120002013951D8B49F
:1033D000120028512463120043EC1AF047C214F083
:1033E000000E66EC1CF02CC216F02DC217F02EC297
:1033F00018F02FC219F030C214F031C215F0000ECF
:103400003AEC15F041C2B0F1260E146E0F0E156E97
:1034100004EC1CF0786A78840F0120870201325195
:10342000D8A432071200E8CFE1FFE1502A0DF3CF14
:1034300014F0F4CF15F001B81200660E1424E96EF2
:10344000000E1520EA6E430EEF62430C670E142443
:10345000E96E000E1520EA6E4D0EEF624D0C610E06
:103460001424E96E000E1520EA6EEF50166E16BA9F
:10347000120042C2D9FFD9503719D8B41200D9CF9F
:1034800037F200861200020137C219F01A6AF36A95
:10349000F46A070ED890F336F436E82EFBD7F350D3
:1034A0001910306FF4501A10316F1B6A1C6A1D6AB4
:1034B0001E6A28511B120E0ED8901B361C361D3664
:1034C0001E36E82EF9D73F511B121BC02CF21CC030
:1034D0002DF21DC02EF21EC02FF21200FF0EFD2590
:1034E0004C6E4D6AFF0E4D22DC511F0B4C184D10D7
:1034F000D8A41200E8EC1CF00009D8A41200DB05E7
:1035000009E1DCAF02D08B9E029CDCAD12008B9CEB
:10351000009E1200DB51FE0AD8B41200DCBF02BAD2
:1035200001D08B8EDCBD00BC12008B8C1200E8CF6A
:10353000E1FF010ED96EE1CF2AF02B6A45EC13F0C2
:1035400003B21BD00101FE0518E1620E2FEC0CF056
:103550001FA209D002012B511F0B0101EB190CE135
:10356000010ED96E0AD0F4511F0BEB19F9E0610E70
:103570002FEC0CF01FB2F4D7D96AD9501200E8CF63
:10358000D9FF0101FE6702D08BAC000CFE6701D0B1
:10359000010CD9CF2AF02B6A45EC13F00101F4514C
:1035A0001F0BEB1913E1610E27EC0CF01FAA010CA5
:1035B00002AE05D0630E27EC0CF01FB8000C02BE63
:1035C000010C610E27EC0CF01FB0000C010C010186
:1035D000FE6702D0D96A02D0010ED96E1FC02AF050
:1035E00020C02BF045EC13F0D95025C221F0226AFF
:1035F0002126000E22220101EBC123F0246A24506F
:10360000800A256E2150235C2250800A255801E350
:10361000010C000C0101FE6702D0D96A02D0010E34
:10362000D96E23C02AF024C02BF045EC13F0D950FA
:10363000EBC125F0266A2526000E2622020127C2AC
:1036400027F0286A2850800A296E2550275C2650CA
:10365000800A295801E3010C000C43EC1AF01A6AA5
:103660001B6A1C6A1D6A01A80DD07F0E186E000E21
:10367000196A9AEC17F01A6A1B6A1C6A1D6A7F0E97
:10368000186E0AD0000E186A196A9AEC17F01A6AB6
:103690001B6A1C6A1D6A186A196A010E9AEF17F0F4
:1036A00023C026F024C027F08EEC15F027502610FA
:1036B00001E0010C23C026F024C027F0C6EC16F070
:1036C0002750261001E0010C630ED8EC0CF025BA4F
:1036D000010C640ED8EC0CF025B0010C000CE8CF06
:1036E0004CF04C502A0DF3CF4DF0F4CF4EF0640E59
:1036F0004D24E96E000E4E20EA6EEF504F6E4FA241
:1037000004D04C502A1901E0000C03A4010C4C50C9
:103710002A1901E0000C010CE8CFE9FFD96A155025
:1037200014E0010EE16ED89015BE04D01536E12AE2
:10373000FAD7D890D9361550E95C03E31550E95E05
:10374000D980D8901532E12EF4D7D95012000E014D
:10375000448F448D459545934581449544834491D8
:10376000449B44994487439F439D439B438943978C
:10377000439543834381438B4399439743854383D5
:1037800043811200F36A11D00101B80EF324E96EEF
:10379000EA6A010EEA22F350010F166E176A186AE0
:1037A000196A77EC1CF0EF6EF32A0A0EF364ECD77B
:1037B0000A0CF36AF46A30A004D03250F326335076
:1037C000F422D89032363336D890313230323150FC
:1037D0003010F1E1F3CF30F0F4CF31F0120002AE4F
:1037E00004D00101B251010903D00101B251FE0B15
:1037F000B26FB25103A402D0080901D0F70BB26F27
:10380000B251FB0BB26F1200D96A0101B00ED9247C
:10381000E96EEA6A010EEA22D9501424E16E000E24
:103820001520E26EEFCFE7FFD92A070ED964EDD756
:10383000070CE8CFE1FF080EE96ED96AD890E134B1
:10384000D934D96ED890E1361950D95C02E31950B9
:10385000D95EE92EF3D7D95012005350D8B41200D4
:10386000530651C0E9FF52C0EAFFEF505318D8B4D5
:10387000120051C0E9FF52C0EAFF53C0EFFF0084BD
:10388000120043EC1AF0186A1B6A1C6A1D6A1E6A51
:1038900030C219F031C21AF01850DFEC14F0182AB7
:1038A000050E1864F1D7050C7FB2FED7D890F2BE92
:1038B000D880F29E7F84550E7E6EAA0E7E6E7F8229
:1038C00000F0B79C7F94D8B0F28EAA0CE8CFD9FF55
:1038D000D95004E0010A05E0030A06E014C025FF00
:1038E000120014C015FF120014C005FF1200F7CF1C
:1038F000D9FFF8CFE1FF16C0F6FF17C0F7FF18C0D9
:10390000F8FF0800D9CFF7FFE1CFF8FFF55012001C
:10391000F28AF294D58ED59CD59AD598D596D59421
:10392000D582D590180ED66EFC0ED76EFC0CD96AD7
:103930000101EC0ED924E96EEA6A010EEA22EF6A6F
:10394000D92A070ED964F4D7070C52C218F00B0E0F
:10395000166E000E176A50C214F051C215F00FEC2B
:1039600019F0FF001200010E256E23C02AF024C0BA
:103970002BF045EC13F09AEC18F0000901E1000C73
:10398000010C010E206E1EC02AF01FC02BF045EC6A
:1039900013F048EC19F0000901E1000C010C0101E1
:1039A000FD6B80A0FD8180A2FD8380A4FD8580A6A3
:1039B000FD8780AAFD8912001FC02AF020C02BF0CD
:1039C00045EC13F0020127510101EB61000C010CE1
:1039D000010E4E6E02BEDDA101D04E6A02AEDDB117
:1039E00001D04E6A4E50120023C02AF024C02BF0A2
:1039F00045EC13F00101EB5102012561000C010CB3
:103A000040EC1DF00201366B029A336B0292029475
:103A100097EF1CF043EC1DF002013E6B009C326BF3
:103A20000290019E97EF1CF0E16AE1502EEC16F037
:103A3000E12A070EE164F9D7070C43EC1DF0008C76
:103A4000030E0201326F030C938693946F501F0B89
:103A500080096F6E120040EC1DF0028A030E020115
:103A6000336F030C46EC1DF0009C030E0201326F15
:103A7000030C49EC1DF0029A030E0201336F030C94
:103A80008B9E029C12008B9C009E12008B8C008EE1
:0C3A900012008B8E028C12000396000CBA
:020000040030CA
:0E00000011130A19FF8991FF0FC00FE00F4086
:00000001FF
