:040000000CEF00F011
:10000800E9CF39F0EACF3AF0E1CF3BF074EF0AF0EC
:1000180001EEC4F00E0EF66E0E0EF76E10EE03F043
:100028002DEC00F000EE00F02A0EEE6AE806FDE185
:1000380000EE60F011EE64F026EC00F0000EF86EB1
:100048007FEF0BF0EE6AE550E150FCE1E250FAE197
:1000580012000900F5CFEEFFE550E150FAE1E25059
:04006800F8E11200A9
:100E00000000000000004100005953450000010BA4
:100E1000020077AE02D0779E120077AC02D0779CAA
:100E2000120077AA13D0779A71BE719E71BC719C23
:100E300071BA719A71B8719871B6719671B47194F2
:100E400071B2719271B07190716A120077A202D082
:100E50007792120077A012000101C06BC4EC08F079
:100E600016AA57D015A62ED0040E436E446AD89009
:100E700043364436D89043364436D89043364436C9
:100E800029502A0D4350F3243F6E4450F420406E05
:100E9000660E416E0F0E426E456A466A45EC0BF0D7
:100EA00045BEE8682FEC0BF0454A462A2AEC0BF0C9
:100EB000F5E329500D0FE96EEA6AEF6A2950B1ECAB
:100EC00007F04CD01550070B436E446AD890433658
:100ED0004436D89043364436D89043364436295069
:100EE0002A0D4350F3243F6E4450F420406E660EAA
:100EF000416E0F0E426E456A466A45EC0BF045BEE8
:100F0000E8682FEC0BF0454A462A2AEC0BF026E263
:100F1000F4D799EC0CF0000921E0660E416E0F0E3B
:100F2000426E456A466A45504124476EE86A45BEAE
:100F3000E8684220486E47C0E9FF48C0EAFFB00EAB
:100F40004524E16EE26A010EE222EFCFE7FF454A57
:100F5000462A2AEC0BF0E7E39AEC0CF07790609EBF
:100F60001200E8CF4BF04B502A0DF3CF4DF0F4CFE9
:100F70004EF0660E4D24E96E000E4E20EA6E390EDC
:100F8000EF62390C670E4D24E96E000E4E20EA6EBA
:100F9000310EEF62310C610E4D24E96E000E4E20D1
:100FA000EA6EEF504F6E4FBA1200700E4D24E96E8C
:100FB000000E4E20EA6EEF50C00BC00AD8A41200FB
:100FC000700E4D24E96E000E4E20EA6EEF50030BBA
:100FD0004C6E516A4CC050F0080E50EC0BF0700E85
:100FE0004D24E96E000E4E20EA6EEF500C0B4C6E55
:100FF000D8904C32D8904C32010E25EC0BF050ECCE
:101000000BF0700E4D24E96E000E4E20EA6EEF508C
:10101000300B4C6E4C3A0F0E4C16020E25EC0BF0BA
:1010200050EC0BF0740E4D24E96E000E4E20EA6E6B
:10103000EF50030B4C6E030E25EC0BF050EC0BF055
:10104000740E4D24E96E000E4E20EA6EEF500C0B2C
:101050004C6ED8904C32D8904C32040E25EC0BF0EC
:1010600050EC0BF0710E4D24E96E000E4E20EA6E2E
:10107000EF50506E090E09EC0CF0720E4D24E96E23
:10108000000E4E20EA6EEF50506E060E09EC0CF08A
:10109000730E4D24E96E000E4E20EA6EEF50506E36
:1010A000050E09EC0CF04B28506E020E09EF0CF007
:1010B0001DEC0CF0010EF66E0E0EF76E010E2A6E90
:1010C000030E2A262AC0F6FF0E0EF76E0800010155
:1010D000F5CFBEF1020EBE6501D0BE6B010E2A6EC9
:1010E000040E2A262AC0F6FF0E0EF76E010E2A6E97
:1010F000050E2A262AC0F6FF0E0EF76E0800F5CF61
:10110000B8F1010E2A6E060E2A262AC0F6FF0E0E30
:10111000F76E0800F5CF2BF0010E2A6E060E2A2678
:101120002AC0F6FF0E0EF76E0800F5CF2BF0010E69
:101130002A6E060E2A262AC0F6FF0E0EF76E08004B
:10114000F5CF2BF0010E2A6E060E2A262AC0F6FFD6
:101150000E0EF76E0800F5CF2BF00096010E2A6EEA
:10116000060E2A262AC0F6FF0E0EF76E0800F5CFEF
:101170002BF02BB80086010E2A6E070E2A262AC0F5
:10118000F6FF0E0EF76E120061504D6E4C6A62CF84
:101190004EF04F6A6250030B506E516A526A536AA6
:1011A00050C054F051C055F052C056F053C057F0E3
:1011B00055C057F054C056F0556A546A54C015F0E3
:1011C00055C016F056C017F057C018F06350506E57
:1011D000516A526A536A52C053F051C052F050C023
:1011E00051F0506A505015125150161252501712A9
:1011F000535018126450506E516A526A536A5050DC
:101200001512515016125250171253501812546A98
:10121000C00E1614556E566A576A0F0E02D01FEC98
:101220000BF0E82EFCD754504B6E4B50030B296E3D
:10123000546AC00E1614556E030E1714566E576A74
:101240000F0E02D01FEC0BF0E82EFCD754504B6E63
:101250004B50070B296E1200F29EF29CF28AF29814
:10126000F296F294F292F290F18EF19CF19AF1984A
:10127000F184F190F06AD58ED59CD59AD598D59603
:10128000D594D592D580D390D392A89AA888A886D1
:10129000A884A892A880D190D09ED098D096D094BF
:1012A000D092D090CD8ACD88CD82CD86CD94CD9C64
:1012B000CD9ECD80CA6AC76AC69EC69CC69AC6988D
:1012C000C696C684C692C680C56AC26AC16AC06A2A
:1012D0000F015D6B5C6BBB6A506B4D6B4A6B476B70
:1012E000BF6ABE6AB56AB16AAC6AAB6A7F9E7F9C10
:1012F0007F9C7F987F967F947F927F90786A776AB1
:10130000766AA56AA46AA36AA26AA16AA06A9F6AA9
:101310009E6A9D6A469F469D469B46991200E8CF6D
:10132000E9FF2EC036F02FC037F0050ED8903636C4
:101330003736E82EFBD7E00E36142E6E37502F6E60
:10134000030E3216336A32C034F033C035F03450F5
:101350002E1235502F1230C0F3FF31C0F4FFE95088
:101360000AE0010A0BE0030A0CE0010A0DE0070A9B
:101370000EE0010A0FE00E01E00E0ED00E01E40EA9
:101380000BD00E01E80E08D00E01EC0E05D00E01B8
:10139000F00E02D00E01F40EE16E0E0EE26E2F5032
:1013A000E76EE128E96E000EE220EA6E2E50080991
:1013B000EF6E020EE124E96E000EE220EA6EF450B8
:1013C000EF6E030EE124E96E000EE220EA6EF3CF29
:1013D000EFFF12008FEC0CF0EEEC0BF0708A7098BF
:1013E0000E01459D609E608C609A6094609060964E
:1013F00060920F01309F308D309B3095308330915B
:1014000030970E01E187E587E987ED87F187F5875A
:1014100031EC0CF0AAEC0BF00F01259D20971097F2
:1014200000977892A56A769E769C768A0E017F99BF
:101430007F977F957E837E811F0E6F16F36AF46A15
:10144000600EF324E96E000EF420EA6EEF6AF34AB0
:10145000F42A500EF35C010EF458D8B01200F0D705
:10146000E8CFE1FF2EC036F02FC037F0050ED89040
:1014700036363736E82EFBD7E00E36142E6E375050
:101480002F6E030E3216336A32C034F033C035F09B
:1014900034502E1235502F1230C0F3FF31C0F4FFFC
:1014A0001ED02F500E01F86F2EC0F9FEF450FA6FC7
:1014B000F3CFFBFE12002F500E01FC6F2EC0FDFE7D
:1014C000F450FE6FF3CFFFFE12002F500E01F86FA5
:1014D0002EC0F9FEF450FA6FF3CFFBFE1200E1507C
:1014E000E0E0010AE8E0F1D7E2CF3CF0F3CF3DF0D5
:1014F000F4CF3EF0F2A423D0F294180ED66EFC0E78
:10150000D76E0101C12BBC2B640EBC6518D0BC6B1F
:10151000C02B386A38500D0F4AEC0BF03864FAD7FC
:101520000101C32BC22BBD2B0A0EBD6508D0BD6BBC
:10153000386A3850210F4AEC0BF03864FAD7A450BF
:10154000D8A409EC07F03EC0F4FF3DC0F3FF3CC057
:10155000E2FF3BC0E1FF3AC0EAFF39C0E9FF1100FA
:10156000E8CFD9FFF7CFF4FFF8CF2DF02C503F0B89
:10157000F36EF3502C5E2CC0F6FF0A002B502A109D
:1015800023E0E16A0B00F350E15C0FE32B502A10DB
:101590000CE0D950E96EEA6AEF50F56ED92A2C506A
:1015A000E124F66E2A06D8A02B060C00E12A3F0E95
:1015B000E164E8D7940E7F6E44EC0CF044EC0CF040
:1015C000400E2C26F36ADAD7F4CFF7FF2DC0F8FFD0
:1015D00012000E01426B416BD96AD9500D0FE96EB2
:1015E000EA6A780EEF641ED0D9502A0DF3CF2AF0A4
:1015F000F4CF2BF0E16A600E2C6E2D6AE1502C26A0
:10160000000E2D222A502C24E96E2B502D20EA6E3C
:10161000EF6AE12A290EE164EED7D9500D0FE96E89
:10162000EA6AEF6AD92A070ED964D7D7640E010196
:10163000C065640CEAEC09F00101C06B1200D8909F
:1016400057325632553254321200516E4CC050F05F
:10165000080E1200080E455C000E4658120042208B
:10166000486E47C0E9FF48C0EAFF600E496E4A6A0B
:101670003F50492640504A2245504924E16E465089
:101680004A20E26EEFCFE7FF120045504124476E3B
:10169000E86A1200E96EEA6AEF2A382A070E120099
:1016A000E8CF52F0010E536E5128546E02D0D890FC
:1016B0005336542EFCD75250E96EEA6AEF50531459
:1016C00010E05004D8A412005250E96EEA6A525059
:1016D000E16EE26AE750546E531C5414EF6E0080C2
:1016E0001200010E5064010C5250E96EEA6A525029
:1016F000E16EE26AE7505310EF6E00801200F29E36
:101700002CEC09F067EC0CF076EC0CF000920094F5
:1017100096EC0CF058EC08F0EAEC09F0F28E0101BE
:10172000BD6B216A01C0BFF100A603D00150400F7C
:10173000BF6F0090F29E0084EAEC09F0F28E010186
:10174000C36B00A003D0009085EC0CF00400E9EC22
:101750000AF0F7D7CDEC0BF0306A316A326A336A9F
:1017600000A40DD07F0E2E6E000E2F6A30EC0AF012
:10177000306A316A326A336A7F0E2E6E0AD0000EEA
:101780002E6A2F6A30EC0AF0306A316A326A336AA4
:101790002E6A2F6A010E30EF0AF00101B8C12EF057
:1017A0002F6AF36AF46A070ED890F336F436E82EFF
:1017B000FBD7F3502E10B96FF4502F10BA6F306A68
:1017C000316A326A336A0E0ED8903036313632368C
:1017D0003336E82EF9D7BF51301212000E01448F74
:1017E000448D459545934581449544834491449B5C
:1017F00044994487439F439D439B43894397439523
:1018000043834381438B4399439743854383438178
:101810001200E8CF51F05050D8B412005006515089
:10182000E96EEA6AEF505018D8B412005150E96ED0
:10183000EA6A50C0EFFF00801200F36A0ED0F35046
:10184000020FE96EEA6AF350010F2C6E2D6A2E6AC0
:101850002F6A56EC0CF0EF6EF32A0A0EF364EFD702
:101860000A0CCDEC0BF0D96A306A316A326A336AFD
:10187000B9C12EF0BAC12FF0D9508FEC09F0D92A96
:10188000050ED964F1D7050C7FB2FED7D890F2BE11
:10189000D880F29E7F84550E7E6EAA0E7E6E7F8269
:1018A00000F0B79C7F94D8B0F28EAA0CF7CFD9FF86
:1018B000F8CFE1FF2CC0F6FF2DC0F7FF2EC0F8FFD8
:1018C0000800D9CFF7FFE1CFF8FFF550120096845A
:1018D00096829680926893689468956A89688A6807
:1018E0008B6A8C688D848D828D801200F28AF294CE
:1018F000D58ED59CD59AD598D596D594D582D590A8
:10190000180ED66EFC0ED76EFC0CC4C12CF00B0E5C
:101910002A6E2B6AC651B0EC0AF0FF0012009386C3
:1019200093946F501F0B80096F6E12008B0E016E27
:061930008B0C000C1200FC
:020000040030CA
:0E00000011130A19FF8991FF0FC00FE00F4086
:00000001FF
