:040000000CEF00F011
:10000800E9CF3AF0EACF3BF0E1CF3CF029EF08F036
:1000180002EE55F06C0EF66E000EF76E10EE05F05F
:100028002DEC00F000EE00F0140EEE6AE806FDE19B
:1000380000EE60F011EEF5F026EC00F0000EF86E20
:1000480024EF05F0EE6AE550E150FCE1E250FAE1F8
:1000580012000900F5CFEEFFE550E150FAE1E25059
:10006800F8E11200F37FE6010B00D96A1AC02AF002
:100078001BC02BF0C9EC0EF00101D60E1A24E96E54
:10008800EA6A010EEA22FF0EEF681AC023F01BC0CD
:1000980024F072EC17F0000901E0010C13661CD083
:1000A8001AC023F01BC024F009EC19F0000901E084
:1000B800010C1AC023F01BC024F012EC17F0000941
:1000C80001E0010C1AC023F01BC024F024EC12F04C
:1000D8002450231001E0010C1AC023F01BC024F0A7
:1000E80045EC11F0010E1C6E01B202D08DAE0BD1A1
:1000F8001C6A1150106026D0610E31EC06F01DAE5E
:100108000FD00101D60E1A24E96EEA6A010EEA221E
:10011800FF51020D1050F35C1D6E11501D5CACD0E8
:10012800620E0E24E96E000E0F20EA6EEF501D6E6F
:100138000101D60E1A24E96EEA6A010EEA2210506D
:10014800115C44D01050116060D0610E31EC06F0A3
:100158001DAE3ED02CBFD5D72C511F0B10604BD0F5
:10016800D60E1A24E96EEA6A010EEA2202012C511F
:100178001F0B020D1050F35C1D6E11501D5C0C0F0F
:10018800EF6E2CC21DF01F0E1D161DC01EF01F6A3B
:10019800105046C220F0216A2026000E212221504C
:1001A800800A226E1E50205C1F50800A225801E2ED
:1001B80081D00101D60E1A24E96EEA6A010EEA22FC
:1001C8002CC21DF01F0E1D1610501D5C080F71D09B
:1001D800620E31EC06F01DA00ED0D60E1A24E96E80
:1001E800EA6A010EEA2202012C511F0BFE0DF350A0
:1001F8000101FF2540D00101D60E1A24E96EEA6AF2
:10020800010EEA221150105CE1D7620E0E24E96E4D
:10021800000E0F20EA6EEF501D6E610E0E24E96E7F
:10022800000E0F201DA02AD0EA6EEF501D6E1DB0E3
:1002380004B801D006D0630E31EC06F01DB804A84E
:1002480009D00101D60E1A24E96EEA6A010EEA22E3
:10025800000E2FD02D511F0B101802E12DAF19D011
:10026800D60E1A24E96EEA6A010EEA220201295121
:10027800FE0DF350102411240C0F1BD0EA6EEF5022
:100288001D6E1DAE0ED02D511F0B1018D8B42DADFC
:1002980038D70101D60E1A24E96EEA6A010EEA225D
:1002A80008D00101D60E1A24E96EEA6A010EEA2284
:1002B800020EEF6E1AC023F01BC024F0D7EC18F022
:1002C800000921E10101D60E1A24E96EEA6A010E3D
:1002D800EA22990EEF6408D0D60E1A24E96EEA6A6B
:1002E800010EEA22FE0E0ED0D60E1A24E96EEA6A34
:1002F800010EEA22D60E1A24E16EE26A010EE2220B
:10030800E750640FEF6E1C50120002012B512A0DAA
:10031800F3CF18F0F4CF19F0640E1824E96E000E2C
:100328001920EA6EEF501A6E1AA202D0058601D083
:100338000596010E166E176A406B4C69156A146AA9
:10034800176A17C029F02A6A57EC0BF02A502910AF
:100358003FE117C026F0276AA5EC10F027502610B9
:100368003EE1166A17C02AF02B6AC9EC0EF017C0D6
:100378001FF0206AF0EC16F0000911E117C01FF019
:10038800206AFEEC18F000090AE117C01FF0206A85
:10039800CDEC13F020501F1002E1010E156E17C0AE
:1003A80023F0246A09EC19F0000919E117C023F0B9
:1003B800246A12EC17F0000912E117C023F0246A2E
:1003C80024EC12F0245023100AE1010E146E07D019
:1003D800080E1724E96EEA6A020EEA22EF6A0201A1
:1003E800200E1724E96EEA6A020EEA22EF504061F5
:1003F80008D0200E1724E96EEA6A020EEA22EF50AE
:10040800406F180E1724E96EEA6A020EEA22EF50CE
:100418001A6E4C511A5C08E2180E1724E96EEA6A43
:10042800020EEA22EF504C6F172A070E176489D77D
:10043800156602D014EC19F0146602D01EEC19F0FF
:1004480016660DD0010E166E176A17505DEC16F081
:100458000009D8A4166A172A070E1764F6D7166675
:10046800A0D0FF0E12241A6E1B6AFF0E1B22020177
:1004780040C21CF0D3EC06F001E293D003AC3ED0AE
:1004880015503CE0DC0E37613CD037513AE013663A
:1004980002D0176A02D0010E176E175040C21AF028
:1004A8001B6A1A26000E1B22FF0E12241C6E1D6AE0
:1004B800FF0E1D221D50800A1E6E1A501C5C1B5018
:1004C800800A1E581EE205A415D003AA04D08DACDC
:1004D80045EC19F016D003A803D04BEC19F011D055
:1004E8008DBC04D045EC19F0038A0BD04BEC19F005
:1004F800038807D08DAC45EC19F003D0376B039A0D
:10050800039800AC41D014503FE0DC0E3A61DC0C9B
:100518003A51D8B41200FF0E12241A6E1B6AFF0E4D
:100528001B224CC21CF0D3EC06F003E31350D8B4E2
:10053800120013661CD0010E1264010C05A413D01E
:1005480003A604D08DAE38EC19F0120003B43FEFC7
:1005580019F08DBE04D038EC19F0038612003FEC78
:1005680019F0038412008DAE38EC19F012002B51EB
:1005780083EC16F0000902E138EF19F054EC19F099
:1005880001900201386B12003A6B0396039405B48C
:1005980012001350D8B4120054EC19F00190386BC3
:1005A80012001EEC19F014EF19F001AA03B208D0DA
:1005B80001AE01B405D000B002BC02D002AE93D0A7
:1005C80001AA03B205D001AE01B402D000B002D036
:1005D800270E05D002BC02D002AE02D03F0EF46E48
:1005E800F450F50F146EF4CF1EF01F6A352921EC74
:1005F80007F0ABEC15F01C50356F35C2D9FFF36A24
:100608001450D96043D001A406D0670ED924F66EE1
:10061800F76A7F0E2FD002AE06D0330ED924F66EBD
:10062800F76A7F0E27D000B006D0BB0ED924F66E2D
:10063800F76A7F0E1FD001AA06D0830ED924F66E62
:10064800F76A7F0E17D003A206D0D70ED924F66E0C
:10065800F76A7F0E0FD001AE06D09F0ED924F66E32
:10066800F76A7F0E07D002AC0FD0FF0ED924F66EC2
:10067800F76A7E0EF722C60EF324E96EEA6A010EC7
:10068800EA220800F5CFEFFFD92A26D01450D95C0A
:10069800156E0101B00E1524E96EEA6A010EEA2210
:1006A800C60EF324E16EE26A010EE222EFCFE7FF05
:1006B800D92AD9CF15F0166AFF0EF424176E186AD6
:1006C800FF0E18221850800A196E1550175C165024
:1006D800800A1958D8A0D96AF32A0A0EF36490D769
:1006E80002865DEF0EF002A616D0019C356BF36A08
:1006F800B00EF324E96EEA6A010EEA22C60EF3246C
:10070800E16EE26A010EE222EFCFE7FFF32A0A0E5A
:10071800F364EED7029601AC5DEF0EF003B00BD098
:10072800019C0201356BD96AB00E11EC07F0D9644F
:10073800FBD75DEF0EF003BE02D000AE53D0090E1A
:100748001E6E1F6A010E0201352521EC07F0ABEC85
:1007580015F01C50356FF46AC60EF424E96EEA6A87
:10076800010EEA22C60EF424E16EE26A010E03AE1F
:100778000FD0E222E750156ED8901530EF6E0201C7
:10078800FCEC06F002D0D8901636152EFCD70ED009
:10079800E222E750156ED8901534EF6E0201FCEC9A
:1007A80006F002D0D8901632152EFCD71650F36EEC
:1007B800C60EF424E96EEA6A010EEA22C60EF42493
:1007C800E16EE26A010EE222E750F310EF6E0201D9
:1007D8003551080AD8B4019CF42A0A0EF464BCD72F
:1007E8005DEF0EF0019C0201356BD96AB00E11EC79
:1007F80007F0D964FBD75DEF0EF0D96ADE0E1A2434
:10080800E96EEA6A010EEA22FF0EEF681AC02AF0C2
:100818001BC02BF0C9EC0EF01AC023F01BC024F04B
:1008280072EC17F0000901E0010C13661CD01AC025
:100838001FF01BC020F0F0EC16F0000901E0010CDD
:100848001AC01FF01BC020F0FEEC18F0000901E0F0
:10085800010C1AC01FF01BC020F0CDEC13F0205083
:100868001F1001E0010C1AC023F01BC024F045EC56
:1008780011F0010E1C6E04B202D08DACDFD01C6AE0
:10088800115010604FD0620E2BEC07F01DA044D021
:100898002CAD0DD0DE0E1A24E96EEA6A010EEA22AA
:1008A80002012951FE0DF3501024112480D02CC2CE
:1008B8001DF026EC07F026E2DE0E1A24E96EEA6A3D
:1008C800010EEA2202012C511F0BFE0DF3501024D9
:1008D80011240C0FEF6E2C511F0B46251D6E26ECB4
:1008E80007F001E282D00101DE0E1A24E96EEA6AFD
:1008F800010EEA222CC21DF01F0E1D161D50105CA1
:10090800080F72D00101DE0E1A24E96EEA6A010EA0
:10091800EA221050115CF4D7610E2BEC07F01DAEE3
:10092800F1D737D01050116013D0610E2BEC07F0BF
:100938001DBE05D0620E2BEC07F01DB0ABD7010130
:10094800DE0E1A24E96EEA6A010EEA221150D7D7A0
:10095800610E2BEC07F01DAE2CD0610E2BEC07F0CE
:100968001DB004B801D006D0630E2BEC07F01DB8FB
:1009780004A809D00101DE0E1A24E96EEA6A010E04
:10098800EA22000E31D02D511F0B101802E12DADB7
:100998001BD00101DE0E1A24E96EEA6A010EEA2272
:1009A800FF51020D1050F35C1D6E11501D5C0C0FB1
:1009B8001BD0620E2BEC07F01DA00ED02D511F0B83
:1009C8001018D8B42DAF66D70101DE0E1A24E96ECF
:1009D800EA6A010EEA2208D00101DE0E1A24E96E45
:1009E800EA6A010EEA22020EEF6E1AC01EF01BC060
:1009F8001FF0BBEC18F0000921E10101DE0E1A24FA
:100A0800E96EEA6A010EEA229A0EEF6408D0DE0E59
:100A18001A24E96EEA6A010EEA22FE0E0ED0DE0EF4
:100A28001A24E96EEA6A010EEA22DE0E1A24E16E41
:100A3800E26A010EE222E750640FEF6E1C501200CA
:100A4800F29E31EC0FF0DDEC17F0ACEC18F014EC82
:100A580019F01EEC19F08D9A8F928F90396B386BC4
:100A6800009A02989568C9EC18F0956ADAEC11F0CA
:100A7800FEEC12F0F28E019C02014B6B0296048C84
:100A8800366B546B086B050E4F6504D04F6B0178BD
:100A9800DBEC15F002012B517BEC15F00400030E82
:100AA80002010865F0D700AA04D03DC2EBF19CEC26
:100AB80018F0F29E0288FEEC12F0F28E0188020114
:100AC8004F6BDBEC15F0030E02014D6F536F456B56
:100AD80012C043F2049804AA04D01250400F436F86
:100AE800048802940096486B05B404D0130402E10C
:100AF800020E486F00A603D000969CEC18F0040084
:100B080008EC14F02B5133EC07F002012B51EEECFA
:100B18000CF028EC19F089EC01F005B4136A3B518C
:100B280001E193D043EC18F00101FD51E0EC0BF02A
:100B38001550141002E001A605D0F3EC17F049ECAB
:100B480015F023D004A20FD0020139510CE0FDC1E9
:100B58002AF2040E456F1204D96ED9508009076E27
:100B680049EC15F012D005A416D004A010D002014B
:100B780039510DE0FDC12AF2010E456F1204E16EF4
:100B8800E1508009076E49EC15F0029404D0020187
:100B9800396701D004900101FD5167EC0CF0155044
:100BA800141005E1136603D0B3EC14F023D001A2AE
:100BB8000FD0020138510CE0FDC12AF2040E456F36
:100BC8001204D96ED9504009076EB3EC14F012D054
:100BD80005A416D001A010D0020138510DE0FDC1C6
:100BE8002AF2010E456F1204E16EE1504009076ECA
:100BF800B3EC14F0029404D00201386701D00190DC
:100C080004AE16D002012B510101FD6311D02BC295
:100C18002AF2820E0201456F12042009076E02941F
:100C2800049EB3EC14F0C80E0201476101D0472BB3
:100C380002A409D02BC22AF2FE0E0201456F076AF0
:100C48000294B3EC14F002013B6B640E526552D768
:100C5800D9EC02F00201526B4DD70E24E96E000E5A
:100C68000F20EA6EEF501D6E12001F0E1B1610505B
:100C78001B5C12000E24E96E000E0F20EA6EEF5086
:100C88001B6E12000E24E96E000E0F20EA6EEF5064
:100C98001F6E1200610E0E24E96E000E0F20EA6E20
:100CA800EF50146E12000101B00ED924E96EEA6A01
:100CB800010EEA22EF501B6E1A2A12000E24E96E6A
:100CC800000E0F20EA6EEF501F6E1200E96E000E44
:100CD8004F20EA6EEF500C0B4D6E12004DC053F0D2
:100CE800EC0E516E010E526E1200D89058325732E7
:100CF800563255321200080E465C000E4758120054
:100D08004120496E48C0E9FF49C0EAFF600E4A6EBB
:100D18004B6A42504A2643504B2246504A24E16EC1
:100D280047504B20E26EEFCFE7FF120046504024B9
:100D3800486EE86A1200F66E7F0EF76E0800F5CF6F
:100D480014F01200386A3850800A396E3550375C12
:100D58003650800A395812003424E96EEA6A020EC5
:100D6800EA22EF2A342A070E12001424E96E000E34
:100D78001520EA6EEF50166E1200EA6EEF503F0B28
:100D8800121812001424E96E000E152012002B24EC
:100D9800E96E000E2C20EA6EEF502D6E12001D6ACF
:100DA8001D50800A1E6E1A501C5C1B50800A1E586B
:100DB80012000E24E96E000E0F20EA6EEF502C6E22
:100DC80012000E24E96E000E0F20EA6EEF50256E19
:100DD80012002624E96EEA6A020EEA22EF6A12007D
:100DE8000E24E96E000E0F20EA6EEF50246E1200FA
:100DF80035510808156EB00EF424E96EEA6A010E42
:100E0800EA22EF50166E152A12000E24E96E000E23
:100E18000F20EA6EEF50296E1200D924E96EEA6AB3
:100E2800010EEA22C60ED924E16EE26A010EE22220
:100E3800EFCFE7FFD92A0A0E12001C6E1D6A000EBA
:100E48001D2212001F0E1D1610501D5C12000E24CC
:100E5800E96E000E0F20EA6EEF501D6E1200E8CF0B
:100E6800D9FFD9502A0DF3CF14F0F4CF15F001981B
:100E78000294870E1424E96E000E1520EA6E435181
:100E8800EF6201D00284860E1424E96E000E15204C
:100E9800EA6EEF50166E860EC6EC06F016AE09D056
:100EA800C1EC06F003E1038C0A0E376F860EC6EC20
:100EB80006F0EA6EEF50166E16AC0BD0860E1424B0
:100EC800E96E000E1520C1EC06F003E1008C0A0E55
:100ED8003A6F600E1424E96E000E1520EA6EEF508A
:100EE8002E6F2E514B5D03E34B512E6104D0018CC4
:100EF8002EC24BF2356B670E1424E96E000E1520D6
:100F0800EA6EEF50186E660E1424E96E000E152076
:100F1800EA6EEF50176E000EF7EC10F0029A04A874
:100F280006D0630EB9EC06F016A806D004D0610E00
:100F3800B9EC06F016B0028A0098610EB9EC06F01A
:100F480016B200880094620EB9EC06F016B200845E
:100F58008F94640EB9EC06F016BA8F848F96640EDF
:100F6800B9EC06F016BC8F86039E610EB9EC06F04C
:100F780016BE038E009E620EB9EC06F016B0008E07
:100F8800630E1424E96E000E1520EA6EEF50166EFB
:100F9800029E630EB9EC06F016B2028E0390630E41
:100FA800B9EC06F016B40380019A620EB9EC06F0AB
:100FB80016B8018A620E1424E96E000E1520EA6E36
:100FC800EF50166E620E1424E96E000E1520EA6EBC
:100FD800EF50166E0194610EB9EC06F016B6018456
:100FE8000392630EB9EC06F016BE0382630E142456
:100FF800E96E000E1520EA6EEF50166E0090610E35
:10100800B9EC06F016BA0080029C610EB9EC06F045
:1010180016B4028C019E630EB9EC06F016BA018E66
:10102800750E1424E96E000E1520EA6EEF50166E48
:101038008F90620EB9EC06F016BE8F808F92610E0B
:10104800B9EC06F016BC8F821200E2CF3DF0F3CF68
:101058003EF0F4CF3FF0F2A4CED0F294180ED66E44
:10106800FC0ED76E0201522B8B6A8E6AC60E36258D
:10107800E96EEA6A010EEA22EF1C8C6EC80E446122
:1010880001D0442B81B005D0640E446504D005829C
:1010980002D00592446B070E366533D010D08E808F
:1010A80040D08E823ED08E843CD08E863AD08E88B8
:1010B80038D08E8A36D08E8C34D08E8E32D036513F
:1010C800080AEDE0010AEDE0030AEDE0010AEDE0AF
:1010D800070AEDE0010AEDE0030AEDE0010AEDE0A0
:1010E80020D08B801ED08B821CD08B841AD08B860C
:1010F80018D08B8816D08B8A14D08B8C12D08B8EFC
:1011080010D03651EEE0010AEEE0030AEEE0010AE3
:10111800EEE0070AEEE0010AEEE0030AEEE0010A5B
:10112800EEE0362B3651100AD8B4366B039C009C7F
:101138000196059000B002BE10D084B40ED04105CF
:1011480008E100B40AD012502E6307D000A8058029
:1011580004D04151020AD8B4038C05A008D0502B02
:101168000A0E506505D00B0E506F018601D0506BEA
:1011780084A0038C84A2008C512B640E51653BD053
:10118800516B4E2B346A100EB0EC06F03464FBD76A
:101198004F2B3E2BDC0E356E366A4851355E000EFD
:1011A800365A37C237F0A6EC06F007E2372B04A40C
:1011B80004D0960E376501D0376FDC0E356E366A6F
:1011C8004851355E000E365A3AC237F0A6EC06F0A2
:1011D80007E23A2B04A404D0960E3A6501D03A6F80
:1011E800542B0A0E546507D0546B346A080EB0ECC1
:1011F80006F03464FBD77750D8A410EC09F03FC050
:10120800F4FF3EC0F3FF3DC0E2FF3CC0E1FF3BC03E
:10121800EAFF3AC0E9FF110077AE02D0779E1200CC
:1012280077AC02D0779C120077AA13D0779A71BE58
:10123800719E71BC719C71BA719A71B8719871B6CE
:10124800719671B4719471B2719271B07190716A42
:10125800120077A202D07792120077A01200020142
:101268004E6B74EC0DF0FAAB86D0F9A73BD0040EA8
:10127800446E456AD89044364536D890443645364B
:10128800D89044364536FD512A0D4450F324426E19
:101298004550F420436E660E406E0F0E416E466A4E
:1012A800476A9AEC06F046BEE86884EC06F0464ABF
:1012B800472A7FEC06F0F5E3010E02013B6F100EA2
:1012C8000101FD25E96EEA6A020EEA22EF6AFD5184
:1012D800ABEC0AF0FD5153EC17F0000974E1020180
:1012E8003B6B71D002013B6B0101F951070B446E56
:1012F800456AD89044364536D89044364536D89015
:1013080044364536FD512A0D4450F324426E45506B
:10131800F420436E660E406E0F0E416E466A476AB1
:101328009AEC06F046BEE86884EC06F0464A472A7E
:101338007FEC06F0F5E34550441045E10101FD510D
:1013480053EC17F000093FE1600E4224E96E000EED
:101358004320EA6EEF6A610E4224E96E000E4320D4
:10136800EA6EEF6A620E4224E96E000E4320EA6ECE
:10137800000EEF6A28D002013B6B0101FD5153ECCE
:1013880017F0000920E0660E406E0F0E416E466AA7
:10139800476A9AEC06F046BEE8684120496E48C0A4
:1013A800E9FF49C0EAFF0101F10E4624E16EE26A55
:1013B800010EE222EFCFE7FF464A472A7FEC06F00C
:1013C800E8E317EC15F07790609E1200E8CFE1FF94
:1013D800E1CF2AF02B6AC9EC0EF0020ED96E030E8B
:1013E8000201456F1A5008E010508009076E13502B
:1013F80006E01050200902D010504009076E08502E
:1014080004A802D0010901D0FE0B086E105011602B
:101418003ED01A5023E0620E3EEC06F01BA003D02B
:10142800010ED96E88D00101FE51E00B01E182D096
:10143800FE511F0B106001D07DD0FEC11BF039ECAE
:1014480006F005E2FE51E00B400AEAE173D0FE51D6
:101458001F0B101870E1FEAF6DD03FD0620E3EEC4E
:1014680006F01BB0DDD70101FE51E00B63E0FE5131
:101478001F0B106001D0D4D7FEC11BF039EC06F069
:10148800E1E3FE511F0B101856E1FE5123D0115015
:10149800106041D01A5023E0610E3EEC06F01BBEEE
:1014A800BFD72851E00B46E028C21BF039EC06F004
:1014B80003E21350020A07D028511F0B106005D011
:1014C8002851E00B800A36E0ABD728511F0B1018C3
:1014D80032E12851E00B200A2DE0020EA2D7610E5E
:1014E8003EEC06F01BBE9CD72851E00B23E028C237
:1014F8001BF039EC06F01EE328511F0B106004D0D6
:101508002851E00B800AA1D728511F0B101813E1AE
:1015180028BDE3D70FD01A5009E0610E3EEC06F063
:101528001BBED96A05B407D0135005E0620E3EEC25
:1015380006F01BB0D96A620E3EEC06F01BB005D06F
:10154800610E3EEC06F01BAED96AD9501200E8CF06
:101558004CF04C502A0DF3CF4EF0F4CF4FF0660EFE
:101568004E24E96E000E4F20EA6E390EEF62390CF8
:10157800670E4E24E96E000E4F20EA6E310EEF62C0
:10158800310C610E4E24E96E000E4F20EA6EEF50CA
:10159800506E50BA1200700E4E24E96E000E4F20A5
:1015A800EA6EEF50C00BC00AD8A41200700E4E2489
:1015B800E96E000E4F20EA6EEF50030B4D6E546A31
:1015C80072EC06F0E5EC14F0700E4E246AEC06F0AE
:1015D800D8904D32D8904D32010E546E72EC06F010
:1015E800E5EC14F0700E4E24E96E000E4F20EA6E02
:1015F800EF50300B4D6E4D3A0F0E4D16020E546ED5
:1016080072EC06F0E5EC14F0740E4E24E96E000E50
:101618004F20EA6EEF50030B4D6E030E546E72ECC2
:1016280006F0E5EC14F0740E4E246AEC06F0D8903F
:101638004D32D8904D32040E546E72EC06F0E5EC43
:1016480014F0710E4E24E96E000E4F20EA6EEF5032
:10165800536EED0E516E010E526E08EC18F0720EBC
:101668004E24E96E000E4F20EA6EEF50536EEA0EDC
:10167800516E010E526E08EC18F0730E4E24E96E8E
:10168800000E4F20EA6EEF50536EE90E516E010EB8
:10169800526E08EC18F04C28536EE60E516E010E8F
:1016A800526E08EF18F00201200E2924E96EEA6A4A
:1016B800020EEA22EF6A180E2924E96EEA6A020E7F
:1016C800EA22EF682A0E326E000E336A29C030F023
:1016D8002AC031F0C7EC17F030C02BF031C02CF025
:1016E800630ECBEC06F02DA004D0010E296E2A6AF9
:1016F800000C610ECBEC06F02DBA04D0010E296E59
:101708002A6A000C610ECBEC06F02DA604D0010E5F
:10171800296E2A6A000C630ECBEC06F02DA204D0C9
:10172800010E296E2A6A000C620ECBEC06F02DA879
:1017380004D0010E296E2A6A000C620ECBEC06F06A
:101748002DA404D0010E296E2A6A000C640ECBEC7D
:1017580006F02DA208D02B5129182A1004E0010EFA
:10176800296E2A6A000C05A608D02B5129182A10C0
:1017780004E0010E296E2A6A000C7F0E2B24E96E04
:10178800000E2C20EA6E200E2924E16EE26A020E79
:10179800E222EFCFE7FF7E0E2B24E96E000E2C200D
:1017A800EA6E180E2924E16EE26A020EE222EFCFF9
:1017B800E7FF296A2A6A1200010E176E186A0201E9
:1017C8003C6905A808D0810E456F12042009076EF0
:1017D800146A156A1200166A0101DE0E1624E96EF3
:1017E800EA6A010EEA22FF0EEF6816C01AF01B6AB9
:1017F80001EC04F0000902E1176A186A162A070EBC
:101808001664EAD702012A6BD96ADE0ED924E96E7A
:10181800EA6A010EEA22EF50196EDE0E02012A254D
:10182800E96EEA6A0101010EEA22EF50195C23E32E
:10183800DE0E02012A25E96EEA6A0101010EEA229A
:10184800DE0ED924E16EE26A010EE222E750EF6271
:1018580014D00201000ED924E96EEA6A020EEA22C7
:10186800EF50196E000E2A25E96EEA6A020EEA2286
:10187800EF50195CD8A0D9CF2AF2D92A070ED9641B
:10188800C4D7185017101AE12AC23CF2010E04B24C
:1018980003D0146E156A000C1A6E02012A51EAEC84
:1018A80009F0176E186A1850171004E1030E0201A8
:1018B800456F04D0010E176E000E186A17C014F099
:1018C80018C015F01200010E176E186A020142695D
:1018D80005A808D0810E456F12042009076E146A06
:1018E800156A1200166A0101D60E1624E96EEA6A14
:1018F800010EEA22FF0EEF6816C01AF01B6A39ECD7
:1019080000F0000902E1176A186A162A070E166421
:10191800EAD702012A6BD96AD60ED924E96EEA6A97
:10192800010EEA22EF50196ED60E02012A25E96E41
:10193800EA6A0101010EEA22EF50195C23E3D60E90
:1019480002012A25E96EEA6A0101010EEA22D60E91
:10195800D924E16EE26A010EE222E750EF6214D068
:101968000201000ED924E96EEA6A020EEA22EF505B
:10197800196E000E2A25E96EEA6A020EEA22EF5075
:10198800195CD8A0D9CF2AF2D92A070ED964C4D7AE
:10199800185017101AE12AC242F201B204D0010EFF
:1019A800146E156A000C1A6A02012A51EAEC09F051
:1019B800176E186A1850171004E1030E0201456FDC
:1019C80004D0010E176E000E186A17C014F018C064
:1019D80015F01200E8CF14F014502A0DF3CF15F0CB
:1019E800F4CF16F0650E1524E96E000E1620EA6E87
:1019F800EF50D96ED9501F0BE16E009202920290FF
:101A0800FF0E1224176E186AFF0E1822E1501718DD
:101A180018101DE112502E631AD003BE02D000AE7A
:101A280016D000A014D002AA04D003AE0ED00282B1
:101A38000DD06C0E1524E96E000E1620EA6EEF50DC
:101A4800D96ED9BEF4D7D9AC02D00280008200A2E8
:101A580022D00A0E196E3E511CEC18F03E6F02A2FD
:101A68000CD0040E3E6502D08D9801D08D888D9AD9
:101A78001450426312008D8A120002A01200040E54
:101A88003E6502D08D9A01D08D8A8D9814503C63A2
:101A980012008D88120014503C630CD0145042631D
:101AA80009D012502E6101D002822E5112600BD043
:101AB800028009D014503C6302D0028204D0145032
:101AC800426301D0028002A202D08D8806D002A013
:101AD80003D08D8A8D9802D08D988D9A3E6B120016
:101AE80061504E6E4D6A62CF4FF0506A4F504D10A4
:101AF800496F50504E104A6F050E556ED8904A33B4
:101B08004933552EFBD76250030B516E526A536A04
:101B1800546A51C055F052C056F053C057F054C0E3
:101B280058F056C058F055C057F0566A556A55C017
:101B3800F9F156C0FAF157C0FBF158C0FCF16350F7
:101B4800516E526A536A546A53C054F052C053F0EB
:101B580051C052F0516A51500101F9135250FA1311
:101B68005350FB135450FC136450516E526A536A1D
:101B7800546A5150F9135250FA135350FB135450EE
:101B8800FC13556AC00EFA15566E576A586A0F0E3E
:101B980002D079EC06F0E82EFCD755504C6E4C502C
:101BA800030BFD6F556AC00EFA15566E030EFB1532
:101BB800576E586A0F0E02D079EC06F0E82EFCD763
:101BC80055504C6E4C50070BFD6F1200E8CFE1FFEB
:101BD80002012951E16001D0000CE1500101FF61CF
:101BE80001D0000C2A50FF6101D0000C02012951DC
:101BF8002A6001D0000CE1502A6001D0000CD96A9B
:101C0800710E0E24E96E000E0F20EA6EEF502D6E55
:101C1800720E0E24E96E000E0F20EA6EEF502E6E43
:101C2800730E0E24E96E000E0F20EA6EEF502F6E31
:101C3800740E0E24E96E000E0F20EA6EEF50306E1F
:101C4800E1CF2BF02C6A2BC031F02CC032F0D890A9
:101C580032323132D89032323132D8903232313257
:101C68003150F46E2B50070BE96EE9CF31F0010EBD
:101C7800326E312A02D0D8903236312EFCD732500B
:101C8800F36E12D02D0EF424E96EEA6A000EEA22F1
:101C9800EF50F314D8A4D92AD890F336F36603D0BA
:101CA800010EF36EF42AE12AE1502A60EBD7D950ED
:101CB800120003B017D00B0EF36EB00EF324E96ECA
:101CC800EA6A010EEA22C60EF324E16EE26A010E08
:101CD800E222EFCFE7FFF32A0F0EF364EED70201FB
:101CE8003F6B120003BE02D000AE38D00B0E1E6E42
:101CF8001F6A010E02013F251C6E1D6A000E1D227F
:101D0800ABEC15F01C503F6F080E3F61080C3F51BB
:101D18000708E16E0B0ED96EE1CF1AF003AE08D0BA
:101D280057EC06F002D0D8901B361A2EFCD707D0F5
:101D380057EC06F002D0D8901B321A2EFCD71B5055
:101D4800F36EC60ED924E96EEA6A010EEA22F3CFD1
:101D5800EFFFD92A0F0ED964DFD70F0C0B0ED96EFF
:101D6800B00ED924E96EEA6A010EEA22C60ED92419
:101D7800E16EE26A010EE222EFCFE7FFD92A0F0EE9
:101D8800D964EED702013F6B12001204106E2A0EBE
:101D9800326E000E336A2AC030F02BC031F0C7EC27
:101DA80017F030C00EF031C00FF0600E0E24E96E4F
:101DB800000E0F20EA6EEF502C6E2C04116E7F0E71
:101DC8000E24E96E000E0F20EA6EEF500101FF6F3E
:101DD8007E0E0E24E96E000E0F20EA6EEF5002010F
:101DE800296F6D0E0E24E96E000E0F20EA6EEF507B
:101DF8000101FE6F6E0E0E24E96E000E0F20EA6ED2
:101E0800EF500201286F650E0E24E96E000E0F20B8
:101E1800EA6EEF502D6F650E0E24E96E000E0F204E
:101E2800EA6EEF502C6F610EDDEC06F02CAE07D099
:101E38000101FE51E00BD8A4FEC12CF21200620E83
:101E4800DDEC06F02CA006D02851E00BD8A428C25F
:101E58002CF2120011C02CF21200F29EF29CF28AAF
:101E6800F298F296F294F292F290F18EF19CF19A35
:101E7800F198F184F190F06AD58ED59CD59AD598D1
:101E8800D596D594D592D580D390D392A89AA88880
:101E9800A886A884A892A880D190D09ED098D096E1
:101EA800D094D092D090CD8ACD88CD82CD86CD9455
:101EB800CD9CCD9ECD80CA6AC76AC69EC69CC69A6E
:101EC800C698C696C684C692C680C56AC26AC16AE2
:101ED800C06A0F015D6B5C6BBB6A506B4D6B4A6BE4
:101EE800476BBF6ABE6AB56AB16AAC6AAB6A7F9E65
:101EF8007F9C7F9C7F987F967F947F927F90786A63
:101F0800776A766AA56AA46AA36AA26AA16AA06ABD
:101F18009F6A9E6A9D6A469F469D469B4699120007
:101F28007F0E146413D0166A120E156E15C01BF0BE
:101F3800165034EC16F0060E166E1450800F156EFF
:101F480015C01BF0165034EC16F01CD0090E1464A2
:101F58001BD0166A0A0E176E1450ACEC17F0156EEB
:101F680015C01BF0165034EC16F0060E166E0A0E4D
:101F7800196E14501CEC18F0156E15C01BF0165095
:101F880034EC16F0B56B1AD0D96A0101B00ED92419
:101F9800E96EEA6A010EEA22EF6AD92A0A0ED964C2
:101FA800F4D704B602D0030E01D0060E166E14C084
:101FB80015F015C01BF0165034EC16F003AE04D023
:101FC8000B0E166E0A0E04D000AE06D00B0E166E5F
:101FD8001B6E165034EF16F0BB6BBC6BBD6BBE6B43
:101FE800BF6B1200E8CFD9FF19C021F01AC022F048
:101FF800050ED89021362236E82EFBD7E00E2114A4
:10200800196E22501A6E030E1D161E6A1DC01FF08F
:102018001EC020F01F50191220501A121BC0F3FFC7
:102028001CC0F4FFD9500AE0010A0BE0030A0CE0D7
:10203800010A0DE0070A0EE0010A0FE00E01E00EAA
:102048000ED00E01E40E0BD00E01E80E08D00E01E2
:10205800EC0E05D00E01F00E02D00E01F40EE16E6A
:102068000E0EE26E1A50E76EE128E96E000EE220CD
:10207800EA6E19500809EF6E020EE124E96E000EAF
:10208800E220EA6EF450EF6E030EE124E96E000ED2
:10209800E220EA6EF3CFEFFF1200E8CFD9FF14C0B9
:1020A8001CF015C01DF0050ED8901C361D36E82E04
:1020B800FBD7E00E1C14146E1D50156E030E181677
:1020C800196A18C01AF019C01BF01A5014121B50C4
:1020D800151216C0F3FF17C0F4FF2CD015500F01CE
:1020E800216F14C022FF2287F450236FF3CF24FFFF
:1020F800120015500F01116F14C012FF1287F4500F
:10210800136FF3CF14FF120015500F01016F14C0A5
:1021180002FF0287F450036FF3CF04FF120015503B
:102128000F01216F14C022FF2287F450236FF3CFD1
:1021380024FF1200D950D2E0010ADBE0030AE4E0F0
:10214800EED72A0E326E000E336A26C030F027C052
:1021580031F0C7EC17F030C028F031C029F0680E14
:102168002824E96E000E2920EA6EEF502A6E690EC7
:102178002824E96E000E2920EA6EEF502B6E6A0EB5
:102188002824E96E000E2920EA6EEF502C6E6B0EA3
:102198002824E96E000E2920EA6EEF502D6E1204F5
:1021A800D96ED938E8461F0BF36ED9CF2EF0070E3B
:1021B8002E16010E2F6E2E2A02D0D8902F362E2ED4
:1021C800FCD72F50E16E2A0EF324E96EEA6A000E5E
:1021D800EA22EF50E11404E1010E266E276A000C92
:1021E800266A276A12001750D00F1A6E1A5012E08A
:1021F800196A1AC01BF0195034EC16F0060E196E45
:102208001850D00F1A6E1AC01BF0195034EC16F083
:10221800B56B1BD0E16A0101B00EE124E96EEA6AF0
:10222800010EEA22EF6AE12A0A0EE164F4D704B645
:1022380002D0030E01D0060E196E1850D00F1A6E78
:102248001AC01BF0195034EC16F00B0ED96EB00EF4
:10225800D924E96EEA6A010EEA22EF6AD92A150E34
:10226800D964F5D7D96A03AE04D00B0E196E0A0EDD
:1022780004D000AE12000B0E196E1B6E195034EF0D
:1022880016F00201000E2324E96EEA6A020EEA2221
:10229800640EEF6E2C511F0B101808E1000E23245A
:1022A800E96EEA6A020EEA22EF6A000C2C511F0B53
:1022B800111829E1620E0E24E96E000E0F20EA6E55
:1022C800EF50256E25A209D0000E2324E96EEA6A94
:1022D800020EEA22030EEF6E030C610E0E24E96E65
:1022E800000E0F20EA6EEF50256E000E2324E96ED3
:1022F800EA6A020EEA2225A203D0010EEF6E010C53
:10230800020EEF6E020C000E2324E96EEA6A020E3A
:10231800EA22090EEF6E090CE8CFD9FFD9CF2AF0CF
:102328002B6AC9EC0EF011501F0B1018D8A412001C
:102338004EEC06F014AA120004B804D04EEC06F0D5
:1023480014B00CD004A81200630E0E24E96E000E1F
:102358000F20EA6EEF50146E14A81200610E0E24BE
:10236800E96E000E0F20EA6EEF50146E14BE02D014
:10237800135008E05DEC19F0000904E15AEC19F07B
:102388000201396B620E0E24E96E000E0F20EA6E10
:10239800EF50146E14A012005DEC19F00009D8A4D7
:1023A800120054EC19F00201386B120034EC17F0EB
:1023B800F30EF66E7F0EF76E08000201F5CF2BF2D2
:1023C800F60EF66E7F0EF76E0800F5CF41F2020E9C
:1023D800416501D0416BF70EF66E7F0EF76E08006F
:1023E800F5CF13F0F80EF66E7F0EF76E0800F5CFF6
:1023F8003DF20594F90E9FEC06F014B005840494A0
:10240800F90E9FEC06F014B20484F90EF66E7F0EF6
:10241800F76E0800F5CF14F00496F90E9FEC06F05D
:1024280014B60486049AF90E9FEC06F014B8048AD0
:10243800FA0EF66E7F0EF76E0800F5CF46F2120020
:10244800136602D0E96A02D0010EE96EE95010C0A5
:1024580026F0276A2626000E272229C228F0296A94
:102468002950800A2A6E2650285C2750800A2A584C
:1024780004E3010E236E246A000C29C2F3FF1366DD
:1024880003D0010ED96E01D0D96AD950105CF46E10
:10249800F338E8461F0BE16EF3CF26F0070E261639
:1024A800010E276E262A02D0D8902736262EFCD772
:1024B8002750256EF4CF2DF0F3CF2CF025C02BF04C
:1024C800E15044EC13F02B50E16EE1CF23F0246A85
:1024D800120026C029F027C02AF057EC0BF02A502A
:1024E80029100BE0080E2624E96EEA6A020EEA2299
:1024F800EF6A010E266E276A000C620E0E24E96E42
:10250800000E0F20EA6EEF50286E28A203D0080EA6
:10251800EDEC06F00101FE51E00B07E10201285144
:10252800E00B03E1080EEDEC06F00201080E26248C
:10253800E96EEA6A020EEA22140EEF6410D0115016
:102548001F0B10180CE0080E2624E96EEA6A020E2A
:10255800EA22150EEF6E010E266E276A000C266A17
:10256800276A1200F7CFF3FFF8CFF4FF18503F0B9C
:10257800E16EE150185E000E195A18C0F6FF19C036
:10258800F7FF0A001750161030E0D96A0B00E15027
:10259800D95C1AE31750161017E014C0E9FF15C0EC
:1025A800EAFFEF50F56E144A152AD95018241A6E0E
:1025B800E86AD9BEE86819201B6E1AC0F6FF1BC06E
:1025C800F7FF1606D8A017060C00D92A3F0ED964C3
:1025D800DDD7940E7F6E68EC18F068EC18F0400EAA
:1025E8001826000E1922E16ACDD7F3CFF7FFF4CFF2
:1025F800F8FF120031EC19F091EC17F0708A70981E
:102608000E01459D609E608C609A60946090609613
:1026180060920F01309F308D309B30953083309120
:1026280030970E01E187E587E987ED87F187F58720
:1026380030EC18F0CDEC16F00F01259D209710977F
:1026480000977892786A769E769C768A0E017F99B2
:102658007F977F957E837E811F0E6F16F36AF46ADB
:10266800600EF324E96E000EF420EA6EEF6AF34A76
:10267800F42A500EF35C010EF458D8B01200F0D7CB
:10268800E8CFD9FF680E0E24E96E000E0F20EA6E1F
:10269800EF502E6E690E0E24E96E000E0F20EA6EC2
:1026A800EF502F6E6A0E0E24E96E000E0F20EA6EB0
:1026B800EF50306E6B0E0E24E96E000E0F20EA6E9E
:1026C800EF50316E2E0ED924E96EEA6A000EEA2226
:1026D800EF502B1403E02B6A2C6A1200D8902B368B
:1026E8002B660AD0D950030A04E1010E2B6E2C6A1E
:1026F800000CD92A010E2B6E2D502C5C04E3010E20
:102708002B6E2C6A000C2C2ADDD7E8CFD9FF18C015
:1027180020F019C021F0050ED89020362136E82E79
:10272800FBD7E00E2014186E2150196E030E1C16EC
:102738001D6A1CC01EF01DC01FF01E5018121F502D
:1027480019121AC0F3FF1BC0F4FF1ED019500E0156
:10275800F86F18C0F9FEF450FA6FF3CFFBFE1200C1
:1027680019500E01FC6F18C0FDFEF450FE6FF3CF38
:10277800FFFE120019500E01F86F18C0F9FEF45050
:10278800FA6FF3CFFBFE1200D950E0E0010AE8E04F
:10279800F1D7136602D0E96A02D0010EE96E010191
:1027A800FF51E924F46EF450105C04E3010E1F6E2F
:1027B800206A000C136603D0010ED96E01D0D96AC5
:1027C800D9501024F36EF338E8461F0BE16EF3CFAF
:1027D80022F0070E2216010E236E222A02D0D8906C
:1027E8002336222EFCD72350216EF4CF2DF0F3CFC1
:1027F8002CF021C02BF0E15044EC13F02B50E16E8B
:10280800E1CF1FF0206A12000E01426B416BD96ABA
:102818000201100ED924E96EEA6A020EEA22780E45
:10282800EF6421D0D9502A0DF3CF14F0F4CF15F06E
:10283800E16A600E166E176AE1501626000E17221E
:1028480014501624E96E15501720EA6EEF6AE12A33
:10285800290EE164EED70201100ED924E96EEA6A66
:10286800020EEA22EF6AD92A070ED964D1D7640E7C
:102878004E65640CFEEC12F002014E6B1200010E64
:10288800266E610E09EC07F029AE0ED01128276ECE
:10289800FFC128F028C02AF02750EAEC0DF0296E75
:1028A800030E295C24E322D0620E09EC07F029A06C
:1028B8001ED0115010600AD01104286E1028276EFF
:1028C80028C02AF02750EAEC0DF00CD01050116007
:1028D8000ED01104286E29C227F028C02AF02750EC
:1028E800EAEC0DF0296E030E295CD8B0266A265052
:1028F8001200010E216E610EF4EC06F024AE1AD01F
:10290800105011600AD01004236E1128226E23C0C3
:102918002AF02250EAEC0DF01BD0115010601DD0A7
:10292800FFC123F01128226E23C02AF02250EAECBE
:102938000DF00ED0620EF4EC06F024A00ED01104B7
:10294800236E29C222F023C02AF02250EAEC0DF0AF
:10295800246E030E245CD8B0216A215012000F01A6
:1029680020B7120002013B51D8B412002A510101CC
:10297800FD63120009EC16F04DC214F0000E7AEC5B
:1029880018F02FC216F030C217F031C218F032C258
:1029980019F033C214F034C215F0000E51EC10F0E7
:1029A80045C206F0260E146E0F0E156E56EC18F082
:1029B800786A78840F01208702013851D8A4380733
:1029C8001200010E556E5428566E02D0D890553616
:1029D800562EFCD751C0E9FF52C0EAFFEF505514FC
:1029E80012E05304D8A4120051C0E9FF52C0EAFF14
:1029F800EF50566E551C561451C0E9FF52C0EAFFFD
:102A0800EF6E00861200010E5364010C51C0E9FFFD
:102A180052C0EAFFEF50551051C0E9FF52C0EAFF1B
:102A2800EF6E00861200F9BF1200FF0E12244C6EE2
:102A38004D6AFF0E4D22F2511F0B4C184D10D8A4B1
:102A48001200F2EC18F00009D8A41200F10509E10F
:102A5800F2AF02D08D9C0492F2AD12008D9E0192CD
:102A68001200F151FE0AD8B41200135005E0F2BB6F
:102A780004B012008D8C1200F2BF04B001D08D8C0E
:102A8800F2BD01B012008D8E12000F0110B71200B6
:102A980002013B51D8B412002A510101FD63120012
:102AA80009EC16F053C214F0010E7AEC18F02FC29C
:102AB80016F030C217F031C218F032C219F033C222
:102AC80014F034C215F0010E51EC10F045C206F0B6
:102AD800160E146E0F0E156E56EC18F0786A78867E
:102AE8000F01108702013951D8A439071200E8CF25
:102AF800E1FFE1502A0DF3CF14F0F4CF15F002B83E
:102B08001200660E1424E96E000E1520EA6E430EBC
:102B1800EF62430C670E1424E96E000E1520EA6E6E
:102B28004D0EEF624D0C610E1424E96E000E152057
:102B3800EA6EEF50166E16BA120049C2D9FFD95084
:102B48003D19D8B41200D9CF3DF2008A1200E16ACB
:102B58001DAE06D01C6C1D1ED8B01D2A010EE16EDC
:102B68001FAE04D01E6C1F1ED8B01F2A1F501E1087
:102B780017E0010ED96E1FBE05D0D8901E361F363D
:102B8800D92AF9D71E501C5C1F501D5804E31E504B
:102B98001C5E1F501D5AD8901F321E32D92EF2D7F4
:102BA800E15004E01C6C1D1ED8B01D2A120001A8BB
:102BB8001ED012C014F0000E94EC0FF0090E1B6E1C
:102BC8000B0E34EC16F0D96AB00ED924E96EEA6A15
:102BD800010EEA22C60ED924E16EE26A010EE22253
:102BE800EFCFE7FFD92A0F0ED964EED70F0CE16AB1
:102BF8000101C60EE124E96EEA6A010EEA22EF6AD3
:102C0800E12A0F0EE164F4D70F0C02013DC219F05E
:102C18001A6AF36AF46A070ED890F336F436E82E87
:102C2800FBD7F3501910336FF4501A10346F1B6A26
:102C38001C6A1D6A1E6A2A511B120E0ED8901B367A
:102C48001C361D361E36E82EF9D743511B121BC001
:102C58002FF21CC030F21DC031F21EC032F2120039
:102C6800E8CF1CF01B50050DF3CFE1FFD96A280E01
:102C78001D6E7E0E1E6EE1501D26000E1E22D950BE
:102C88001D26000E1E221DC0F6FF1EC0F7FFD950DC
:102C98001C241F6E0101B00E1F24E96EEA6A010EA2
:102CA800EA220800F5CFEFFFD92A040ED964DFD74E
:102CB800040CE8CFE1FF010ED96EE1CF2AF02B6AB0
:102CC800C9EC0EF005B419D0130417E1620E62ECDA
:102CD80006F01FA208D002012D511F0B10180CE19D
:102CE800010ED96E0AD011501F0B1018F9E0610EB1
:102CF80062EC06F01FB2F4D7D96AD9501200E8CFB7
:102D0800D9FF136602D08DAE000C136601D0010CFA
:102D1800D9CF2AF02B6AC9EC0EF011501F0B1018EE
:102D280013E1610E46EC06F01FAA010C04A805D0B9
:102D3800630E46EC06F01FB8000C04B8010C610ED7
:102D480046EC06F01FB0000C010C00A400A0120015
:102D580003AE00BE120002AE06D02E51121802E0D9
:102D6800049C01D0048C04AC120002AE05A206D06B
:102D7800048E08500209086E476B120002BE05B2A5
:102D88001200140E4761140C048E0850FD0B086ED7
:102D9800120009EC16F01A6A1B6A1C6A1D6A02A85E
:102DA8000DD07F0E186E000E196A89EC13F01A6A9E
:102DB8001B6A1C6A1D6A7F0E186E0AD0000E186AFC
:102DC800196A89EC13F01A6A1B6A1C6A1D6A186A68
:102DD800196A010E89EF13F0136602D0D96A02D07E
:102DE800010ED96E1FC02AF020C02BF0C9EC0EF0DE
:102DF800D9500101FFC121F0226A2126000E2222AA
:102E080010C023F0246A2450800A256E2150235CC8
:102E18002250800A255801E3010C000C136602D0E9
:102E2800D96A02D0010ED96E23C02AF024C02BF033
:102E3800C9EC0EF0D95010C025F0266A2526000EE0
:102E48002622020129C227F0286A2850800A296E02
:102E58002550275C2650800A295801E3010C000CF4
:102E6800F36A19D00101E60EF324E96EEA6A010E4D
:102E7800EA22F30E156E7F0E166EF3501526000E1D
:102E8800162215C017F016C018F0196A1A6A8BECCA
:102E980018F0EF6EF32A0A0EF364E4D70A0CE8CFB1
:102EA8004CF04C502A0DF3CF4DF0F4CF4EF0640E99
:102EB8004D24E96E000E4E20EA6EEF504F6E4FA281
:102EC80005D04C5002012B1901E0000C05A6010C9D
:102ED8004C5002012B1901E0000C010C23C026F014
:102EE80024C027F0A5EC10F02750261001E0010CB3
:102EF80023C026F024C027F06DEC12F027502610CE
:102F080001E0010C630EE5EC06F025BA010C640E35
:102F1800E5EC06F025B0010C000C0E01448F448D41
:102F2800459545934581449544834491449B4499F0
:102F38004487439F439D439B4389439743954383DA
:102F48004381438B439943974385438343811200CD
:102F5800E8CFE9FFD96A175014E0010EE16ED89066
:102F680017BE04D01736E12AFAD7D890D9361750A9
:102F7800E95C03E31750E95ED980D8901732E12E57
:102F8800F4D7D9501200F36AF46A30A004D0325052
:102F9800F3263350F422D89032363336D890313273
:102FA800303231503010F1E1F3CF30F0F4CF31F05E
:102FB8001200926A936A946A956A966A976A986AFE
:102FC8000F0E966E936889688A688B688C688D681E
:102FD8008E688F688F928F908F948F96120001A6BB
:102FE8001200030E0201456F2BC2FDF1FDC12AF24A
:102FF80012042009076E085084B403D00409086E2F
:103008001200FB0B086E12005350D8B4120053067E
:1030180051C0E9FF52C0EAFFEF505318D8B412006C
:1030280051C0E9FF52C0EAFF53C0EFFF008612000B
:10303800E8CFE1FF080EE96ED96AD890E134D934B7
:10304800D96ED890E1361950D95C02E31950D95E8F
:10305800E92EF3D7D950120009EC16F0186A1B6A4A
:103068001C6A1D6A1E6A33C219F034C21AF018505D
:10307800F6EC0FF0182A050E1864F1D7050C085065
:1030880004A802D0010901D0FE0B086E085005A65D
:1030980002D0080901D0F70B086E0850FB0B086E28
:1030A800A9EF16F0D96AD950060FE96EEA6AD95025
:1030B8001424E16E000E1520E26EEFCFE7FFD92A47
:1030C800070ED964F0D7070C7FB2FED7D890F2BEAE
:1030D800D880F29E7F84550E7E6EAA0E7E6E7F8209
:1030E80000F0B79C7F94D8B0F28EAA0CE8CFD9FF35
:1030F800D95004E0010A05E0030A06E014C025FFE0
:10310800120014C015FF120014C005FF1200F7CFFB
:10311800D9FFF8CFE1FF17C0F6FF18C0F7FF19C0B5
:10312800F8FF0800D9CFF7FFE1CFF8FFF5501200FC
:1031380055C218F056C219F00B0E166E000E176A1B
:1031480057C214F058C215F0B6EC12F0FF00120086
:10315800F28AF294D58ED59CD59AD598D596D594E1
:10316800D582D590180ED66EFC0ED76EFC0C010ECB
:10317800206E1EC02AF01FC02BF0C9EC0EF07DECAB
:1031880014F0000901E1000C010C9268126A8068D1
:1031980080A0128080A2128280A4128480A6128647
:1031A80080AA12881200010E256E23C02AF024C0BE
:1031B8002BF0C9EC0EF043EC14F0000901E1000C0F
:1031C800010CD96A080ED924E96EEA6A020EEA22CD
:1031D800EF6AD92A070ED964F5D7070C010E4E6E8F
:1031E80004B8F3A101D04E6A04A8F3B101D04E6A25
:1031F8004E5012001FC02AF020C02BF0C9EC0EF070
:10320800020129511060000C010C23C02AF024C0CF
:103218002BF0C9EC0EF010500101FF61000C010CFD
:103228005AEC19F00201376B0490396B0398039A32
:10323800E5EF18F054EC19F002013A6B0190386B85
:1032480003960394E5EF18F0E16AE15090EC11F071
:10325800E12A070EE164F9D7070C938693946F501F
:103268001F0B80096F6E120051EC19F00190030ECC
:103278000201386F030C54EC19F00180030E386F0B
:10328800030C57EC19F00490030E396F030C5AEC39
:1032980019F00480030E396F030C8D8E0182120021
:1032A8008D9E019212008D8C048212008D9C0492D6
:0632B80012000598000C55
:107E28003E5149453E00427F40004261514946214A
:107E380041454B311814127F1027454545393C4AB6
:107E48004949300171090503364949493606494906
:107E5800291E04027F020410207F201008142241EA
:107E680000141414141400412214080201510906C4
:107E7800324979413E7E1111117E7F494949363E8A
:107E8800414141227F4141221C7F494949417F09A3
:107E98000909013E4149497A7F0808087F00417F66
:107EA80041002040413F017F081422417F4040406B
:107EB800407F020C027F7F0408107F3E4141413E13
:107EC8007F090909063E4151215E7F091929464665
:107ED8004949493101017F01013F4040403F1F208E
:107EE80040201F3F4038403F631408146307087060
:107EF8000807615149454300003E4141413E001F8A
:107F08002040201F007F49494941007F091929461F
:107F1800007F40404040003E4141413E007E1111FB
:107F2800117E007F4141221C00000000007F0909EA
:107F38000906007E1111117E007F09192946007F6C
:107F4800081422410000417F4100007F0408107F8F
:107F5800003E4149497A000000000000000000008E
:107F6800007F49494941007F020C027F003E414998
:107F7800497A00000000000000000000007F0909A5
:107F880009010000417F4100007F09192946007F4F
:107F98004949494100000000007F09090901003FE3
:107FA8004040403F007F40404040007F40404040CC
:107FB800000000000000417F4100007F0408107F9E
:107FC8000046494949310000000000000000000057
:107FD8000046494949310001017F0101003E414104
:107FE800413E007F09090906000000000000010168
:087FF80041000059534500004F
:020000040030CA
:0E00000011130A19FF8F91FF0FC00FE00F4080
:00000001FF
