:020000040000FA
:100000000CEF00F0AC010003D8CFFFF2FACFFEF204
:10001000E0CF0FF0DFEF1AF001EEBCF012EEE3F0EC
:10002000ECEC1FF000EE10F010EE17F0ECEC1FF00F
:1000300000EE9EF011EE00F0ECEC1FF001EEACF0E3
:1000400011EEBCF0700EF66E000EF76E000EF86E3C
:10005000E4EC1FF000EEFCF011EE00F0040EF66E82
:10006000000EF76E000EF86EE4EC1FF0F0EF19F0E2
:1000700000000000000000000000000B0000000075
:10008000B800026E0001B851050DF350E16ED96A57
:10009000E150D9CF00F0016A0026000E0122005085
:1000A0000C0FF66E0150F76E030EF7220250D9CFF7
:1000B00000F0016A0026000E0122C20E0024E96E43
:1000C000010E0120EA6E0800F5CFEFFFD92A040ED9
:1000D000D964DED71200B6007F0E0001B66511D0DC
:1000E000036A120ED96EB86F0350CBDF060E036E93
:1000F0000001B651800FD96ED950B86F0350C1DFDF
:100100001DD0090E0001B6651CD0B76B0A0E016E3A
:10011000B6516EEC1FF0D96ED950B86FB751B1DF40
:10012000060E0001B76F0A0E016EB6516EEC1FF09D
:100130000050D96ED950B86FB751A3DF0101C76B1A
:100140001BD0D96AD95001EEC2F0E926000EEA228E
:10015000EF6AD92A0A0ED964F5D70101C153D8A490
:1001600002D0030E01D0060E036E0001B651D96E07
:10017000D950B86F035085DF15A608D00B0E036E5B
:100180000A0E0001B86F03507CDF13D011AE07D008
:100190000B0E036E0001B86F035073DF0AD001012C
:1001A000CD6B0101CE6B0101CF6B0101D06B010161
:1001B000D16B1200B0000001B051D00FD96ED950F0
:1001C000D8B412D0036AD950B86F03505ADF060E64
:1001D000036E0001B151D00FD96ED950B86F0350E2
:1001E00050DF0101C76B1CD0D96AD95001EEC2F0B3
:1001F000E926000EEA22EF6AD92A0A0ED964F5D759
:100200000101C153D8A402D0030E01D0060E036E23
:100210000001B151D00FD96ED950B86F035031DF02
:1002200015A608D00B0E036E0A0E0001B86F03501E
:1002300028DF13D011AE07D00B0E036E0001B86F8C
:1002400003501FDF0AD00101CD6B0101CE6B01010C
:10025000CF6B0101D06B0101D16B1200B500E16ED3
:1002600012A830D0D96AD95001EEC2F0E926000EAA
:10027000EA22EF6AD92A0F0ED964F5D7E128D8B45B
:1002800005D0E1500001B66F000E26DF0001B52950
:10029000D8B404D0B551B86F0B0EF3DED96AD9507B
:1002A00011EEC2F0E126000EE222D95001EED2F0AA
:1002B000E926000EEA22E7CFEFFFD92A0F0ED96414
:1002C000EED70CD0D96AD95001EED2F0E926000E53
:1002D000EA22EF6AD92A0F0ED964F5D71200F3EC9F
:1002E0001FF0A684D890F2BED880F29E550EA76E5D
:1002F000AA0EA76EA68200F0D8B0F28EA6941200C5
:100300000000000001414A53595345003E51494500
:100310003E00427F400042615149462141454B31F8
:100320001814127F1027454545393C4A4949300188
:10033000710905033649494936064949291E04020F
:100340007F020410207F201008142241001414148E
:10035000141400412214080201510906324979415E
:100360003E7E1111117E7F494949363E414141226D
:100370007F4141221C7F494949417F090909013ECA
:100380004149497A7F0808087F00417F41002040A9
:10039000413F017F081422417F404040407F020CD2
:1003A000027F7F0408107F3E4141413E7F090909D9
:1003B000063E4151215E7F09192946464949493186
:1003C00001017F01013F4040403F1F2040201F3F6F
:1003D0004038403F631408146307087008076151F0
:1003E00049454300003E4141413E001F2040201F3F
:1003F000007F49494941007F09192946007F404053
:100400004040003E4141413E007E1111117E007F7F
:100410004141221C00000000007F09090901003F42
:100420004040403F007F40404040007F40404040CF
:10043000000000000046494949310001017F0101E7
:10044000003E4141413E007F0909090600000000CD
:10045000007F090909010000417F4100007F09195F
:100460002946007F4949494100000000007F494971
:100470004941007F020C027F003E4149497A000059
:1004800000000000417F4100007F0408107F00460B
:100490004949493100000000007F09090906007E32
:1004A0001111117E007F09192946007F081422418D
:1004B0000000417F4100007F0408107F003E414959
:0C04C000497A000000000000000000006D
:1004CC00B300E16E0001B551B4C002F0036A025EE4
:1004DC00000E035AB351E1CF00F0016A005E000E2A
:1004EC00015A0150800A046E0350800A045C02E138
:1004FC000250005CD8A003D0B351E15C03D00001E2
:10050C00B551B45D006EB6510024D96ED9501200AD
:10051C00B5000201B205E8CFD0F22A0E026E036AD2
:10052C00B5C000F0B6C001F0B1EC1FF004C09EF0F5
:10053C0005C09FF0000102EE01F09E51E9269F518B
:10054C00EA22EF50006E0004E8CFCEF202EE20F06B
:10055C009E51E9269F51EA22EFCFD5F202EE1FF011
:10056C009E51E9269F51EA22EFCFD4F202EE1EF003
:10057C009E51E9269F51EA22EFCFD3F202EE0EF004
:10058C009E51E9269F51EA22EFCFD1F202EE0FF0F5
:10059C009E51E9269F51EA22EFCFD2F202EE06F0ED
:1005AC009E51E9269F51EA22EFCFCFF202EE06F0E0
:1005BC009E51E9269F51EA22EFCFD6F202EE02F0CD
:1005CC009E51E9269F51EA22EF50006E00AE07D0F3
:1005DC00D1C2E8FFE00BD8A4D1C2D6F211D00001F1
:1005EC0002EE03F09E51E9269F51EA22EF50006E75
:1005FC0000A006D0D2C2E8FFE00BD8A4D2C2D6F23B
:10060C00000CBEC1E8FF2A0DF3CFF6FFF4CFF7FFC5
:10061C0002EE05F0F650E926F750EA22EF50006E94
:10062C0000B208D016A408D0BEC1E8FF0101BD1964
:10063C00D8B402D0000E01D0010E1200B5002A0E63
:10064C00026E036AB5C000F0B6C001F0B1EC1FF049
:10065C0004C0F6FF05C0F7FF02EE09F0F650E926DC
:10066C00F750EA22EF500001B76F02EE0AF0F65095
:10067C00E926F750EA22EF50B86F02EE0BF0F65075
:10068C00E926F750EA22EF50B96F02EE0CF0F65063
:10069C00E926F750EA22EF50BA6F080E026E036A91
:1006AC00B2C200F0016AFF0E000601229CEC1FF0A2
:1006BC000450F36E0201B205070BE16EE1CF01F0BD
:1006CC00010E006E012A02D0D8900036012EFCD704
:1006DC000050D96EF35000EEB7F0E926000EEA2276
:1006EC00EF50006ED914D8A403D0010E006E01D0C7
:1006FC00006A016A1200B700000102EEDFF0B75188
:10070C00E926B851EA22EF6A02EEDBF0B751E9268E
:10071C00B851EA22FF0EEF6E2A0E026E036AB7C0C2
:10072C0000F0B8C001F0B1EC1FF004C0F6FF05C03A
:10073C00F7FF02EE04F0F650E926F750EA22EF50EC
:10074C00006E00B04ED002EE02F0F650E926F750E3
:10075C00EA22EF50006E00AA44D002EE02F0F650EE
:10076C00E926F750EA22EF50006E00B63AD002EEBE
:10077C0004F0F650E926F750EA22EF50006E00B272
:10078C0030D002EE03F0F650E926F750EA22EF5093
:10079C00006E00B826D002EE03F0F650E926F750B2
:1007AC00EA22EF50006E00B41CD002EE05F0F650B9
:1007BC00E926F750EA22EF50006E00A208D00001A3
:1007CC00BDC1E8FFB71901E1B853D8A40AD016A4EB
:1007DC000BD00001BDC1E8FFB71901E1B853D8B483
:1007EC0003D0010E006E1ED012EE20F0F650E12662
:0407FC00F750E222AE
:10080000000102EEDFF0B751E926B851EA22E7CF46
:10081000EFFF12EE1FF0F650E126F750E22202EE53
:10082000DBF0B751E926B851EA22E7CFEFFF006AC3
:10083000016A1200B500B5C0B7F0B6C0B8F062DF0B
:1008400001500010D8B409D0000102EEC3F0B55138
:10085000E926B651EA22000E41D0000102EE03F073
:100860009E51E9269F51EA22EF50006E00A208D067
:10087000000102EEC3F0B551E926B651EA22EF6A53
:10088000D1C2E8FFE00BD8A40DD0D2C2E8FFE00B44
:10089000D8A408D0000102EEC3F0B551E926B65144
:1008A000EA22EF6A000102EEC3F0B551E926B65123
:1008B000EA22EF50006E150E005CD8A013D0CEC215
:1008C000E8FF1F0B0201D019D8B40CD0000102EED2
:1008D000C3F0B551E926B651EA22150EEF6E010EAE
:1008E000006E01D0006A016A1200B300B3C0B5F017
:1008F000B4C0B6F014DED5C2E8FF0201D05DD8A0C6
:1009000002D0010E01D0000E1200B300B3C0B5F04A
:10091000B4C0B6F004DED0C2E8FF0201D56102D057
:10092000010E01D0000E1200B300B3C0B5F0B4C088
:10093000B6F0F5DDD4C2E8FF0201D06102D0010EAD
:1009400001D0000E1200B300B3C0B5F0B4C0B6F0D1
:10095000E6DDD0C2E8FF0201D45DD8A002D0010ECE
:1009600001D0000E1200B300B3C0B5F0B4C0B6F0B1
:100970006CDE01500010D8A41FD0B3C0B5F0B4C0D5
:10098000B6F059DF01500010D8A416D0000102EED5
:1009900004F09E51E9269F51EA22EF50006E00BA02
:1009A0000BD0000102EE05F09E51E9269F51EA228C
:1009B000EF50006E00A002D0010E01D0000E120018
:1009C000B800D96ED4C2E8FFD96001D015D0D95093
:1009D0000201D56101D010D00001B8510201D561EA
:1009E00001D00AD0D4C2E8FF0001B86101D004D020
:1009F000D9500001B86102D0000E64D0026A000133
:100A000002EE12F09E51E9269F51EA22EF500001BA
:100A1000B96F000102EE13F09E51E9269F51EA22C0
:100A2000EF500001BA6F000102EE14F09E51E9266A
:100A30009F51EA22EF500001BB6F000102EE15F05A
:100A40009E51E9269F51EA22EF500001BC6FD95018
:100A5000F36EF46AF3CF00F0F4CF01F0D8900132D6
:100A60000032D89001320032D8900132003200506A
:100A7000036EF350070BE96EE9CF01F0010E006E33
:100A8000012A02D0D8900036012EFCD70050E16E2A
:100A900014D0035000EEB9F0E926000EEA22EF5020
:100AA000006EE114D8A4022AD890E136E150D8A40F
:100AB00003D0010EE16E032AD92AD9500001B86192
:100AC000E8D702501200010E0001B56F000102EEDE
:100AD00002F09E51E9269F51EA22EF50006E00AECF
:100AE00027D0D0C2E8FF0201CE6112D0D6C2E8FF03
:100AF000A00BD8B43FD00201D0050001B66F0201AF
:100B0000CE290001B76FB651B86FB7515ADF24D064
:100B1000CEC2E8FF0201D0612DD0D5C2B6F00201ED
:100B2000CE290001B76FB651B86FB7514ADF14D064
:100B3000000102EE03F09E51E9269F51EA22EF5098
:100B4000006E00A017D00201CE050001B66FD4C21E
:100B5000B7F0B86FB75135DF006E00C002F0036A1E
:100B60000350800A800F020ED8B4025CD8A002D0D5
:100B70000001B56B0001B5511200010E0001B56F07
:100B8000000102EE02F09E51E9269F51EA22EF5049
:100B9000006E00AE0BD00201CE290001B76FD5C2A6
:100BA000B6F0B651B86FB7510CDF2FD0000102EE8E
:100BB00003F09E51E9269F51EA22EF50006E00A0FB
:100BC00032D0CEC2E8FF0201D06112D0D6C2E8FF17
:100BD000600BD8B428D00201CE050001B66F020127
:100BE000D0290001B76FB651B86FB751EADE0DD00A
:100BF000D0C2E8FF0201CE6116D0CE050001B66F6B
:100C0000D4C2B7F0B86FB751DCDE006E00C002F09E
:100C1000036A0350800A800F020ED8B4025CD8A089
:100C200002D00001B56B0001B5511200B300B3C092
:100C3000B5F0B4C0B6F073DC46DF0009D8A402D02A
:100C4000000E82D0D3C2E8FFE00BD8B40AD0CFC2E6
:100C500000F01F0E0016D3C2E8FF1F0B0018D8A427
:100C600002D0010E71D0CFC2E8FF1F0B0201D019D4
:100C7000D8A403D00201CFBF0AD0D3C2E8FF1F0B14
:100C80000201D019D8A405D00201D3AF02D0020EC0
:100C90005BD0010ED96E000102EE02F09E51E926F2
:100CA0009F51EA22EF50006E00AE29D0D0C2E8FF7B
:100CB0000201CE6111D0D3C200F01F0E0016D0C2C7
:100CC000E8FF005CD8B03FD0CFC200F01F0E001686
:100CD000D3C2E8FF1F0B31D0CEC2E8FF0201D061C2
:100CE00032D00201D3AD23D0CFC200F01F0E0016C8
:100CF000D3C2E8FF1F0B0018D8A4D96A18D000018E
:100D000002EE03F09E51E9269F51EA22EF50006E59
:100D100000A019D0D3C200F01F0E0016CFC2E8FF0A
:100D20001F0B005CD8B003D00201D3BDD96AD3C277
:100D300000F01F0E0016D0C2E8FF005CD8B003D050
:100D40000201D3BFD96AD9501200B300B3C0B5F0C5
:100D5000B4C0B6F08FEC02F010DF0009D8A402D0C6
:100D6000000E8AD0CFC200F01F0E0016D3C2E8FFDB
:100D70001F0B0018D8B405D0D3C2E8FFE00BD8A4ED
:100D800002D0010E79D0CFC2E8FF1F0B0201D019AB
:100D9000D8A403D00201CFBD0AD0D3C2E8FF1F0BF5
:100DA0000201D019D8A405D00201D3AD02D0020EA1
:100DB00063D0010ED96E000102EE02F09E51E926C9
:100DC0009F51EA22EF50006E00AE17D0D3C2E8FF69
:100DD0001F0B0201D06103D00201D3BDD96ACFC27B
:100DE00000F01F0E0016D3C2E8FF1F0B005CD8B046
:100DF00042D00201D3AF3FD03DD0000102EE03F05C
:100E00009E51E9269F51EA22EF50006E00A033D098
:100E1000CEC2E8FF0201D06113D0D3C2E8FF1F0B9E
:100E2000D06129D0D3C200F01F0E0016CFC2E8FF58
:100E30001F0B005CD8B01FD00201D3AD1CD01AD05C
:100E4000D0C2E8FF0201CE6116D00201D3AF0AD0B2
:100E5000CFC200F01F0E0016D3C2E8FF1F0B001810
:100E6000D8A4D96AD3C2E8FF1F0B0201D06103D016
:100E70000201D3BDD96AD9501200B300000102EEBD
:100E8000D7F0B351E926B451EA22640EEF6ED6C210
:100E9000E8FF1F0B0201D019D8A409D0000102EE0F
:100EA000D7F0B351E926B451EA22000E40D0D6C2A1
:100EB000E8FF1F0B0201CE19D8A431D0000102EEC9
:100EC00003F09E51E9269F51EA22EF50006E00A2E6
:100ED00009D0000102EED7F0B351E926B451EA225D
:100EE000030E25D0000102EE02F09E51E9269F512B
:100EF000EA22EF50006E00A209D0000102EED7F006
:100F0000B351E926B451EA22010E11D0000102EEDC
:100F1000D7F0B351E926B451EA22020E08D00001FD
:100F200002EED7F0B351E926B451EA22090EEF6E72
:100F30001200B100D96A000102EEC7F0B151E926F2
:100F4000B251EA22FF0EEF6EB1C0B5F0B2C0B6F0FA
:100F50008FEC02F0B1C0B3F0B2C0B4F005DD006EAA
:100F600000C002F0036A03500210D8A434D001017B
:100F7000BC53D8A41AD0B1C0B3F0B2C0B4F0B6DC40
:100F8000006E00C002F0036A03500210D8A423D000
:100F9000B1C0B3F0B2C0B4F0C8DC006E00C002F063
:100FA000036A03500210D8A416D0B1C0B3F0B2C087
:100FB000B4F03DDE006E00C002F0036A0350021080
:100FC000D8A40BD0000102EEC7F0B151E926B2510E
:100FD000EA22640EEF6E010EC0D1B1C0B3F0B2C010
:100FE000B4F04CDF010EF36E15BA02D08AA8B4D16A
:100FF000F36ACEC2E8FF0201D06186D0000102EEA2
:1010000003F09E51E9269F51EA22EF50006E00A0A6
:1010100033D00201D6AD11D0000102EEC7F0B151BC
:10102000E926B251EA22D4C2E8FF0201CE5D016E88
:10103000D4C2E8FF0201D05D23D1D6C2E8FF1F0B66
:101040000201D06101D054D0000102EEC7F0B151CD
:10105000E926B251EA22D6C2E8FF1F0BB36FD0C215
:10106000B4F0D6C2E8FF1F0BB56F070EB66FCEC245
:10107000E8FF67EC02F06FD1000102EE02F09E5132
:10108000E9269F51EA22EF50006E00AE31D00001F8
:1010900002EEC7F0B151E926B251EA22CEC2E8FF12
:1010A0000201D55D016ED0C2E8FFD55D006E015032
:1010B0000024080FEF6ED6C2E8FFE00B200AD8A488
:1010C0004BD1000102EEC7F0B151E926B251EA223C
:1010D000CEC2B3F0D6C2E8FF1F0BB46FD0C2B5F0DA
:1010E000080EB66FD6C2E8FF1F0B67EC02F033D1D3
:1010F000000102EEC7F0B151E926B251EA22D0C296
:10110000E8FF0201CE5DBFD0D0C2E8FF0201CE6190
:1011100052D0000102EE02F09E51E9269F51EA22D0
:10112000EF50006E00BE3BD0000102EE03F09E5176
:10113000E9269F51EA22EF50006E00A030D0000156
:1011400002EEC7F0B151E926B251EA22D4C2E8FF5B
:101150000201CE5D016ED4C2E8FF0201D05D006ED7
:1011600001500024080FEF6E0201D6BDF5D000013A
:1011700002EEC7F0B151E926B251EA22D6C2E8FF29
:101180001F0BB36FD0C2B4F0D6C2E8FF1F0BB56F10
:10119000080EB66FCEC2E8FF67EC02F0DCD00001AB
:1011A00002EEC7F0B151E926B251EA22CEC2E8FF01
:1011B0000201D05D68D0000102EE02F09E51E926E6
:1011C0009F51EA22EF50006E00AE78D002EE02F09E
:1011D0009E51E9269F51EA22EF50006E00B00BD0DD
:1011E000000102EE04F09E51E9269F51EA22EF50E1
:1011F000006E00A809D0000102EEC7F0B151E92647
:10120000B251EA22000EA7D0CFC2E8FF1F0B0201A5
:10121000D019D8B468D0D6C2E8FF1F0B0201D06144
:1012200062D0D6C2E8FFE00B200AD8A417D0000194
:1012300002EEC7F0B151E926B251EA22CEC2B3F0B4
:10124000D6C2E8FF1F0BB46FD0C2B5F0080EB66F60
:10125000D6C2E8FF1F0B67EC02F0EF6E0201D6AFBB
:1012600014D0000102EEC7F0B151E926B251EA22D2
:10127000CEC2E8FF0201D55D016ED0C2E8FFD55DA8
:10128000006E01500024080F66D0000102EEC7F086
:10129000B151E926B251EA22CEC200F0D6C201F025
:1012A0001F0E01160050015C016ED4C200F0D6C2C0
:1012B00002F01F0E02160050025CE2D7000102EE9F
:1012C00003F09E51E9269F51EA22EF50006E00A0E4
:1012D0003AD0D6C2E8FF1F0B0201D019D8A418D00B
:1012E0000201D6AF09D0000102EEC7F0B151E926E4
:1012F000B251EA22010E2FD00201D6BD8DD60001D7
:1013000002EEC7F0B151E926B251EA22030E23D012
:101310000201D6BD81D6000102EEC7F0B151E92627
:10132000B251EA22D6C2E8FF1F0BB36FD0C2B4F0AD
:10133000D6C2E8FF1F0BB56F080EB66FCEC2E8FF2E
:1013400067EC02F008D0000102EEC7F0B151E926C7
:10135000B251EA22020EEF6EF3501200B100D96AC8
:10136000B1C0B5F0B2C0B6F08FEC02F0000102EEF1
:10137000BFF0B151E926B251EA22FF0EEF6EB1C0C3
:10138000B3F0B2C0B4F0B4EC04F0006E00C002F0F0
:10139000036A03500210D8A436D00101BC53D8A46C
:1013A0001CD0B1C0B3F0B2C0B4F086EC04F0006E53
:1013B00000C002F0036A03500210D8A424D0B1C0C8
:1013C000B3F0B2C0B4F0A4EC04F0006E00C002F0C0
:1013D000036A03500210D8A416D0B1C0B3F0B2C053
:1013E000B4F0B4DC006E00C002F0036A03500210D7
:1013F000D8A40BD0000102EEBFF0B151E926B251E2
:10140000EA22640EEF6E010ECBD1B1C0B3F0B2C0D0
:10141000B4F034DD010EF36E12B202D08AAABFD14D
:10142000F36ACEC2E8FF0201D0614ED0000102EEA5
:1014300002F09E51E9269F51EA22EF50006E00AE65
:101440002ED0000102EEBFF0B151E926B251EA22DE
:10145000CEC2E8FF0201D55D016ED0C2E8FFD55DC6
:10146000006E01500024080FEF6E0201D6BF97D125
:10147000000102EEBFF0B151E926B251EA22CEC21C
:10148000B3F0D6C2E8FF1F0BB46FD0C2B5F0080EA0
:10149000B66FD6C2E8FF1F0B67EC02F07FD10001E8
:1014A00002EE03F09E51E9269F51EA22EF50006EB2
:1014B000000102EEBFF0B151E926B251EA22D0C2DA
:1014C000E8FF0201CE5D26D0D0C2E8FF0201CE6166
:1014D000A1D0000102EE02F09E51E9269F51EA22BE
:1014E000EF50006E00AE4AD00201D6AF15D0000119
:1014F00002EEBFF0B151E926B251EA22CEC2E8FFB6
:101500000201D55D016ED0C2E8FF0201D55D006E1B
:1015100001500024080F42D1D6C200F01F0E001661
:10152000D0C2E8FF005CD8B012D0000102EEBFF0DC
:10153000B151E926B251EA22B36BD0C2B4F0CEC2A7
:10154000B5F0080EB66F000E67EC02F027D100016F
:1015500002EEBFF0B151E926B251EA22CEC2B3F099
:10156000D6C2E8FF1F0BB46FD0C2B5F0070EB66F3E
:10157000D6C2E8FF1F0B67EC02F010D1000102EEAB
:1015800003F09E51E9269F51EA22EF50006E00A021
:1015900035D0000102EEBFF0B151E926B251EA2286
:1015A000D6C2E8FF1F0B0201CE5D016ED6C2E8FF76
:1015B0001F0B0201D55D006E01500024080FEF6E75
:1015C000D6C2E8FFE00B200AD8A4E9D0000102EE61
:1015D000BFF0B151E926B251EA22D6C2E8FF1F0B93
:1015E000B36FD0C2B4F0D6C2E8FF1F0BB56F080EC0
:1015F000B66FCEC2E8FF67EC02F0D0D0000102EE79
:10160000BFF0B151E926B251EA22CEC2E8FF020191
:10161000D05D80D7000102EE03F09E51E9269F5174
:10162000EA22EF50006E00A06DD002EE02F09E5153
:10163000E9269F51EA22EF50006E00B00BD0000166
:1016400002EE04F09E51E9269F51EA22EF50006E0F
:1016500000A809D0000102EEBFF0B151E926B25155
:10166000EA22000E9BD0CFC2E8FF1F0B0201D01967
:10167000D8B45DD0D6C200F01F0E0016D0C2E8FF6D
:10168000005CD8B054D0D6C2E8FFE00B200AD8A442
:1016900018D0000102EEBFF0B151E926B251EA22A2
:1016A000D6C2E8FF1F0BB36FD0C2B4F0D6C2E8FFBA
:1016B0001F0BB56F080EB66FCEC2E8FF67EC02F0E5
:1016C0006DD00201D6AD11D0000102EEBFF0B151D4
:1016D000E926B251EA22D4C2E8FF0201CE5D016ED2
:1016E000D4C2E8FF0201D05D12D7000102EEBFF0C4
:1016F000B151E926B251EA22D6C2E8FF1F0B02011E
:10170000CE5D00D7000102EE02F09E51E9269F5106
:10171000EA22EF50006E00AE39D0CFC2E8FF1F0BB7
:101720000201D019D8A418D00201CFAD09D0000110
:1017300002EEBFF0B151E926B251EA22010E2ED0DD
:101740000201CFBFD4D6000102EEBFF0B151E926AD
:10175000B251EA22030E22D00201D6BFC8D6000140
:1017600002EEBFF0B151E926B251EA22CEC2B3F087
:10177000D6C2E8FF1F0BB46FD0C2B5F0080EB66F2B
:10178000D6C2E8FF1F0B67EC02F008D0000102EEA2
:10179000BFF0B151E926B251EA22020EEF6EF350CA
:1017A00012008A9A0201AF6B129212900101EB6B48
:1017B000149E149C0201C36B0201C46B0201C56B31
:1017C0000201C66B12008A980201B76B159A159830
:1017D0000101EC6B159015920201C36B0201C46B01
:1017E0000201C56B0201C66B1200BDC1E8FF2A0DE4
:1017F000F3CFF6FFF4CFF7FF02EE05F0F650E9263F
:10180000F750EA22EF50006E00A202D0168401D0F9
:101810001694010E0001AE6FD96A0201CD6BFF0E66
:10182000E8CFCCF20001AF6B0001AF51B76FB86BDE
:1018300082EC03F001500010D8A40DD00001AF518C
:10184000B56FB66B25EC03F001500010D8A40BD097
:101850000001AE6B08D00001AF5102EEC3F0E926E3
:10186000000EEA22EF6A0001AF5102EEDFF0E92636
:10187000000EEA22EF500201CD6109D00001AF5104
:1018800002EEDFF0E926000EEA22EFCFCDF20001F2
:10189000AF5102EEDBF0E926000EEA22EF50006EB7
:1018A000CCC2E8FF005CD8B008D0AF5102EEDBF04C
:1018B000E926000EEA22EFCFCCF20001AF2B030E97
:1018C000AF65B2D70101BC53D8A417D0B2C200F0A3
:1018D000FF0E0024026E036AFF0E0322CCC200F04A
:1018E000016A0150800A046E0350800A045C02E120
:1018F0000250005CD8B055DF16D0CCC200F0016AAF
:10190000B2C202F0FF0E0224F66EF76AFF0EF72253
:10191000F750800A026E0150800A025C02E100501A
:10192000F65CD8A03EDF0001AE51D8A411D0010E64
:10193000AE6FAF6B0001AF5116EC19F00009D8B4CF
:1019400002D00001AE6B0001AF2B030EAF65F2D7E2
:101950000001AE51D8A498D0B2C200F0FF0E00240E
:10196000026E036AFF0E0322CDC200F0016A01502D
:10197000800A046E0350800A045C02E10250005C9D
:10198000D8A082D015A431D0DC0E0201B76131D0CD
:10199000B753D8B42ED00101BC53D8A402D0D96A11
:1019A00002D0010ED96EB2C200F0FF0E0024026E0A
:1019B000036AFF0E0322D950CDC200F0016A00264F
:1019C000000E01220350800A046E0150800A045C5C
:1019D00002E10050025CD8A08AB80BD08A88158A30
:1019E0001598030EE8CFECF104D00201B76B159205
:1019F000159011AC40D0DC0E0201AF6147D0AF535F
:101A0000D8B444D0B2C200F0FF0E0024026E036AC4
:101A1000FF0E0322CCC200F0016A0150800A046E5E
:101A20000350800A045C02E10250005CD8A004D09C
:101A30000101BC53D8B42AD00101BC53D8A407D0AB
:101A4000010E0201B26522D08ABA20D007D0BDC1F2
:101A5000E8FF24EC16F00009D8A407D08A8A128285
:101A60001290030EE8CFEBF111D08A9A12921290E5
:101A70000101EB6B0BD00201AF6B149E149C0101B2
:101A8000BC53D8B403D0F1D78CDE9DDE1200D96EE2
:101A9000D9502A0DF3CFF6FFF4CFF7FF02EE06F090
:101AA000F650E926F750EA22EF50E16EE1501F0BA5
:101AB000E96E119413921390E9CF00F0016AB2C25B
:101AC00002F0FF0E0224F66EF76AFF0EF7220150B5
:101AD000F71802E10050F618D8A419D0B2C2E8FFF6
:101AE0000201AD6314D015B602D011AE30D011A2F0
:101AF0002ED011A609D0E1AE03D01382118427D0D5
:101B0000E1AC25D01380FAD715A6FCD7F6D7D9506B
:101B10000201B86311D0D9500201B0630DD0B2C236
:101B2000E8FF0201AD6101D01382ADC2E8FF0201FE
:101B3000B2610DD013800BD0D9500201B86302D02E
:101B4000138205D0D9500201B06301D0138011A4D3
:101B50001FD00A0E016EABC2E8FF6EEC1FF0005002
:101B6000E8CFABF213A209D0040E0201AB6502D09C
:101B7000159E01D0158E8A9018D013A016D0040E91
:101B80000201AB6502D08A9001D08A80159E0DD0EB
:101B900013A202D0158E06D013A003D08A80159E02
:101BA00002D0159E8A900201AB6B12001696000CB3
:101BB000E8CF00F0016A00C0B5F001C0B6F08FECCC
:101BC00002F0CEC2E8FF1F0B0201D019D8A44ED0FC
:101BD00016B00BD0000102EE02F09E51E9269F5193
:101BE000EA22EF50006E00B00DD016A03FD00001E9
:101BF00002EE04F09E51E9269F51EA22EF50006E5A
:101C000000A834D0000102EE02F09E51E9269F5157
:101C1000EA22EF50006E00BE07D0000E006A016A93
:101C20000101BC63002A03D0010E006E016A01505D
:101C30000010D8B408D0BADF0009D8A404D08A981C
:101C4000159A0101EC6B000102EE03F09E51E926AA
:101C50009F51EA22EF50006E00A008D0A7DF0009D4
:101C6000D8A404D08A9A12920101EB6B1200D96AAF
:101C7000D9509EDFD92A030ED964FAD71200938671
:101C800093940F016F8F6F9D6F9B12000F01718FE7
:101C9000718D729572937281719571837191719B3F
:101CA00071997187709F709D709B70897097709506
:101CB00070837081708B709970977085708370815C
:101CC0001200AE00D96EAEC000F0AFC001F0050E3C
:101CD000D89000360136E82EFBD7E00E0014000144
:101CE000AE6F0150AF6F030EB217B36BB2C0F3FF0C
:101CF000B3C0F4FFF350AE13F450AF13B0C000F014
:101D0000B1C001F042D04DD00001AFC004FFAEC061
:101D100005FF0F0105870150E8CF06FF00C007FF50
:101D20004CD00001AFC008FFAEC009FF0F0109870A
:101D30000150E8CF0AFF00C00BFF3FD00001AFC049
:101D40000CFFAEC00DFF0F010D870150E8CF0EFF55
:101D500000C00FFF32D00001AFC010FFAEC011FFB6
:101D60000F0111870150E8CF12FF00C013FF25D0EB
:101D70000001AFC014FFAEC015FF0F011587015061
:101D8000E8CF16FF00C017FF18D0D950BCE0010AF9
:101D9000BBE0030AC6E0010AD1E0070ADCE0010A61
:101DA000E7E00001AFC000FFAEC001FF0F010187F7
:101DB0000150E8CF02FF00C003FF1200AE00D96E51
:101DC000AEC000F0AFC001F0050ED890003601366D
:101DD000E82EFBD7E00E00140001AE6F0150AF6F8C
:101DE000030EB217B36BB2C0F3FFB3C0F4FFF350EE
:101DF000AE13F450AF13B0C000F0B1C001F00CD07E
:101E00000FD00001AFC01CFFAEC01DFF0150E8CFD6
:101E10001EFF00C01FFF0ED0D950F2E0010AF1E012
:101E20000001AFC018FFAEC019FF0150E8CF1AFF84
:101E300000C01BFF1200AE00D96EAEC000F0AFC0F4
:101E400001F0050ED89000360136E82EFBD7E00EE3
:101E500000140001AE6F0150AF6F030EB217B36BE9
:101E6000B2C0F3FFB3C0F4FFF350AE13F450AF139E
:101E7000B0C000F0B1C001F01BD020D00001AFC055
:101E800031FFAEC032FF0F0132870150E8CF33FF80
:101E900000C034FF1FD00001AFC021FFAEC022FF41
:101EA0000F0122870150E8CF23FF00C024FF12D08A
:101EB000D950E3E0010AE2E0030AEDE00001AFC01F
:101EC00041FFAEC042FF0F0142870150E8CF43FF00
:101ED00000C044FF1200AE00D96E07D00CD0AEC0D7
:101EE00035FF0BD0AEC025FF08D0D950F7E0010A6E
:101EF000F6E0030AF7E0AEC045FF1200766A756AA5
:101F0000D96AD95001EEEDF0E926000EEA22EF5031
:101F1000006E790E005CD8A01FD0D9502A0DF3CFE7
:101F2000F6FFF4CFF7FFE16AE150F624006E000EF1
:101F3000F720016E010E0024E96E020E0120EA6E08
:101F4000EF6AE12A290EE164EFD7D95001EEEDF0F6
:101F5000E926000EEA22EF6AD92A030ED964D1D706
:101F6000640E0101E86503D077DA0101E86B120025
:101F7000E7C1F6FFF76AF36AF46A070ED890F33602
:101F8000F436E82EFBD7F350F610E8CFA4F0F45067
:101F9000F710E8CFA5F0BDC104F0056A066A076A2C
:101FA000020ED8900436053606360736E82EF9D7E5
:101FB000EAC100F0016A026A036A0050041201508B
:101FC000051202500612035007120E0ED890043666
:101FD000053606360736E82EF9D7ACC200F0016A9E
:101FE000026A036A005004120150051202500612E0
:101FF0000350071204C0A6F005C0A7F006C0A8F061
:1020000007C0A9F012006150F76EF66A6250F36ED5
:10201000F46AF350F610E8CFA2F0F450F710E8CFCE
:10202000A3F0050E006E00EEA2F0002804D0D890B8
:10203000EC32ED52EF32E82EFAD76250030B00017A
:10204000F86FF96BFA6BFB6B100EF8C000F0F9C07B
:1020500001F0FAC002F0FBC003F0CBEC1FF000C0AF
:10206000AAF001C0ABF002C0ACF003C0ADF0635009
:10207000006E016A026A036A02C003F001C002F046
:1020800000C001F0006A00EEAAF00050EE1201500C
:10209000EE120250EE120350ED12ED52ED5264506A
:1020A000006E016A026A036A00EEAAF00050EE12A6
:1020B0000150EE120250EE120350ED12ED52ED52AD
:1020C000AAC000F0ABC001F0ACC002F0ADC003F09C
:1020D000006AC00E0116026A036A0E0ED6EC1FF0EB
:1020E0000050D96ED950030BE8CFE9F1D950030B5A
:1020F000E8CFBEF112003CDFE16AA4C0AEF0A5C09B
:10210000AFF00001B06BB16BB26BB36BE150DADDD5
:10211000E12A050EE164F1D712002ADF10AA15D0DA
:102120007F0E0001AE6FAF6BB06BB16BB26BB36B78
:10213000000E45DE7F0E0001AE6FAF6BB06BB16B72
:10214000B26BB36B010E3BDE12D00001AE6BAF6B16
:10215000B06BB16BB26BB36B000E31DE0001AE6BD6
:10216000AF6BB06BB16BB26BB36B010E28DE1200BC
:102170000F0140B73DD00101E653D8B439D0EAC1D0
:10218000E8FF0101E96334D0F3DEE3C1AEF0000EF5
:10219000A3DEA4C0AEF0A5C0AFF000EEB0F0A6C0C4
:1021A000EEFFA7C0EEFFA8C0EEFFA9C0EEFF000E35
:1021B00043DEE2C1F1F1F1C146FFF2C147FFF3C1D5
:1021C00048FFF4C149FFF5C14AFFF6C14BFFF7C113
:1021D0004CFFF8C14DFFA56AA5840F01408701019E
:1021E000E56B0101EB53D8B403D00101010EEB07FD
:1021F00012000F0130B73DD00101E653D8B439D0F9
:10220000EAC1E8FF0101E96334D0B2DEE4C1AEF017
:10221000010E62DEA4C0AEF0A5C0AFF000EEB0F0DB
:10222000A6C0EEFFA7C0EEFFA8C0EEFFA9C0EEFF5C
:10223000010E02DEE2C1F1F1F1C136FFF2C137FF5A
:10224000F3C138FFF4C139FFF5C13AFFF6C13BFFD6
:10225000F7C13CFFF8C13DFFA56AA5860F01308795
:102260000101E56B0101EC53D8B403D00101010E6B
:10227000EC071200A4AE02D0A49EEDD0A4AC02D014
:10228000A49CE9D0A4AA2BD0A49A0F0174AF02D0C9
:102290000F01749F0F0174AD02D00F01749D0F01E7
:1022A00074AB02D00F01749B0F0174A902D00F010F
:1022B00074990F0174A702D00F0174970F0174A5D0
:1022C00002D00F0174950F0174A302D00F01749313
:1022D0000F0174A102D00F017491746ABCD0A4A242
:1022E00002D0A492B8D0A4A0B6D00101E86B8BDED6
:1022F0000001ABAB87D0AAA746D0040EF66EF76AF2
:10230000D890F636F736D890F636F736D890F636B7
:10231000F736E9C1E8FF2A0DF650F324026EF750B4
:10232000F420036E660ED96E0F0EDA6EF36AF46A4D
:10233000F350D924E96EF450DA20EA6E02C000F0BE
:1023400003C001F0F3500026F4500122010E0024D6
:10235000E16E020E0120E26EEFCFE7FFF34AF42AAE
:10236000000EF45C080ED8B4F35CD8A0E1D7010EDF
:10237000E8CFE6F1E9C1E8FF01EEEDF0E926000E55
:10238000EA22EF6A65D00101E66BAAC0E8FF070BFD
:10239000F66EF76AD890F636F736D890F636F736F6
:1023A000D890F636F736E9C1E8FF2A0DF650F32447
:1023B000026EF750F420036E660ED96E0F0EDA6EC1
:1023C000F36AF46AF350D924E96EF450DA20EA6E25
:1023D00002C000F003C001F0F3500026F4500122C7
:1023E000010E0024E16E020E0120E26EEFCFE7FF46
:1023F000F34AF42A000EF45C080ED8B4F35CD8B0AB
:1024000027D0E0D70101E66B07EC03F00009D8B450
:102410001FD0660ED96E0F0EDA6EF36AF46AF350AF
:10242000D924E16EF450DA20E26E01EEF9F0F350B7
:10243000E926F450EA22E7CFEFFFF34AF42A000E30
:10244000F45C080ED8B4F35CD8A0E9D75FEC19F0BF
:10245000A4900F01609F120012DC18DC0F01738B37
:102460007399729D609F608D609B60956091609B89
:102470006093509F508D509B509550835091509B2E
:102480000187058709870D871187158734DE45DEAB
:102490000F01459D409730972097A592A46AA39E6F
:1024A000A39CA38AA398A396A394A382A3806F9FBF
:1024B0006F9D6F9BF36AF46A02EE01F0F350E92618
:1024C000F450EA22000EEF6AF34AF42AF45CA80EF4
:1024D000D8B4F35CD8B01200EFD7D96ED9502A0D1A
:1024E000F3CFF6FFF4CFF7FF10BA21D002EE07F0DA
:1024F000F650E926F750EA22EF50430AD8A417D045
:1025000002EE08F0F650E926F750EA22EF504D0AA5
:10251000D8A40DD002EE02F0F650E926F750EA22D8
:10252000EF50006E00BA03D0A2C0E7F11082120093
:10253000D96ED9502A0DF3CFAEF0F4CFAFF0129888
:102540001396000102EE28F0AE51E926AF51EA22BF
:10255000EF500201AC19D8B41386000102EE07F067
:10256000AE51E926AF51EA22EF504A0AD8A417D05B
:1025700002EE08F0AE51E926AF51EA22EF50440ACC
:10258000D8A40DD0000102EE02F0AE51E926AF5101
:10259000EA22EF50006E00BA02D0148601D01496E1
:1025A00014B616D1000102EE20F0AE51E926AF516B
:1025B000EA22EFCFB5F202EE01F0AE51E926AF51BB
:1025C000EA22EFCFADF2ADC2E8FF0201AA6101D06D
:1025D00005D0AAC2E8FF0201AD6105D0128CADC2E0
:1025E000AAF20201BC6B000102EE07F0AE51E9262F
:1025F000AF51EA22EF50B06F02EE08F0AE51E9267B
:10260000AF51EA22EF50B16F000EDBEC00F01490F6
:1026100016A00CD0000102EE04F0AE51E926AF5135
:10262000EA22EF50006E00A80CD00AD0000102EEA2
:1026300002F0AE51E926AF51EA22EF50006E00B031
:1026400014801198000102EE02F0AE51E926AF515C
:10265000EA22EF50006E00B21188119602EE03F0EC
:10266000AE51E926AF51EA22EF50006E00B211865A
:102670008A9C02EE03F0AE51E926AF51EA22EF50F8
:10268000006E00BE8A8C8A9E02EE02F0AE51E926F0
:10269000AF51EA22EF50006E00BC8A8E159602EE12
:1026A00002F0AE51E926AF51EA22EF50006E00BEB3
:1026B0001586119E02EE03F0AE51E926AF51EA22D3
:1026C000EF50006E00B0118E159C02EE04F0AE517A
:1026D000E926AF51EA22EF50006E00B0158C149439
:1026E00002EE04F0AE51E926AF51EA22EF50006E3F
:1026F00000B21484149802EE04F0AE51E926AF51F2
:10270000EA22EF50006E00B41488129A02EE03F031
:10271000AE51E926AF51EA22EF50006E00B8128A9E
:10272000139A02EE03F0AE51E926AF51EA22EF50C0
:10273000006E00B4138A139802EE03F0AE51E9263E
:10274000AF51EA22EF50006E00BA1388129402EEE5
:1027500002F0AE51E926AF51EA22EF50006E00B60A
:102760001284149A02EE04F0AE51E926AF51EA2227
:10277000EF50006E00BE148A119A02EE04F0AE51C2
:10278000E926AF51EA22EF50006E00BC118A119287
:1027900002EE02F0AE51E926AF51EA22EF50006E90
:1027A00000BA1182149202EE02F0AE51E926AF5146
:1027B000EA22EF50006E00B41482129E02EE04F082
:1027C000AE51E926AF51EA22EF50006E00BA128EE8
:1027D000000C14B815D00B0ED96ED95011EEC2F002
:1027E000E126000EE222D95001EED2F0E926000ED9
:1027F000EA22E7CFEFFFD92A0F0ED964EED760D0D7
:1028000015B602D011AE48D00B0E026E036A010E4F
:10281000A9C200F0016A0026000E01229CEC1FF004
:1028200000C0A9F2080E0201A9614CD0A9C2E8FFBC
:102830000708E16E0B0ED96EE1CF00F015A60FD0A0
:10284000D95001EEC2F0E926000EEA22EF50016EE7
:10285000002A02D0D8900136002EFCD70ED0D950D5
:1028600001EEC2F0E926000EEA22EF50016E002AC6
:1028700002D0D8900132002EFCD70150F36ED9500F
:1028800001EED2F0E926000EEA22F3CFEFFFD92ABB
:102890000F0ED964D1D716D00B0ED96ED95011EEC8
:1028A000C2F0E126000EE222D95001EED2F0E92674
:1028B000000EEA22E7CFEFFFD92A0F0ED964EED738
:1028C0000201A96B120012B402D011B246D002016B
:1028D000BC291F0BE8CFBCF2BCC2D9FFF36A150EAE
:1028E000D96023D012A40AD0D9CF00F0016A0050D9
:1028F0006B0FF66E0150F76E040E0BD011B213D0B1
:10290000D9CF00F0016A0050810FF66E0150F76ECA
:10291000040EF722F35001EED2F0E926000EEA226F
:102920000800F5CFEFFFD92A13D0D95011EEADF042
:10293000E126000EE222F35001EED2F0E926000E6D
:10294000EA22E7CFEFFFD92A1F0ED96401D0D96A56
:10295000F32A0A0EF364C3D7B2D012AA14BA02D073
:1029600012AE5BD0270E026E036A010EBCC200F0ED
:10297000016A0026000E01229CEC1FF000C0BCF290
:10298000BCC2D9FFF36A1C0ED9602FD012AA0AD09C
:10299000D9CF00F0016A00504F0FF66E0150F76E6C
:1029A000040E17D014AA0AD0D9CF00F0016A005043
:1029B000330FF66E0150F76E040E0BD012AE13D02B
:1029C000D9CF00F0016A0050170FF66E0150F76E74
:1029D000040EF722F35001EED2F0E926000EEA22AF
:1029E0000800F5CFEFFFD92A13D0D95011EEA6F089
:1029F000E126000EE222F35001EED2F0E926000EAD
:102A0000EA22E7CFEFFFD92A260ED96401D0D96A8E
:102A1000F32A0A0EF364B7D752D014B202D014A42A
:102A200050D03F0E026E036A010EBCC200F0016A74
:102A30000026000E01229CEC1FF000C0BCF2BCC2BC
:102A4000D9FFF36A340ED96023D014A40AD0D9CFA9
:102A500000F0016A0050970FF66E0150F76E040EF9
:102A60000BD014A213D0D9CF00F0016A0050E30FAD
:102A7000F66E0150F76E030EF722F35001EED2F01E
:102A8000E926000EEA220800F5CFEFFFD92A13D07D
:102A9000D95011EE8EF0E126000EE222F35001EE45
:102AA000D2F0E926000EEA22E7CFEFFFD92A3E0E48
:102AB000D96401D0D96AF32A0A0EF364C3D7138EFE
:102AC00088D613AE17D0129C0201BC6BD96AD950BC
:102AD00011EEC2F0E126000EE222D95001EED2F052
:102AE000E926000EEA22E7CFEFFFD92A0A0ED964C1
:102AF000EED7139E12AC6DD614B817D0129C0201FB
:102B0000BC6BD96AD95011EEC2F0E126000EE22268
:102B1000D95001EED2F0E926000EEA22E7CFEFFF0E
:102B2000D92A0A0ED964EED754D615B602D011AE02
:102B300074D0090E026E036A010EBCC200F0016A75
:102B40000026000E01229CEC1FF000C0BCF2D96AE6
:102B500015A624D0D95011EED2F0E126000EE222C3
:102B6000D95001EED2F0E926000EEA22EF50006EB5
:102B7000D8900030E76EBCC2E8FF0808006ED9505C
:102B800001EEC2F0E926000EEA22EF50016E002AA3
:102B900002D0D8900136002EFCD723D0D95011EEA8
:102BA000D2F0E126000EE222D95001EED2F0E92661
:102BB000000EEA22EF50006ED8900034E76EBCC2DF
:102BC000E8FF0808006ED95001EEC2F0E926000EB9
:102BD000EA22EF50016E002A02D0D8900132002E76
:102BE000FCD70150F36ED95011EED2F0E126000E61
:102BF000E222D95001EED2F0E926000EEA22EF508F
:102C0000006EF310E76EBCC2E8FF080AD8B4129C4D
:102C1000D92A0A0ED9649CD7DCD5129C0201BC6B60
:102C2000D96AD95011EEC2F0E126000EE222D95045
:102C300001EED2F0E926000EEA22E7CFEFFFD92A13
:102C40000A0ED964EED7C5D50101BC53D8B48ABAEF
:102C500001D039D00101BC53D8B437D0E8CF00F04F
:102C6000016A00C0B5F001C0B6F08FEC02F0CEC230
:102C7000E8FF1F0B0201D019D8A427D0000102EEF3
:102C800002F09E51E9269F51EA22EF50006E00AA01
:102C90001CD016A00BD0000102EE04F09E51E926D4
:102CA0009F51EA22EF50006E00B80DD016B00DD043
:102CB000000102EE02F09E51E9269F51EA22EF50F8
:102CC000006E00A002D0000E01D0010E1200B10073
:102CD000E8CF00F0016A00C0B5F001C0B6F08FEC9B
:102CE00002F0020ED96E030EE8CFE2F10001B151FD
:102CF000D8B40DD0D0C2E8FF8009E8CFF2F10101CD
:102D0000BC53D8B409D0D0C2E8FF200903D0D0C248
:102D1000E8FF4009E8CFF2F1F3C1E8FF16A002D0C6
:102D2000010901D0FE0BE8CFF3F1D0C2E8FF0201A8
:102D3000CE6163D00001B151D8B435D0000102EEAC
:102D400003F09E51E9269F51EA22EF50006E00A049
:102D500003D0010ED96EE0D0D1C2E8FFE00BD8B4A9
:102D6000DAD0D1C2E8FF1F0B0201D06101D0D3D06D
:102D7000D1C200F01F0E0016D0C2E8FF005CD8B030
:102D800007D0D1C2E8FFE00B400AD8A4E2D7C3D0F5
:102D9000D1C2E8FF1F0B0201D019D8A4BDD0020197
:102DA000D1AFB9D06AD0000102EE03F09E51E926FE
:102DB0009F51EA22EF50006E00B0CBD7D1C2E8FF9E
:102DC000E00BD8B4A8D0D1C2E8FF1F0B0201D0613C
:102DD00001D0BFD7D1C200F01F0E0016D0C2E8FF4D
:102DE000005CD8A0CED7D1C2E8FF1F0B0201D019DA
:102DF000D8A492D0D1C2E8FF3CD0CEC2E8FF0201F5
:102E0000D0616CD00001B151D8B439D0000102EECC
:102E100002F09E51E9269F51EA22EF50006E00BE5B
:102E200098D7D2C2E8FFE00BD8B475D0D2C200F078
:102E30001F0E0016D0C2E8FF005CD8B004D0BCC1A1
:102E4000E8FF020A0AD0D2C2E8FF1F0B0201D061DC
:102E500007D0D2C2E8FFE00B800AD8B45CD079D7A3
:102E6000D2C2E8FF1F0B0201D019D8A455D0D2C29C
:102E7000E8FFE00B200AD8B44ED0020E6BD7000159
:102E800002EE02F09E51E9269F51EA22EF50006EB9
:102E900000BE5FD7D2C2E8FFE00BD8B43CD0D2C2AC
:102EA00000F01F0E0016D0C2E8FF005CD8A033D09F
:102EB000D2C2E8FF1F0B0201D06105D0D2C2E8FFE9
:102EC000E00B800A62D7D2C2E8FF1F0B0201D019C3
:102ED000D8A422D00201D2BDD0D71DD00001B1515B
:102EE000D8B40FD0000102EE02F09E51E9269F51A6
:102EF000EA22EF50006E00BE0ED00101BC53D8B4E0
:102F00000BD0000102EE03F09E51E9269F51EA2208
:102F1000EF50006E00B0D96A000102EE03F09E513E
:102F2000E9269F51EA22EF50006E00B00FD0000159
:102F300002EE02F09E51E9269F51EA22EF50006E08
:102F4000000E00BE010E006E016A03D0010E006E7D
:102F5000016A01500010D8B4D96AD9501200010E8C
:102F60000001AF6FB06BFF0EE8CFB8F2E8CFCBF245
:102F700016A60AD0810EE8CFE2F10201B2052009BF
:102F8000E8CFF2F1006A04D015BA04D0010E006E49
:102F9000016A98D00001AE6B0001AE5102EEC7F09D
:102FA000E926000EEA22FF0EEF6EAE51B16FB26B52
:102FB0009AEC07F0006E00C002F0036A03500210A2
:102FC000D8A403D00001AF6BB06B0001AE2B030E91
:102FD000AE65E2D70101EA6BD96AD95002EEC7F0BB
:102FE000E926000EEA22EF50006EEAC1E8FF02EE89
:102FF000C7F0E926000EEA22EF50005CD8A025D0E9
:10300000D95002EEC7F0E926000EEA22EF50006E1A
:10301000EAC1E8FF02EEC7F0E926000EEA22EF500F
:103020000018D8A414D0D95002EED7F0E926000E2B
:10303000EA22EF50006EEAC1E8FF02EED7F0E9267F
:10304000000EEA22EF50005CD8A0D9CFEAF1D92ACD
:10305000030ED964C2D7040E0201CB6102D0CBC2E9
:10306000EAF1EAC1B8F20001B051AF11D8A426D0FC
:10307000010EB16FEAC1E8FF2BDE0001AF6FB06B4C
:10308000B051AF11D8A404D0030EE8CFE2F116D0AE
:103090000001AF05B011D8A411D0EAC1B3F0B46BF0
:1030A00017EC06F00001AF6FB06BAF05B011D8A4FC
:1030B00005D0020EE8CFE2F1AF6BB06BAFC000F00D
:1030C000B0C001F01200010E0001AF6FB06BFF0E37
:1030D000E8CFB0F2E8CFCBF216A60AD0810EE8CF47
:1030E000E2F10201B2052009E8CFF2F1006A04D052
:1030F00012B204D0010E006E016A97D00001AE6BCF
:103100000001AE5102EEBFF0E926000EEA22FF0EEA
:10311000EF6EAE51B16FB26BAFEC09F0006E00C054
:1031200002F0036A03500210D8A403D00001AF6B71
:10313000B06B0001AE2B030EAE65E2D70101EA6B66
:10314000D96AD95002EEBFF0E926000EEA22EF500C
:10315000006EEAC1E8FF02EEBFF0E926000EEA22A7
:10316000EF50005CD8A025D0D95002EEBFF0E92680
:10317000000EEA22EF50006EEAC1E8FF02EEBFF057
:10318000E926000EEA22EF500018D8A414D0D95036
:1031900002EED7F0E926000EEA22EF50006EEAC1F7
:1031A000E8FF02EED7F0E926000EEA22EF50005CBD
:1031B000D8A0D9CFEAF1D92A030ED964C2D7040E18
:1031C0000201CB6102D0CBC2EAF1EAC1B0F2000148
:1031D000B051AF11D8A425D0B16BEAC1E8FF78DDBA
:1031E0000001AF6FB06BB051AF11D8A404D0030E83
:1031F000E8CFE2F116D00001AF05B011D8A411D08C
:10320000EAC1B3F0B46BA6EC06F00001AF6FB06B8F
:10321000AF05B011D8A405D0020EE8CFE2F1AF6B34
:10322000B06BAFC000F0B0C001F01200D96E010E5B
:103230000001B06FD950B56FB66B8FEC02F0BCC116
:1032400000F00004D8A42AD0000102EE03F09E5141
:10325000E9269F51EA22EF50006E00A20BD0CFC2A8
:10326000E8FF1F0B0201D019D8A416D0010E0001EF
:10327000B06F14D0CEC2E8FF1F0B0201D019D8B432
:10328000F5D7000102EE02F09E51E9269F51EA2295
:10329000EF50006E00B2EAD70001B06B0001B051F0
:1032A0001200010ED96E16A003D00101FBB1D96A3C
:1032B00016B003D00101FBA1D96AD9501200000158
:1032C000AABF43D0FAC100F01F0E001600C0F6FFDF
:1032D000F76AB2C200F0FF0E0024026E036AFF0E0E
:1032E0000322F750031802E1F6500218D8A42DD09B
:1032F000D8DF0009D8A429D0F9C100F00004D8A46F
:103300000BD00101FAAF02D08A98159A0101FAADEB
:103310001CD08A9A129219D0F9C1E8FFFE0AD8B4DB
:1033200014D00101BC53D8B406D00101FABB15B8C2
:103330000CD08A880AD00101FABF15B801D08A885A
:103340000101FABD12B001D08A8A12008A920201EC
:10335000B26B831CE8CFB2F2B2C200F0D890003258
:10336000D89000301F0BE8CFB2F28A82120012A868
:103370001ED0B2C2B6F0000E6CEC00F00001B86BCB
:103380000B0E41EC00F0D96AD95011EEC2F0E126E3
:10339000000EE222D95001EED2F0E926000EEA2218
:1033A000E7CFEFFFD92A0F0ED964EED70CD0D96A38
:1033B000D95001EED2F0E926000EEA22EF6AD92AAE
:1033C0000F0ED964F5D71200926A936A946A956ACF
:1033D000966A896A020E8A6E8B6A8C6A8D6A1200FE
:1033E000F29E40EC1EF0F0DF31EC1EF0E3EC0BF04F
:1033F000D1EC0BF08A908A9E8A9C0101EC6B010152
:10340000EB6B1092109A9568A1DF956A5FEC1CF047
:103410002CEC12F0F28E129C0201AA6B139E020198
:10342000B96B0201BB6B0201C36B050E0201B165F2
:1034300003D0B16B12789BDFBDC1E8FF6DEC12F0D9
:103440000400030E0201C365F0D710A204D0E7C147
:10345000E8FFDCEC1CF0F29E108A2CEC12F0F28EED
:1034600012880201B16B83DF030EE8CFE3F1E8CFEE
:10347000E4F10101E26BB2C2ACF216900101BFA10E
:1034800006D0B2C2E8FF400FE8CFACF21680139628
:1034900014960201B36BBCC100F00004D8A403D0A1
:1034A000020EE8CFB3F204007EEC0FF0BDC1E8FFDE
:1034B00098EC12F014B609D0BDC1E8FF47EC0DF04E
:1034C00037EC0EF0F5EC0BF002D01CEC1DF0010116
:1034D000E653D8B46BD0E9C1E8FFAFEC17F0015068
:1034E0000010D8B402D012A61AD012A615D0030E1E
:1034F000E8CFE2F1BDC1E9F1E9C1EAF10201B205AB
:103500002009E8CFF2F1F3C1E8FF16A002D00109CB
:1035100001D0FE0BE8CFF3F1F9EC10F014D015AAAE
:1035200013D00101EC53D8B40FD0E9C1EAF1040E75
:10353000E8CFE2F10201B205D96ED9508009E8CF97
:10354000F2F1F9EC10F01396E9C1E8FF63EC18F022
:1035500001500010D8A407D00101BC53D8A403D057
:10356000B8EC10F014D012A213D00101EB53D8B470
:103570000FD0E9C1EAF1040EE8CFE2F10201B20591
:10358000D96ED9504009E8CFF2F1B8EC10F013969B
:1035900013A60AD0BDC1EAF1FE0EE8CFE2F10101A7
:1035A000F26B1396B8EC10F00101E66B640E0201A9
:1035B000BD6579D763EC14F00201BD6B74D7E8CF19
:1035C000FDF2E9CFFCF2EACFFBF2E1CFFAF2E2CF73
:1035D000F9F2D9CFF8F2DACFF7F20EC0F6F20DC059
:1035E000F5F20CC0F4F20BC0F3F20AC0F2F209C01B
:1035F000F1F208C0F0F207C0EFF206C0EEF205C02B
:10360000EDF204C0ECF203C0EBF202C0EAF201C03A
:10361000E9F200C0E8F2F7CFE7F2F6CFE6F2F5CF35
:10362000E5F2F4CFE4F2F3CFE3F2F2A407D1F2949F
:10363000180ED66EFC0ED76E0201BD2B896A8B6AFE
:103640008D908D9215AE0AD0B9C2E8FF01EED2F08E
:10365000E926000EEA22EF1C800909D0B9C2E8FF72
:1036600001EED2F0E926000EEA22EF1C7F0B8C6EF1
:103670008D948D84070E0201B96534D010D08B80F3
:1036800043D08B8241D08B843FD08B863DD08B88BA
:103690003BD08B8A39D08B8C37D08B8E35D0B9C24A
:1036A000E8FF080AECE0010AECE0030AECE0010A9A
:1036B000ECE0070AECE0010AECE0030AECE0010AA6
:1036C000ECE022D0898020D089821ED089841CD051
:1036D00089861AD0898818D0898A16D08D8014D00E
:1036E0008D8212D0B9C2E8FF000AECE0010AECE0DA
:1036F000030AECE0010AECE0070AECE0010AECE066
:10370000030AECE0010AECE00201B92BB9C2E8FFC0
:10371000100AD8A402D00201B96B8A929568159458
:10372000119C1296169214A611A217D014A483BE4F
:1037300014D0C0C100F00004D8A40AD011B60DD036
:10374000B2C2E8FF0201AD6308D011A8168205D00D
:10375000C0C1E8FF020AD8B4158416A20AD002013B
:10376000B42B0A0EB46507D00B0EE8CFB4F2128664
:1037700002D00201B46B83A0158483A2118C0201D4
:103780001DAD119C956A8A820201BA2B640EBA653E
:1037900055D0BA6B0101E82BD96AD95001EEEDF092
:1037A000E926000EEA22EF2AD92A030ED964F5D7BA
:1037B0000201B12B0201AB2BDC0E026E036AB3C215
:1037C000E8FF025E000E035AB7C200F0016A015022
:1037D000800A046E0350800A045C02E10250005C1F
:1037E000D8B002D00201B72BDC0E026E036AB3C25E
:1037F000E8FF025E000E035AAFC200F0016A0150FA
:10380000800A046E0350800A045C02E10250005CEE
:10381000D8B002D00201AF2B0201BB2B0A0EBB6550
:103820000DD0BB6BD96AD95002EEC3F0E926000E69
:10383000EA22EF2AD92A030ED964F5D7A450D8A4D6
:103840003AEC11F0E3C2F3FFE4C2F4FFE5C2F5FF86
:10385000E6C2F6FFE7C2F7FFE8C200F0E9C201F0F6
:10386000EAC202F0EBC203F0ECC204F0EDC205F0D4
:10387000EEC206F0EFC207F0F0C208F0F1C209F0A4
:10388000F2C20AF0F3C20BF0F4C20CF0F5C20DF074
:10389000F6C20EF0F7C2DAFFF8C2D9FFF9C2E2FFB2
:1038A000FAC2E1FFFBC2EAFFFCC2E9FFFDC2E8FF8A
:1038B000FEC2FAFF0FC0E0FFFFC2D8FF1000000EEB
:1038C000F66E030EF76E0800F550E8CFBDF1010E5D
:1038D000F66E030EF76E0800F5CFC1F1020E01017E
:1038E000C16501D0C16B020EF66E030EF76E0800C3
:1038F000F5CFBFF1010E0101BF6501D0BF6B030E13
:10390000F66E030EF76E0800F5CFC0F1020E01014E
:10391000C06501D0C06B040EF66E030EF76E080092
:10392000F5CFBCF1050EF66E030EF76E0800F550EC
:10393000E8CFE7F1120015A40FD0640E0201B765BD
:1039400003D0108C109E0FD00201B753D8B402D010
:10395000108E08D0109E06D00201B76B10AE02D0B8
:10396000109E1180109C11AC0FD0640E0201AF6547
:1039700003D0108410960FD00201AF53D8B402D0F8
:10398000108608D0109606D00201AF6B10A602D0A8
:103990001096108810941200B2000001B46F050E4A
:1039A0000201B16508D0B16B12780001B251B56F58
:1039B000B4512FEC01F012000001AE6FAF6B0001AB
:1039C000B7C1E8FFAF5DD8B017D00001000EAF253A
:1039D000B26FB36B030EB323B46BB56BC0EC1FF0C7
:1039E000006E0001AF5101EEACF0E926000EEA22B4
:1039F00000C0EFFFAF2BE3D7AEC0B1F1FCC0B2F017
:103A0000FDC0B3F0B7C1B4F0B50EF66E000EF76EA0
:103A1000020EF76407D0FEC0F5FF0D00FFC0F5FFF2
:103A20000C0008D0F6CFE9FFF7CFEAFFFEC0EEFFAB
:103A3000FFC0EFFFBFEF1EF00001B06BB16BB06BCA
:103A40000001B7C1E8FFB05DD8B017D00001000E8B
:103A5000B025B26FB36B030EB323B46BB56BC0EC80
:103A60001FF0006E0001B05101EEACF0E926000E2F
:103A7000EA2200C0EFFFB02BE3D7040014D01C0EE5
:103A80000001AE6F040E04D0180E0001AE6F020EDE
:103A9000AF6F14D0230EF9D7160E01D0120E00010D
:103AA000AE6F030EF5D70001B151E9E0010AECE079
:103AB000030AF0E0010AF0E0070AF0E00001AE516D
:103AC000B26FB151B36FB15101EEACF0E926000E07
:103AD000EA22EF5062DF2FDF11A011D0050E026E37
:103AE000036A010EB1C000F0016A0026000E012237
:103AF0009CEC1FF000500001B16F119023D010A872
:103B000021D00001B15101EEACF0E926000EEA220D
:103B1000EF50D96EAFC002F0036A010ED9CF00F0AA
:103B2000016A0026000E01229CEC1FF00050D96EA5
:103B3000B15101EEACF0E926000EEA22D9CFEFFF39
:103B40001098108010BC02D010A497D710A01FD0DE
:103B5000FCC0B2F0FDC0B3F0B7C1B4F0B50EF66E64
:103B6000000EF76E020EF76407D0FEC0F5FF0D00E1
:103B7000FFC0F5FF0C0008D0F6CFE9FFF7CFEAFF52
:103B8000FEC0EEFFFFC0EFFFBFEC1EF0109097DE0F
:103B9000FF001200010ED96E10900201B76B0201F6
:103BA000AF6B0201BD6B0201BD53D8B4FCD7C3DEBD
:103BB00010AC02D0D96A03D0040015B4F8D7D9509C
:103BC000D8A42DD00001AE6B0001B7C1E8FFAE5DF7
:103BD000D8B017D00001000EAE25B26FB36B030E44
:103BE000B323B46BB56BC0EC1FF0006E0001AE5197
:103BF00001EEACF0E926000EEA2200C0EFFFAE2B8A
:103C0000E3D7D96A1C0E0001B26FB36BACC1E8FFF9
:103C1000C4DE91DE040010AC10B4F3D70DDF10A0A9
:103C20004ED6FCC0B2F0FDC0B3F0B7C1B4F0B50ED3
:103C3000F66E000EF76E020EF76407D0FEC0F5FFB9
:103C40000D00FFC0F5FF0C0008D0F6CFE9FFF7CF5D
:103C5000EAFFFEC0EEFFFFC0EFFFBFEC1EF01090CA
:103C60002ED6F28AF294D58ED59CD59AD598D59633
:103C7000D594D582D590180ED66EFC0ED76E120054
:103C8000F29EF29CF28AF298F296F294F292F290FC
:103C9000F18EF19CF19AF198F184F190F06AD58E51
:103CA000D59CD59AD598D596D594D592D580D390D4
:103CB000D392D29AD288D286D284D292D280D19014
:103CC000D09ED098D096D094D092D0908382CD8A36
:103CD000CD88CD96CD94CD92CD80CA6AC76AC69E56
:103CE000C69CC69AC698C696C684C692C680C56A41
:103CF000C28AC288C286C284C292C290C186C1846E
:103D0000C182C180C198C19AC06ABD9ABD98BD9652
:103D1000BD94BD82BD80BA9EBA9CBA9ABA98BA9632
:103D2000BA94BA92BA80B76AB69EB69CB69AB6985A
:103D3000B686B694B682B690B56AB49EB49CB49A70
:103D4000B498B496B484B482B480B16AAC6AAB6AF5
:103D5000A69EA69CA69CA698A696A694A692A69079
:103D6000A56AA46AA36AA26AA16AA06A9F6A9E6AF7
:103D70009D6A969E969C969A96981200B2000001B3
:103D8000B5513F0BF36EF350B55F000EB65B00010B
:103D9000B451D8B41200D96AF350D95CD8A01FD05E
:103DA0000001B451D8B41BD0B2C0F6FFB3C0F7FFC6
:103DB000D95010EEB8F0E126000EE222020EF764B0
:103DC00003D00800F55005D0F6CFE9FFF7CFEAFFA2
:103DD000EF50E76E0001B24BB32BB4071DD0D950A2
:103DE0000001B525006E000EB621016E00C0F6FF81
:103DF00001C0F7FFD95000EEB8F0E926000EEA2224
:103E0000020EF76403D00800F55005D0F6CFE1FFAD
:103E1000F7CFE2FFE750EF6ED92A3F0ED964BCD747
:103E2000B5C0F6FFB6C0F7FF940EA66E6FEC01F0BA
:103E30000001B76B0001B75100EEB8F0E926000EA3
:103E4000EA22EF50F56EB751D8A402D00C0001D091
:103E50000F000001B751070B070AD8B46FEC01F04F
:103E60000001B72B3F0EB765E5D7400EB527000E12
:103E7000B623F36A8CD7066A046A056A02500310F7
:103E800003E1006A016A000C1F0E0612D890062A90
:103E900002360336FCE3033202320250005C035068
:103EA000015804E3016E0250005ED88004360536E6
:103EB000062E06BAF0D706AE05D0041E042AD8B4E2
:103EC0000506051E0450026E0550036E06AC000C7C
:103ED000001E002AD8B40106011E000C006E046A00
:103EE000D890FD0E01241AE3036AF00E011403E1D9
:103EF000040E036E013A026AD890032A0136FDE3EC
:103F000001320150005CD8B0006E0236032EF8D7A3
:103F100004BE026C025004BE006C1200013206E2C4
:103F20000132D8A0006AD8900032D8A0D89000C042
:103F300002F0006A0036ECD7066A01AE06D0001E19
:103F4000004A0106011E068C068E0350800B061ADD
:103F500003AE3CEF1FF0021E024A0306031E3CEFB5
:103F60001FF002500002F3CF04F0F4CF05F001027D
:103F7000F350052603500002F35005261200B2004C
:103F80000001B251F66EB351F76EB451F86E0800ED
:103F9000F86AF5501200046E042A0406D8B4000C26
:103FA000D8900036013602360336F7D7046E042A5D
:103FB0000406D8B4000CD890033202320132003229
:103FC000F7D70900F5CFEEFFEA50E262FAD7E950E1
:103FD000E162F7D71200EE6AEA50E262FCD7E950DC
:0C3FE000E162F9D71200A6A21200FDD782
:020000040030CA
:0E000000FF06160DFF8081FF0FC00FE00F40BE
:020000040000FA
:00000001FF
