:020000040000FA
:100000000CEF00F0E8030006D8CFFFF5FACFFEF5BD
:10001000E0CF0FF01DEF1CF003EEF8F015EEE3F06B
:10002000A7EC1FF000EE10F010EE17F0A7EC1FF099
:1000300000EE9EF011EE00F0A7EC1FF003EEE8F0EA
:1000400013EEF8F0700EF66E000EF76E000EF86EFE
:100050009FEC1FF000EEFCF011EE00F0040EF66EC7
:10006000000EF76E000EF86E9FEC1FF02EEF1BF0E7
:1000700000000000000000000000000B0000000075
:10008000000EF66E060EF76E0800F550E8CFF9F395
:10009000010EF66E060EF76E0800F5CFFDF3020EA8
:1000A0000301FD6501D0FD6B020EF66E060EF76EC4
:1000B0000800F5CFFBF3010E0301FB6501D0FB6BDC
:1000C000030EF66E060EF76E0800F5CFFCF3020E77
:1000D0000301FC6501D0FC6B040EF66E060EF76E94
:1000E0000800F5CFF8F3050EF66E060EF76E080061
:1000F000F550E8CF23F4120015A40FD0640E0501CB
:100100009F6503D0108C109E0FD005019F53D8B46B
:1001100002D0108E08D0109E06D005019F6B10AE45
:1001200002D0109E1180109C11AC0FD0640E0501FE
:10013000976503D0108410960FD005019753D8B45B
:1001400002D0108608D0109606D00501976B10A635
:1001500002D01096108810941200B2000001B46F03
:10016000050E0501996508D0996B12780001B2510E
:10017000B56FB45189EC1EF012000001AE6FAF6B89
:100180000001F3C3E8FFAF5DD8B017D00001000E47
:10019000AF25B26FB36B060EB323B46BB56B7BECBC
:1001A0001FF0006E0001AF5103EEE8F0E926000EEB
:1001B000EA2200C0EFFFAF2BE3D7AEC0EDF3FCC0E7
:1001C000B2F0FDC0B3F0F3C3B4F0B50EF66E000E9E
:1001D000F76E050EF76407D0FEC0F5FF0D00FFC0F7
:1001E000F5FF0C0008D0F6CFE9FFF7CFEAFFFEC01D
:1001F000EEFFFFC0EFFFCAEF1EF00001B06BB16B66
:10020000B06B0001F3C3E8FFB05DD8B017D00001B8
:10021000000EB025B26FB36B060EB323B46BB56B93
:100220007BEC1FF0006E0001B05103EEE8F0E92610
:10023000000EEA2200C0EFFFB02BE3D7040014D079
:100240001C0E0001AE6F080E04D0180E0001AE6F38
:10025000020EAF6F14D0230EF9D7160E01D0120E76
:100260000001AE6F030EF5D70001B151E9E0010ABC
:10027000ECE0030AF0E0010AF0E0070AF0E0000118
:10028000AE51B26FB151B36FB15103EEE8F0E92650
:10029000000EEA22EF5062DF2FDF11A011D0050E11
:1002A000026E036A010EB1C000F0016A0026000E62
:1002B000012246EC1FF000500001B16F119023D0D5
:1002C00010A821D00001B15103EEE8F0E926000E9C
:1002D000EA22EF50D96EAFC002F0036A010ED9CF07
:1002E00000F0016A0026000E012246EC1FF00050CB
:1002F000D96EB15103EEE8F0E926000EEA22D9CF1B
:10030000EFFF1098108010BC02D010A497D710A057
:100310001FD0FCC0B2F0FDC0B3F0F3C3B4F0B50E13
:10032000F66E000EF76E050EF76407D0FEC0F5FFFF
:100330000D00FFC0F5FF0C0008D0F6CFE9FFF7CFA6
:10034000EAFFFEC0EEFFFFC0EFFFCAEC1EF0109008
:1003500097DEFF001200010ED96E109005019F6B11
:100360000501976B0501A56B0501A553D8B4FCD712
:10037000C3DE10AC02D0D96A03D0040015B4F8D79C
:10038000D950D8A42DD00001AE6B0001F3C3E8FF13
:10039000AE5DD8B017D00001000EAE25B26FB36BC2
:1003A000060EB323B46BB56B7BEC1FF0006E00013F
:1003B000AE5103EEE8F0E926000EEA2200C0EFFF9E
:1003C000AE2BE3D7D96A1C0E0001B26FB36BE8C342
:1003D000E8FFC4DE91DE040010AC10B4F3D70DDFEB
:1003E00010A04ED6FCC0B2F0FDC0B3F0F3C3B4F021
:1003F000B50EF66E000EF76E050EF76407D0FEC060
:10040000F5FF0D00FFC0F5FF0C0008D0F6CFE9FFA7
:10041000F7CFEAFFFEC0EEFFFFC0EFFFCAEC1EF011
:1004200010902ED6F28AF294D58ED59CD59AD59876
:10043000D596D594D582D590180ED66EFC0ED76E73
:100440001200F29EF29CF28AF298F296F294F292E4
:10045000F290F18EF19CF19AF198F184F190F06AAA
:10046000D58ED59CD59AD598D596D594D592D5804C
:10047000D390D392D29AD288D286D284D292D2808A
:10048000D190D09ED098D096D094D092D0908382A4
:10049000CD8ACD88CD96CD94CD92CD80CA6AC76ADB
:1004A000C69EC69CC69AC698C696C684C692C68084
:1004B000C56AC28AC288C286C284C292C290C186FC
:1004C000C184C182C180C198C19AC06ABD9ABD98D9
:1004D000BD96BD94BD82BD80BA9EBA9CBA9ABA98A8
:1004E000BA96BA94BA92BA80B76AB69EB69CB69AD1
:1004F000B698B686B694B682B690B56AB49EB49CE9
:10050000B49AB498B496B484B482B480B16AAC6A34
:10051000AB6AA69EA69CA69CA698A696A694A69212
:10052000A690A56AA46AA36AA26AA16AA06A9F6A41
:100530009E6A9D6A969E969C969A96981200066A66
:10054000046A056A0250031003E1006A016A000CA4
:100550001F0E0612D890062A02360336FCE3033239
:1005600002320250005C0350015804E3016E025055
:10057000005ED88004360536062E06BAF0D706AEE1
:1005800005D0041E042AD8B40506051E0450026EC8
:100590000550036E06AC000C001E002AD8B40106FC
:1005A000011E000C006E046AD890FD0E01241AE3AF
:1005B000036AF00E011403E1040E036E013A026AAD
:1005C000D890032A0136FDE301320150005CD8B017
:1005D000006E0236032EF8D704BE026C025004BE31
:1005E000006C1200013206E20132D8A0006AD890F5
:1005F0000032D8A0D89000C002F0006A0036ECD7D4
:100600000301000000414A53595345003E514945FA
:100610003E00427F400042615149462141454B31F5
:100620001814127F1027454545393C4A4949300185
:10063000710905033649494936064949291E04020C
:100640007F020410207F201008142241001414148B
:10065000141400412214080201510906324979415B
:100660003E7E1111117E7F494949363E414141226A
:100670007F4141221C7F494949417F090909013EC7
:100680004149497A7F0808087F00417F41002040A6
:10069000413F017F081422417F404040407F020CCF
:1006A000027F7F0408107F3E4141413E7F090909D6
:1006B000063E4151215E7F09192946464949493183
:1006C00001017F01013F4040403F1F2040201F3F6C
:1006D0004038403F631408146307087008076151ED
:1006E00049454300003E4141413E001F2040201F3C
:1006F000007F49494941007F09192946007F404050
:100700004040003E4141413E007E1111117E007F7C
:100710004141221C00000000007F09090901003F3F
:100720004040403F007F40404040007F40404040CC
:10073000000000000046494949310001017F0101E4
:10074000003E4141413E007F0909090600000000CA
:10075000007F090909010000417F4100007F09195C
:100760002946007F4949494100000000007F49496E
:100770004941007F020C027F003E4149497A000056
:1007800000000000417F4100007F0408107F004608
:100790004949493100000000007F09090906007E2F
:1007A0001111117E007F09192946007F081422418A
:1007B0000000417F4100007F0408107F003E414956
:0C07C000497A000000000000000000006A
:1007CC00B300E16E0001B551B4C002F0036A025EE1
:1007DC00000E035AB351E1CF00F0016A005E000E27
:1007EC00015A0150800A046E0350800A045C02E135
:0407FC000250005C4B
:10080000D8A003D0B351E15C03D00001B551B45D71
:10081000006EB6510024D96ED9501200B500050102
:100820009A05E8CFC4F52A0E026E036AB5C000F03F
:10083000B6C001F06CEC1FF004C09EF005C09FF044
:10084000000104EE41F09E51E9269F51EA22EF504B
:10085000006E0004E8CFC2F504EE60F09E51E92678
:100860009F51EA22EFCFC9F504EE5FF09E51E926D1
:100870009F51EA22EFCFC8F504EE5EF09E51E926C3
:100880009F51EA22EFCFC7F504EE4EF09E51E926C4
:100890009F51EA22EFCFC5F504EE4FF09E51E926B5
:1008A0009F51EA22EFCFC6F504EE46F09E51E926AD
:1008B0009F51EA22EFCFC3F504EE46F09E51E926A0
:1008C0009F51EA22EFCFCAF504EE42F09E51E9268D
:1008D0009F51EA22EF50006E00AE07D0C5C5E8FF79
:1008E000E00BD8A4C5C5CAF514D0000104EE43F04E
:1008F0009E51E9269F51EA22EF50006E00A007D0DA
:10090000C6C5E8FFE00BD8A4C6C5CAF502D0C2C56B
:10091000CAF5000CFAC3E8FF2A0DF3CFF6FFF4CFB7
:10092000F7FF04EE45F0F650E926F750EA22EF50C3
:10093000006E00B208D016A408D0FAC3E8FF030185
:10094000F919D8B402D0000E01D0010E1200B50082
:100950002A0E026E036AB5C000F0B6C001F06CEC5E
:100960001FF004C0F6FF05C0F7FF04EE49F0F65093
:10097000E926F750EA22EF500001B76F04EE4AF083
:10098000F650E926F750EA22EF50B86F04EE4BF02C
:10099000F650E926F750EA22EF50B96F04EE4CF01A
:1009A000F650E926F750EA22EF50BA6F080E026EB1
:1009B000036A9AC500F0016AFF0E0006012246ECA8
:1009C0001FF00450F36E05019A05070BE16EE1CFAD
:1009D00001F0010E006E012A02D0D8900036012EDF
:1009E000FCD70050D96EF35000EEB7F0E926000EA8
:1009F000EA22EF50006ED914D8A403D0010E006E85
:100A000001D0006A016A1200B700000105EEDBF0B8
:100A1000B751E926B851EA22EF6A05EED3F0B75193
:100A2000E926B851EA22FF0EEF6E2A0E026E036A23
:100A3000B7C000F0B8C001F06CEC1FF004C0F6FFC6
:100A400005C0F7FF04EE44F0F650E926F750EA221D
:100A5000EF50006E00B04ED004EE42F0F650E926A2
:100A6000F750EA22EF50006E00AA44D004EE42F0A4
:100A7000F650E926F750EA22EF50006E00B63AD061
:100A800004EE44F0F650E926F750EA22EF50006EEB
:100A900000B230D004EE43F0F650E926F750EA22D7
:100AA000EF50006E00B826D004EE43F0F650E92671
:100AB000F750EA22EF50006E00B41CD004EE45F06F
:100AC000F650E926F750EA22EF50006E00A208D057
:100AD0000001F9C3E8FFB71901E1B853D8A40AD05F
:100AE00016A40BD00001F9C3E8FFB71901E1B85310
:100AF000D8B403D0010E006E1ED014EE60F0F65094
:100B0000E126F750E222000105EEDBF0B751E926BD
:100B1000B851EA22E7CFEFFF14EE5FF0F650E1267E
:100B2000F750E22205EED3F0B751E926B851EA2298
:100B3000E7CFEFFF006A016A1200B500B5C0B7F059
:100B4000B6C0B8F062DF01500010D8B409D000017F
:100B500005EEAFF0B551E926B651EA22000E41D0BC
:100B6000000104EE43F09E51E9269F51EA22EF5026
:100B7000006E00A208D0000105EEAFF0B551E926E5
:100B8000B651EA22EF6AC5C5E8FFE00BD8A40DD044
:100B9000C6C5E8FFE00BD8A408D0000105EEAFF011
:100BA000B551E926B651EA22EF6A000105EEAFF031
:100BB000B551E926B651EA22EF50006E150E005CE1
:100BC000D8A013D0C2C5E8FF1F0B0501C419D8B4C3
:100BD0000CD0000105EEAFF0B551E926B651EA227E
:100BE000150EEF6E010E006E01D0006A016A120050
:100BF000B300B3C0B5F0B4C0B6F011DEC9C5E8FFAC
:100C00000501C45DD8A002D0010E01D0000E120073
:100C1000B300B3C0B5F0B4C0B6F001DEC4C5E8FFA0
:100C20000501C96102D0010E01D0000E1200B3000F
:100C3000B3C0B5F0B4C0B6F0F2DDC8C5E8FF050139
:100C4000C46102D0010E01D0000E1200B300B3C087
:100C5000B5F0B4C0B6F0E3DDC4C5E8FF0501C85D7A
:100C6000D8A002D0010E01D0000E1200B300B3C014
:100C7000B5F0B4C0B6F06CDE01500010D8A41FD09F
:100C8000B3C0B5F0B4C0B6F059DF01500010D8A41D
:100C900016D0000104EE44F09E51E9269F51EA224D
:100CA000EF50006E00BA0BD0000104EE45F09E51EB
:100CB000E9269F51EA22EF50006E00A002D0010EFB
:100CC00001D0000E1200B800D96EC8C5E8FFD96087
:100CD00001D015D0D9500501C96101D010D0000153
:100CE000B8510501C96101D00AD0C8C5E8FF0001AB
:100CF000B86101D004D0D9500001B86102D0000E13
:100D000064D0026A000104EE52F09E51E9269F5120
:100D1000EA22EF500001B96F000104EE53F09E513A
:100D2000E9269F51EA22EF500001BA6F000104EE5C
:100D300054F09E51E9269F51EA22EF500001BB6F0B
:100D4000000104EE55F09E51E9269F51EA22EF5032
:100D50000001BC6FD950F36EF46AF3CF00F0F4CF0A
:100D600001F0D89001320032D89001320032D89090
:100D7000013200320050036EF350070BE96EE9CFE9
:100D800001F0010E006E012A02D0D8900036012E2B
:100D9000FCD70050E16E14D0035000EEB9F0E92604
:100DA000000EEA22EF50006EE114D8A4022AD89077
:100DB000E136E150D8A403D0010EE16E032AD92A0E
:100DC000D9500001B861E8D702501200010E0001AD
:100DD000B56F000104EE42F09E51E9269F51EA22D0
:100DE000EF50006E00AE27D0C4C5E8FF0501C26118
:100DF00012D0CAC5E8FFA00BD8B43FD00501C40586
:100E00000001B66F0501C2290001B76FB651B86F76
:100E1000B7515ADF24D0C2C5E8FF0501C4612DD007
:100E2000C9C5B6F00501C2290001B76FB651B86F48
:100E3000B7514ADF14D0000104EE43F09E51E92679
:100E40009F51EA22EF50006E00A017D00501C205A5
:100E50000001B66FC8C5B7F0B86FB75135DF006E87
:100E600000C002F0036A0350800A800F020ED8B45B
:100E7000025CD8A002D00001B56B0001B551120090
:100E8000010E0001B56F000104EE42F09E51E9260B
:100E90009F51EA22EF50006E00AE0BD00501C2292F
:100EA0000001B76FC9C5B6F0B651B86FB7510CDFC6
:100EB0002FD0000104EE43F09E51E9269F51EA2213
:100EC000EF50006E00A032D0C2C5E8FF0501C4613A
:100ED00012D0CAC5E8FF600BD8B428D00501C205FE
:100EE0000001B66F0501C4290001B76FB651B86F94
:100EF000B751EADE0DD0C4C5E8FF0501C26116D0C6
:100F0000C2050001B66FC8C5B7F0B86FB751DCDED7
:100F1000006E00C002F0036A0350800A800F020EC8
:100F2000D8B4025CD8A002D00001B56B0001B55165
:100F30001200B300B3C0B5F0B4C0B6F070DC46DF49
:100F40000009D8A402D0000E82D0C7C5E8FFE00B8C
:100F5000D8B40AD0C3C500F01F0E0016C7C5E8FFFD
:100F60001F0B0018D8A402D0010E71D0C3C5E8FF32
:100F70001F0B0501C419D8A403D00501C3BF0AD0B3
:100F8000C7C5E8FF1F0B0501C419D8A405D005018A
:100F9000C7AF02D0020E5BD0010ED96E000104EE85
:100FA00042F09E51E9269F51EA22EF50006E00AEBA
:100FB00029D0C4C5E8FF0501C26111D0C7C500F042
:100FC0001F0E0016C4C5E8FF005CD8B03FD0C3C5F3
:100FD00000F01F0E0016C7C5E8FF1F0B31D0C2C5B9
:100FE000E8FF0501C46132D00501C7AD23D0C3C5F8
:100FF00000F01F0E0016C7C5E8FF1F0B0018D8A48D
:10100000D96A18D0000104EE43F09E51E9269F51A1
:10101000EA22EF50006E00A019D0C7C500F01F0EE5
:101020000016C3C5E8FF1F0B005CD8B003D0050154
:10103000C7BDD96AC7C500F01F0E0016C4C5E8FFBA
:10104000005CD8B003D00501C7BFD96AD9501200DF
:10105000B300B3C0B5F0B4C0B6F00FEC04F010DFCD
:101060000009D8A402D0000E8AD0C3C500F01F0E1C
:101070000016C7C5E8FF1F0B0018D8B405D0C7C5B8
:10108000E8FFE00BD8A402D0010E79D0C3C5E8FF79
:101090001F0B0501C419D8A403D00501C3BD0AD094
:1010A000C7C5E8FF1F0B0501C419D8A405D0050169
:1010B000C7AD02D0020E63D0010ED96E000104EE5E
:1010C00042F09E51E9269F51EA22EF50006E00AE99
:1010D00017D0C7C5E8FF1F0B0501C46103D0050188
:1010E000C7BDD96AC3C500F01F0E0016C7C5E8FF0B
:1010F0001F0B005CD8B042D00501C7AF3FD03DD038
:10110000000104EE43F09E51E9269F51EA22EF5080
:10111000006E00A033D0C2C5E8FF0501C46113D042
:10112000C7C5E8FF1F0BC46129D0C7C500F01F0E5B
:101130000016C3C5E8FF1F0B005CD8B01FD0050127
:10114000C7AD1CD01AD0C4C5E8FF0501C26116D0D6
:101150000501C7AF0AD0C3C500F01F0E0016C7C5F2
:10116000E8FF1F0B0018D8A4D96AC7C5E8FF1F0BFA
:101170000501C46103D00501C7BDD96AD950120069
:10118000B300000105EECBF0B351E926B451EA22D9
:10119000640EEF6ECAC5E8FF1F0B0501C419D8A481
:1011A00009D0000105EECBF0B351E926B451EA2293
:1011B000000E40D0CAC5E8FF1F0B0501C219D8A414
:1011C00031D0000104EE43F09E51E9269F51EA22FE
:1011D000EF50006E00A209D0000105EECBF0B35134
:1011E000E926B451EA22030E25D0000104EE42F0B4
:1011F0009E51E9269F51EA22EF50006E00A209D0CD
:10120000000105EECBF0B351E926B451EA22010EFC
:1012100011D0000105EECBF0B351E926B451EA221A
:10122000020E08D0000105EECBF0B351E926B4510F
:10123000EA22090EEF6E1200B100D96A000105EE34
:10124000B7F0B151E926B251EA22FF0EEF6EB1C0FC
:10125000B5F0B2C0B6F00FEC04F0B1C0B3F0B2C05C
:10126000B4F005DD006E00C002F0036A0350021006
:10127000D8A434D00301F853D8A41AD0B1C0B3F025
:10128000B2C0B4F0B6DC006E00C002F0036A0350D6
:101290000210D8A423D0B1C0B3F0B2C0B4F0C8DCFF
:1012A000006E00C002F0036A03500210D8A416D0EA
:1012B000B1C0B3F0B2C0B4F03DDE006E00C002F0C9
:1012C000036A03500210D8A40BD0000105EEB7F05A
:1012D000B151E926B251EA22640EEF6E010EC0D17F
:1012E000B1C0B3F0B2C0B4F04CDF010EF36E15BA6A
:1012F00002D08AA8B4D1F36AC2C5E8FF0501C4616F
:1013000086D0000104EE43F09E51E9269F51EA2267
:10131000EF50006E00A033D00501CAAD11D000011E
:1013200005EEB7F0B151E926B251EA22C8C5E8FF8F
:101330000501C25D016EC8C5E8FF0501C45D23D18A
:10134000CAC5E8FF1F0B0501C46101D054D00001DC
:1013500005EEB7F0B151E926B251EA22CAC5E8FF5D
:101360001F0BB36FC4C5B4F0CAC5E8FF1F0BB56F40
:10137000070EB66FC2C5E8FFE7EC03F06FD10001BE
:1013800004EE42F09E51E9269F51EA22EF50006E92
:1013900000AE31D0000105EEB7F0B151E926B251EF
:1013A000EA22C2C5E8FF0501C95D016EC4C5E8FFB8
:1013B000C95D006E01500024080FEF6ECAC5E8FF3A
:1013C000E00B200AD8A44BD1000105EEB7F0B151D3
:1013D000E926B251EA22C2C5B3F0CAC5E8FF1F0B25
:1013E000B46FC4C5B5F0080EB66FCAC5E8FF1F0BD1
:1013F000E7EC03F033D1000105EEB7F0B151E92677
:10140000B251EA22C4C5E8FF0501C25DBFD0C4C520
:10141000E8FF0501C26152D0000104EE42F09E5186
:10142000E9269F51EA22EF50006E00BE3BD000013A
:1014300004EE43F09E51E9269F51EA22EF50006EE0
:1014400000A030D0000105EEB7F0B151E926B2514D
:10145000EA22C8C5E8FF0501C25D016EC8C5E8FF04
:101460000501C45D006E01500024080FEF6E0501F8
:10147000CABDF5D0000105EEB7F0B151E926B25171
:10148000EA22CAC5E8FF1F0BB36FC4C5B4F0CAC5D2
:10149000E8FF1F0BB56F080EB66FC2C5E8FFE7EC9B
:1014A00003F0DCD0000105EEB7F0B151E926B251EE
:1014B000EA22C2C5E8FF0501C45D68D0000104EE60
:1014C00042F09E51E9269F51EA22EF50006E00AE95
:1014D00078D004EE42F09E51E9269F51EA22EF5067
:1014E000006E00B00BD0000104EE44F09E51E926DE
:1014F0009F51EA22EF50006E00A809D0000105EECE
:10150000B7F0B151E926B251EA22000EA7D0C3C507
:10151000E8FF1F0B0501C419D8B468D0CAC5E8FF9D
:101520001F0B0501C46162D0CAC5E8FFE00B200AA9
:10153000D8A417D0000105EEB7F0B151E926B25199
:10154000EA22C2C5B3F0CAC5E8FF1F0BB46FC4C519
:10155000B5F0080EB66FCAC5E8FF1F0BE7EC03F045
:10156000EF6E0501CAAF14D0000105EEB7F0B1511E
:10157000E926B251EA22C2C5E8FF0501C95D016E44
:10158000C4C5E8FFC95D006E01500024080F66D095
:10159000000105EEB7F0B151E926B251EA22C2C509
:1015A00000F0CAC501F01F0E01160050015C016E6B
:1015B000C8C500F0CAC502F01F0E02160050025C3A
:1015C000E2D7000104EE43F09E51E9269F51EA2242
:1015D000EF50006E00A03AD0CAC5E8FF1F0B05010E
:1015E000C419D8A418D00501CAAF09D0000105EE6E
:1015F000B7F0B151E926B251EA22010E2FD0050110
:10160000CABD8DD6000105EEB7F0B151E926B25141
:10161000EA22030E23D00501CABD81D6000105EEE2
:10162000B7F0B151E926B251EA22CAC5E8FF1F0B53
:10163000B36FC4C5B4F0CAC5E8FF1F0BB56F080E81
:10164000B66FC2C5E8FFE7EC03F008D0000105EE75
:10165000B7F0B151E926B251EA22020EEF6EF35013
:101660001200B100D96AB1C0B5F0B2C0B6F00FEC4B
:1016700004F0000105EEA7F0B151E926B251EA22CB
:10168000FF0EEF6EB1C0B3F0B2C0B4F037EC06F0AD
:10169000006E00C002F0036A03500210D8A436D0D6
:1016A0000301F853D8A41CD0B1C0B3F0B2C0B4F059
:1016B00009EC06F0006E00C002F0036A035002104D
:1016C000D8A424D0B1C0B3F0B2C0B4F027EC06F077
:1016D000006E00C002F0036A03500210D8A416D0B6
:1016E000B1C0B3F0B2C0B4F0B4DC006E00C002F020
:1016F000036A03500210D8A40BD0000105EEA7F036
:10170000B151E926B251EA22640EEF6E010EA7D163
:10171000B1C0B3F0B2C0B4F034DD010EF36E12B25A
:1017200002D08AAA9BD1F36AC2C5E8FF0501C46151
:101730004ED0000104EE42F09E51E9269F51EA226C
:10174000EF50006E00AE2ED0000105EEA7F0B151B3
:10175000E926B251EA22C2C5E8FF0501C95D016E62
:10176000C4C5E8FFC95D006E01500024080FEF6E8C
:101770000501CABF73D1000105EEA7F0B151E926FA
:10178000B251EA22C2C5B3F0CAC5E8FF1F0BB46F5D
:10179000C4C5B5F0080EB66FCAC5E8FF1F0BE7EC6D
:1017A00003F05BD1000104EE43F09E51E9269F5106
:1017B000EA22EF50006E000105EEA7F0B151E926D4
:1017C000B251EA22C4C5E8FF0501C25D74D0C4C5A8
:1017D000E8FF0501C2617DD0000104EE42F09E5198
:1017E000E9269F51EA22EF50006E00AE44D0050179
:1017F000CAAF0FD0000105EEA7F0B151E926B251F2
:10180000EA22C2C5E8FF0501C95D016EC4C5E8FF53
:101810004DD0CAC500F01F0E0016C4C5E8FF005C1D
:10182000D8B012D0000105EEA7F0B151E926B251AF
:10183000EA22B36BC4C5B4F0C2C5B5F0080EB66FEA
:10184000000EE7EC03F009D1000105EEA7F0B1515D
:10185000E926B251EA22C2C5B3F0CAC5E8FF1F0BA0
:10186000B46FC4C5B5F0070EB66FCAC5E8FF1F0B4D
:10187000E7EC03F0F2D0000104EE43F09E51E926BC
:101880009F51EA22EF50006E00A017D0000105EE34
:10189000A7F0B151E926B251EA22CAC5E8FF1F0BF1
:1018A0000501C25D016ECAC5E8FF1F0B0501C95DD8
:1018B000006E01500024080FD0D0000105EEA7F003
:1018C000B151E926B251EA22C2C5E8FF0501C45D63
:1018D000F2D7000104EE43F09E51E9269F51EA221F
:1018E000EF50006E00A06DD004EE42F09E51E9264C
:1018F0009F51EA22EF50006E00B00BD0000104EEC1
:1019000044F09E51E9269F51EA22EF50006E00A854
:1019100009D0000105EEA7F0B151E926B251EA2243
:10192000000E9BD0C3C5E8FF1F0B0501C419D8B436
:101930005DD0CAC500F01F0E0016C4C5E8FF005CEC
:10194000D8B054D0CAC5E8FFE00B200AD8A418D0FC
:10195000000105EEA7F0B151E926B251EA22CAC54D
:10196000E8FF1F0BB36FC4C5B4F0CAC5E8FF1F0B77
:10197000B56F080EB66FC2C5E8FFE7EC03F06DD097
:101980000501CAAD11D0000105EEA7F0B151E9265D
:10199000B251EA22C8C5E8FF0501C25D016EC8C5A3
:1019A000E8FF0501C45D84D7000105EEA7F0B15141
:1019B000E926B251EA22CAC5E8FF1F0B0501C25D44
:1019C00024D7000104EE42F09E51E9269F51EA22FD
:1019D000EF50006E00AE39D0C3C5E8FF1F0B050104
:1019E000C419D8A418D00501C3AD09D0000105EE73
:1019F000A7F0B151E926B251EA22010E2ED005011D
:101A0000C3BFF8D6000105EEA7F0B151E926B251E7
:101A1000EA22030E22D00501CABFECD6000105EE72
:101A2000A7F0B151E926B251EA22C2C5B3F0CAC546
:101A3000E8FF1F0BB46FC4C5B5F0080EB66FCAC57A
:101A4000E8FF1F0BE7EC03F008D0000105EEA7F05C
:101A5000B151E926B251EA22020EEF6EF3501200A4
:101A60008A9A0501976B129212900401276B149EBB
:101A7000149C0501AF6B0501B06B0501B16B05014D
:101A8000B26B12008A9805019F6B159A1598040194
:101A9000286B159015920501AF6B0501B06B050120
:101AA000B16B0501B26B1200F9C3E8FF2A0DF3CF49
:101AB000F6FFF4CFF7FF04EE45F0F650E926F750B5
:101AC000EA22EF50006E00A202D0168401D01694D4
:101AD000010E0001AE6FD96A0501C16BFF0EE8CFA0
:101AE000C0F50001AF6B0001AF51B76FB86B05ECEB
:101AF00005F001500010D8A40DD00001AF51B56F12
:101B0000B66BA8EC04F001500010D8A40BD0000173
:101B1000AE6B08D00001AF5105EEAFF0E926000E24
:101B2000EA22EF6A0001AF5105EEDBF0E926000E74
:101B3000EA22EF500501C16109D00001AF5105EE65
:101B4000DBF0E926000EEA22EFCFC1F50001AF512C
:101B500005EED3F0E926000EEA22EF50006EC0C574
:101B6000E8FF005CD8B008D0AF5105EED3F0E9260D
:101B7000000EEA22EFCFC0F50001AF2B070EAF65D4
:101B8000B2D70301F853D8A417D09AC500F0FF0EBE
:101B90000024026E036AFF0E0322C0C500F0016A32
:101BA0000150800A046E0350800A045C02E1025076
:101BB000005CD8B055DF16D0C0C500F0016A9AC5E8
:101BC00002F0FF0E0224F66EF76AFF0EF722F750BE
:101BD000800A026E0150800A025C02E10050F65C4D
:101BE000D8A03EDF0001AE51D8A411D0010EAE6FD7
:101BF000AF6B0001AF5154EC1AF00009D8B402D019
:101C00000001AE6B0001AF2B070EAF65F2D70001EC
:101C1000AE51D8A498D09AC500F0FF0E0024026EF1
:101C2000036AFF0E0322C1C500F0016A0150800A59
:101C3000046E0350800A045C02E10250005CD8A0EC
:101C400082D015A431D0DC0E05019F6131D09F53A5
:101C5000D8B42ED00301F853D8A402D0D96A02D048
:101C6000010ED96E9AC500F0FF0E0024026E036AC1
:101C7000FF0E0322D950C1C500F0016A0026000EF4
:101C800001220350800A046E0150800A045C02E1C4
:101C90000050025CD8A08AB80BD08A88158A1598A3
:101CA000030EE8CF28F404D005019F6B1592159020
:101CB00011AC40D0DC0E0501976147D09753D8B4E2
:101CC00044D09AC500F0FF0E0024026E036AFF0E96
:101CD0000322C0C500F0016A0150800A046E03505F
:101CE000800A045C02E10250005CD8A004D0030129
:101CF000F853D8B42AD00301F853D8A407D0010E62
:101D000005019A6522D08ABA20D007D0F9C3E8FF2E
:101D100074EC17F00009D8A407D08A8A12821290B6
:101D2000030EE8CF27F411D08A9A12921290040180
:101D3000276B0BD00501976B149E149C0301F8537D
:101D4000D8B403D0F1D78CDE9DDE1200E16EE150F5
:101D50002A0DF3CFF6FFF4CFF7FF04EE46F0F6506E
:101D6000E926F750EA22EF50D96ED9501F0BE16EE9
:101D7000119413921390E1CF00F0016A9AC502F01A
:101D8000FF0E0224F66EF76AFF0EF7220150F718D5
:101D900002E10050F618D8A418D09AC5E8FF050152
:101DA000956313D015B602D011AE0FD011A20DD08D
:101DB00011A607D0D9AE02D0138206D0D9AC05D077
:101DC00002D015B6F9D71380118411A41FD00A0EC2
:101DD000016E93C5E8FFD2EC02F00050E8CF93F516
:101DE00013A209D0040E0501936502D0159E01D0FF
:101DF000158E8A9018D013A016D0040E0501936595
:101E000002D08A9001D08A80159E0DD013A202D0F4
:101E1000158E06D013A003D08A80159E02D0159E81
:101E20008A900501936B12001696000CE8CF00F023
:101E3000016A00C0B5F001C0B6F00FEC04F0C2C5F5
:101E4000E8FF1F0B0501C419D8A44ED016B00BD063
:101E5000000104EE42F09E51E9269F51EA22EF5024
:101E6000006E00B00DD016A03FD0000104EE44F08B
:101E70009E51E9269F51EA22EF50006E00A834D00F
:101E8000000104EE42F09E51E9269F51EA22EF50F4
:101E9000006E00BE07D0000E006A016A0301F863FD
:101EA000002A03D0010E006E016A01500010D8B460
:101EB00008D0BADF0009D8A404D08A98159A040182
:101EC000286B000104EE43F09E51E9269F51EA225F
:101ED000EF50006E00A008D0A7DF0009D8A404D0FE
:101EE0008A9A12920401276B1200D96AD9509EDF98
:101EF000D92A070ED964FAD71200938693940F015A
:101F00006F8F6F9D6F9B12000F01718F718D729596
:101F100072937281719571837191719B71997187BF
:101F2000709F709D709B70897097709570837081A1
:101F3000708B709970977085708370811200AE00FD
:101F4000D96EAEC000F0AFC001F0050ED8900036DB
:101F50000136E82EFBD7E00E00140001AE6F0150F1
:101F6000AF6F030EB217B36BB2C0F3FFB3C0F4FF91
:101F7000F350AE13F450AF13B0C000F0B1C001F095
:101F800042D04DD00001AFC004FFAEC005FF0F012D
:101F900005870150E8CF06FF00C007FF4CD00001C5
:101FA000AFC008FFAEC009FF0F0109870150E8CF9D
:101FB0000AFF00C00BFF3FD00001AFC00CFFAEC056
:101FC0000DFF0F010D870150E8CF0EFF00C00FFF7E
:101FD00032D00001AFC010FFAEC011FF0F0111875A
:101FE0000150E8CF12FF00C013FF25D00001AFC0A1
:101FF00014FFAEC015FF0F0115870150E8CF16FF83
:1020000000C017FF18D0D950BCE0010ABBE0030A9A
:10201000C6E0010AD1E0070ADCE0010AE7E00001BE
:10202000AFC000FFAEC001FF0F0101870150E8CF34
:1020300002FF00C003FF1200AE00D96EAEC000F078
:10204000AFC001F0050ED89000360136E82EFBD760
:10205000E00E00140001AE6F0150AF6F030EB21717
:10206000B36BB2C0F3FFB3C0F4FFF350AE13F45040
:10207000AF13B0C000F0B1C001F00CD00FD0000120
:10208000AFC01CFFAEC01DFF0150E8CF1EFF00C057
:102090001FFF0ED0D950F2E0010AF1E00001AFC0FD
:1020A00018FFAEC019FF0150E8CF1AFF00C01BFF98
:1020B0001200AE00D96EAEC000F0AFC001F0050E48
:1020C000D89000360136E82EFBD7E00E0014000150
:1020D000AE6F0150AF6F030EB217B36BB2C0F3FF18
:1020E000B3C0F4FFF350AE13F450AF13B0C000F020
:1020F000B1C001F01BD020D00001AFC031FFAEC095
:1021000032FF0F0132870150E8CF33FF00C034FFA8
:102110001FD00001AFC021FFAEC022FF0F012287F8
:102120000150E8CF23FF00C024FF12D0D950E3E0D4
:10213000010AE2E0030AEDE00001AFC041FFAEC0DA
:1021400042FF0F0142870150E8CF43FF00C044FF28
:102150001200AE00D96E07D00CD0AEC035FF0BD048
:10216000AEC025FF08D0D950F7E0010AF6E0030A17
:10217000F7E0AEC045FF1200766A756AD96AD95099
:1021800004EE31F0E926000EEA22EF50006E790EDF
:10219000005CD8A01FD0D9502A0DF3CFF6FFF4CFA2
:1021A000F7FFE16AE150F624006E000EF720016EA1
:1021B000410E0024E96E040E0120EA6EEF6AE12A66
:1021C000290EE164EFD7D95004EE31F0E926000E74
:1021D000EA22EF6AD92A070ED964D1D7640E040126
:1021E000246503D089DA0401246B120023C4F6FFAE
:1021F000F76AF36AF46A070ED890F336F436E82EDD
:10220000FBD7F350F610E8CFA4F0F450F710E8CF66
:10221000A5F0046A056A066A076A26C400F0016A26
:10222000026A036A0050041201500512025006129D
:10223000035007120E0ED8900436053606360736C0
:10224000E82EF9D794C500F0016A026A036A0050CB
:10225000041201500512025006120350071204C066
:10226000A6F005C0A7F006C0A8F007C0A9F01200AC
:102270006150F46EF36A6250F66EF76AF650F3102E
:10228000E8CFA2F0F750F410E8CFA3F0050E006EEF
:1022900000EEA2F0002804D0D890EC32ED52EF32DC
:1022A000E82EFAD76250030B0001F86FF96BFA6B56
:1022B000FB6B100EF8C000F0F9C001F0FAC002F09C
:1022C000FBC003F086EC1FF000C0AAF001C0ABF029
:1022D00002C0ACF003C0ADF06350006E016A026A48
:1022E000036A02C003F001C002F000C001F0006AFE
:1022F00000EEAAF00050EE120150EE120250EE1263
:102300000350ED12ED52ED526450006E016A026A04
:10231000036A00EEAAF00050EE120150EE120250D5
:10232000EE120350ED12ED52ED52AAC000F0ABC018
:1023300001F0ACC002F0ADC003F0006AC00E01169F
:10234000026A036A0E0E91EC1FF00050D96ED9504C
:10235000030BE8CF25F4D950030BE8CFFAF3AAC05A
:1023600000F0ABC001F0ACC002F0ADC003F0006AF9
:10237000C00E0116030E0216036A0E0E91EC1FF03A
:102380000050D96ED950070BE8CF25F4D950070B70
:10239000E8CFFAF312002ADFE16AA4C0AEF0A5C0CC
:1023A000AFF00001B06BB16BB26BB36BE150C8DD45
:1023B000E12A050EE164F1D7120018DF10AA15D04A
:1023C0007F0E0001AE6FAF6BB06BB16BB26BB36BD6
:1023D000000E33DE7F0E0001AE6FAF6BB06BB16BE2
:1023E000B26BB36B010E29DE12D00001AE6BAF6B86
:1023F000B06BB16BB26BB36B000E1FDE0001AE6B46
:10240000AF6BB06BB16BB26BB36B010E16DE12002B
:102410000F0140B73DD004012253D8B439D026C4AF
:10242000E8FF0401256334D0E1DE1FC4AEF0000EE6
:1024300091DEA4C0AEF0A5C0AFF000EEB0F0A6C033
:10244000EEFFA7C0EEFFA8C0EEFFA9C0EEFF000E92
:1024500031DE1EC429F429C446FF2AC447FF2BC419
:1024600048FF2CC449FF2DC44AFF2EC44BFF2FC484
:102470004CFF30C44DFFA56AA5840F0140870401BD
:10248000216B04012753D8B403D00401010E2707A0
:1024900012000F0130B73DD004012253D8B439D017
:1024A00026C4E8FF0401256334D0A0DE20C4AEF0CA
:1024B000010E50DEA4C0AEF0A5C0AFF000EEB0F04B
:1024C000A6C0EEFFA7C0EEFFA8C0EEFFA9C0EEFFBA
:1024D000010EF0DD1EC429F429C436FF2AC437FFDB
:1024E0002BC438FF2CC439FF2DC43AFF2EC43BFF48
:1024F0002FC43CFF30C43DFFA56AA5860F0130877D
:102500000401216B04012853D8B403D00401010E47
:1025100028071200A4AE02D0A49EEDD0A4AC02D035
:10252000A49CE9D0A4AA2BD0A49A0F0174AF02D026
:102530000F01749F0F0174AD02D00F01749D0F0144
:1025400074AB02D00F01749B0F0174A902D00F016C
:1025500074990F0174A702D00F0174970F0174A52D
:1025600002D00F0174950F0174A302D00F01749370
:102570000F0174A102D00F017491746ABCD0A4A29F
:1025800002D0A492B8D0A4A0B6D00401246B70DE0F
:102590000001ABAB87D0AAA746D0040EF66EF76A4F
:1025A000D890F636F736D890F636F736D890F63615
:1025B000F73625C4E8FF2A0DF650F324026EF750D3
:1025C000F420036E660ED96E0F0EDA6EF36AF46AAB
:1025D000F350D924E96EF450DA20EA6E02C000F01C
:1025E00003C001F0F3500026F4500122410E0024F4
:1025F000E16E040E0120E26EEFCFE7FFF34AF42A0A
:10260000000EF45C080ED8B4F35CD8A0E1D7010E3C
:10261000E8CF22F425C4E8FF04EE31F0E926000EED
:10262000EA22EF6A65D00401226BAAC0E8FF070B1B
:10263000F66EF76AD890F636F736D890F636F73653
:10264000D890F636F73625C4E8FF2A0DF650F32465
:10265000026EF750F420036E660ED96E0F0EDA6E1E
:10266000F36AF46AF350D924E96EF450DA20EA6E82
:1026700002C000F003C001F0F3500026F450012224
:10268000410E0024E16E040E0120E26EEFCFE7FF61
:10269000F34AF42A000EF45C080ED8B4F35CD8B008
:1026A00027D0E0D70401226B8AEC04F00009D8B4EB
:1026B0001FD0660ED96E0F0EDA6EF36AF46AF3500D
:1026C000D924E16EF450DA20E26E04EE39F0F350D2
:1026D000E926F450EA22E7CFEFFFF34AF42A000E8E
:1026E000F45C080ED8B4F35CD8A0E9D79DEC1AF0DE
:1026F000A4900F01609F120000DC06DC0F01738BB9
:102700007399729D609F608D609B60956091609BE6
:102710006093509F508D509B509550835091509B8B
:102720000187058709870D871187158734DE45DE08
:102730000F01459D409730972097A592A46AA39ECC
:10274000A39CA38AA398A396A394A382A3806F9F1C
:102750006F9D6F9BF36AF46A04EE41F0F350E92633
:10276000F450EA22EF6AF34AF42A010EF45C500EA8
:10277000D8B4F35CD8B01200EFD7D96ED9502A0D77
:10278000F3CFF6FFF4CFF7FF10BA21D004EE47F0F5
:10279000F650E926F750EA22EF50430AD8A417D0A2
:1027A00004EE48F0F650E926F750EA22EF504D0AC1
:1027B000D8A40DD004EE42F0F650E926F750EA22F4
:1027C000EF50006E00BA03D0A2C023F410821200B2
:1027D000D96ED9502A0DF3CFAEF0F4CFAFF01298E6
:1027E0001396000104EE68F0AE51E926AF51EA22DB
:1027F000EF5005019419D8B41386000104EE47F098
:10280000AE51E926AF51EA22EF504A0AD8A417D0B8
:1028100004EE48F0AE51E926AF51EA22EF50440AE7
:10282000D8A40DD0000104EE42F0AE51E926AF511C
:10283000EA22EF50006E00BA02D0148601D014963E
:1028400014B616D1000104EE60F0AE51E926AF5186
:10285000EA22EFCF9DF504EE41F0AE51E926AF51EB
:10286000EA22EFCF95F595C5E8FF0501926101D009
:1028700005D092C5E8FF0501956105D0128C95C57C
:1028800092F50501A46B000104EE47F0AE51E92674
:10289000AF51EA22EF50B06F04EE48F0AE51E92696
:1028A000AF51EA22EF50B16F000E35EC1EF01490DC
:1028B00016A00CD0000104EE44F0AE51E926AF5151
:1028C000EA22EF50006E00A80CD00AD0000104EEFE
:1028D00042F0AE51E926AF51EA22EF50006E00B04F
:1028E00014801198000104EE42F0AE51E926AF5178
:1028F000EA22EF50006E00B21188119604EE43F008
:10290000AE51E926AF51EA22EF50006E00B21186B7
:102910008A9C04EE43F0AE51E926AF51EA22EF5013
:10292000006E00BE8A8C8A9E04EE42F0AE51E9260B
:10293000AF51EA22EF50006E00BC8A8E159604EE6D
:1029400042F0AE51E926AF51EA22EF50006E00BED0
:102950001586119E04EE43F0AE51E926AF51EA22EE
:10296000EF50006E00B0118E159C04EE44F0AE5195
:10297000E926AF51EA22EF50006E00B0158C149496
:1029800004EE44F0AE51E926AF51EA22EF50006E5A
:1029900000B21484149804EE44F0AE51E926AF510D
:1029A000EA22EF50006E00B41488129A04EE43F04D
:1029B000AE51E926AF51EA22EF50006E00B8128AFC
:1029C000139A04EE43F0AE51E926AF51EA22EF50DC
:1029D000006E00B4138A139804EE43F0AE51E9265A
:1029E000AF51EA22EF50006E00BA1388129404EE41
:1029F00042F0AE51E926AF51EA22EF50006E00B628
:102A00001284149A04EE44F0AE51E926AF51EA2242
:102A1000EF50006E00BE148A119A04EE44F0AE51DD
:102A2000E926AF51EA22EF50006E00BC118A1192E4
:102A300004EE42F0AE51E926AF51EA22EF50006EAB
:102A400000BA1182149204EE42F0AE51E926AF5161
:102A5000EA22EF50006E00B41482129E04EE44F09D
:102A6000AE51E926AF51EA22EF50006E00BA128E45
:102A7000000C14B815D00B0ED96ED95013EEFEF021
:102A8000E126000EE222D95004EE0EF0E926000EF7
:102A9000EA22E7CFEFFFD92A0F0ED964EED760D034
:102AA00015B602D011AE48D00B0E026E036A010EAD
:102AB00091C500F0016A0026000E012246EC1FF0CD
:102AC00000C091F5080E050191614CD091C5E8FF59
:102AD0000708E16E0B0ED96EE1CF00F015A60FD0FE
:102AE000D95003EEFEF0E926000EEA22EF50016E07
:102AF000002A02D0D8900136002EFCD70ED0D95033
:102B000003EEFEF0E926000EEA22EF50016E002AE5
:102B100002D0D8900132002EFCD70150F36ED9506C
:102B200004EE0EF0E926000EEA22F3CFEFFFD92AD9
:102B30000F0ED964D1D716D00B0ED96ED95013EE23
:102B4000FEF0E126000EE222D95004EE0EF0E92656
:102B5000000EEA22E7CFEFFFD92A0F0ED964EED795
:102B60000501916B120012B402D011B246D00501DA
:102B7000A4291F0BE8CFA4F5A4C5D9FFF36A150E4D
:102B8000D96023D012A40AD0D9CF00F0016A005036
:102B90006B0FF66E0150F76E070E0BD011B213D00B
:102BA000D9CF00F0016A0050810FF66E0150F76E28
:102BB000070EF722F35004EE0EF0E926000EEA228B
:102BC0000800F5CFEFFFD92A13D0D95013EEE9F062
:102BD000E126000EE222F35004EE0EF0E926000E8C
:102BE000EA22E7CFEFFFD92A1F0ED96401D0D96AB4
:102BF000F32A0A0EF364C3D7B2D012AA14BA02D0D1
:102C000012AE5BD0270E026E036A010EA4C500F05F
:102C1000016A0026000E012246EC1FF000C0A4F558
:102C2000A4C5D9FFF36A1C0ED9602FD012AA0AD00E
:102C3000D9CF00F0016A00504F0FF66E0150F76EC9
:102C4000070E17D014AA0AD0D9CF00F0016A00509D
:102C5000330FF66E0150F76E070E0BD012AE13D085
:102C6000D9CF00F0016A0050170FF66E0150F76ED1
:102C7000070EF722F35004EE0EF0E926000EEA22CA
:102C80000800F5CFEFFFD92A13D0D95013EEE2F0A8
:102C9000E126000EE222F35004EE0EF0E926000ECB
:102CA000EA22E7CFEFFFD92A260ED96401D0D96AEC
:102CB000F32A0A0EF364B7D752D014B202D014A488
:102CC00050D03F0E026E036A010EA4C500F0016AE7
:102CD0000026000E012246EC1FF000C0A4F5A4C59A
:102CE000D9FFF36A340ED96023D014A40AD0D9CF07
:102CF00000F0016A0050970FF66E0150F76E070E54
:102D00000BD014A213D0D9CF00F0016A0050E30F0A
:102D1000F66E0150F76E060EF722F35004EE0EF039
:102D2000E926000EEA220800F5CFEFFFD92A13D0DA
:102D3000D95013EECAF0E126000EE222F35004EE61
:102D40000EF0E926000EEA22E7CFEFFFD92A3E0E69
:102D5000D96401D0D96AF32A0A0EF364C3D7138E5B
:102D600088D613AE17D0129C0501A46BD96AD9502E
:102D700013EEFEF0E126000EE222D95004EE0EF032
:102D8000E926000EEA22E7CFEFFFD92A0A0ED9641E
:102D9000EED7139E12AC6DD614B817D0129C050155
:102DA000A46BD96AD95013EEFEF0E126000EE222A0
:102DB000D95004EE0EF0E926000EEA22E7CFEFFF2D
:102DC000D92A0A0ED964EED754D615B602D011AE60
:102DD00074D0090E026E036A010EA4C500F0016AE8
:102DE0000026000E012246EC1FF000C0A4F5D96AAF
:102DF00015A624D0D95014EE0EF0E126000EE222E2
:102E0000D95004EE0EF0E926000EEA22EF50006ED3
:102E1000D8900030E76EA4C5E8FF0808006ED950CE
:102E200003EEFEF0E926000EEA22EF50016E002AC2
:102E300002D0D8900136002EFCD723D0D95014EE02
:102E40000EF0E126000EE222D95004EE0EF0E92643
:102E5000000EEA22EF50006ED8900034E76EA4C551
:102E6000E8FF0808006ED95003EEFEF0E926000ED8
:102E7000EA22EF50016E002A02D0D8900132002ED3
:102E8000FCD70150F36ED95014EE0EF0E126000E7F
:102E9000E222D95004EE0EF0E926000EEA22EF50AD
:102EA000006EF310E76EA4C5E8FF080AD8B4129CC0
:102EB000D92A0A0ED9649CD7DCD5129C0501A46BD3
:102EC000D96AD95013EEFEF0E126000EE222D95065
:102ED00004EE0EF0E926000EEA22E7CFEFFFD92A32
:102EE0000A0ED964EED7C5D50301F853D8B48ABA0F
:102EF00001D039D00301F853D8B437D0E8CF00F06F
:102F0000016A00C0B5F001C0B6F00FEC04F0C2C514
:102F1000E8FF1F0B0501C419D8A427D0000104EE57
:102F200042F09E51E9269F51EA22EF50006E00AA1E
:102F30001CD016A00BD0000104EE44F09E51E926EF
:102F40009F51EA22EF50006E00B80DD016B00DD0A0
:102F5000000104EE42F09E51E9269F51EA22EF5013
:102F6000006E00A002D0000E01D0010E1200B100D0
:102F7000E8CF00F0016A00C0B5F001C0B6F00FEC78
:102F800004F0020ED96E030EE8CF1EF40001B15119
:102F9000D8B40DD0C4C5E8FF8009E8CF2AF40301F6
:102FA000F853D8B409D0C4C5E8FF200903D0C4C57C
:102FB000E8FF4009E8CF2AF42BC4E8FF16A002D0AE
:102FC000010901D0FE0BE8CF2BF4C4C5E8FF0501D1
:102FD000C26163D00001B151D8B435D0000104EE14
:102FE00043F09E51E9269F51EA22EF50006E00A067
:102FF00003D0010ED96EE0D0C5C5E8FFE00BD8B410
:10300000DAD0C5C5E8FF1F0B0501C46101D0D3D0DC
:10301000C5C500F01F0E0016C4C5E8FF005CD8B09F
:1030200007D0C5C5E8FFE00B400AD8A4E2D7C3D05B
:10303000C5C5E8FF1F0B0501C419D8A4BDD0050103
:10304000C5AFB9D06AD0000104EE43F09E51E92625
:103050009F51EA22EF50006E00B0CBD7C5C5E8FF04
:10306000E00BD8B4A8D0C5C5E8FF1F0B0501C461AB
:1030700001D0BFD7C5C500F01F0E0016C4C5E8FFBC
:10308000005CD8A0CED7C5C5E8FF1F0B0501C41949
:10309000D8A492D0C5C5E8FF3CD0C2C5E8FF050161
:1030A000C4616CD00001B151D8B439D0000104EE34
:1030B00042F09E51E9269F51EA22EF50006E00BE79
:1030C00098D7C6C5E8FFE00BD8B475D0C6C500F0E8
:1030D0001F0E0016C4C5E8FF005CD8B004D0F8C3CA
:1030E000E8FF020A0AD0C6C5E8FF1F0B0501C4614C
:1030F00007D0C6C5E8FFE00B800AD8B45CD079D70A
:10310000C6C5E8FF1F0B0501C419D8A455D0C6C514
:10311000E8FFE00B200AD8B44ED0020E6BD70001B6
:1031200004EE42F09E51E9269F51EA22EF50006ED4
:1031300000BE5FD7C6C5E8FFE00BD8B43CD0C6C51B
:1031400000F01F0E0016C4C5E8FF005CD8A033D005
:10315000C6C5E8FF1F0B0501C46105D0C6C5E8FF61
:10316000E00B800A62D7C6C5E8FF1F0B0501C41932
:10317000D8A422D00501C6BDD0D71DD00001B151C1
:10318000D8B40FD0000104EE42F09E51E9269F51C1
:10319000EA22EF50006E00BE0ED00301F853D8B4FF
:1031A0000BD0000104EE43F09E51E9269F51EA2224
:1031B000EF50006E00B0D96A000104EE43F09E515A
:1031C000E9269F51EA22EF50006E00B00FD00001B7
:1031D00004EE42F09E51E9269F51EA22EF50006E24
:1031E000000E00BE010E006E016A03D0010E006EDB
:1031F000016A01500010D8B4D96AD9501200010EEA
:103200000001AF6FB06BFF0EE8CFA0F516A60AD095
:10321000810EE8CF1EF405019A052009E8CF2AF4B3
:10322000006A04D015BA04D0010E006E016A92D073
:103230000001AE6B0001AE5105EEB7F0E926000EBD
:10324000EA22FF0EEF6EAE51B16FB26B1DEC09F0CA
:10325000006E00C002F0036A03500210D8A403D02D
:103260000001AF6BB06B0001AE2B070EAE65E2D76D
:103270000401266BD96AD95005EEB7F0E926000E95
:10328000EA22EF50006E26C4E8FF05EEB7F0E9260B
:10329000000EEA22EF50005CD8A025D0D95005EEF0
:1032A000B7F0E926000EEA22EF50006E26C4E8FFD0
:1032B00005EEB7F0E926000EEA22EF500018D8A478
:1032C00014D0D95005EECBF0E926000EEA22EF50DB
:1032D000006E26C4E8FF05EECBF0E926000EEA22D8
:1032E000EF50005CD8A0D9CF26F4D92A070ED964B4
:1032F000C2D726C4A0F50001B051AF11D8A426D082
:10330000010EB16F26C4E8FF33DE0001AF6FB06B72
:10331000B051AF11D8A404D0030EE8CF1EF416D0DC
:103320000001AF05B011D8A411D026C4B3F0B46B1E
:103330009AEC07F00001AF6FB06BAF05B011D8A4E5
:1033400005D0020EE8CF1EF4AF6BB06BAFC000F03B
:10335000B0C001F01200010E0001AF6FB06BFF0EA4
:10336000E8CF98F516A60AD0810EE8CF1EF4050125
:103370009A052009E8CF2AF4006A04D012B204D0DA
:10338000010E006E016A8FD00001AE6B0001AE51DC
:1033900005EEA7F0E926000EEA22FF0EEF6EAE5111
:1033A000B16FB26B32EC0BF0006E00C002F0036A3A
:1033B00003500210D8A403D00001AF6BB06B000122
:1033C000AE2B070EAE65E2D70401266BD96AD95041
:1033D00005EEA7F0E926000EEA22EF50006E26C4A3
:1033E000E8FF05EEA7F0E926000EEA22EF50005CA8
:1033F000D8A025D0D95005EEA7F0E926000EEA2284
:10340000EF50006E26C4E8FF05EEA7F0E926000E97
:10341000EA22EF500018D8A414D0D95005EECBF012
:10342000E926000EEA22EF50006E26C4E8FF05EE02
:10343000CBF0E926000EEA22EF50005CD8A0D9CFED
:1034400026F4D92A070ED964C2D70001B051AF11B2
:10345000D8A425D0B16B26C4E8FF8ADD0001AF6F88
:10346000B06BB051AF11D8A404D0030EE8CF1EF456
:1034700016D00001AF05B011D8A411D026C4B3F006
:10348000B46B29EC08F00001AF6FB06BAF05B01161
:10349000D8A405D0020EE8CF1EF4AF6BB06BAFC05E
:1034A00000F0B0C001F01200D96E010E0001B06F43
:1034B000D950B56FB66B0FEC04F0F8C300F0000400
:1034C000D8A42AD0000104EE43F09E51E9269F5172
:1034D000EA22EF50006E00A20BD0C3C5E8FF1F0B1D
:1034E0000501C419D8A416D0010E0001B06F14D084
:1034F000C2C5E8FF1F0B0501C419D8B4F5D70001F8
:1035000004EE42F09E51E9269F51EA22EF50006EF0
:1035100000B2EAD70001B06B0001B0511200010EF9
:10352000D96E16A003D004013BB1D96A16B003D0FE
:1035300004013BA1D96AD95012000001AABF43D0AF
:103540003AC400F01F0E001600C0F6FFF76A9AC5D5
:1035500000F0FF0E0024026E036AFF0E0322F750F4
:10356000031802E1F6500218D8A42DD0D8DF0009C4
:10357000D8A429D039C400F00004D8A40BD0040189
:103580003AAF02D08A98159A04013AAD1CD08A9AB3
:10359000129219D039C4E8FFFE0AD8B414D003013E
:1035A000F853D8B406D004013ABB15B80CD08A88B9
:1035B0000AD004013ABF15B801D08A8804013ABD87
:1035C00012B001D08A8A12008A9205019A6B831C7C
:1035D000E8CF9AF59AC500F0D8900032D890003024
:1035E0001F0BE8CF9AF58A82120012A81ED09AC546
:1035F000B6F0000EC6EC1DF00001B86B0B0E9BEC94
:103600001DF0D96AD95013EEFEF0E126000EE22239
:10361000D95004EE0EF0E926000EEA22E7CFEFFFC4
:10362000D92A0F0ED964EED70CD0D96AD95004EE3E
:103630000EF0E926000EEA22EF6AD92A0F0ED964AD
:10364000F5D71200926A936A946A956A966A896AB3
:10365000020E8A6E8B6A8C6A8D6A1200F29E21ECD1
:1036600002F0F0DF12EC02F042EC0DF030EC0DF065
:103670008A908A9E8A9C0401286B0401276B109211
:10368000109A9568A1DF956A40EC00F07CEC13F08D
:10369000F28E129C0501926B139E0501A16B050130
:1036A000A36B0501AF6B050E0501996503D0996BFE
:1036B00012789BDFF9C3E8FFBDEC13F00400030EA2
:1036C0000501AF65F0D710A204D023C4E8FFBDEC1C
:1036D00000F0F29E108A7CEC13F0F28E1288050145
:1036E000996B83DF030EE8CF1FF4E8CF20F40401C9
:1036F0001E6B9AC594F516900301FBA106D09AC5DE
:10370000E8FF400FE8CF94F5168013961496050154
:103710009B6BF8C300F00004D8A403D0020EE8CFDE
:103720009BF50400BCEC10F0F9C3E8FFE8EC13F0E3
:1037300014B609D0F9C3E8FFA6EC0EF075EC0FF053
:1037400054EC0DF002D0FDEC00F004012253D8B48B
:103750006BD025C4E8FFFFEC18F001500010D8B47E
:1037600002D012A61AD012A615D0030EE8CF1EF46E
:10377000F9C325F425C426F405019A052009E8CFEC
:103780002AF42BC4E8FF16A002D0010901D0FE0BD9
:10379000E8CF2BF449EC12F014D015AA13D0040191
:1037A0002853D8B40FD025C426F4040EE8CF1EF455
:1037B00005019A05D96ED9508009E8CF2AF449EC61
:1037C00012F0139625C4E8FFABEC19F0015000107D
:1037D000D8A407D00301F853D8A403D008EC12F002
:1037E00014D012A213D004012753D8B40FD025C48B
:1037F00026F4040EE8CF1EF405019A05D96ED950BF
:103800004009E8CF2AF408EC12F0139613A60AD068
:10381000F9C326F4FE0EE8CF1EF404012A6B1396BA
:1038200008EC12F00401226B640E0501A56579D73E
:10383000B3EC15F00501A56B74D7E8CFFDF5E9CF22
:10384000FCF5EACFFBF5E1CFFAF5E2CFF9F5D9CFF8
:10385000F8F5DACFF7F50EC0F6F50DC0F5F50CC0AA
:10386000F4F50BC0F3F50AC0F2F509C0F1F508C094
:10387000F0F507C0EFF506C0EEF505C0EDF504C0A4
:10388000ECF503C0EBF502C0EAF501C0E9F500C0B4
:10389000E8F5F7CFE7F5F6CFE6F5F5CFE5F5F4CFA8
:1038A000E4F5F3CFE3F5F2A404D1F294180ED66E4A
:1038B000FC0ED76E0501A52B896A8B6A8D908D92BF
:1038C00015AE0AD0A1C5E8FF04EE0EF0E926000E01
:1038D000EA22EF1C800909D0A1C5E8FF04EE0EF032
:1038E000E926000EEA22EF1C7F0B8C6E8D948D84EE
:1038F000070E0501A16534D010D08B8043D08B8298
:1039000041D08B843FD08B863DD08B883BD08B8A37
:1039100039D08B8C37D08B8E35D0A1C5E8FF080A03
:10392000ECE0010AECE0030AECE0010AECE0070A33
:10393000ECE0010AECE0030AECE0010AECE022D042
:10394000898020D089821ED089841CD089861AD093
:10395000898818D0898A16D08D8014D08D8212D093
:10396000A1C5E8FF000AECE0010AECE0030AECE084
:10397000010AECE0070AECE0010AECE0030AECE0E3
:10398000010AECE00501A12BA1C5E8FF100AD8A4AB
:1039900002D00501A16B8A9295681594119C12962C
:1039A000169214A611A217D014A483BE14D0FCC37F
:1039B00000F00004D8A40AD011B60DD09AC5E8FFD3
:1039C0000501956308D011A8168205D0FCC3E8FF55
:1039D000020AD8B4158416A20AD005019C2B0A0E3F
:1039E0009C6507D00B0EE8CF9CF5128602D005012E
:1039F0009C6B83A0158483A2118C956A8A82050131
:103A0000A22B640EA26555D0A26B0401242BD96AA7
:103A1000D95004EE31F0E926000EEA22EF2AD92A25
:103A2000070ED964F5D70501992B0501932BDC0E00
:103A3000026E036A9BC5E8FF025E000E035A9FC533
:103A400000F0016A0150800A046E0350800A045C91
:103A500002E10250005CD8B002D005019F2BDC0EC1
:103A6000026E036A9BC5E8FF025E000E035A97C50B
:103A700000F0016A0150800A046E0350800A045C61
:103A800002E10250005CD8B002D00501972B05017D
:103A9000A32B0A0EA3650DD0A36BD96AD95005EEEE
:103AA000AFF0E926000EEA22EF2AD92A070ED964E0
:103AB000F5D7A450D8A48AEC12F0E3C5F3FFE4C50F
:103AC000F4FFE5C5F5FFE6C5F6FFE7C5F7FFE8C576
:103AD00000F0E9C501F0EAC502F0EBC503F0ECC562
:103AE00004F0EDC505F0EEC506F0EFC507F0F0C532
:103AF00008F0F1C509F0F2C50AF0F3C50BF0F4C502
:103B00000CF0F5C50DF0F6C50EF0F7C5DAFFF8C5F7
:103B1000D9FFF9C5E2FFFAC5E1FFFBC5EAFFFCC525
:103B2000E9FFFDC5E8FFFEC5FAFF0FC0E0FFFFC5D6
:103B3000D8FF1000B800026E0001B851050DF35017
:103B4000E16ED96AE150D9CF00F0016A0026000E7B
:103B5000012200500C0FF66E0150F76E060EF72290
:103B60000250D9CF00F0016A0026000E0122FE0E9D
:103B70000024E96E030E0120EA6E0800F5CFEFFF86
:103B8000D92A040ED964DED71200B6007F0E0001D8
:103B9000B66511D0036A120ED96EB86F0350CBDF31
:103BA000060E036E0001B651800FD96ED950B86F62
:103BB0000350C1DF1DD0090E0001B6651CD0B76BE4
:103BC0000A0E016EB651D2EC02F0D96ED950B86F20
:103BD000B751B1DF060E0001B76F0A0E016EB65184
:103BE000D2EC02F00050D96ED950B86FB751A3DFB4
:103BF0000401036B1BD0D96AD95003EEFEF0E9260D
:103C0000000EEA22EF6AD92A0A0ED964F5D7030119
:103C1000FD53D8A402D0030E01D0060E036E00019E
:103C2000B651D96ED950B86F035085DF15A608D0AC
:103C30000B0E036E0A0E0001B86F03507CDF13D029
:103C400011AE07D00B0E036E0001B86F035073DF87
:103C50000AD00401096B04010A6B04010B6B040117
:103C60000C6B04010D6B1200B0000001B051D00FBD
:103C7000D96ED950D8B412D0036AD950B86F035056
:103C80005ADF060E036E0001B151D00FD96ED95024
:103C9000B86F035050DF0401036B1CD0D96AD950B0
:103CA00003EEFEF0E926000EEA22EF6AD92A0A0E98
:103CB000D964F5D70301FD53D8A402D0030E01D077
:103CC000060E036E0001B151D00FD96ED950B86FF6
:103CD000035031DF15A608D00B0E036E0A0E00014B
:103CE000B86F035028DF13D011AE07D00B0E036E50
:103CF0000001B86F03501FDF0AD00401096B0401F3
:103D00000A6B04010B6B04010C6B04010D6B1200B8
:103D1000B500E16E12A830D0D96AD95003EEFEF09A
:103D2000E926000EEA22EF6AD92A0F0ED964F5D7E8
:103D3000E128D8B405D0E1500001B66F000E26DFAF
:103D40000001B529D8B404D0B551B86F0B0EF3DE1D
:103D5000D96AD95013EEFEF0E126000EE222D950C6
:103D600004EE0EF0E926000EEA22E7CFEFFFD92A93
:103D70000F0ED964EED70CD0D96AD95004EE0EF0EC
:103D8000E926000EEA22EF6AD92A0F0ED964F5D788
:103D90001200B2000001B5513F0BF36EF350B55F56
:103DA000000EB65B0001B451D8B41200D96AF350CA
:103DB000D95CD8A01FD00001B451D8B41BD0B2C078
:103DC000F6FFB3C0F7FFD95010EEB8F0E126000EB1
:103DD000E222050EF76403D00800F55005D0F6CFB7
:103DE000E9FFF7CFEAFFEF50E76E0001B24BB32BCC
:103DF000B4071DD0D9500001B525006E000EB621C4
:103E0000016E00C0F6FF01C0F7FFD95000EEB8F018
:103E1000E926000EEA22050EF76403D00800F550EB
:103E200005D0F6CFE1FFF7CFE2FFE750EF6ED92ADA
:103E30003F0ED964BCD7B5C0F6FFB6C0F7FF940EED
:103E4000A66E5BEC1FF00001B76B0001B75100EEEE
:103E5000B8F0E926000EEA22EF50F56EB751D8A46B
:103E600002D00C0001D00F000001B751070B070A68
:103E7000D8B45BEC1FF00001B72B3F0EB765E5D758
:103E8000400EB527000EB623F36A8CD7066A01AE42
:103E900006D0001E004A0106011E068C068E035045
:103EA000800B061A03AEA0EF02F0021E024A0306C0
:103EB000031EA0EF02F0AEEC1FF0A684D890F2BE75
:103EC000D880F29E550EA76EAA0EA76EA68200F0AD
:103ED000D8B0F28EA694120002500002F3CF04F084
:103EE000F4CF05F00102F350052603500002F35011
:103EF00005261200B2000001B251F66EB351F76E02
:103F0000B451F86E0800F86AF5501200046E042AE5
:103F10000406D8B4000CD8900036013602360336B9
:103F2000F7D7046E042A0406D8B4000CD8900332E4
:103F3000023201320032F7D70900F5CFEEFFEA5026
:103F4000E262FAD7E950E162F7D71200EE6AEA506E
:103F5000E262FCD7E950E162F9D71200A6A2120092
:023F6000FDD78B
:020000040030CA
:0E000000FF06160DFF8081FF0FC00FE00F40BE
:020000040000FA
:00000001FF
