:020000040000fa
:080000000001040000000000f3
:020000040000fa
:100200006f26210080792200000188000000000094
:10021000050007000c0007000cdb020000000000d6
:100220000040da000000fe004440a90000992600ca
:100230000000e0000300320000002000a001880060
:100240004440a80000000600802a2600110020007b
:100250001600370062004000e080480091018800ed
:100260009001ba0062004000e080480091018800df
:100270009002ba0062004000e08048000002eb00fb
:100280006028e10005003a008301e900070033001f
:10029000038009000059eb00040037006128e100e9
:1002a000010032000082eb00050007009101880088
:1002b0001001ba000200e000e6ff3a00000005006d
:1002c000910188008002780062004000e0804800d0
:1002d0003559ba008301e900080032002559ba00f7
:1002e0008301e900050032000400e000f4ff320061
:1002f00015d9ba008301e900f1ff3a0000000600b9
:100300006022b800060220000000d0008180d200e8
:100310000482d2008582d2000000a00002025200b6
:1003200083825a0003003b000202420083824a009b
:100330000000a1000603e900f3ff3a0000000600f8
:10034000efff07000400be00000006000e00fa00e8
:10035000000f78001e007800600798006e00900083
:10036000e20f5000770032006e009000e20f500064
:1003700007003e006e0090000000e0000b0032001d
:100380006e009000e10f500026003200ad003700f3
:100390006e009000e30f50007b0032006e00900072
:1003a000e40f500091003200a600370060f42c00ea
:1003b0009080fb008047800001004000a0908800f2
:1003c00090478000b0908800a0478000c0908800cf
:1003d000b0478000d0908800c0478000e09088003f
:1003e00060f42c009080fb00d047800001004000aa
:1003f000f0908800e047800000918800f04780007e
:1004000010918800300220002009e3008d003e009a
:10041000b0908000f1fd2f0001006000b0908800d6
:100420008800370060f42c001080fb001007980053
:1004300000c9bf00004f980002c9bf00104f9800cc
:1004400004c9bf00204f980006c9bf00304f980074
:100450004e009000de0090001e0190000201e900b5
:10046000030033000000400081804800fbff37009c
:1004700040079800510798000e4890000080fb004c
:10048000a09088001e4890000080fb00b09088007b
:100490002e4890000080fb00c09088003e489000ed
:1004a0000080fb00d09088000000eb00e090880006
:1004b0000000eb00f09088000000eb000091880045
:1004c00041488000000e2000008060000000e00035
:1004d0000500320060f42c009080fb004048800052
:1004e00001004000e090880050488000010e20008c
:1004f000010060000000e0000500320060f42c0004
:100500009080fb005048800001004000f09088007f
:1005100060488000010e2000010060000000e00043
:100520000500320060f42c009080fb0060488000e1
:100530000100400000918800704880001091880000
:1005400040003700c04a8000a0908800d04a800058
:10055000b0908800e04a8000c0908800f04a800097
:10056000d0908800004b8000e09088000049800017
:10057000f0908800d049800000918800e049800018
:10058000109188002f003700f0498000a09088006b
:10059000004a8000b0908800104a8000c090880017
:1005a000204a8000d0908800304a8000e090880087
:1005b00060f42c009080fb00904b80000100400014
:1005c000f090880060f42c001080fb0000918800ff
:1005d00000f42c009080fb0060f42c001080fb00e5
:1005e000008040001091880016003700507680008f
:1005f00061768000200798004e4090000080fb004c
:10060000a09088002e0090004800de000080fb00d3
:10061000b0908800e04b8000c0908800404a800085
:10062000d0908800504a8000e0908800104c8000f4
:10063000f0908800204c800000918800304c8000b1
:10064000109188000080fa00000006000800fa00ff
:10065000000f7800110798001e009000c500dd0013
:1006600000802f0000806000200798001e0090008e
:10067000c200dd00c00f200000806000100798005d
:100680009e0090002e0090000080700010079800df
:100690001e007800300798003e009000e10f5000e7
:1006a000160032003e009000e10f500004003c00b4
:1006b0003e0090000000e0000500320025003700f9
:1006c0003e009000e20f500017003200210037007a
:1006d000001b800063006000001b8800011b80007d
:1006e0001e00900000807000001b8800001b80002e
:1006f0000000a000001b880020003700801a800046
:1007000063006000801a8800811a80001e0090003b
:1007100000807000801a8800801a80000000a0000d
:10072000801a880015003700001a800063006000fe
:10073000001a8800011a80001e00900000807000de
:10074000001a8800001a80000000a000001a88002b
:100750000a003700001b800063006000001b880057
:10076000011b80001e00900000807000001b8800ac
:10077000001b80000000a000001b88000080fa0021
:10078000000006000c00fa00000f78001107980026
:10079000220798001e009000ce00dd0000002c0013
:1007a00000806000300798002e009000c200de003c
:1007b000000023000080600040079800be00900009
:1007c0004e00900000807000300798002e009000ce
:1007d000c600de00f00f2000008060004007980097
:1007e000be0090004e00900000807000300798001e
:1007f0002e009000ca00dd0000c02f0000806000c5
:10080000400798001e007800500798005e00900096
:10081000e10f5000160032005e009000e10f500022
:1008200004003c005e0090000000e0000500320083
:10083000250037005e009000e20f500017003200e4
:10084000210037003e009000101b8800211b800013
:10085000f03f200000806000201b8800211b8000ea
:100860004e00900000807000201b880020003700a0
:100870003e009000901a8800a11a8000f03f2000ee
:1008800000806000a01a8800a11a80004e0090002d
:1008900000807000a01a8800150037003e0090000c
:1008a000101a8800211a8000f03f200000806000ac
:1008b000201a8800211a80004e00900000807000ed
:1008c000201a88000a0037003e009000101b8800a4
:1008d000211b8000f03f200000806000201b88006a
:1008e000211b80004e00900000807000201b8800bb
:1008f0000080fa00000006001000fa00000f7800e7
:100900001107980022079800330798001e009000f6
:10091000c200dd00c0ff21000080600010079800c9
:100920003e009000ca00dd0000c02f000080600083
:10093000400798003e009000c600de00f03f200017
:1009400000806000500798002e009000ca00dd0073
:1009500000c020000080600060079800de0090006a
:100960006e00900000807000500798001e00780014
:10097000700798007e009000e20f50002c003200bb
:100980007e009000e20f500007003c007e009000c7
:100990000000e0000e0032007e009000e10f5000e9
:1009a00017003200520037007e009000e40f500024
:1009b000370032007e009000e30f50002800340022
:1009c0007e009000e50f50003d00320048003700e7
:1009d000011880001e009000008070000018880040
:1009e000001880000000a000001888005e00900041
:1009f000101888004e00900020188800470037002b
:100a0000411880001e00900000807000401888008f
:100a1000401880000000a000401888005e00900090
:100a2000501888004e009000601888003b00370086
:100a3000811880001e0090000080700080188800df
:100a4000801880000000a000801888005e009000e0
:100a5000901888004e009000a01888002f003700e2
:100a6000c11880001e00900000807000c01888002f
:100a7000c01880000000a000c01888005e00900030
:100a8000d01888004e009000e0188800230037003e
:100a9000011980001e00900000807000001988007d
:100aa000001980000000a000001988005e0090007e
:100ab000101988004e009000201988001700370098
:100ac000411980001e0090000080700040198800cd
:100ad000401980000000a000401988005e009000ce
:100ae000501988004e009000601988000b003700f4
:100af000011880001e00900000807000001888001f
:100b0000001880000000a000001888005e0090001f
:100b1000101888004e009000201888000080fa000d
:100b2000000006001000fa00000f7800110798007e
:100b300022079800330798001e009000c200dd00d5
:100b4000c0ff210000806000100798003e00900068
:100b5000ca00dd0000c02f00008060004007980040
:100b60003e009000c600de00f03f200000806000e4
:100b7000500798002e009000ca00dd0000c0200041
:100b80000080600060079800de0090006e0090001a
:100b900000807000500798001e00780070079800d1
:100ba0007e0090000000e000040032007e00900013
:100bb000e10f50000d00320018003700811980004d
:100bc0001e0090000080700080198800801980004d
:100bd00061006000801988005e0090009019880014
:100be0004e009000a019880017003700c11980003e
:100bf0001e00900000807000c0198800c01980009d
:100c000061006000c01988005e009000d019880063
:100c10004e009000e01988000b0037008119800019
:100c20001e009000008070008019880080198000ec
:100c300061006000801988005e00900090198800b3
:100c40004e009000a01988000080fa000000060005
:100c50001000fa00000f7800110798002207980092
:100c6000330798001e009000c200dd00c0ff210085
:100c700000806000100798003e009000ca00dd0070
:100c800000c02f0000806000400798003e009000e8
:100c9000c600de00f03f2000008060005007980092
:100ca0002e009000ca00dd0000c02000008060001f
:100cb00060079800de0090006e00900000807000d9
:100cc000500798001e007800700798007e00900082
:100cd000e20f5000300032007e009000e20f500022
:100ce00007003c007e0090000000e0000e00320093
:100cf0007e009000e10f5000190032005e003700c6
:100d00007e009000e40f50003f0032007e00900013
:100d1000e30f50002e0034007e009000e50f5000dd
:100d200047003200540037000000eb00001e88002e
:100d3000011e80001e00900000807000001e8800d0
:100d4000001e80000000a000001e88005e009000d1
:100d5000101e88004e009000201e880053003700af
:100d60000000eb00401e8800411e80001e00900025
:100d700000807000401e8800401e80000000a0001f
:100d8000401e88005e009000501e88004e009000bb
:100d9000601e8800450037000000eb00801e8800c0
:100da000811e80001e00900000807000801e880060
:100db000801e80000000a000801e88005e00900061
:100dc000901e88004e009000a01e8800370037005b
:100dd0000000eb00c01e8800c11e80001e009000b5
:100de00000807000c01e8800c01e80000000a000af
:100df000c01e88005e009000d01e88004e0090004b
:100e0000e01e8800290037000000eb00001f88006a
:100e1000011f80001e00900000807000001f8800ed
:100e2000001f80000000a000001f88005e009000ee
:100e3000101f88004e009000201f88001b00370004
:100e40000000eb00401f8800411f80001e00900042
:100e500000807000401f8800401f80000000a0003c
:100e6000401f88005e009000501f88004e009000d8
:100e7000601f88000d0037000000eb00001e880096
:100e8000011e80001e00900000807000001e88007f
:100e9000001e80000000a000001e88005e00900080
:100ea000101e88004e009000201e88000080fa006e
:100eb000000006001000fa00000f780011079800eb
:100ec00022079800330798001e009000c200dd0042
:100ed000c0ff210000806000100798003e009000d5
:100ee000ca00dd0000c02f000080600040079800ad
:100ef0003e009000c600de00f03f20000080600051
:100f0000500798002e009000ca00dd0000c02000ad
:100f10000080600060079800de0090006e00900086
:100f200000807000500798001e007800700798003d
:100f30007e0090000000e000040032007e0090007f
:100f4000e10f50000f0032001c0037000000eb00e2
:100f5000801f8800811f80001e00900000807000ac
:100f6000801f8800801f80000000a000801f880074
:100f70005e009000901f88004e009000a01f880027
:100f80001b0037000000eb00c01f8800c11f80005d
:100f90001e00900000807000c01f8800c01f8000ed
:100fa0000000a000c01f88005e009000d01f8800d5
:100fb0004e009000e01f88000d0037000000eb009d
:100fc000801f8800811f80001e009000008070003c
:100fd000801f8800801f80000000a000801f880004
:100fe0005e009000901f88004e009000a01f8800b7
:100ff0000080fa00000006000800fa00000f7800e8
:10100000110798001e009000c500dd0000802f0031
:1010100000806000200798001e009000c200dd00e4
:10102000c00f200000806000100798009e00900014
:101030002e00900000807000100798001e007800bd
:10104000300798003e009000e10f5000160032007b
:101050003e009000e10f500004003c003e00900074
:101060000000e00005003200250037003e0090003f
:10107000e20f5000170032002100370000218000ed
:101080006300600000218800012180001e009000a4
:101090000080700000218800002180000000a00076
:1010a000002188002000370080208000630060005d
:1010b00080208800812080001e0090000080700049
:1010c00080208800802080000000a0008020880010
:1010d00015003700002080006300600000208800b9
:1010e000012080001e009000008070000020880019
:1010f000002080000000a000002088000a003700c7
:101100000021800063006000002188000121800030
:101110001e009000008070000021880000218000e7
:101120000000a000002188000080fa0000000600f6
:101130000c00fa00000f78001107980022079800b1
:101140001e009000ce00dd0000002c00008060003a
:10115000300798002e009000c200de00000023003f
:101160000080600040079800be0090004e00900094
:1011700000807000300798002e009000c600de004e
:10118000f00f20000080600040079800be00900033
:101190004e00900000807000300798002e009000f4
:1011a000ca00dd0000c02f000080600040079800ea
:1011b0001e007800500798005e009000e10f50007c
:1011c000160032005e009000e10f500004003c0069
:1011d0005e0090000000e0000500320025003700ae
:1011e0005e009000e20f500017003200210037002f
:1011f0003e0090001021880021218000f03f200057
:101200000080600020218800212180004e00900095
:101210000080700020218800200037003e009000f0
:1012200090208800a1208000f03f20000080600016
:10123000a0208800a12080004e0090000080700057
:10124000a0208800150037003e0090001020880084
:1012500021208000f03f20000080600020208800d6
:10126000212080004e009000008070002020880027
:101270000a0037003e0090001021880021218000e4
:10128000f03f2000008060002021880021218000a4
:101290004e00900000807000202188000080fa003d
:1012a00000000600809fbe00821f78000200fa0046
:1012b0008540a900900020008a10e300030032005e
:1012c0000000eb005084880021003700607c800023
:1012d000660040008c10e300030039000000eb00c2
:1012e000708488001a003700608480000000d000fd
:1012f00061f8200001004000100078008010880094
:10130000608480000000e800608488000000eb003a
:1013100070848800900020005084880030062000ef
:101320008c10e3000a0036000000eb0060848800a7
:10133000608480000000d00062f82000820040003d
:101340000000eb00800878000000eb00508488006b
:101350000080fa004f0178004f00be0000400600f8
:10136000809fbe000800fa000000eb00000f78002c
:101370000000eb00100798000040eb004047980089
:101380008520a9000ec2bf000080fb006100600044
:101390000000e0000200320090108000000f780092
:1013a0000ec2bf000080fb00610060000000e00092
:1013b0000200320091108000010f78000ec2bf00c1
:1013c0000080fb00610060000000e00002003200cd
:1013d00090108000000f78000ec2bf000080fb005c
:1013e000610060000000e000020032009110800007
:1013f000010f78000ec2bf000080fb00610060009a
:101400000000e0000200320090108000000f780021
:101410000ec2bf000080fb00610060000000e00021
:101420000200320091108000010f78000000eb00f4
:10143000708488000ec2bf000080fb000000d10055
:101440000080fb00610060000000e000010032004d
:101450000e22a9000ec2bf000080fb004200de0089
:101460000080fb00610060000000e000010032002d
:101470000e42a9000ec2bf000080fb004300de0048
:101480000080fb00610060000000e000010032000d
:101490000e62a900900020008a10e3006000320074
:1014a0000000eb0070848800100620008c10e30020
:1014b000020036000000eb006084880050fa2c0027
:1014c00010407800404798004e4090004300dd00f7
:1014d0004047980061fa2c004e4090001140700087
:1014e00040479800608480000000d00061f8200030
:1014f000010040001e0878006084800030079800da
:10150000be009000e18f5000150032003e009000b8
:101510000000e00007003200be009000e28f5000a3
:10152000190032003e009000e30f5000230032000b
:10153000260037004e4090000080fb00860fe3003d
:1015400004003a00608480000000e80060848800a5
:10155000330037000000eb00608488003000370063
:10156000e00f2000880fe30004003a006084800050
:101570000000e80060848800290037000000eb00cc
:101580006084880026003700300220008a0fe300c4
:1015900003003200400220008a0fe30004003a00fa
:1015a000608480000000e800608488001c00370030
:1015b0000000eb0060848800190037006084800020
:1015c0000000e8006084880015003700617c80001e
:1015d000110798002e409000654040000080fb00fd
:1015e000100798001e0090008c10e30003003a00e2
:1015f0008000200050848800090037001e00900001
:101600008c10e300030036000000eb0060848800cb
:1016100003003700608480000000e80060848800d8
:101620000080fa004f00be0000400600809fbe0010
:10163000821f78000000fa008720a900c08c80007b
:101640000000d00021092100010040001000e0004e
:1016500005003a000000eb00d08c88000000eb0091
:10166000b08c880018003700c08c80000000d000cb
:10167000220921000200400010007800d0108800ec
:10168000c08c80000000e800c08c88000000eb00e7
:10169000d08c880090002000b08c8800300620009c
:1016a0009811e300080036000000eb00c08c8800b1
:1016b000c08c80000000d000220921008200400080
:1016c0000000eb00800878000080fa004f017800ed
:1016d0004f00be0000400600809fbe00821f7800c1
:1016e0000a00fa000000eb00000f78000000eb0099
:1016f000100798008700a90018c2bf000080fb00f7
:10170000610060000000e00002003200e010800094
:10171000000f780018c2bf000080fb00610060006d
:101720000000e00002003200e1108000010f7800ac
:1017300018c2bf000080fb00610060000000e000f4
:1017400002003200e2108000020f780018c2bf00d1
:101750000080fb00610060000000e0000200320039
:10176000e0108000000f780018c2bf000080fb006e
:10177000610060000000e00002003200e110800023
:10178000010f780018c2bf000080fb0061006000fc
:101790000000e00002003200e2108000020f78003a
:1017a0000000eb00d08c880018c2bf000080fb0056
:1017b0000000d1000080fb00610060000000e0003c
:1017c000010032001822a90018c2bf000080fb00ef
:1017d0004200de000080fb00610060000000e000cd
:1017e000010032001842a90018c2bf000080fb00af
:1017f0004300de000080fb00610060000000e000ac
:10180000010032001862a900900020009611e30048
:10181000a80032000000eb00d08c880020062000d9
:101820009811e30004003e00c08c80000000e80036
:10183000c08c8800020037000000eb00c08c8800dc
:10184000c08c80000000d000210921000100400070
:101850001e087800b28c8000420798004e0090006d
:10186000e70f50008a003200ce009000e78f500052
:1018700007003e004e0190000200e0000b00320025
:101880004e009000e60f5000170032008500370030
:10189000ce009000ed8f5000250032004e019000e8
:1018a000ee0f5100420032007e0037006000200041
:1018b0009e0f100003003200510020009e8f100088
:1018c0007c003a0060002000b08c88001e01780087
:1018d000928488000000eb00c08c88001e00780015
:1018e000e08c880073003700e08c80001e00400010
:1018f000e08c8800310020009e8f10000300320031
:10190000420020009e0f11006a003a00c08c800047
:101910000000d00022092100820040000000eb00fe
:1019200080087800d0002000b08c8800610037006b
:10193000900320009e0f100004003e0000fd2f00c9
:101940001e004000200798000300370091fc2f0084
:101950009e804000210798002e019000020f780021
:10196000c08c80000000d0002209210082004000cd
:101970000000eb0080087800e18c8000000f200060
:10198000008060004400de00100798001e009000f8
:101990009e0f500003003a00e0002000b08c880049
:1019a000440037000000eb00b08c88004100370095
:1019b000900320009e0f100004003e0000fd2f0049
:1019c0001e004000300798000300370091fc2f00f4
:1019d0009e804000310798003e019000020f780081
:1019e000e08c80006f00600010079800c08c8000c1
:1019f0000000d00022092100820040000000eb001e
:101a0000800878000000eb00c08a88001e0090006b
:101a10009e0f50001b003a000000eb0010079800da
:101a20001e0090000000d0002109210001004000ac
:101a30001000e000100032001e009000fd0f50006a
:101a40000d003e001e0090000000d000a2152100f5
:101a5000820040001e0090000000d00022092100fa
:101a600002004000900878001e0090000000e8008e
:101a700010079800eaff370080002000b08c880033
:101a80000c0037000000eb00b08c88000900370024
:101a90000000eb00b08c88000000eb00c08c8800d8
:101aa000040037000000eb00b08c88000000eb0061
:101ab000c08c88000080fa004f0178004f00be0003
:101ac00000400600801f78000000fa0089c0bf00b7
:101ad0000080fb00610060000000e00001003200b7
:101ae0008900a9000080fa004f007800004006003d
:101af0000000fa00e842a900e842a900e842a90073
:101b0000e842a900e2e2a900e2e2a900e2e2a900bb
:101b1000e2e2a900e2e2a800e2e2a800e2e2a80014
:101b2000e2e2a800e2e2a800e2e2a800e2e2a80005
:101b3000e2e2a8000080fa00000006000200fa00bd
:101b4000000f780011042400013b88006427ef0097
:101b500000f0a100103b880061c7a80051052000db
:101b6000313b8800a10a2000313b880061e7a800d2
:101b70000000000000000000000000000000000065
:101b80000080fa00000006000400fa00000f780050
:101b90001107980013002400033b880000f0a10007
:101ba0003220ef008001eb003108bb000398bb003e
:101bb0003108bb000398bb003108bb000398bb0091
:101bc0003108bb000398bb003108bb000398bb0081
:101bd0003108bb000398bb003108bb000398bb0071
:101be0003108bb000398bb003108bb000398bb0061
:101bf0003108bb000398bb003108bb000398bb0051
:101c00003108bb000398bb003108bb000398bb0040
:101c10003108bb000398bb003108bb000398bb0030
:101c20003108bb000398bb003108bb000398bb0020
:101c30003108bb000398bb003108bb000398bb0010
:101c40003108bb000398bb003108bb000398bb0000
:101c50003108bb000398bb003108bb000398bb00f0
:101c60003108bb000398bb003108bb000398bb00e0
:101c70003108bb000398bb003108bb000398bb00d0
:101c80003108bb000398bb003108bb000398bb00c0
:101c90003108bb000398bb003108bb000398bb00b0
:101ca0003108bb000398bb0061c7a80051052000a4
:101cb000313b8800a10a2000313b880061e7a80081
:101cc0000000000000000000000000000000000014
:101cd0000080fa00000006000000fa000000eb009f
:101ce000200888005109200091407800f0c8b30016
:101cf00000c060000044a00095e0b7000000eb00c9
:101d00000008880000e823001008880005e1a8000a
:101d10008c60a8000080fa00000006000000fa00b5
:101d20009140a900013a8000f00f2c000080600073
:101d3000003a8800013a800000c021000080700055
:101d4000003a88008940a9009140a8000080fa006c
:101d5000000006000000fa0030032000a0108800f8
:101d60000000eb007010880081092000914078008d
:101d7000f0c8b30000c0600001c4b30001407000af
:101d800098e0b700910920009140780080cfb3001f
:101d900000c060000024a00099e0b700c12020002e
:101da0009140780090cfb30000c060000ce2b70013
:101db0000c02a9000ca2a9000cc2a9000ce2a90007
:101dc0000d42a9000da2a9000de2a8000f42a80033
:101dd0000fe2a8008540a9008520a9008d20a80059
:101de0008d40a8000080fa00000006000000fa0004
:101df00030032000f01088000000eb00c0108800c5
:101e0000010a20009140780080cfb30000c060003c
:101e10000024a000a0e0b700010a20009140780053
:101e2000f0c8b30000c0600001c4b30001407000fe
:101e3000a0e0b700612120009140780090cfb3006e
:101e400000c0600016e2b7001602a90016a2a900a1
:101e500016c2a90016e2a9001742a90017a2a900fc
:101e600017e2a8001942a80019e2a8008720a900db
:101e70008700a9008f00a8008f20a8000080fa002a
:101e8000000006003600f800809fbe00829fbe0062
:101e9000849fbe00869fbe000400fa0084c0bf007d
:101ea0000080fb004300de000080fb00610060005a
:101eb0000000e000a20232008460a9000000eb00f4
:101ec0000008880010032000440de30003003e00da
:101ed000206a80000000e800206a8800f078800016
:101ee0000000e800f0788800007980000000e80039
:101ef00000798800107980000000e80010798800df
:101f0000207980000000e800207988003079800086
:101f10000000e80030798800407980000000e80087
:101f200040798800507980000000e80050798800ee
:101f3000607980000000e800607988007079800096
:101f40000000e80070798800807980000000e800d7
:101f500080798800907980000000e80090798800fe
:101f6000a07980000000e800a0798800b0798000a6
:101f70000000e800b0798800c07980000000e80027
:101f8000c0798800d07980000000e800d07988000e
:101f9000e07980000000e800e0798800f0798000b6
:101fa0000000e800f0798800007a80000000e80076
:101fb000007a8800107a80000000e800107a88001b
:101fc000207a80000000e800207a8800307a8000c3
:101fd0000000e800307a8800407a80000000e800c5
:101fe000407a8800507a80000000e800507a88002b
:101ff000607a80000000e800607a8800707a8000d3
:102000000000e800707a8800807a80000000e80014
:10201000807a8800907a80000000e800907a88003a
:10202000a07a80000000e800a07a8800b07a8000e2
:102030000000e800b07a8800c07a80000000e80064
:10204000c07a8800d07a80000000e800d07a88004a
:10205000e07a80000000e800e07a8800707b800071
:102060000000e800707b8800807b80000000e800b2
:10207000807b8800907b80000000e800907b8800d7
:10208000a07b80000000e800a07b8800b07b80007f
:102090000000e800b07b8800c07b80000000e80002
:1020a000c07b8800d07b80000000e800d07b8800e7
:1020b000e07b80000000e800e07b8800f07a800090
:1020c0000000e800f07a8800007b80000000e80053
:1020d000007b8800107b80000000e800107b8800f7
:1020e000207b80000000e800207b8800307b80009f
:1020f0000000e800307b8800407b80000000e800a2
:10210000407b8800507b80000000e800507b880006
:10211000607b80000000e800607b8800c068800071
:102120000000e800c0688800d06880000000e80077
:10213000d0688800e06880000000e800e06888005f
:10214000f06880000000e800f06888000069800006
:102150000000e80000698800106980000000e800c5
:1021600010698800a09180000000e800a09188001c
:10217000609280000000e80060928800d08c8000af
:102180000000e800d08c8800300620008e10e300ac
:1021900003003e00708480000000e8007084880026
:1021a000aacdbf000080fb004500de000080fb00e0
:1021b000610060000000e00006003200900f200087
:1021c0003c0de30003003e00e06980000000e800f1
:1021d000e0698800e0002d001080fb000625020069
:1021e000010000000000e00006003200f0002d00b9
:1021f0001080fb0006250200010000000000e00046
:102200000b003a00f0342c007e0de30008003e0085
:10221000b2cdbf000080fb00610060000000e00064
:1022200003003200f06b80000000e800f06b8800d3
:1022300010e22400160ee30003003e00b0708000a0
:102240000000e800b0708800703e2000180ee30027
:1022500003003e00c07080000000e800c0708800ed
:10226000006a80000000e800006a88004006200044
:10227000400de300b20136000000eb00006a880068
:102280000000eb00000f7800dcc2bf000080fb0004
:102290004500de000080fb00610060000000e000ff
:1022a00002003a0011002000010f78009e407800e3
:1022b00061c060004501dd00c12d20009140780023
:1022c000f0cdb30000c0600002407000dce2b70057
:1022d000300620003a0ee30003003e00d07180007b
:1022e0000000e800d071880090ff2f00ee0de300a1
:1022f00003003e00706f80000000e800706f8800ef
:10230000e09280000000e800e0928800f275800012
:10231000037680001076800021768000800f5100c7
:10232000818f59000e003600f27580000376800020
:1023300010768000217680000000510081805900d5
:1023400030778800417788000000eb00306b880010
:10235000406b80000000e800406b880021003700df
:10236000f275800003768000107680002176800070
:10237000800f5100818f59000e00310012768000cd
:1023800023768000f0758000017680000000510007
:102390008180590030778800417788000000eb0089
:1023a000406b8800306b80000000e800306b8800d4
:1023b0000c0037001276800023768000f0758000d4
:1023c000017680000000510081805900307788003c
:1023d000417788000000eb00406b88000000eb00b4
:1023e000306b8800f07580000176800010768800e0
:1023f00021768800800c2000180ee3001b003600b8
:10240000c0878600d18786001077880021778800f2
:102410003177800010778000000ab80031778000a3
:10242000207780000088b900050178000001410094
:1024300011778000407780000088b90000014100da
:102440008202780054768800657688005076800095
:102450006176800002242400f30020008001020045
:10246000000000005076880061768800900f200000
:10247000dc0de30003003e00e06e80000000e80099
:10248000e06e8800900f2000da0de30003003e00ac
:10249000d06e80000000e800d06e8800300620007a
:1024a000ec0de30003003e00606f80000000e800d8
:1024b000606f880094cdbf000080fb004400de0008
:1024c0000080fb00610060000000e0000b003a00ab
:1024d0000000eb00006c88000000eb00106f88002b
:1024e000900f2000e00de30012003e00006f80001e
:1024f0000000e800006f88000e0037000000eb00cd
:10250000006f8800900f2000800de30003003e0064
:10251000006c80000000e800006c8800703821002a
:10252000e20de30003003e00106f80000000e800b1
:10253000106f8800accdbf000080fb004700de00bc
:102540000080fb000000e0000c003200900f200033
:102550005c0de30003003e00e06a80000000e8003c
:10256000e06a8800000f20005c0de30005003600e3
:10257000486e020000000000020037000000eb007f
:10258000e06a8800906980000000e8009069880097
:10259000906a80000000e800906a8800a06a8000cd
:1025a0000000e800a06a8800706a80000000e8006f
:1025b000706a8800d06980000000e800d069880057
:1025c000206c80000000e800206c8800d06b800048
:1025d0000000e800d06b8800b06980000000e800cf
:1025e000b0698800c06980000000e800c069880008
:1025f000d06a80000000e800d06a8800703e2000a9
:10260000900de30003003e00806c80000000e800b5
:10261000806c8800300620008a0de30003003e0035
:10262000506c80000000e800506c880030062000ec
:102630008c0de30003003e00606c80000000e800a9
:10264000606c880030062000500de30003003e005f
:10265000806a80000000e800806a88003006200060
:102660003812e30003003e00c09180000000e80043
:10267000c0918800300620003a12e30003003e00bb
:10268000d09180000000e800d091880030e9280057
:10269000de0de30003003e00f06e80000000e80065
:1026a000f06e8800100d20004a0de30003003e008c
:1026b000506a80000000e800506a8800900f2000f7
:1026c0002c0de30003003e00606980000000e8007c
:1026d00060698800900f20008e0de30003003e002b
:1026e000706c80000000e800706c8800a6cdbf0010
:1026f0000080fb004500de000080fb006100600000
:102700000000e0000d003200900f20002e0de300cd
:1027100003003e00706980000000e80070698800d6
:10272000900f2000300de30008003e00806980001b
:102730000000e80080698800040037000000eb001a
:10274000706988000000eb0080698800aecdbf0092
:102750000080fb004300de000080fb0061006000a1
:102760000000e00006003200900f20003e0de30064
:1027700003003e00f06980000000e800f069880076
:10278000106a80000000e800106a880090002000b5
:10279000420de300250036000000eb00106a8800bf
:1027a0008000eb0011079800accdbf000080fb005b
:1027b0004600de000080fb00610060000000e000d9
:1027c00002003a001000200010079800ae40900070
:1027d00061c060004601dd00c1da20009140780050
:1027e000f0cbb30000c0600002407000acedb70059
:1027f000306a80000000e800306a8800d00f2000b6
:10280000340de30003003e00a06980000000e800f2
:10281000a0698800e00f20004c0de30003003e009b
:10282000606a80000000e800606a8800e06b800059
:102830000000e800e06b8800702520007c0de300bc
:102840001c0036000000eb00e06b8800306c80005c
:102850000000e800306c8800506b80000000e80049
:10286000506b8800b00320006a0de3000b003600b7
:102870000000eb00506b880090ff2f006c0de30010
:1028800004003e00606b80000000e800606b880080
:10289000020037000000eb00606b8800702520000c
:1028a000f00de30003003e00806f80000000e800b0
:1028b000806f8800a2cdbf000080fb004600de00d4
:1028c0000080fb00610060000000e00007003200b3
:1028d00030062000480de30006003e00406a8000fc
:1028e0000000e800406a8800020037000000eb00aa
:1028f000406a8800a6cdbf000080fb004300de00d8
:102900000080fb00610060000000e0000a0032006f
:10291000400020005609e30007003a00b003200001
:10292000560de30006003e00b06a80000000e8009b
:10293000b06a8800020037000000eb00b06a88002f
:102940000080fa004f03be004f02be004f01be00e0
:102950004f00be003600f900004006000000fa00fb
:102960008020a9000000fe000080fa000040060060
:102970000000fa008060a9000000fe000080fa005c
:10298000004006000000fa008040a9000000fe00a0
:102990000080fa00004006000000fa008080a900d4
:1029a0000000fe000080fa00004006000200fa006d
:1029b000486e020000000000486e020000000000a7
:1029c000b0f92c001080fb0063006000e10f5000a4
:1029d00024003a00a4cdbf000080fb004400de00cc
:1029e0000080fb00610060000000e0001d003a0074
:1029f00090488000000f78009e0078002010200092
:102a0000f07c0200010000000000e000faff3a0044
:102a1000f075800001768000000f78009e0078003d
:102a2000e00f2000f07c0200010000000000e00048
:102a3000faff3a00f0758000017680004008de0061
:102a400001002000000f78009e0078000010200098
:102a5000f07c0200010000000000e000faff3a00f4
:102a6000a48da800a0002000906b880090778000c3
:102a7000a1778000e00f5000e08f5800080032007e
:102a800090778000a177800061005000e0805800be
:102a900090778800a1778800bc57020000000000f2
:102aa000400620004a0de3000d003600816b8000d7
:102ab000a0102000f07c0200010000000000e000f7
:102ac000faff3a0000000000616b800060102000f7
:102ad000f07c0200010000000000e000faff3a0074
:102ae0000080fa00000006003600f800809fbe005b
:102af000829fbe00849fbe00869fbe000000fa0039
:102b0000aaff07008940a9000000fe000080fa002b
:102b10004f03be004f02be004f01be004f00be007b
:102b20003600f900004006003600f800809fbe0025
:102b3000829fbe00849fbe00869fbe000000fa00f8
:102b40009aff07000000fe000080fa004f03be005d
:102b50004f02be004f01be004f00be003600f9001c
:102b6000004006003600f800809fbe00829fbe0035
:102b7000849fbe00869fbe000000fa0096c3bf007f
:102b80000080fb00610060000000e000a201320054
:102b900000560200010000000000eb00b091880028
:102ba000100020004012e30060013a003c12e200f5
:102bb0002a003a00100020001c0ee30003003a0037
:102bc00060042000a09188008e01370020002000c2
:102bd0001c0ee30003003a00c0032000a09188000f
:102be00088013700300020001c0ee30003003a008b
:102bf00020032000a09188008201370040002000bf
:102c00001c0ee30003003a0080022000a09188001f
:102c10007c013700500020001c0ee30003003a0046
:102c2000e0012000a09188007601370060002000bc
:102c30001c0ee30003003a0040012000a091880030
:102c400070013700700020001c0ee3006d013a0097
:102c5000a0002000a09188006a0137001000200029
:102c60003c12e30029003a00200020001c0ee30083
:102c700003003a0060042000a09188006101370041
:102c8000300020001c0ee30003003a00c0032000c7
:102c9000a09188005b013700400020001c0ee3007b
:102ca00003003a0020032000a0918800550137005e
:102cb000500020001c0ee30003003a0080022000b8
:102cc000a09188004f013700600020001c0ee30037
:102cd00003003a00e0012000a0918800490137007c
:102ce000700020001c0ee30003003a0040012000a9
:102cf000a0918800430137001c0ee20041013a0018
:102d0000a0002000a09188003e0137002000200094
:102d10003c12e30029003a00300020001c0ee300c2
:102d200003003a0060042000a091880035013700bc
:102d3000400020001c0ee30003003a00c003200006
:102d4000a09188002f013700500020001c0ee300e6
:102d500003003a0020032000a091880029013700d9
:102d6000600020001c0ee30003003a0080022000f7
:102d7000a091880023013700700020001c0ee300a2
:102d800003003a00e0012000a09188001d013700f7
:102d90001c0ee20003003a0040012000a0918800d0
:102da00018013700100020001c0ee30015013a0046
:102db000a0002000a0918800120137003000200000
:102dc0003c12e30029003a00400020001c0ee30002
:102dd00003003a0060042000a09188000901370038
:102de000500020001c0ee30003003a00c003200046
:102df000a091880003013700600020001c0ee30052
:102e000003003a0020032000a0918800fd00370055
:102e1000700020001c0ee30003003a008002200036
:102e2000a0918800f70037001c0ee20003003a0072
:102e3000e0012000a0918800f2003700100020007f
:102e40001c0ee30003003a0040012000a09188001e
:102e5000ec003700200020001c0ee300e9003a00df
:102e6000a0002000a0918800e6003700400020006c
:102e70003c12e30029003a00500020001c0ee30041
:102e800003003a0060042000a0918800dd003700b4
:102e9000600020001c0ee30003003a00c003200085
:102ea000a0918800d7003700700020001c0ee300be
:102eb00003003a0020032000a0918800d1003700d1
:102ec0001c0ee20003003a0080022000a09188005e
:102ed000cc003700100020001c0ee30003003a0075
:102ee000e0012000a0918800c600370020002000eb
:102ef0001c0ee30003003a0040012000a09188006e
:102f0000c0003700300020001c0ee300bd003a0076
:102f1000a0002000a0918800ba00370050002000d7
:102f20003c12e30029003a00600020001c0ee30080
:102f300003003a0060042000a0918800b10037002f
:102f4000700020001c0ee30003003a00c0032000c4
:102f5000a0918800ab0037001c0ee20003003a008d
:102f600020032000a0918800a60037001000200058
:102f70001c0ee30003003a0080022000a0918800ac
:102f8000a0003700200020001c0ee30003003a00e0
:102f9000e0012000a09188009a0037003000200056
:102fa0001c0ee30003003a0040012000a0918800bd
:102fb00094003700400020001c0ee30091003a000e
:102fc000a0002000a09188008e0037006000200043
:102fd0003c12e30029003a00700020001c0ee300c0
:102fe00003003a0060042000a091880085003700ab
:102ff0001c0ee20003003a00c0032000a0918800ec
:1030000080003700100020001c0ee30003003a008f
:1030100020032000a09188007a00370020002000c3
:103020001c0ee30003003a0080022000a0918800fb
:1030300074003700300020001c0ee30003003a004b
:10304000e0012000a09188006e00370040002000c1
:103050001c0ee30003003a0040012000a09188000c
:1030600068003700500020001c0ee30065003a00a5
:10307000a0002000a09188006200370070002000ae
:103080003c12e3005f003a001c0ee20003003a002d
:1030900060042000a09188005a0037001000200032
:1030a0001c0ee30003003a00c0032000a09188003a
:1030b00054003700200020001c0ee30003003a00fb
:1030c00020032000a09188004e003700300020002f
:1030d0001c0ee30003003a0080022000a09188004b
:1030e00048003700400020001c0ee30003003a00b7
:1030f000e0012000a091880042003700500020002d
:103100001c0ee30003003a0040012000a09188005b
:103110003c003700600020001c0ee30039003a003c
:10312000a0002000a0918800360037002000200079
:103130004012e30033003a00e00f20003e12e300ab
:1031400006003a00e09180001c0ee3002d003a00da
:1031500098550200010000002a003700e09180002d
:103160001c0ee30017003a00f091800001082000d7
:10317000010060000000e0000f003200a008200005
:103180003e12e30003003a007c51020001000000ff
:1031900013003700b00820003e12e30003003a009d
:1031a000a8510200010000000d003700ba510200d2
:1031b000010000000a003700d653020001000000a1
:1031c00007003700f0918000010820000100600036
:1031d0000000e00002003a009650020001000000ea
:1031e000f09180008609e30006003a00e09180003b
:1031f0001c0ee30003003a00209280000000e8006b
:10320000209288009603a9008ee3a9000000eb003d
:10321000109288000d0037009183a8009623a90022
:103220007ee3a90096c3a9000000eb00b01c880053
:1032300096a3a90090ff2f004212e30003003e0076
:10324000109280000000e800109288008760a900ba
:103250000080fa004f03be004f02be004f01be00c7
:103260004f00be003600f900004006003600f800ae
:10327000809fbe00829fbe00849fbe00869fbe00ce
:103280000000fa0056c4bf000080fb00610060002f
:103290000000e00033003200446d02000100000035
:1032a00031228000f00f2000008060002091880013
:1032b00030228000c800de00f00f20000080600097
:1032c0003091880041228000f00f200000806000d3
:1032d0004091880040228000c800de00f00f2000ee
:1032e000008060005091880051228000f00f200083
:1032f000008060006091880050228000c800de00dd
:10330000f00f200000806000709188006122800032
:10331000f00f200000806000809188006022800013
:10332000c800de00f00f200000806000909188004f
:103330000000eb00609288000000eb0070928800b3
:103340001000200050928800f00520006092880054
:103350005604a9004ee4a9000000eb00e0928800aa
:10336000070037005184a8005624a9003ee4a900b4
:1033700056c4a9000000eb00b022880056a4a900a2
:1033800088c0a9005604a9004ee4a9000080fa00f4
:103390004f03be004f02be004f01be004f00be00f3
:1033a0003600f900004006000400fa00000f780023
:1033b000f00f20009e006000209380000100680054
:1033c000209388000000eb00100798001e0090007a
:1033d000e70f500011003e00209380006100600064
:1033e0000000e00006003200209380008000d10041
:1033f00010002a0000806800209388000300370036
:10340000209380000000d100209388001e009000cf
:103410000000e80010079800ecff37000080fa0079
:0434200000000600a2
:020000040000fa
:0200000401f009
:0400000006c3000033
:020000040000fa
:0200000401f009
:040004002080000058
:020000040000fa
:0200000401f009
:04000800b3870000ba
:020000040000fa
:0200000401f009
:0400140007000000e1
:020000040000fa
:1000080094150000ae140000b8140000c2140000db
:10001800cc140000941500009415000094150000fd
:10002800941500009415000094150000420f00007c
:100038009415000094150000941500009415000014
:1000480094150000b0090000520900009415000042
:1000580094150000941500009415000094150000f4
:1000680094150000941500009415000094150000e4
:1000780094150000941500009415000094150000d4
:100088006c0b0000160b000094150000b215000060
:1000980094150000941500009415000094150000b4
:1000a80094150000941500009415000094150000a4
:1000b80094150000941500003619000094150000ee
:1000c800620d0000941500007415000094150000de
:1000d8009415000094150000941500009415000074
:1000e8009415000094150000941500009415000064
:0800f8009415000094150000ae
:020000040000fa
:1001080094150000ae140000b8140000c2140000da
:10011800cc140000941500009415000094150000fc
:10012800941500009415000094150000420f00007b
:100138009415000094150000941500009415000013
:1001480094150000b0090000520900009415000041
:1001580094150000941500009415000094150000f3
:1001680094150000941500009415000094150000e3
:1001780094150000941500009415000094150000d3
:100188006c0b0000160b000094150000b21500005f
:1001980094150000941500009415000094150000b3
:1001a80094150000941500009415000094150000a3
:1001b80094150000941500003619000094150000ed
:1001c800620d0000941500007415000094150000dd
:1001d8009415000094150000941500009415000073
:1001e8009415000094150000941500009415000063
:0801f8009415000094150000ad
:020000040000fa
:103424003030000030000000203000003100000087
:103434002030000032000000203000003300000083
:10344400203000003400000020300000350000006f
:10345400203000003600000020300000370000005b
:103464002030000038000000203000003900000047
:103474002031000030000000203100003100000045
:103484002031000032000000203100003300000031
:10349400203100003400000020310000350000001d
:1034a4002031000036000000203100003700000009
:1034b40020310000380000002031000039000000f5
:1034c40020320000300000002032000031000000f3
:1034d40020320000320000002032000033000000df
:1034e40020320000340000002032000035000000cb
:1034f40020320000360000002032000037000000b7
:1035040020320000380000002032000039000000a2
:1035140020330000300000002033000031000000a0
:103524002033000032000000415600004f0000002c
:10353400425600004f000000435600004f000000b8
:10354400445600004f0000004143000031000000d9
:1035540041430000320000004143000033000000fa
:1035640041430000340000004243000031000000e9
:1035740042430000320000004243000033000000d8
:1035840042430000340000004343000031000000c7
:1035940043430000320000004343000033000000b6
:1035a40043430000340000004443000031000000a5
:1035b4004443000032000000444300003300000094
:1035c4004443000034000000415800004f00000054
:1035d4004158000031000000425800004f00000034
:1035e4004258000031000000435800004f00000022
:1035f4004358000031000000445800004f00000010
:103604004458000031000000415f00004d000000fc
:10361400424d000031000000424d00003200000025
:10362400434d000031000000434d00003200000013
:10363400444d000031000000444d00003200000001
:10364400414c000044000000424c000044000000d3
:10365400434c000044000000444c000044000000bf
:1036640041500000430000004250000043000000ad
:103674004350000043000000445000004300000099
:10368400464c00003a3000003020000020200000aa
:103694002020000020200000202000002020000026
:1036a4000055000053450000523a000056650000e2
:1036b40072730000696f00006e200000202000007b
:1036c4002000000055530000455200003a4200001b
:1036d4006f61000072640000496400002020000053
:1036e400202000000055000053450000523a00001d
:1036f4005061000073730000776100007264000081
:103704002020000020000000555300004552000016
:103714003a55000073650000724c0000616d0000b2
:1037240070310000202000000055000053450000c7
:10373400523a000055730000657200004c610000ad
:103744006d7000003220000020000000555300007e
:10375400455200003a5300006572000069610000a0
:103764006c4e00006d200000202000000055000079
:1037740053450000523a00004e6f0000726d000085
:10378400616c000020440000737000002000000001
:1037940055530000455200003a440000726900008d
:1037a400766500004d650000746800006f640000d9
:1037b4000055000053450000523a000046680000de
:1037c4006d200000527500006e20000020200000d3
:1037d4002000000055530000455200003a530000f9
:1037e400756200004d6500006e750000204f0000fa
:1037f4006e2000000055000053450000523a0000be
:10380400456e0000676900006e6500006572000087
:10381400204e00006d00000055530000455200008a
:103824003a54000074200000557300006520000025
:10383400546900006d650000005500005345000008
:10384400523a0000496e00006974000020440000f0
:103854006174000061200000200000005553000046
:10386400455200003a470000726f00007570000076
:10387400204e00006d2000002020000000550000b4
:1038840053450000523a00004c6f00006361000091
:103894006c2000004e6d000020200000200000007d
:1038a40055530000455200003a4900006e7600006e
:1038b400204900006e4200006420000054700000a3
:1038c4000055000053450000523a000043610000d7
:1038d4006c6c0000286300002d6600002d6600005b
:1038e4002900000055530000455200003a680000ca
:1038f400682d00006d6d00002d7300007320000022
:10390400202000000055000053450000523a0000fa
:10391400797900002d6d00006d2d000064640000b5
:1039240020200000200000005553000045520000f4
:103934003a4500007272000053740000436e0000a8
:1039440074200000202000000055000053450000b2
:10395400523a0000436f00006d700000616e000079
:1039640079200000202000002000000055530000b2
:10397400455200003a4f0000757400004461000095
:103984007465000020200000202000000055000085
:1039940053450000523a0000557300006572000060
:1039a4004c6100006d700000332000002000000016
:1039b40055530000455200003a550000736500005d
:1039c400724c0000616d0000703400002020000083
:1039d4000055000053450000523a0000432d0000fa
:1039e4004b2d0000482d00004f2d0000422d0000fb
:1039f4005200000055530000455200003a550000a3
:103a040073650000723400002020000020200000b4
:103a1400202000000055000053450000523a0000e9
:103a2400557300006572000035200000202000005e
:103a340020200000200000005553000045520000e3
:103a44003a55000073650000723600002020000023
:103a540020200000202000000055000053450000f5
:103a6400523a0000557300006572000037200000d0
:103a740020200000202000002000000055530000fa
:103a8400455200003a55000073650000723800008a
:103a9400202000002020000020200000005500000d
:103aa40053450000523a000041690000726300006f
:103ab4006f6e00002041000064640000720000008a
:103ac40055530000455200003a2000005374000092
:103ad4006f70000020500000756c000073650000da
:103ae40000440000535000003a4600006c6f000090
:103af4006f72000030310000202000002020000000
:103b04002000000044530000503a0000466c0000be
:103b14006f6f00007230000032200000202000008f
:103b24002020000000440000535000003a460000ea
:103b34006c6f00006f720000303300002020000022
:103b4400202000002000000044530000503a0000f0
:103b5400466c00006f6f00007230000034200000db
:103b640020200000202000000044000053500000ea
:103b74003a4600006c6f00006f72000030350000a0
:103b840020200000202000002000000044530000fa
:103b9400503a0000466c00006f6f00007230000065
:103ba40036200000202000002020000000440000f7
:103bb400535000003a4600006c6f00006f72000022
:103bc40030370000202000002020000020000000ea
:103bd40044530000503a0000466c00006f6f000030
:103be4007230000038200000202000002020000057
:103bf40000440000535000003a4600006c6f00007f
:103c04006f720000303900002020000020200000e6
:103c14002000000044530000503a0000466c0000ad
:103c24006f6f00007231000030200000202000007f
:103c34002020000000440000535000003a460000d9
:103c44006c6f00006f720000313100002020000012
:103c5400202000002000000044530000503a0000df
:103c6400466c00006f6f00007231000032200000cb
:103c740020200000202000000044000053500000d9
:103c84003a4600006c6f00006f7200003133000090
:103c940020200000202000002000000044530000e9
:103ca400503a0000466c00006f6f00007231000053
:103cb40034200000202000002020000000440000e8
:103cc400535000003a4600006c6f00006f72000011
:103cd40031350000202000002020000020000000da
:103ce40044530000503a0000466c00006f6f00001f
:103cf4007231000036200000202000002020000047
:103d040000440000535000003a4600006c6f00006d
:103d14006f720000313700002020000020200000d6
:103d24002000000044530000503a0000466c00009c
:103d34006f6f000072310000382000002020000066
:103d44002020000000440000535000003a460000c8
:103d54006c6f00006f7200003139000020200000f9
:103d6400202000002000000044530000503a0000ce
:103d7400466c00006f6f00007232000030200000bb
:103d840020200000202000000044000053500000c8
:103d94003a4600006c6f00006f7200003231000080
:103da40020200000202000002000000044530000d8
:103db400503a0000466c00006f6f00007232000041
:103dc40032200000202000002020000000440000d9
:103dd400535000003a4600006c6f00006f72000000
:103de40032330000202000002020000020000000ca
:103df40044530000503a0000466c00006f6f00000e
:103e04007232000034200000202000002020000036
:103e140000440000535000003a4600006c6f00005c
:103e24006f720000323500002020000020200000c6
:103e34002000000044530000503a0000466c00008b
:103e44006f6f000072320000362000002020000056
:103e54002020000000440000535000003a460000b7
:103e64006c6f00006f7200003237000020200000e9
:103e7400202000002000000044530000503a0000bd
:103e8400466c00006f6f00007232000038200000a2
:103e940020200000202000000044000053500000b7
:103ea4003a4600006c6f00006f7200003239000067
:103eb40020200000202000002000000044530000c7
:103ec400503a0000466c00006f6f0000723300002f
:103ed40030200000202000002020000000440000ca
:103ee400535000003a4600006c6f00006f720000ef
:103ef40033310000202000002020000020000000ba
:103f040044530000503a0000466c00006f6f0000fc
:103f14007233000032200000202000002020000026
:103f2400004600004c5200003a5400006f7000003c
:103f3400466c0000722000002020000020200000b9
:103f440020000000464c0000523a0000507200006d
:103f54006b4600006c72000020200000202000004e
:103f640020200000004600004c5200003a4e0000a1
:103f74006f55000073650000204700006f200000ab
:103f8400466c000072000000464c0000523a0000eb
:103f94004669000072650000536100006665000018
:103fa400204600006c720000004600004c520000e5
:103fb4003a58000037200000536100006665000095
:103fc40020200000466c000072000000464c0000f7
:103fd400523a0000576100007465000072530000fb
:103fe40061660000654600006c7200000046000037
:103ff4004c5200003a5300007461000072740000d7
:10400400204600006c720000202000002000000008
:10401400464c0000523a00004f6e00006553000009
:10402400746f000070200000466c000072200000d5
:10403400004600004c5200003a4b00006964000046
:10404400732000004b65000079200000436e0000df
:1040540074000000464c0000523a0000583600003c
:104064002053000061660000652000002046000027
:104074006c720000004600004c5200003a580000e8
:104084003520000053610000666500002020000018
:10409400466c000072000000464c0000523a0000da
:1040a4004e63000032310000466c000072200000b4
:1040b4002020000020200000004600004c52000098
:1040c4003a4e000063320000304600006c7200007b
:1040d400202000002020000020000000464c0000aa
:1040e400523a00004e63000031390000466c000073
:1040f4007220000020200000202000000046000064
:104104004c5200003a4e0000633100003846000073
:104114006c7200002020000020200000200000001d
:10412400464c0000523a00004e6300003137000054
:10413400466c0000722000002020000020200000b7
:10414400004600004c5200003a4e0000633100006b
:10415400364600006c720000202000002020000081
:1041640020000000464c0000523a00004e6300005c
:1041740031350000466c0000722000002020000051
:1041840020200000004600004c5200003a4e00007f
:1041940063310000344600006c72000020200000ef
:1041a4002020000020000000464c0000523a00008d
:1041b4004e63000031330000466c000072200000a2
:1041c4002020000020200000004600004c52000087
:1041d4003a4e000063310000324600006c72000069
:1041e400202000002020000020000000464c000099
:1041f400523a00004e63000031310000466c00006a
:104204007220000020200000202000000046000052
:104214004c5200003a4e000063310000304600006a
:104224006c7200002020000020200000200000000c
:10423400464c0000523a00004e6300003039000042
:10424400466c0000722000002020000020200000a6
:10425400004600004c5200003a4e0000633000005b
:10426400384600006c72000020200000202000006e
:1042740020000000464c0000523a00004e6300004b
:1042840030370000466c000072200000202000003f
:1042940020200000004600004c5200003a4e00006e
:1042a40063300000364600006c72000020200000dd
:1042b4002020000020000000464c0000523a00007c
:1042c4004e63000030350000466c00007220000090
:1042d4002020000020200000004600004c52000076
:1042e4003a4e000063300000344600006c72000057
:1042f400202000002020000020000000464c000088
:10430400523a00004e63000030330000466c000057
:104314007220000020200000202000000046000041
:104324004c5200003a4e0000633000003246000058
:104334006c720000202000002020000020000000fb
:10434400464c0000523a00004e6300003031000039
:10435400466c000072200000202000002020000095
:10436400005400004d5200003a4f0000702000003d
:10437400576100006974000020540000696d00005a
:1043840065000000544d0000523a00004f700000d8
:10439400205400006f740000616c00002054000081
:1043a4006d200000005400004d5200003a4e000001
:1043b4006f20000055730000652000005469000060
:1043c4006d65000020000000544d0000523a0000ca
:1043d4004e65000078740000466c000072200000f6
:1043e400546900006d650000005400004d52000047
:1043f4003a4c0000754c0000644f000066660000f3
:1044040020540000696d000065000000544d000058
:10441400523a0000466100006e2000004f66000022
:1044240066200000546900006d650000005400001f
:104434004d5200003a4c000069740000204f000007
:104444006666000020540000696d000065000000ed
:10445400544d0000523a00004f700000436c0000bd
:104464005761000069740000546900006d65000024
:10447400005400004d5200003a440000724a00000b
:104484006d700000436800006b540000696d00000b
:1044940065000000544d0000523a000044690000d9
:1044a400722000005365000074200000546900006d
:1044b4006d650000005400004d5200003a560000a3
:1044c4006f69000063650000204f00006e54000017
:1044d400696d000065000000544d0000523a000070
:1044e400427200006b2000004d6700007420000041
:1044f400546900006d650000005400004d52000036
:104504003a520000654f0000706500006e20000004
:1045140020540000696d000065000000544d000047
:10452400523a000050340000202000004f6e00007a
:1045340020200000546900006d6500000054000054
:104544004d5200003a5500002f440000204f000057
:104554006e20000020540000696d0000650000001a
:10456400544d0000523a0000426b0000322000001b
:104574004f6e000020200000546900006d650000ab
:10458400005400004d5200003a4200006b3100001c
:10459400204f00006e20000020540000696d0000d0
:1045a40065000000544d0000523a000052750000ae
:1045b4006e2000004f6e00002020000054690000af
:1045c4006d650000005400004d5200003a52000096
:1045d400756e0000204f0000666600002054000045
:1045e400696d000065000000544d0000523a00005f
:1045f400426b0000312000004f660000662000007e
:10460400546900006d650000005400004d52000024
:104614003a4200006b320000204f00006666000042
:1046240020540000696d000065000000544d000036
:10463400523a0000552f0000442000004f6600004d
:1046440066200000546900006d65000000540000fd
:104654004d5200003a50000034200000204f00006a
:104664006666000020540000696d000065000000cb
:10467400544d0000523a0000536f00006c200000bb
:104684004f6e000020200000546900006d6500009a
:10469400005400004d5200003a4400006f6f0000c7
:1046a400722000005374000020540000696d000063
:1046b40065000000544d0000523a0000537400009d
:1046c4006f700000392000002020000054690000b1
:1046d4006d650000005400004d5200003a53000084
:1046e400746f00007031000030200000205400007e
:1046f400696d000065000000544d0000523a00004e
:10470400537400006f70000031310000202000005d
:10471400546900006d650000005400004d52000013
:104724003a530000746f0000703100003220000022
:1047340020540000696d000065000000544d000025
:10474400523a0000537400006f70000031330000cf
:1047540020200000546900006d6500000054000032
:104764004d5200003a530000746f00007031000095
:104774003420000020540000696d00006500000032
:10478400544d0000523a0000537400006f70000052
:104794003135000020200000546900006d650000e0
:1047a400004f00004e4f000046460000313a000022
:1047b400466c00006f6f0000723000003120000072
:1047c400200000004f4e00004f460000463100001c
:1047d4003a4600006c6f00006f7200003032000037
:1047e40020200000004f00004e4f0000464600000d
:1047f400313a0000466c00006f6f00007230000018
:1048040033200000200000004f4e00004f460000ff
:10481400463100003a4600006c6f00006f720000e1
:104824003034000020200000004f00004e4f0000f4
:1048340046460000313a0000466c00006f6f0000ed
:104844007230000035200000200000004f4e0000b0
:104854004f460000463100003a4600006c6f0000ed
:104864006f7200003036000020200000004f00006e
:104874004e4f000046460000313a0000466c0000ee
:104884006f6f00007230000037200000200000002d
:104894004f4e00004f460000463100003a460000eb
:1048a4006c6f00006f7200003038000020200000a0
:1048b400004f00004e4f000046460000313a000011
:1048c400466c00006f6f0000723000003920000059
:1048d400200000004f4e00004f460000463100000b
:1048e4003a4600006c6f00006f7200003130000027
:1048f40020200000004f00004e4f000046460000fc
:10490400313a0000466c00006f6f00007231000005
:1049140031200000200000004f4e00004f460000f0
:10492400463100003a4600006c6f00006f720000d0
:104934003132000020200000004f00004e4f0000e4
:1049440046460000313a0000466c00006f6f0000dc
:104954007231000033200000200000004f4e0000a0
:104964004f460000463100003a4600006c6f0000dc
:104974006f7200003134000020200000004f00005e
:104984004e4f000046460000313a0000466c0000dd
:104994006f6f00007231000035200000200000001d
:1049a4004f4e00004f460000463100003a460000da
:1049b4006c6f00006f720000313600002020000090
:1049c400004f00004e4f000046460000313a000000
:1049d400466c00006f6f0000723100003720000049
:1049e400200000004f4e00004f46000046310000fa
:1049f4003a4600006c6f00006f720000313800000e
:104a040020200000004f00004e4f000046460000ea
:104a1400313a0000466c00006f6f000072310000f4
:104a240039200000200000004f4e00004f460000d7
:104a3400463100003a4600006c6f00006f720000bf
:104a44003230000020200000004f00004e4f0000d4
:104a540046460000313a0000466c00006f6f0000cb
:104a64007232000031200000200000004f4e000090
:104a74004f460000463100003a4600006c6f0000cb
:104a84006f7200003232000020200000004f00004e
:104a94004e4f000046460000313a0000466c0000cc
:104aa4006f6f00007232000033200000200000000d
:104ab4004f4e00004f460000463100003a460000c9
:104ac4006c6f00006f720000323400002020000080
:104ad400004f00004e4f000046460000313a0000ef
:104ae400466c00006f6f0000723200003520000039
:104af400200000004f4e00004f46000046310000e9
:104b04003a4600006c6f00006f72000032360000fd
:104b140020200000004f00004e4f000046460000d9
:104b2400313a0000466c00006f6f000072320000e2
:104b340037200000200000004f4e00004f460000c8
:104b4400463100003a4600006c6f00006f720000ae
:104b54003238000020200000004f00004e4f0000bb
:104b640046460000313a0000466c00006f6f0000ba
:104b74007232000039200000200000004f4e000077
:104b84004f460000463100003a4600006c6f0000ba
:104b94006f7200003330000020200000004f00003e
:104ba4004e4f000046460000313a0000466c0000bb
:104bb4006f6f0000723300003120000020000000fd
:104bc4004f4e00004f460000463100003a460000b8
:104bd4006c6f00006f720000333200002020000070
:104be400004f00004e4f000046460000323a0000dd
:104bf400464800004d200000436800006b20000080
:104c0400200000004f4e00004f46000046320000d6
:104c14003a440000724a00006d70000043680000ce
:104c24006b200000004f00004e4f0000464600007d
:104c3400323a0000456e0000636f000064650000b6
:104c440072500000680000004f4e00004f46000004
:104c5400463200003a5700006172000064500000c0
:104c6400726900006f720000004f00004e4f000098
:104c740046460000323a00004e6f00006e530000ba
:104c8400746f000070200000200000004f4e0000f0
:104c94004f460000463200003a4f000070650000a5
:104ca4006e5400006f740000616c0000004f00003f
:104cb4004e4f000046460000323a000057610000a3
:104cc40069740000546f0000746100006c000000ff
:104cd4004f4e00004f460000463200003a430000a9
:104ce4006c6f0000735400006f740000616c00006e
:104cf400004f00004e4f000046460000323a0000cc
:104d0400435f00004472000031200000436800004b
:104d14006b0000004f4e00004f460000463200007a
:104d24003a4300005f440000723200002043000058
:104d3400686b0000004f00004e4f00004646000024
:104d4400323a0000485f0000447200003120000045
:104d5400436800006b0000004f4e00004f46000007
:104d6400463200003a4800005f44000072320000fe
:104d740020430000686b0000004f00004e4f00000d
:104d840046460000323a0000535f000053660000bc
:104d940074200000436800006b0000004f4e0000c8
:104da4004f460000463200003a4d00006774000090
:104db4004d6f00006e430000686b0000004f000060
:104dc4004e4f000046460000323a0000456e000097
:104dd400636f000064200000436800006b00000063
:104de4004f4e00004f460000463200003a52000089
:104df400656c00006576000065430000686b000088
:104e0400004f00004e4f000046460000323a0000ba
:104e14004f6900006c4c00006f7000006554000086
:104e2400790000004f4e00004f460000463200005b
:104e34003a31000020430000616c00006c43000024
:104e4400686b0000004f00004e4f00004646000013
:104e5400323a00004d6100006e530000757300008b
:104e6400436800006b0000004f4e00004f460000f6
:104e7400463200003a420000726b00004d6f0000a1
:104e84006e430000686b0000004f00004e4f0000ae
:104e940046460000323a00004b690000644b0000b3
:104ea40065790000436c0000720000004f4e000062
:104eb4004f460000463200003a4600005f430000bf
:104ec400617200004b65000079200000004f000073
:104ed4004e4f000046460000323a0000536900007d
:104ee4006e6700006c650000436100007200000002
:104ef4004f4e00004f460000463200003a4f00007b
:104f0400704f0000757400005365000074200000a9
:104f1400004f00004e4f000046460000323a0000a9
:104f240053660000745500007365000020520000b1
:104f34004c0000004f4e00004f4600004632000077
:104f44003a4600006c6f00006f72000020530000ae
:104f5400656c0000004f00004e4f00004646000004
:104f6400323a0000527500006e6e0000696e000057
:104f7400674f0000700000004f4e00004f460000d5
:104f8400463200003a4e00006f74000020550000c5
:104f94007365000020200000004f00004e4f000009
:104fa40046460000323a00004e6f000074200000b4
:104fb4005573000065200000200000004f4e0000e3
:104fc4004f460000463200003a4e00006f74000065
:104fd400205500007365000020200000004f0000f1
:104fe4004e4f000046460000323a00004e6f00006b
:104ff40074200000557300006520000020000000ac
:105004004f4e00004f460000463200003a57000061
:105014006f7200006b2000004d6f0000646500009b
:10502400004400004f4f0000522d0000533a00008e
:10503400466c00006f6f00007230000031200000e9
:1050440020000000444f00004f5200002d53000088
:105054003a4600006c6f00006f72000030320000ae
:1050640020200000004400004f4f0000522d00009b
:10507400533a0000466c00006f6f0000723000006d
:105084003320000020000000444f00004f52000075
:105094002d5300003a4600006c6f00006f72000050
:1050a4003034000020200000004400004f4f000076
:1050b400522d0000533a0000466c00006f6f000050
:1050c400723000003520000020000000444f000032
:1050d4004f5200002d5300003a4600006c6f000050
:1050e4006f720000303600002020000000440000f1
:1050f4004f4f0000522d0000533a0000466c000050
:105104006f6f0000723000003720000020000000a4
:10511400444f00004f5200002d5300003a46000057
:105124006c6f00006f720000303800002020000017
:10513400004400004f4f0000522d0000533a00007d
:10514400466c00006f6f00007230000039200000d0
:1051540020000000444f00004f5200002d53000077
:105164003a4600006c6f00006f720000313000009e
:1051740020200000004400004f4f0000522d00008a
:10518400533a0000466c00006f6f0000723100005b
:105194003120000020000000444f00004f52000066
:1051a4002d5300003a4600006c6f00006f7200003f
:1051b4003132000020200000004400004f4f000066
:1051c400522d0000533a0000466c00006f6f00003f
:1051d400723100003320000020000000444f000022
:1051e4004f5200002d5300003a4600006c6f00003f
:1051f4006f720000313400002020000000440000e1
:105204004f4f0000522d0000533a0000466c00003e
:105214006f6f000072310000352000002000000094
:10522400444f00004f5200002d5300003a46000046
:105234006c6f00006f720000313600002020000007
:10524400004400004f4f0000522d0000533a00006c
:10525400466c00006f6f00007231000037200000c0
:1052640020000000444f00004f5200002d53000066
:105274003a4600006c6f00006f7200003138000085
:1052840020200000004400004f4f0000522d000079
:10529400533a0000466c00006f6f0000723100004a
:1052a4003920000020000000444f00004f5200004d
:1052b4002d5300003a4600006c6f00006f7200002e
:1052c4003230000020200000004400004f4f000056
:1052d400522d0000533a0000466c00006f6f00002e
:1052e400723200003120000020000000444f000012
:1052f4004f5200002d5300003a4600006c6f00002e
:105304006f720000323200002020000000440000d0
:105314004f4f0000522d0000533a0000466c00002d
:105324006f6f000072320000332000002000000084
:10533400444f00004f5200002d5300003a46000035
:105344006c6f00006f7200003234000020200000f7
:10535400004400004f4f0000522d0000533a00005b
:10536400466c00006f6f00007232000035200000b0
:1053740020000000444f00004f5200002d53000055
:105384003a4600006c6f00006f7200003236000075
:1053940020200000004400004f4f0000522d000068
:1053a400533a0000466c00006f6f00007232000038
:1053b4003720000020000000444f00004f5200003e
:1053c4002d5300003a4600006c6f00006f7200001d
:1053d4003238000020200000004400004f4f00003d
:1053e400522d0000533a0000466c00006f6f00001d
:1053f400723200003920000020000000444f0000f9
:105404004f5200002d5300003a4600006c6f00001c
:105414006f720000333000002020000000440000c0
:105424004f4f0000522d0000533a0000466c00001c
:105434006f6f000072330000312000002000000074
:10544400444f00004f5200002d5300003a46000024
:105454006c6f00006f7200003332000020200000e7
:10546400004900005f4f00003a4d0000616e0000eb
:105474005370000064200000205000006f72000090
:1054840074000000495f00004f3a000042610000d0
:10549400745300007064000020200000506f00006e
:1054a40072740000004900005f4f00003a4400009d
:1054b4006563000053700000642000002050000069
:1054c4006f72000074000000495f00004f3a000052
:1054d400464800004d530000706400002020000086
:1054e400506f000072740000004900005f4f00001c
:1054f4003a530000706400003330000020200000a4
:10550400205000006f72000074000000495f00002a
:105514004f3a00005370000064340000352000004e
:1055240020200000506f0000727400000049000049
:105534005f4f00003a5300007064000036300000f2
:1055440020200000205000006f7200007400000052
:10555400495f00004f3a00005370000064390000b6
:105564003020000020200000506f00007274000002
:10557400004900005f4f00003a53000070640000cf
:105584003130000035200000205000006f72000010
:1055940074000000495f00004f3a0000537000009f
:1055a400643100003230000020200000506f000001
:1055b40072740000004900005f4f00003a5300007d
:1055c40070640000313500003020000020500000dd
:1055d4006f72000074000000495f00004f3a000041
:1055e40053700000643100003830000020200000b7
:1055f400506f000072740000004900005f4f00000b
:105604003a53000070640000323100003020000082
:10561400205000006f72000074000000495f000019
:105624004f3a0000457400006331000053700000dd
:1056340064200000506f00007274000000490000f4
:105644005f4f00003a4500007463000032530000cd
:1056540070640000205000006f72000074000000ad
:10566400495f00004f3a0000456c00006576000079
:10567400204d000061780000205300007064000099
:10568400004900005f4f00003a4c0000696d0000c3
:10569400742000004d610000782000005370000069
:1056a40064000000495f00004f3a00004d610000b3
:1056b400785300007553000064310000205300004b
:1056c40070640000004900005f4f00003a4d000084
:1056d400617800005375000053640000322000001c
:1056e4005370000064000000495f00004f3a00005e
:1056f4004d6100007858000030580000312000004f
:105704002053000070640000004900005f4f000057
:105714003a53000070640000312000002020000093
:10572400202000002020000020000000495f00002d
:105734004f3a000053700000643200002020000043
:10574400202000002020000020200000004900004c
:105754005f4f00003a5300007064000033200000e3
:105764002020000020200000202000002000000055
:10577400495f00004f3a0000537000006434000099
:105784002020000020200000202000002020000015
:10579400004900005f4f00003a53000070640000ad
:1057a40035200000202000002020000020200000e0
:1057b40020000000495f00004f3a000053700000d1
:1057c400643600002020000020200000202000007b
:1057d40020200000004900005f4f00003a53000001
:1057e400706400003720000020200000202000000a
:1057f4002020000020000000495f00004f3a000014
:1058040053700000643800002020000020200000b5
:105814002020000020200000004900005f4f00000d
:105824003a5300007064000039200000202000007a
:10583400202000002020000020000000495f00001c
:105844004f3a000053700000643100003020000023
:10585400202000002020000020200000004900003b
:105864005f4f00003a5300007064000031310000c3
:105874002020000020200000202000002000000044
:10588400495f00004f3a000053700000643100008b
:1058940032200000202000002020000020200000f2
:1058a400005700005f4600004c5200003a280000f8
:1058b40031290000686d00005f6800006d5f000022
:1058c40046000000575f0000464c0000523a0000ba
:1058d40028320000296800006d5f0000686d000038
:1058e4005f460000005700005f4600004c52000075
:1058f4003a28000033290000686d00005f6800004a
:105904006d5f000046000000575f0000464c000039
:10591400523a000028340000296800006d5f00003e
:10592400686d00005f460000005700005f460000fd
:105934004c5200003a540000696d000065300000cc
:10594400393100003020000020000000575f0000c3
:10595400464c0000523a0000546900006d65000096
:1059640031300000313100002020000000570000d9
:105974005f4600004c5200003a540000696d00007c
:1059840065310000313100003220000020000000a9
:10599400575f0000464c0000523a00005469000072
:1059a4006d6500003132000031330000202000001a
:1059b400005700005f4600004c5200003a540000bb
:1059c400696d0000653100003331000034200000af
:1059d40020000000575f0000464c0000523a0000cf
:1059e400546900006d650000313400003135000059
:1059f40020200000005700005f4600004c520000c9
:105a04003a540000696d0000653100003531000032
:105a14003620000020000000575f0000464c0000c4
:105a2400523a0000546900006d65000031360000f0
:105a34003137000020200000005700005f460000be
:105a44004c5200003a540000696d000065310000ba
:105a5400373100003820000020000000575f0000ac
:105a6400464c0000523a0000546900006d65000085
