:020000040000FA
:1000000000010400000000004E150000681400000C
:10001000721400007C140000861400004E150000CD
:100020004E1500004E1500004E1500004E15000044
:100030004E150000380F00004E1500004E15000050
:100040004E1500004E1500004E150000A6090000D8
:10005000440900004E1500004E1500004E1500002A
:100060004E1500004E1500004E1500004E15000004
:100070004E1500004E1500004E1500004E150000F4
:100080004E1500004E150000620B00000C0B000026
:100090004E1500006C1500004E1500004E150000B6
:1000A0004E1500004E1500004E1500004E150000C4
:1000B0004E1500004E1500004E1500004E150000B4
:1000C000E41800004E150000580D00004E15000009
:1000D0002E1500004E1500004E1500004E150000B4
:1000E0004E1500004E1500004E1500004E15000084
:1000F0004E1500004E1500004E1500004E15000074
:10010000FFFFFF00FFFFFF004E1500006814000016
:10011000721400007C140000861400004E150000CC
:100120004E1500004E1500004E1500004E15000043
:100130004E150000380F00004E1500004E1500004F
:100140004E1500004E1500004E150000A6090000D7
:10015000440900004E1500004E1500004E15000029
:100160004E1500004E1500004E1500004E15000003
:100170004E1500004E1500004E1500004E150000F3
:100180004E1500004E150000620B00000C0B000025
:100190004E1500006C1500004E1500004E150000B5
:1001A0004E1500004E1500004E1500004E150000C3
:1001B0004E1500004E1500004E1500004E150000B3
:1001C000E41800004E150000580D00004E15000008
:1001D0002E1500004E1500004E1500004E150000B3
:1001E0004E1500004E1500004E1500004E15000083
:1001F0004E1500004E1500004E1500004E15000073
:100200004F242100807922000001880000000000B6
:10021000050007000C00070042D6020000000000A5
:100220000040DA000000FE004440A90000992600CA
:100230000000E0000300320000002000A001880060
:100240004440A8000000060080C6250011002000E0
:100250001600370062004000E080480091018800ED
:100260009001BA0062004000E080480091018800DF
:100270009002BA0062004000E08048000002EB00FB
:100280006028E10005003A008301E900070033001F
:10029000038009000059EB00040037006128E100E9
:1002A000010032000082EB00050007009101880088
:1002B0001001BA000200E000E6FF3A00000005006D
:1002C000910188008002780062004000E0804800D0
:1002D0003559BA008301E900080032002559BA00F7
:1002E0008301E900050032000400E000F4FF320061
:1002F00015D9BA008301E900F1FF3A0000000600B9
:100300006022B800060220000000D0008180D200E8
:100310000482D2008582D2000000A00002025200B6
:1003200083825A0003003B000202420083824A009B
:100330000000A1000603E900F3FF3A0000000600F8
:10034000EFFF07000400BE00000006000E00FA00E8
:10035000000F78001E007800600798006E00900083
:10036000E20F5000700032006E009000E20F50006B
:1003700007003E006E0090000000E0000B0032001D
:100380006E009000E10F50001F003200A600370001
:100390006E009000E30F5000740032006E00900079
:1003A000E40F50008A0032009F00370060F42C00F8
:1003B0009080FB008047800001004000908F880003
:1003C00090478000A08F8800A0478000B08F8800F1
:1003D000B0478000C08F8800C0478000D08F880061
:1003E00060F42C009080FB00D047800001004000AA
:1003F000E08F8800E0478000F08F8800F0478000A1
:10040000009088008800370060F42C001080FB000A
:100410001007980000C9BF00004F980002C9BF0034
:10042000104F980004C9BF00204F980006C9BF00B4
:10043000304F98004E009000DE0090001E019000AA
:100440000201E90003003300000040008180480001
:10045000FBFF370040079800510798000E489000B6
:100460000080FB00908F88001E4890000080FB00F9
:10047000A08F88002E4890000080FB00B08F88007D
:100480003E4890000080FB00C08F88000000EB0019
:10049000D08F88000000EB00E08F88000000EB00A8
:1004A000F08F880041488000000E2000008060002E
:1004B0000000E0000500320060F42C009080FB009A
:1004C0004048800001004000D08F880050488000E4
:1004D000010E2000010060000000E0000500320075
:1004E00060F42C009080FB00504880000100400028
:1004F000E08F880060488000010E2000010060004D
:100500000000E0000500320060F42C009080FB0049
:100510006048800001004000F08F88007048800033
:100520000090880040003700C04A8000908F88000B
:10053000D04A8000A08F8800E04A8000B08F8800F9
:10054000F04A8000C08F8800004B8000D08F880068
:1005500000498000E08F8800D0498000F08F88003B
:10056000E0498000009088002F003700F0498000AB
:10057000908F8800004A8000A08F8800104A800079
:10058000B08F8800204A8000C08F8800304A8000E9
:10059000D08F880060F42C009080FB00904B80008E
:1005A00001004000E08F880060F42C001080FB0008
:1005B000F08F880000F42C009080FB0060F42C0089
:1005C0001080FB000080400000908800160037007B
:1005D000E0758000F1758000200798004E40900083
:1005E0000080FB00908F88002E0090004800DE0005
:1005F0000080FB00A08F8800E04B8000B08F880057
:10060000404A8000C08F8800504A8000D08F880008
:10061000104C8000E08F8800204C8000F08F880014
:10062000304C8000009088000080FA000000060036
:100630000800FA00000F7800110798001E009000D3
:10064000C500DD0000802F000080600020079800BA
:100650001E009000C200DD00C00F2000008060007E
:10066000100798009E0090002E00900000807000FF
:10067000100798001E007800300798003E00900098
:10068000E10F5000160032003E009000E10F5000D4
:1006900004003C003E0090000000E0000500320035
:1006A000250037003E009000E20F50001700320096
:1006B00021003700001B800063006000001B8800E1
:1006C000011B80001E00900000807000001B88004D
:1006D000001B80000000A000001B880020003700E5
:1006E000801A800063006000801A8800811A8000F0
:1006F0001E00900000807000801A8800801A800020
:100700000000A000801A880015003700001A800041
:1007100063006000001A8800011A80001E0090002B
:1007200000807000001A8800001A80000000A000FD
:10073000001A88000A003700001B80006300600078
:10074000001B8800011B80001E00900000807000CC
:10075000001B8800001B80000000A000001B880018
:100760000080FA00000006000C00FA00000F78007C
:1007700011079800220798001E009000CE00DD00AF
:1007800000002C0000806000300798002E009000D0
:10079000C200DE00000023000080600040079800D7
:1007A000BE0090004E00900000807000300798005E
:1007B0002E009000C600DE00F00F200000806000D8
:1007C00040079800BE0090004E009000008070002E
:1007D000300798002E009000CA00DD0000C02F00F6
:1007E00000806000400798001E00780050079800C5
:1007F0005E009000E10F5000160032005E00900095
:10080000E10F500004003C005E0090000000E0009A
:1008100005003200250037005E009000E20F500016
:1008200017003200210037003E009000101B8800A6
:10083000211B8000F03F200000806000201B88000A
:10084000211B80004E00900000807000201B88005B
:10085000200037003E009000901A8800A11A800006
:10086000F03F200000806000A01A8800A11A8000DC
:100870004E00900000807000A01A8800150037001C
:100880003E009000101A8800211A8000F03F2000DE
:1008900000806000201A8800211A80004E0090001D
:1008A00000807000201A88000A0037003E00900087
:1008B000101B8800211B8000F03F2000008060009A
:1008C000201B8800211B80004E00900000807000DB
:1008D000201B88000080FA00000006001000FA00CB
:1008E000000F78001107980022079800330798003E
:1008F0001E009000C200DD00C0FF210000806000EB
:10090000100798003E009000CA00DD0000C02F00D4
:1009100000806000400798003E009000C600DE00A6
:10092000F03F200000806000500798002E009000EB
:10093000CA00DD0000C02000008060006007980051
:10094000DE0090006E00900000807000500798005C
:100950001E007800700798007E009000E20F5000A3
:100960002C0032007E009000E20F500007003C0097
:100970007E0090000000E0000E0032007E0090003B
:10098000E10F500017003200520037007E00900047
:10099000E40F5000370032007E009000E30F50005B
:1009A000280034007E009000E50F50003D0032002A
:1009B00048003700011880001E0090000080700081
:1009C00000188800001880000000A00000188800AF
:1009D0005E009000101888004E00900020188800DB
:1009E00047003700411880001E0090000080700012
:1009F00040188800401880000000A00040188800BF
:100A00005E009000501888004E009000601888002A
:100A10003B003700811880001E00900000807000AD
:100A200080188800801880000000A00080188800CE
:100A30005E009000901888004E009000A01888007A
:100A40002F003700C11880001E0090000080700049
:100A5000C0188800C01880000000A000C0188800DE
:100A60005E009000D01888004E009000E0188800CA
:100A700023003700011980001E00900000807000E4
:100A800000198800001980000000A00000198800EB
:100A90005E009000101988004E0090002019880018
:100AA00017003700411980001E0090000080700080
:100AB00040198800401980000000A00040198800FB
:100AC0005E009000501988004E0090006019880068
:100AD0000B003700011880001E009000008070009D
:100AE00000188800001880000000A000001888008E
:100AF0005E009000101888004E00900020188800BA
:100B00000080FA00000006001000FA00000F7800D4
:100B10001107980022079800330798001E009000E4
:100B2000C200DD00C0FF21000080600010079800B7
:100B30003E009000CA00DD0000C02F000080600071
:100B4000400798003E009000C600DE00F03F200005
:100B500000806000500798002E009000CA00DD0061
:100B600000C020000080600060079800DE00900058
:100B70006E00900000807000500798001E00780002
:100B8000700798007E0090000000E0000400320032
:100B90007E009000E10F50000D0032001800370079
:100BA000811980001E00900000807000801988006C
:100BB0008019800061006000801988005E0090004C
:100BC000901988004E009000A01988001700370087
:100BD000C11980001E00900000807000C0198800BC
:100BE000C019800061006000C01988005E0090009C
:100BF000D01988004E009000E01988000B003700E3
:100C0000811980001E00900000807000801988000B
:100C10008019800061006000801988005E009000EB
:100C2000901988004E009000A01988000080FA00FA
:100C3000000006001000FA00000F7800110798006D
:100C400022079800330798001E009000C200DD00C4
:100C5000C0FF210000806000100798003E00900057
:100C6000CA00DD0000C02F0000806000400798002F
:100C70003E009000C600DE00F03F200000806000D3
:100C8000500798002E009000CA00DD0000C0200030
:100C90000080600060079800DE0090006E00900009
:100CA00000807000500798001E00780070079800C0
:100CB0007E009000E20F5000300032007E00900075
:100CC000E20F500007003C007E0090000000E000B2
:100CD0000E0032007E009000E10F5000190032003B
:100CE0005E0037007E009000E40F50003F003200AD
:100CF0007E009000E30F50002E0034007E00900034
:100D0000E50F500047003200540037000000EB00B0
:100D1000001E8800011E80001E00900000807000F0
:100D2000001E8800001E80000000A000001E880039
:100D30005E009000101E88004E009000201E88006B
:100D4000530037000000EB00401E8800411E800069
:100D50001E00900000807000401E8800401E800031
:100D60000000A000401E88005E009000501E880019
:100D70004E009000601E8800450037000000EB0028
:100D8000801E8800811E80001E0090000080700080
:100D9000801E8800801E80000000A000801E880049
:100DA0005E009000901E88004E009000A01E8800FB
:100DB000370037000000EB00C01E8800C11E800015
:100DC0001E00900000807000C01E8800C01E8000C1
:100DD0000000A000C01E88005E009000D01E8800A9
:100DE0004E009000E01E8800290037000000EB0054
:100DF000001F8800011F80001E009000008070000E
:100E0000001F8800001F80000000A000001F880055
:100E10005E009000101F88004E009000201F880088
:100E20001B0037000000EB00401F8800411F8000BE
:100E30001E00900000807000401F8800401F80004E
:100E40000000A000401F88005E009000501F880036
:100E50004E009000601F88000D0037000000EB007E
:100E6000001E8800011E80001E009000008070009F
:100E7000001E8800001E80000000A000001E8800E8
:100E80005E009000101E88004E009000201E88001A
:100E90000080FA00000006001000FA00000F780041
:100EA0001107980022079800330798001E00900051
:100EB000C200DD00C0FF2100008060001007980024
:100EC0003E009000CA00DD0000C02F0000806000DE
:100ED000400798003E009000C600DE00F03F200072
:100EE00000806000500798002E009000CA00DD00CE
:100EF00000C020000080600060079800DE009000C5
:100F00006E00900000807000500798001E0078006E
:100F1000700798007E0090000000E000040032009E
:100F20007E009000E10F50000F0032001C003700DF
:100F30000000EB00801F8800811F80001E009000D1
:100F400000807000801F8800801F80000000A000CB
:100F5000801F88005E009000901F88004E00900067
:100F6000A01F88001B0037000000EB00C01F880096
:100F7000C11F80001E00900000807000C01F88000C
:100F8000C01F80000000A000C01F88005E0090000D
:100F9000D01F88004E009000E01F88000D00370031
:100FA0000000EB00801F8800811F80001E00900061
:100FB00000807000801F8800801F80000000A0005B
:100FC000801F88005E009000901F88004E009000F7
:100FD000A01F88000080FA00000006000800FA0048
:100FE000000F7800110798001E009000C500DD007A
:100FF00000802F0000806000200798001E009000F5
:10100000C200DD00C00F20000080600010079800C3
:101010009E0090002E009000008070001007980045
:101020001E007800300798003E009000E10F50004D
:10103000160032003E009000E10F500004003C001A
:101040003E0090000000E00005003200250037005F
:101050003E009000E20F50001700320021003700E0
:1010600000218000630060000021880001218000D1
:101070001E00900000807000002188000021800088
:101080000000A000002188002000370080208000A0
:101090006300600080208800812080001E00900096
:1010A0000080700080208800802080000000A00068
:1010B0008020880015003700002080006300600059
:1010C00000208800012080001E0090000080700039
:1010D00000208800002080000000A0000020880080
:1010E0000A003700002180006300600000218800B2
:1010F000012180001E009000008070000021880007
:10110000002180000000A000002188000080FA007B
:10111000000006000C00FA00000F7800110798008C
:10112000220798001E009000CE00DD0000002C0079
:1011300000806000300798002E009000C200DE00A2
:10114000000023000080600040079800BE0090006F
:101150004E00900000807000300798002E00900034
:10116000C600DE00F00F20000080600040079800FD
:10117000BE0090004E009000008070003007980084
:101180002E009000CA00DD0000C02F00008060002B
:10119000400798001E007800500798005E009000FD
:1011A000E10F5000160032005E009000E10F500089
:1011B00004003C005E0090000000E00005003200EA
:1011C000250037005E009000E20F5000170032004B
:1011D000210037003E00900010218800212180006E
:1011E000F03F200000806000202188002121800045
:1011F0004E00900000807000202188002000370001
:101200003E00900090208800A1208000F03F200048
:1012100000806000A0208800A12080004E00900087
:1012200000807000A0208800150037003E0090006C
:101230001020880021208000F03F20000080600006
:1012400020208800212080004E0090000080700047
:10125000202088000A0037003E00900010218800FE
:1012600021218000F03F20000080600020218800C4
:10127000212180004E009000008070002021880015
:101280000080FA0000000600809FBE00821F7800E8
:101290000200FA008540A900900020006810E300D9
:1012A000030032000000EB00408388002300370079
:1012B000507B8000660040006A10E30005003900A2
:1012C000A0002000608388000000EB0040838800BD
:1012D0001A003700508380000000D00041F6200043
:1012E00001004000100078008010880050838000CA
:1012F0000000E800508388000000EB006083880055
:101300009000200040838800300620006A10E3002F
:101310000A0036000000EB005083880050838000F4
:101320000000D00042F62000820040000000EB00E8
:10133000800878000000EB00408388000080FA00FD
:101340004F0178004F00BE0000400600809FBE00A5
:101350000800FA000000EB00000F78000000EB002E
:10136000100798000040EB00404798008520A90036
:101370000EC2BF000080FB00610060000000E000C2
:101380000200320090108000000F78000EC2BF00F3
:101390000080FB00610060000000E00002003200FD
:1013A00091108000010F78000EC2BF000080FB008A
:1013B000610060000000E000020032009010800038
:1013C000000F78000EC2BF000080FB0061006000CB
:1013D0000000E0000200320091108000010F780050
:1013E0000EC2BF000080FB00610060000000E00052
:1013F0000200320090108000000F78000EC2BF0083
:101400000080FB00610060000000E000020032008C
:1014100091108000010F78000000EB0060838800CD
:101420000EC2BF000080FB000000D1000080FB0066
:10143000610060000000E000010032000E22A900FF
:101440000EC2BF000080FB004200DE000080FB00F7
:10145000610060000000E000010032000E42A900BF
:101460000EC2BF000080FB004300DE000080FB00D6
:10147000610060000000E000010032000E62A9007F
:10148000900020006810E300600032000000EB00D4
:1014900060838800100620006A10E3000200360016
:1014A0000000EB005083880050FA2C0010407800B8
:1014B000404798004E4090004300DD0040479800B0
:1014C00061FA2C004E409000114070004047980097
:1014D000508380000000D00041F620000100400051
:1014E0001E0878005083800030079800BE009000EE
:1014F000E18F5000150032003E0090000000E00037
:1015000007003200BE009000E28F50001900320048
:101510003E009000E30F5000230032002600370009
:101520004E4090000080FB00640FE30004003A008E
:10153000508380000000E8005083880033003700AB
:101540000000EB005083880030003700E00F2000DF
:10155000660FE30004003A00508380000000E800BA
:1015600050838800290037000000EB00508388007A
:101570002600370030022000680FE300030032002D
:1015800040022000680FE30004003A00508380000E
:101590000000E800508388001C0037000000EB00CA
:1015A0005083880019003700508380000000E80055
:1015B0005083880015003700517B80001107980088
:1015C0002E409000654040000080FB00100798000E
:1015D0001E0090006A10E30003003A008000200023
:1015E00040838800090037001E0090006A10E30065
:1015F000030036000000EB00508388000300370032
:10160000508380000000E800508388000080FA00CA
:101610004F00BE0000400600809FBE00821F780081
:101620000000FA008720A900B08B80000000D000E5
:1016300001072100010040001000E00005003A0011
:101640000000EB00C08B88000000EB00A08B88003E
:1016500018003700B08B80000000D0000207210086
:101660000200400010007800D0108800B08B80008D
:101670000000E800B08B88000000EB00C08B880001
:1016800090002000A08B8800300620007611E30037
:10169000080036000000EB00B08B8800B08B8000A3
:1016A0000000D00002072100820040000000EB0093
:1016B000800878000080FA004F0178004F00BE00DB
:1016C00000400600809FBE00821F78000A00FA00DA
:1016D0000000EB00000F78000000EB0010079800FE
:1016E0008700A90018C2BF000080FB0061006000F5
:1016F0000000E00002003200E0108000000F7800DF
:1017000018C2BF000080FB00610060000000E00024
:1017100002003200E1108000010F780018C2BF0003
:101720000080FB00610060000000E0000200320069
:10173000E2108000020F780018C2BF000080FB009A
:10174000610060000000E00002003200E010800054
:10175000000F780018C2BF000080FB00610060002D
:101760000000E00002003200E1108000010F78006C
:1017700018C2BF000080FB00610060000000E000B4
:1017800002003200E2108000020F78000000EB003F
:10179000C08B880018C2BF000080FB000000D10091
:1017A0000080FB00610060000000E00001003200EA
:1017B0001822A90018C2BF000080FB004200DE0012
:1017C0000080FB00610060000000E00001003200CA
:1017D0001842A90018C2BF000080FB004300DE00D1
:1017E0000080FB00610060000000E00001003200AA
:1017F0001862A900900020007411E300A8003200D4
:101800000000EB00C08B8800200620007611E3006A
:1018100004003E00B08B80000000E800B08B880020
:10182000020037000000EB00B08B8800B08B800016
:101830000000D00001072100010040001E087800D0
:10184000A28B8000420798004E009000E70F5000E6
:101850008A003200CE009000E78F500007003E0063
:101860004E0190000200E0000B0032004E0090009C
:10187000E60F50001700320085003700CE009000C0
:10188000ED8F5000250032004E019000EE0F510008
:10189000420032007E003700600020009E0F1000E2
:1018A00003003200510020009E8F10007C003A009F
:1018B00060002000A08B88001E01780082838800D1
:1018C0000000EB00B08B88001E007800D08B8800F1
:1018D00073003700D08B80001E004000D08B880042
:1018E000310020009E8F10000300320042002000D3
:1018F0009E0F11006A003A00B08B80000000D000FB
:1019000002072100820040000000EB008008780000
:10191000D0002000A08B88006100370090032000D9
:101920009E0F100004003E0000FD2F001E0040002E
:10193000200798000300370091FC2F009E80400094
:10194000210798002E019000020F7800B08B8000D4
:101950000000D00002072100820040000000EB00E0
:1019600080087800D18B8000000F2000008060008C
:101970004400DE00100798001E0090009E0F5000EB
:1019800003003A00E0002000A08B880044003700EC
:101990000000EB00A08B880041003700900320007E
:1019A0009E0F100004003E0000FD2F001E004000AE
:1019B000300798000300370091FC2F009E80400004
:1019C000310798003E019000020F7800D08B800014
:1019D0006F00600010079800B08B80000000D000FE
:1019E00002072100820040000000EB008008780020
:1019F0000000EB00B08988001E0090009E0F500090
:101A00001B003A000000EB00100798001E00900039
:101A10000000D00001072100010040001000E0009C
:101A2000100032001E009000FD0F50000D003E001F
:101A30001E0090000000D0008213210082004000B0
:101A40001E0090000000D0000207210002004000AC
:101A5000900878001E0090000000E8001007980031
:101A6000EAFF370080002000A08B88000C003700C0
:101A70000000EB00A08B8800090037000000EB009D
:101A8000A08B88000000EB00B08B880004003700BA
:101A90000000EB00A08B88000000EB00B08B8800FA
:101AA0000080FA004F0178004F00BE0000400600A1
:101AB000801F78000000FA0089C0BF000080FB0092
:101AC000610060000000E000010032008900A90010
:101AD0000080FA004F007800004006000000FA0085
:101AE000E842A900E842A900E842A900E842A900AA
:101AF000E2E2A900E2E2A900E2E2A900E2E2A90032
:101B0000E2E2A800E2E2A800E2E2A800E2E2A80025
:101B1000E2E2A800E2E2A800E2E2A800E2E2A80015
:101B20000080FA00000006000200FA00000F7800B2
:101B300011042400013B88006427EF0000F0A1009D
:101B4000103B880061C7A80051052000313B880088
:101B5000A10A2000313B880061E7A80000000000D6
:101B60000000000000000000000000000080FA00FB
:101B7000000006000400FA00000F7800110798002A
:101B800013002400033B880000F0A1003220EF0086
:101B90008001EB003108BB000398BB003108BB009B
:101BA0000398BB003108BB000398BB003108BB00A1
:101BB0000398BB003108BB000398BB003108BB0091
:101BC0000398BB003108BB000398BB003108BB0081
:101BD0000398BB003108BB000398BB003108BB0071
:101BE0000398BB003108BB000398BB003108BB0061
:101BF0000398BB003108BB000398BB003108BB0051
:101C00000398BB003108BB000398BB003108BB0040
:101C10000398BB003108BB000398BB003108BB0030
:101C20000398BB003108BB000398BB003108BB0020
:101C30000398BB003108BB000398BB003108BB0010
:101C40000398BB003108BB000398BB003108BB0000
:101C50000398BB003108BB000398BB003108BB00F0
:101C60000398BB003108BB000398BB003108BB00E0
:101C70000398BB003108BB000398BB003108BB00D0
:101C80000398BB003108BB000398BB003108BB00C0
:101C90000398BB0061C7A80051052000313B8800B4
:101CA000A10A2000313B880061E7A8000000000085
:101CB0000000000000000000000000000080FA00AA
:101CC000000006000000FA000000EB002008880079
:101CD0005109200091407800F0C8B30000C06000B6
:101CE0000044A00095E0B7000000EB000008880069
:101CF00000E823001008880005E1A8008C60A80017
:101D00000080FA00000006000000FA009140A900DF
:101D1000013A8000F00F2C0000806000003A88003B
:101D2000013A800000C0210000807000003A880065
:101D30008940A9009140A8000080FA000000060038
:101D40000000FA0030032000A01088000000EB0023
:101D5000701088008109200091407800F0C8B3001D
:101D600000C0600001C4B3000140700098E0B700FB
:101D7000910920009140780080CFB30000C060003E
:101D80000024A00099E0B700C12020009140780015
:101D900090CFB30000C060000CE2B7000C02A900B5
:101DA0000CA2A9000CC2A9000CE2A9000D42A900D6
:101DB0000DA2A9000DE2A8000F42A8000FE2A800A2
:101DC0008540A9008520A9008D20A8008D40A8008D
:101DD0000080FA00000006000000FA003003200036
:101DE000F01088000000EB00C0108800010A2000FD
:101DF0009140780080CFB30000C060000024A000B4
:101E0000A0E0B700010A200091407800F0C8B300BC
:101E100000C0600001C4B30001407000A0E0B70042
:101E2000612120009140780090CFB30000C0600095
:101E300016E2B7001602A90016A2A90016C2A90050
:101E400016E2A9001742A90017A2A90017E2A800EC
:101E50001942A80019E2A8008720A9008700A9005C
:101E60008F00A8008F20A8000080FA000000060064
:101E70003600F800809FBE00829FBE00849FBE0097
:101E8000869FBE000400FA0084C0BF000080FB00F3
:101E90004300DE000080FB00610060000000E00005
:101EA000840232008460A9000000EB000008880072
:101EB000100320003E0DE30003003E00F0698000A7
:101EC0000000E800F0698800607880000000E80009
:101ED00060788800707880000000E80070788800E2
:101EE000807880000000E80080788800907880008A
:101EF0000000E80090788800A07880000000E800EA
:101F0000A0788800B07880000000E800B0788800F1
:101F1000C07880000000E800C0788800D078800099
:101F20000000E800D0788800E07880000000E80039
:101F3000E0788800F07880000000E800F078880001
:101F4000007980000000E8000079880010798000A6
:101F50000000E80010798800207980000000E80087
:101F600020798800307980000000E800307988000E
:101F7000407980000000E8004079880050798000B6
:101F80000000E80050798800607980000000E800D7
:101F900060798800707980000000E800707988001E
:101FA000807980000000E8008079880090798000C6
:101FB0000000E80090798800A07980000000E80027
:101FC000A0798800B07980000000E800B07988002E
:101FD000C07980000000E800C0798800D0798000D6
:101FE0000000E800D0798800E07980000000E80077
:101FF000E0798800F07980000000E800F07988003E
:10200000007A80000000E800007A8800107A8000E2
:102010000000E800107A8800207A80000000E800C4
:10202000207A8800307A80000000E800307A88004A
:10203000407A80000000E800407A8800507A8000F2
:102040000000E800507A8800607A80000000E80014
:10205000607A8800707A80000000E800707A88005A
:10206000807A80000000E800807A8800907A800002
:102070000000E800907A8800A07A80000000E80064
:10208000A07A8800B07A80000000E800B07A88006A
:10209000C07A80000000E800C07A8800D07A800012
:1020A0000000E800D07A8800806880000000E80026
:1020B00080688800906880000000E80090688800D0
:1020C000A06880000000E800A0688800B068800078
:1020D0000000E800B0688800C06880000000E800E8
:1020E000C0688800D06880000000E800D0688800E0
:1020F000909080000000E80090908800509180004F
:102100000000E80050918800C08B80000000E800CB
:10211000C08B8800300620006C10E30003003E00F6
:10212000608380000000E80060838800A0CDBF00CD
:102130000080FB004500DE000080FB0061006000C5
:102140000000E00006003200900F2000360DE30092
:1021500003003E00B06980000000E800B06988001C
:10216000E0002D001080FB00C41F020001000000F1
:102170000000E00006003200F0002D001080FB009F
:10218000C41F0200010000000000E0000B003A0044
:10219000F0342C00780DE30008003E00A8CDBF000D
:1021A0000080FB00610060000000E00003003200DE
:1021B000C06B80000000E800C06B880010E22400C3
:1021C0000A0EE30003003E00507080000000E800AB
:1021D00050708800703E20000C0EE30003003E00AB
:1021E000607080000000E80060708800D0698000A6
:1021F0000000E800D0698800400620003A0DE300A6
:10220000AC0136000000EB00D06988000000EB0054
:10221000000F7800DCC2BF000080FB004500DE003C
:102220000080FB00610060000000E00002003A0056
:1022300011002000010F78009E40780061C060000E
:102240004501DD00C12D200091407800F0CDB300A4
:1022500000C0600002407000DCE2B70030062000E1
:102260002E0EE30003003E00707180000000E800C5
:102270007071880090FF2F00E40DE30003003E0022
:10228000206F80000000E800206F8800D09180005F
:102290000000E800D091880082758000937580006E
:1022A000A0758000B1758000800F5100818F5900AA
:1022B0000E0036008275800093758000A075800046
:1022C000B17580000000510081805900C0768800FF
:1022D000D17688000000EB00006B8800106B800056
:1022E0000000E800106B8800210037008275800034
:1022F00093758000A0758000B1758000800F51003B
:10230000818F59000E003100A2758000B3758000E6
:102310008075800091758000000051008180590017
:10232000C0768800D17688000000EB00106B880032
:10233000006B80000000E800006B88000C00370094
:10234000A2758000B3758000807580009175800053
:102350000000510081805900C0768800D176880045
:102360000000EB00106B88000000EB00006B8800A1
:102370008075800091758000A0758800B175880017
:10238000800C20000C0EE3001B003600C087860086
:10239000D1878600A0768800B1768800C17680005B
:1023A000A0768000000AB800C1768000B076800078
:1023B0000088B9000501780000014100A176800085
:1023C000D07680000088B9000001410082027800C8
:1023D000E4758800F5758800E0758000F17580006F
:1023E00002242400F300200080010200000000000D
:1023F000E0758800F175880070A22000320DE300BE
:1024000003003E00906980000000E80090698800A9
:10241000900F2000D20DE30003003E00906E80007C
:102420000000E800906E8800900F2000D00DE300BF
:1024300003003E00806E80000000E800806E88008F
:1024400030062000E20DE30003003E00106F800024
:102450000000E800106F88008ACDBF000080FB00FC
:102460004400DE000080FB00610060000000E0002E
:102470000B003A000000EB00D06B88000000EB007E
:10248000C06E8800900F2000D60DE30012003E00C1
:10249000B06E80000000E800B06E88000E003700CB
:1024A0000000EB00B06E8800900F20007A0DE30072
:1024B00003003E00D06B80000000E800D06B880075
:1024C000900F2000D80DE30003003E00C06E800096
:1024D0000000E800C06E8800A2CDBF000080FB00B5
:1024E0004700DE000080FB000000E0000C0032002E
:1024F000900F2000560DE30003003E00B06A8000FC
:102500000000E800B06A8800000F2000560DE300CC
:1025100005003600146B02000000000002003700C6
:102520000000EB00B06A8800506980000000E800FD
:1025300050698800606A80000000E800606A8800D6
:10254000706A80000000E800706A8800406A8000BD
:102550000000E800406A8800A06980000000E800F0
:10256000A0698800F06B80000000E800F06B880034
:10257000A06B80000000E800A06B880070698000FC
:102580000000E80070698800806980000000E800B1
:1025900080698800A06A80000000E800A06A8800C6
:1025A00030062000840DE30003003E00206C800014
:1025B0000000E800206C880030062000860DE30053
:1025C00003003E00306C80000000E800306C8800A2
:1025D000300620004A0DE30003003E00506A8000F0
:1025E0000000E800506A8800300620001612E30060
:1025F00003003E00B09080000000E800B09088002A
:10260000300620001812E30003003E00C090800056
:102610000000E800C090880030E92800D40DE300F5
:1026200003003E00A06E80000000E800A06E88005D
:10263000100D2000440DE30003003E00206A8000DE
:102640000000E800206A8800900F2000240DE300BD
:1026500003003E00206980000000E8002069880037
:102660009CCDBF000080FB004500DE000080FB0029
:10267000610060000000E0000D003200900F2000BB
:10268000260DE30003003E00306980000000E800F2
:1026900030698800900F2000280DE30008003E00FC
:1026A000406980000000E8004069880004003700AD
:1026B0000000EB00306988000000EB0040698800F2
:1026C000A4CDBF000080FB004300DE000080FB00C3
:1026D000610060000000E00006003200900F200062
:1026E000380DE30003003E00C06980000000E800F0
:1026F000C0698800E06980000000E800E0698800A7
:10270000900020003C0DE300250036000000EB00A7
:10271000E06988008000EB0011079800A2CDBF009F
:102720000080FB004600DE000080FB0061006000CE
:102730000000E00002003A0010002000100798009E
:10274000AE40900061C060004601DD0021DA20004B
:1027500091407800F0CBB30000C0600002407000F0
:10276000A2EDB700006A80000000E800006A88005F
:10277000D00F20002C0DE30003003E0060698000B4
:102780000000E80060698800E00F2000460DE300CB
:1027900003003E00306A80000000E800306A8800D4
:1027A000B06B80000000E800B06B8800702520004E
:1027B000760DE3001C0036000000EB00B06B8800D3
:1027C000006C80000000E800006C8800206B800036
:1027D0000000E800206B8800B0032000640DE300D7
:1027E0000B0036000000EB00206B880090FF2F00EC
:1027F000660DE30004003E00306B80000000E8003E
:10280000306B8800020037000000EB00306B88005E
:1028100070252000E60DE30003003E00306F8000CD
:102820000000E800306F880098CDBF000080FB00FA
:102830004600DE000080FB00610060000000E00058
:102840000700320030062000420DE30006003E0083
:10285000106A80000000E800106A8800020037005B
:102860000000EB00106A88009CCDBF000080FB00D8
:102870004300DE000080FB00610060000000E0001B
:102880000A003200400020005609E30007003A0029
:10289000B0032000500DE30006003E00806A800077
:1028A0000000E800806A8800020037000000EB00AA
:1028B000806A88000080FA004F03BE004F02BE000D
:1028C0004F01BE004F00BE003600F9000040060078
:1028D0000000FA008020A9000000FE000080FA003D
:1028E000004006000000FA008060A9000000FE0021
:1028F0000080FA00004006000000FA008040A900B5
:102900000000FE000080FA00004006000000FA000F
:102910008080A9000000FE000080FA000040060050
:102920000200FA00146B020000000000146B0200A9
:1029300000000000B0F92C001080FB006300600074
:10294000E10F500024003A009ACDBF000080FB0048
:102950004400DE000080FB00610060000000E00039
:102960001D003A0090488000000F78009E0078001B
:1029700020102000AE760200010000000000E00000
:10298000FAFF3A008075800091758000000F780092
:102990009E007800E00F2000AE76020001000000EB
:1029A0000000E000FAFF3A00807580009175800019
:1029B0004008DE0001002000000F78009E00780033
:1029C00000102000AE760200010000000000E000D0
:1029D000FAFF3A009A8DA800A0002000606B8800E2
:1029E0002077800031778000E00F5000E08F5800A2
:1029F00008003200207780003177800061005000AD
:102A0000E08058002077880031778800BC570200AA
:102A10000000000040062000440DE3000D003600D9
:102A2000516B8000A0102000AE7602000100000073
:102A30000000E000FAFF3A0000000000316B800067
:102A400060102000AE760200010000000000E000EF
:102A5000FAFF3A000080FA00000006003600F80095
:102A6000809FBE00829FBE00849FBE00869FBE00E6
:102A70000000FA00AAFF07008940A9000000FE003C
:102A80000080FA004F03BE004F02BE004F01BE009F
:102A90004F00BE003600F900004006003600F80086
:102AA000809FBE00829FBE00849FBE00869FBE00A6
:102AB0000000FA009AFF07000000FE000080FA0004
:102AC0004F03BE004F02BE004F01BE004F00BE00CC
:102AD0003600F900004006003600F800809FBE0076
:102AE000829FBE00849FBE00869FBE000000FA0049
:102AF00096C3BF000080FB00610060000000E000A2
:102B00009C013200DC4F0200010000000000EB00DD
:102B1000A0908800100020001E12E30060013A001F
:102B20001A12E2002A003A0010002000100EE30002
:102B300003003A006004200090908800880137006C
:102B400020002000100EE30003003A00C003200024
:102B5000909088008201370030002000100EE300C2
:102B600003003A0020032000909088007C01370089
:102B700040002000100EE30003003A008002200015
:102B8000909088007601370050002000100EE3007E
:102B900003003A00E00120009090880070013700A7
:102BA00060002000100EE30003003A004001200006
:102BB000909088006A01370070002000100EE3003A
:102BC00067013A00A000200090908800640137005F
:102BD000100020001A12E30029003A002000200013
:102BE000100EE30003003A0060042000909088007B
:102BF0005B01370030002000100EE30003003A00B4
:102C0000C00320009090880055013700400020004C
:102C1000100EE30003003A0020032000909088008B
:102C20004F01370050002000100EE30003003A006F
:102C30008002200090908800490137006000200049
:102C4000100EE30003003A00E0012000909088009D
:102C50004301370070002000100EE30003003A002B
:102C600040012000909088003D013700100EE200E6
:102C70003B013A00A0002000909088003801370006
:102C8000200020001A12E30029003A003000200042
:102C9000100EE30003003A006004200090908800CA
:102CA0002F01370040002000100EE30003003A001F
:102CB000C0032000909088002901370050002000B8
:102CC000100EE30003003A002003200090908800DB
:102CD0002301370060002000100EE30003003A00DB
:102CE00080022000909088001D01370070002000B5
:102CF000100EE30003003A00E001200090908800ED
:102D000017013700100EE20003003A0040012000D6
:102D1000909088001201370010002000100EE30090
:102D20000F013A00A0002000909088000C013700AD
:102D3000300020001A12E30029003A004000200071
:102D4000100EE30003003A00600420009090880019
:102D50000301370050002000100EE30003003A008A
:102D6000C003200090908800FD0037006000200024
:102D7000100EE30003003A0020032000909088002A
:102D8000F700370070002000100EE30003003A0047
:102D90008002200090908800F1003700100EE200C1
:102DA00003003A00E001200090908800EC0037001A
:102DB00010002000100EE30003003A004001200044
:102DC00090908800E600370020002000100EE300FD
:102DD000E3003A00A000200090908800E000370057
:102DE000400020001A12E30029003A0050002000A1
:102DF000100EE30003003A00600420009090880069
:102E0000D700370060002000100EE30003003A00F6
:102E1000C003200090908800D1003700700020008F
:102E2000100EE30003003A00200320009090880079
:102E3000CB003700100EE20003003A0080022000B1
:102E400090908800C600370010002000100EE300AC
:102E500003003A00E001200090908800C000370095
:102E600020002000100EE30003003A004001200083
:102E700090908800BA00370030002000100EE30068
:102E8000B7003A00A000200090908800B4003700FE
:102E9000500020001A12E30029003A0060002000D0
:102EA000100EE30003003A006004200090908800B8
:102EB000AB00370070002000100EE30003003A0062
:102EC000C003200090908800A5003700100EE2009B
:102ED00003003A002003200090908800A0003700F3
:102EE00010002000100EE30003003A0080022000D2
:102EF000909088009A00370020002000100EE30018
:102F000003003A00E0012000909088009400370010
:102F100030002000100EE30003003A0040012000C2
:102F2000909088008E00370040002000100EE300D3
:102F30008B003A00A00020009090880088003700A5
:102F4000600020001A12E30029003A0070002000FF
:102F5000100EE30003003A00600420009090880007
:102F60007F003700100EE20003003A00C00320008B
:102F7000909088007A00370010002000100EE300C7
:102F800003003A002003200090908800740037006E
:102F900020002000100EE30003003A008002200011
:102FA000909088006E00370030002000100EE30083
:102FB00003003A00E001200090908800680037008C
:102FC00040002000100EE30003003A004001200002
:102FD000909088006200370050002000100EE3003F
:102FE0005F003A00A0002000909088005C0037004D
:102FF000700020001A12E30059003A00100EE2009F
:1030000003003A00600420009090880054003700CC
:1030100010002000100EE30003003A00C00320005F
:10302000909088004E00370020002000100EE30032
:1030300003003A00200320009090880048003700E9
:1030400030002000100EE30003003A008002200050
:10305000909088004200370040002000100EE300EE
:1030600003003A00E0012000909088003C00370007
:1030700050002000100EE30003003A004001200041
:10308000909088003600370060002000100EE300AA
:1030900033003A00A00020009090880030003700F4
:1030A000200020001E12E3002D003A00E00F200057
:1030B0001C12E30006003A00D0908000100EE300DE
:1030C00027003A00744F020001000000240037007E
:1030D000D0908000100EE30011003A00E0908000D4
:1030E00001082000010060000000E000090032003B
:1030F000A00820001C12E30003003A006A4B020003
:10310000010000000D003700964B02000100000096
:103110000A003700B24D020001000000070037002E
:10312000E090800001082000010060000000E00045
:1031300002003A00A84A020001000000E09080006E
:103140008609E30006003A00D0908000100EE300EC
:1031500003003A00109180000000E8001091880000
:103160009603A9008EE3A9000000EB0000918800FF
:103170000D0037009183A8009623A9007EE3A900E3
:1031800096C3A9000000EB00B01C880096A3A9001C
:1031900090FF2F002012E30003003E00009180000A
:1031A0000000E800009188008760A9000080FA0014
:1031B0004F03BE004F02BE004F01BE004F00BE00D5
:1031C0003600F900004006003600F800809FBE007F
:1031D000829FBE00849FBE00869FBE000000FA0052
:1031E00056C4BF000080FB00610060000000E000EA
:1031F00033003200F466020001000000312280003A
:10320000F00F2000008060001090880030228000C5
:10321000C800DE00F00F20000080600020908800D1
:1032200041228000F00F2000008060003090880074
:1032300040228000C800DE00F00F20000080600007
:103240004090880051228000F00F20000080600034
:103250005090880050228000C800DE00F00F20004F
:10326000008060006090880061228000F00F2000E4
:10327000008060007090880060228000C800DE003E
:10328000F00F200000806000809088000000EB00BC
:10329000509188000000EB00609188001000200031
:1032A00040918800F0052000509188005604A90044
:1032B0004EE4A9000000EB00D09188000700370021
:1032C0005184A8005624A9003EE4A90056C4A900D0
:1032D0000000EB00B022880056A4A90088C0A90015
:1032E0005604A9004EE4A9000080FA004F03BE0076
:1032F0004F02BE004F01BE004F00BE003600F90075
:10330000004006000400FA00000F7800F00F2000D3
:103310009E006000109280000100680010928800FA
:103320000000EB00100798001E009000E70F50000F
:1033300011003E0010928000610060000000E0007B
:1033400006003200109280008000D10010002A0098
:1033500000806800109288000300370010928000FF
:103360000000D100109288001E0090000000E800CC
:1033700010079800ECFF37000080FA0000000600FC
:10338000303000003000000020300000310000002C
:103390002030000032000000203000003300000028
:1033A0002030000034000000203000003500000014
:1033B0002030000036000000203000003700000000
:1033C00020300000380000002030000039000000EC
:1033D00020310000300000002031000031000000EA
:1033E00020310000320000002031000033000000D6
:1033F00020310000340000002031000035000000C2
:1034000020310000360000002031000037000000AD
:103410002031000038000000203100003900000099
:103420002032000030000000203200003100000097
:103430002032000032000000203200003300000083
:10344000203200003400000020320000350000006F
:10345000203200003600000020320000370000005B
:103460002032000038000000203200003900000047
:103470002033000030000000203300003100000045
:103480002033000032000000415600004F000000D1
:10349000425600004F000000435600004F0000005D
:1034A000445600004F00000041430000310000007E
:1034B000414300003200000041430000330000009F
:1034C000414300003400000042430000310000008E
:1034D000424300003200000042430000330000007D
:1034E000424300003400000043430000310000006C
:1034F000434300003200000043430000330000005B
:103500004343000034000000444300003100000049
:103510004443000032000000444300003300000038
:103520004443000034000000415800004F000000F8
:103530004158000031000000425800004F000000D8
:103540004258000031000000435800004F000000C6
:103550004358000031000000445800004F000000B4
:103560004458000031000000415F00004D000000A1
:10357000424D000031000000424D000032000000CA
:10358000434D000031000000434D000032000000B8
:10359000444D000031000000444D000032000000A6
:1035A000414C000044000000424C00004400000078
:1035B000434C000044000000444C00004400000064
:1035C0004150000043000000425000004300000052
:1035D000435000004300000044500000430000003E
:1035E000464C00003A30000030200000202000004F
:1035F00020200000202000002020000020200000CB
:103600000055000053450000523A00005665000086
:1036100072730000696F00006E200000202000001F
:103620002000000055530000455200003A420000BF
:103630006F610000726400004964000020200000F7
:10364000202000000055000053450000523A0000C1
:103650005061000073730000776100007264000025
:1036600020200000200000005553000045520000BB
:103670003A55000073650000724C0000616D000057
:10368000703100002020000000550000534500006C
:10369000523A000055730000657200004C61000052
:1036A0006D70000032200000200000005553000023
:1036B000455200003A530000657200006961000045
:1036C0006C4E00006D20000020200000005500001E
:1036D00053450000523A00004E6F0000726D00002A
:1036E000616C0000204400007370000020000000A6
:1036F00055530000455200003A4400007269000032
:10370000766500004D650000746800006F6400007D
:103710000055000053450000523A00004668000082
:103720006D200000527500006E2000002020000077
:103730002000000055530000455200003A5300009D
:10374000756200004D6500006E750000204F00009E
:103750006E2000000055000053450000523A000062
:10376000456E0000676900006E650000657200002C
:10377000204E00006D00000055530000455200002F
:103780003A540000742000005573000065200000CA
:10379000546900006D6500000055000053450000AD
:1037A000523A0000496E0000697400002044000095
:1037B00061740000612000002000000055530000EB
:1037C000455200003A470000726F0000757000001B
:1037D000204E00006D200000202000000055000059
:1037E00053450000523A00004C6F00006361000036
:1037F0006C2000004E6D0000202000002000000022
:1038000055530000455200003A4900006E76000012
:10381000204900006E420000642000005470000047
:103820000055000053450000523A0000436100007B
:103830006C6C0000286300002D6600002D660000FF
:103840002900000055530000455200003A6800006E
:10385000682D00006D6D00002D73000073200000C6
:10386000202000000055000053450000523A00009F
:10387000797900002D6D00006D2D0000646400005A
:103880002020000020000000555300004552000099
:103890003A4500007272000053740000436E00004D
:1038A0007420000020200000005500005345000057
:1038B000523A0000436F00006D700000616E00001E
:1038C0007920000020200000200000005553000057
:1038D000455200003A4F000075740000446100003A
:1038E000746500002020000020200000005500002A
:1038F00053450000523A0000557300006572000005
:103900004C6100006D7000003320000020000000BA
:1039100055530000455200003A5500007365000001
:10392000724C0000616D0000703400002020000027
:103930000055000053450000523A0000432D00009E
:103940004B2D0000482D00004F2D0000422D00009F
:103950005200000055530000455200003A55000047
:103960007365000072340000202000002020000059
:10397000202000000055000053450000523A00008E
:103980005573000065720000352000002020000003
:103990002020000020000000555300004552000088
:1039A0003A550000736500007236000020200000C8
:1039B000202000002020000000550000534500009A
:1039C000523A000055730000657200003720000075
:1039D000202000002020000020000000555300009F
:1039E000455200003A55000073650000723800002F
:1039F00020200000202000002020000000550000B2
:103A000053450000523A0000416900007263000013
:103A10006F6E00002041000064640000720000002E
:103A200055530000455200003A2000005374000036
:103A30006F70000020500000756C0000736500007E
:103A400000440000535000003A4600006C6F000034
:103A50006F720000303100002020000020200000A4
:103A60002000000044530000503A0000466C000063
:103A70006F6F000072300000322000002020000034
:103A80002020000000440000535000003A4600008F
:103A90006C6F00006F7200003033000020200000C7
:103AA000202000002000000044530000503A000095
:103AB000466C00006F6F0000723000003420000080
:103AC000202000002020000000440000535000008F
:103AD0003A4600006C6F00006F7200003035000045
:103AE000202000002020000020000000445300009F
:103AF000503A0000466C00006F6F0000723000000A
:103B0000362000002020000020200000004400009B
:103B1000535000003A4600006C6F00006F720000C6
:103B2000303700002020000020200000200000008E
:103B300044530000503A0000466C00006F6F0000D4
:103B400072300000382000002020000020200000FB
:103B500000440000535000003A4600006C6F000023
:103B60006F7200003039000020200000202000008B
:103B70002000000044530000503A0000466C000052
:103B80006F6F000072310000302000002020000024
:103B90002020000000440000535000003A4600007E
:103BA0006C6F00006F7200003131000020200000B7
:103BB000202000002000000044530000503A000084
:103BC000466C00006F6F0000723100003220000070
:103BD000202000002020000000440000535000007E
:103BE0003A4600006C6F00006F7200003133000035
:103BF000202000002020000020000000445300008E
:103C0000503A0000466C00006F6F000072310000F7
:103C1000342000002020000020200000004400008C
:103C2000535000003A4600006C6F00006F720000B5
:103C3000313500002020000020200000200000007E
:103C400044530000503A0000466C00006F6F0000C3
:103C500072310000362000002020000020200000EB
:103C600000440000535000003A4600006C6F000012
:103C70006F7200003137000020200000202000007B
:103C80002000000044530000503A0000466C000041
:103C90006F6F00007231000038200000202000000B
:103CA0002020000000440000535000003A4600006D
:103CB0006C6F00006F72000031390000202000009E
:103CC000202000002000000044530000503A000073
:103CD000466C00006F6F0000723200003020000060
:103CE000202000002020000000440000535000006D
:103CF0003A4600006C6F00006F7200003231000025
:103D0000202000002020000020000000445300007C
:103D1000503A0000466C00006F6F000072320000E5
:103D2000322000002020000020200000004400007D
:103D3000535000003A4600006C6F00006F720000A4
:103D4000323300002020000020200000200000006E
:103D500044530000503A0000466C00006F6F0000B2
:103D600072320000342000002020000020200000DB
:103D700000440000535000003A4600006C6F000001
:103D80006F7200003235000020200000202000006B
:103D90002000000044530000503A0000466C000030
:103DA0006F6F0000723200003620000020200000FB
:103DB0002020000000440000535000003A4600005C
:103DC0006C6F00006F72000032370000202000008E
:103DD000202000002000000044530000503A000062
:103DE000466C00006F6F0000723200003820000047
:103DF000202000002020000000440000535000005C
:103E00003A4600006C6F00006F720000323900000B
:103E1000202000002020000020000000445300006B
:103E2000503A0000466C00006F6F000072330000D3
:103E3000302000002020000020200000004400006E
:103E4000535000003A4600006C6F00006F72000093
:103E5000333100002020000020200000200000005E
:103E600044530000503A0000466C00006F6F0000A1
:103E700072330000322000002020000020200000CB
:103E8000004600004C5200003A5400006F700000E1
:103E9000466C00007220000020200000202000005E
:103EA00020000000464C0000523A00005072000012
:103EB0006B4600006C7200002020000020200000F3
:103EC00020200000004600004C5200003A4E000046
:103ED0006F55000073650000204700006F20000050
:103EE000466C000072000000464C0000523A000090
:103EF00046690000726500005361000066650000BD
:103F0000204600006C720000004600004C52000089
:103F10003A58000037200000536100006665000039
:103F200020200000466C000072000000464C00009B
:103F3000523A00005761000074650000725300009F
:103F400061660000654600006C72000000460000DB
:103F50004C5200003A53000074610000727400007B
:103F6000204600006C7200002020000020000000AD
:103F7000464C0000523A00004F6E000065530000AE
:103F8000746F000070200000466C0000722000007A
:103F9000004600004C5200003A4B000069640000EB
:103FA000732000004B65000079200000436E000084
:103FB00074000000464C0000523A000058360000E1
:103FC00020530000616600006520000020460000CC
:103FD0006C720000004600004C5200003A5800008D
:103FE00035200000536100006665000020200000BD
:103FF000466C000072000000464C0000523A00007F
:104000004E63000032310000466C00007220000058
:104010002020000020200000004600004C5200003C
:104020003A4E000063320000304600006C7200001F
:10403000202000002020000020000000464C00004E
:10404000523A00004E63000031390000466C000017
:104050007220000020200000202000000046000008
:104060004C5200003A4E0000633100003846000018
:104070006C720000202000002020000020000000C2
:10408000464C0000523A00004E63000031370000F9
:10409000466C00007220000020200000202000005C
:1040A000004600004C5200003A4E00006331000010
:1040B000364600006C720000202000002020000026
:1040C00020000000464C0000523A00004E63000001
:1040D00031350000466C00007220000020200000F6
:1040E00020200000004600004C5200003A4E000024
:1040F00063310000344600006C7200002020000094
:104100002020000020000000464C0000523A000031
:104110004E63000031330000466C00007220000046
:104120002020000020200000004600004C5200002B
:104130003A4E000063310000324600006C7200000D
:10414000202000002020000020000000464C00003D
:10415000523A00004E63000031310000466C00000E
:1041600072200000202000002020000000460000F7
:104170004C5200003A4E000063310000304600000F
:104180006C720000202000002020000020000000B1
:10419000464C0000523A00004E63000030390000E7
:1041A000466C00007220000020200000202000004B
:1041B000004600004C5200003A4E00006330000000
:1041C000384600006C720000202000002020000013
:1041D00020000000464C0000523A00004E630000F0
:1041E00030370000466C00007220000020200000E4
:1041F00020200000004600004C5200003A4E000013
:1042000063300000364600006C7200002020000081
:104210002020000020000000464C0000523A000020
:104220004E63000030350000466C00007220000034
:104230002020000020200000004600004C5200001A
:104240003A4E000063300000344600006C720000FB
:10425000202000002020000020000000464C00002C
:10426000523A00004E63000030330000466C0000FC
:1042700072200000202000002020000000460000E6
:104280004C5200003A4E00006330000032460000FD
:104290006C720000202000002020000020000000A0
:1042A000464C0000523A00004E63000030310000DE
:1042B000466C00007220000020200000202000003A
:1042C000005400004D5200003A4F000070200000E2
:1042D000576100006974000020540000696D0000FF
:1042E00065000000544D0000523A00004F7000007D
:1042F000205400006F740000616C00002054000026
:104300006D200000005400004D5200003A4E0000A5
:104310006F20000055730000652000005469000004
:104320006D65000020000000544D0000523A00006E
:104330004E65000078740000466C0000722000009A
:10434000546900006D650000005400004D520000EB
:104350003A4C0000754C0000644F00006666000097
:1043600020540000696D000065000000544D0000FD
:10437000523A0000466100006E2000004F660000C7
:1043800066200000546900006D65000000540000C4
:104390004D5200003A4C000069740000204F0000AC
:1043A0006666000020540000696D00006500000092
:1043B000544D0000523A00004F700000436C000062
:1043C0005761000069740000546900006D650000C9
:1043D000005400004D5200003A440000724A0000B0
:1043E0006D700000436800006B540000696D0000B0
:1043F00065000000544D0000523A0000446900007E
:104400007220000053650000742000005469000011
:104410006D650000005400004D5200003A56000047
:104420006F69000063650000204F00006E540000BB
:10443000696D000065000000544D0000523A000014
:10444000427200006B2000004D67000074200000E5
:10445000546900006D650000005400004D520000DA
:104460003A520000654F0000706500006E200000A9
:1044700020540000696D000065000000544D0000EC
:10448000523A000050340000202000004F6E00001F
:1044900020200000546900006D65000000540000F9
:1044A0004D5200003A5500002F440000204F0000FC
:1044B0006E20000020540000696D000065000000BF
:1044C000544D0000523A0000426B000032200000C0
:1044D0004F6E000020200000546900006D65000050
:1044E000005400004D5200003A4200006B310000C1
:1044F000204F00006E20000020540000696D000075
:1045000065000000544D0000523A00005275000052
:104510006E2000004F6E0000202000005469000053
:104520006D650000005400004D5200003A5200003A
:10453000756E0000204F00006666000020540000E9
:10454000696D000065000000544D0000523A000003
:10455000426B0000312000004F6600006620000022
:10456000546900006D650000005400004D520000C9
:104570003A4200006B320000204F000066660000E7
:1045800020540000696D000065000000544D0000DB
:10459000523A0000552F0000442000004F660000F2
:1045A00066200000546900006D65000000540000A2
:1045B0004D5200003A50000034200000204F00000F
:1045C0006666000020540000696D00006500000070
:1045D000544D0000523A0000536F00006C20000060
:1045E0004F6E000020200000546900006D6500003F
:1045F000005400004D5200003A4400006F6F00006C
:10460000722000005374000020540000696D000007
:1046100065000000544D0000523A00005374000041
:104620006F70000039200000202000005469000055
:104630006D650000005400004D5200003A53000028
:10464000746F000070310000302000002054000022
:10465000696D000065000000544D0000523A0000F2
:10466000537400006F700000313100002020000002
:10467000546900006D650000005400004D520000B8
:104680003A530000746F00007031000032200000C7
:1046900020540000696D000065000000544D0000CA
:1046A000523A0000537400006F7000003133000074
:1046B00020200000546900006D65000000540000D7
:1046C0004D5200003A530000746F0000703100003A
:1046D0003420000020540000696D000065000000D7
:1046E000544D0000523A0000537400006F700000F7
:1046F0003135000020200000546900006D65000085
:10470000004F00004E4F000046460000313A0000C6
:10471000466C00006F6F0000723000003120000016
:10472000200000004F4E00004F46000046310000C0
:104730003A4600006C6F00006F72000030320000DB
:1047400020200000004F00004E4F000046460000B1
:10475000313A0000466C00006F6F000072300000BC
:1047600033200000200000004F4E00004F460000A4
:10477000463100003A4600006C6F00006F72000086
:104780003034000020200000004F00004E4F000099
:1047900046460000313A0000466C00006F6F000092
:1047A0007230000035200000200000004F4E000055
:1047B0004F460000463100003A4600006C6F000092
:1047C0006F7200003036000020200000004F000013
:1047D0004E4F000046460000313A0000466C000093
:1047E0006F6F0000723000003720000020000000D2
:1047F0004F4E00004F460000463100003A46000090
:104800006C6F00006F720000303800002020000044
:10481000004F00004E4F000046460000313A0000B5
:10482000466C00006F6F00007230000039200000FD
:10483000200000004F4E00004F46000046310000AF
:104840003A4600006C6F00006F72000031300000CB
:1048500020200000004F00004E4F000046460000A0
:10486000313A0000466C00006F6F000072310000AA
:1048700031200000200000004F4E00004F46000095
:10488000463100003A4600006C6F00006F72000075
:104890003132000020200000004F00004E4F000089
:1048A00046460000313A0000466C00006F6F000081
:1048B0007231000033200000200000004F4E000045
:1048C0004F460000463100003A4600006C6F000081
:1048D0006F7200003134000020200000004F000003
:1048E0004E4F000046460000313A0000466C000082
:1048F0006F6F0000723100003520000020000000C2
:104900004F4E00004F460000463100003A4600007E
:104910006C6F00006F720000313600002020000034
:10492000004F00004E4F000046460000313A0000A4
:10493000466C00006F6F00007231000037200000ED
:10494000200000004F4E00004F460000463100009E
:104950003A4600006C6F00006F72000031380000B2
:1049600020200000004F00004E4F0000464600008F
:10497000313A0000466C00006F6F00007231000099
:1049800039200000200000004F4E00004F4600007C
:10499000463100003A4600006C6F00006F72000064
:1049A0003230000020200000004F00004E4F000079
:1049B00046460000313A0000466C00006F6F000070
:1049C0007232000031200000200000004F4E000035
:1049D0004F460000463100003A4600006C6F000070
:1049E0006F7200003232000020200000004F0000F3
:1049F0004E4F000046460000313A0000466C000071
:104A00006F6F0000723200003320000020000000B1
:104A10004F4E00004F460000463100003A4600006D
:104A20006C6F00006F720000323400002020000024
:104A3000004F00004E4F000046460000313A000093
:104A4000466C00006F6F00007232000035200000DD
:104A5000200000004F4E00004F460000463100008D
:104A60003A4600006C6F00006F72000032360000A2
:104A700020200000004F00004E4F0000464600007E
:104A8000313A0000466C00006F6F00007232000087
:104A900037200000200000004F4E00004F4600006D
:104AA000463100003A4600006C6F00006F72000053
:104AB0003238000020200000004F00004E4F000060
:104AC00046460000313A0000466C00006F6F00005F
:104AD0007232000039200000200000004F4E00001C
:104AE0004F460000463100003A4600006C6F00005F
:104AF0006F7200003330000020200000004F0000E3
:104B00004E4F000046460000313A0000466C00005F
:104B10006F6F0000723300003120000020000000A1
:104B20004F4E00004F460000463100003A4600005C
:104B30006C6F00006F720000333200002020000014
:104B4000004F00004E4F000046460000323A000081
:104B5000464800004D200000436800006B20000024
:104B6000200000004F4E00004F460000463200007B
:104B70003A440000724A00006D7000004368000073
:104B80006B200000004F00004E4F00004646000022
:104B9000323A0000456E0000636F0000646500005B
:104BA00072500000680000004F4E00004F460000A9
:104BB000463200003A570000617200006450000065
:104BC000726900006F720000004F00004E4F00003D
:104BD00046460000323A00004E6F00006E5300005F
:104BE000746F000070200000200000004F4E000095
:104BF0004F460000463200003A4F0000706500004A
:104C00006E5400006F740000616C0000004F0000E3
:104C10004E4F000046460000323A00005761000047
:104C200069740000546F0000746100006C000000A3
:104C30004F4E00004F460000463200003A4300004D
:104C40006C6F0000735400006F740000616C000012
:104C5000004F00004E4F000046460000323A000070
:104C6000435F0000447200003120000043680000F0
:104C70006B0000004F4E00004F460000463200001F
:104C80003A4300005F4400007232000020430000FD
:104C9000686B0000004F00004E4F000046460000C9
:104CA000323A0000485F00004472000031200000EA
:104CB000436800006B0000004F4E00004F460000AC
:104CC000463200003A4800005F44000072320000A3
:104CD00020430000686B0000004F00004E4F0000B2
:104CE00046460000323A0000535F00005366000061
:104CF00074200000436800006B0000004F4E00006D
:104D00004F460000463200003A4D00006774000034
:104D10004D6F00006E430000686B0000004F000004
:104D20004E4F000046460000323A0000456E00003B
:104D3000636F000064200000436800006B00000007
:104D40004F4E00004F460000463200003A5200002D
:104D5000656C00006576000065430000686B00002C
:104D6000004F00004E4F000046460000323A00005F
:104D70004F6900006C4C00006F700000655400002B
:104D8000790000004F4E00004F4600004632000000
:104D90003A31000020430000616C00006C430000C9
:104DA000686B0000004F00004E4F000046460000B8
:104DB000323A00004D6100006E5300007573000030
:104DC000436800006B0000004F4E00004F4600009B
:104DD000463200003A420000726B00004D6F000046
:104DE0006E430000686B0000004F00004E4F000053
:104DF00046460000323A00004B690000644B000058
:104E000065790000436C0000720000004F4E000006
:104E10004F460000463200003A4600005F43000063
:104E2000617200004B65000079200000004F000017
:104E30004E4F000046460000323A00005369000021
:104E40006E6700006C6500004361000072000000A6
:104E50004F4E00004F460000463200003A4F00001F
:104E6000704F00007574000053650000742000004E
:104E7000004F00004E4F000046460000323A00004E
:104E80005366000074550000736500002052000056
:104E90004C0000004F4E00004F460000463200001C
:104EA0003A4600006C6F00006F7200002053000053
:104EB000656C0000004F00004E4F000046460000A9
:104EC000323A0000527500006E6E0000696E0000FC
:104ED000674F0000700000004F4E00004F4600007A
:104EE000463200003A4E00006F740000205500006A
:104EF0007365000020200000004F00004E4F0000AE
:104F000046460000323A00004E6F00007420000058
:104F10005573000065200000200000004F4E000087
:104F20004F460000463200003A4E00006F74000009
:104F3000205500007365000020200000004F000095
:104F40004E4F000046460000323A00004E6F00000F
:104F50007420000055730000652000002000000050
:104F60004F4E00004F460000463200003A57000006
:104F70006F7200006B2000004D6F00006465000040
:104F8000004400004F4F0000522D0000533A000033
:104F9000466C00006F6F000072300000312000008E
:104FA00020000000444F00004F5200002D5300002D
:104FB0003A4600006C6F00006F7200003032000053
:104FC00020200000004400004F4F0000522D000040
:104FD000533A0000466C00006F6F00007230000012
:104FE0003320000020000000444F00004F5200001A
:104FF0002D5300003A4600006C6F00006F720000F5
:105000003034000020200000004400004F4F00001A
:10501000522D0000533A0000466C00006F6F0000F4
:10502000723000003520000020000000444F0000D6
:105030004F5200002D5300003A4600006C6F0000F4
:105040006F72000030360000202000000044000095
:105050004F4F0000522D0000533A0000466C0000F4
:105060006F6F000072300000372000002000000049
:10507000444F00004F5200002D5300003A460000FC
:105080006C6F00006F7200003038000020200000BC
:10509000004400004F4F0000522D0000533A000022
:1050A000466C00006F6F0000723000003920000075
:1050B00020000000444F00004F5200002D5300001C
:1050C0003A4600006C6F00006F7200003130000043
:1050D00020200000004400004F4F0000522D00002F
:1050E000533A0000466C00006F6F00007231000000
:1050F0003120000020000000444F00004F5200000B
:105100002D5300003A4600006C6F00006F720000E3
:105110003132000020200000004400004F4F00000A
:10512000522D0000533A0000466C00006F6F0000E3
:10513000723100003320000020000000444F0000C6
:105140004F5200002D5300003A4600006C6F0000E3
:105150006F72000031340000202000000044000085
:105160004F4F0000522D0000533A0000466C0000E3
:105170006F6F000072310000352000002000000039
:10518000444F00004F5200002D5300003A460000EB
:105190006C6F00006F7200003136000020200000AC
:1051A000004400004F4F0000522D0000533A000011
:1051B000466C00006F6F0000723100003720000065
:1051C00020000000444F00004F5200002D5300000B
:1051D0003A4600006C6F00006F720000313800002A
:1051E00020200000004400004F4F0000522D00001E
:1051F000533A0000466C00006F6F000072310000EF
:105200003920000020000000444F00004F520000F1
:105210002D5300003A4600006C6F00006F720000D2
:105220003230000020200000004400004F4F0000FA
:10523000522D0000533A0000466C00006F6F0000D2
:10524000723200003120000020000000444F0000B6
:105250004F5200002D5300003A4600006C6F0000D2
:105260006F72000032320000202000000044000075
:105270004F4F0000522D0000533A0000466C0000D2
:105280006F6F000072320000332000002000000029
:10529000444F00004F5200002D5300003A460000DA
:1052A0006C6F00006F72000032340000202000009C
:1052B000004400004F4F0000522D0000533A000000
:1052C000466C00006F6F0000723200003520000055
:1052D00020000000444F00004F5200002D530000FA
:1052E0003A4600006C6F00006F720000323600001A
:1052F00020200000004400004F4F0000522D00000D
:10530000533A0000466C00006F6F000072320000DC
:105310003720000020000000444F00004F520000E2
:105320002D5300003A4600006C6F00006F720000C1
:105330003238000020200000004400004F4F0000E1
:10534000522D0000533A0000466C00006F6F0000C1
:10535000723200003920000020000000444F00009D
:105360004F5200002D5300003A4600006C6F0000C1
:105370006F72000033300000202000000044000065
:105380004F4F0000522D0000533A0000466C0000C1
:105390006F6F000072330000312000002000000019
:1053A000444F00004F5200002D5300003A460000C9
:1053B0006C6F00006F72000033320000202000008C
:1053C000004900005F4F00003A4D0000616E000090
:1053D0005370000064200000205000006F72000035
:1053E00074000000495F00004F3A00004261000075
:1053F000745300007064000020200000506F000013
:1054000072740000004900005F4F00003A44000041
:10541000656300005370000064200000205000000D
:105420006F72000074000000495F00004F3A0000F6
:10543000464800004D53000070640000202000002A
:10544000506F000072740000004900005F4F0000C0
:105450003A53000070640000333000002020000048
:10546000205000006F72000074000000495F0000CF
:105470004F3A0000537000006434000035200000F3
:1054800020200000506F00007274000000490000EE
:105490005F4F00003A530000706400003630000097
:1054A00020200000205000006F72000074000000F7
:1054B000495F00004F3A000053700000643900005B
:1054C0003020000020200000506F000072740000A7
:1054D000004900005F4F00003A5300007064000074
:1054E0003130000035200000205000006F720000B5
:1054F00074000000495F00004F3A00005370000044
:10550000643100003230000020200000506F0000A5
:1055100072740000004900005F4F00003A53000021
:105520007064000031350000302000002050000081
:105530006F72000074000000495F00004F3A0000E5
:10554000537000006431000038300000202000005B
:10555000506F000072740000004900005F4F0000AF
:105560003A53000070640000323100003020000027
:10557000205000006F72000074000000495F0000BE
:105580004F3A000045740000633100005370000082
:1055900064200000506F0000727400000049000099
:1055A0005F4F00003A450000746300003253000072
:1055B00070640000205000006F7200007400000052
:1055C000495F00004F3A0000456C0000657600001E
:1055D000204D00006178000020530000706400003E
:1055E000004900005F4F00003A4C0000696D000068
:1055F000742000004D61000078200000537000000E
:1056000064000000495F00004F3A00004D61000057
:1056100078530000755300006431000020530000EF
:1056200070640000004900005F4F00003A4D000028
:1056300061780000537500005364000032200000C0
:105640005370000064000000495F00004F3A000002
:105650004D610000785800003058000031200000F3
:105660002053000070640000004900005F4F0000FC
:105670003A53000070640000312000002020000038
:10568000202000002020000020000000495F0000D2
:105690004F3A0000537000006432000020200000E8
:1056A00020200000202000002020000000490000F1
:1056B0005F4F00003A530000706400003320000088
:1056C00020200000202000002020000020000000FA
:1056D000495F00004F3A000053700000643400003E
:1056E00020200000202000002020000020200000BA
:1056F000004900005F4F00003A5300007064000052
:105700003520000020200000202000002020000084
:1057100020000000495F00004F3A00005370000075
:10572000643600002020000020200000202000001F
:1057300020200000004900005F4F00003A530000A5
:1057400070640000372000002020000020200000AE
:105750002020000020000000495F00004F3A0000B8
:10576000537000006438000020200000202000005A
:105770002020000020200000004900005F4F0000B2
:105780003A5300007064000039200000202000001F
:10579000202000002020000020000000495F0000C1
:1057A0004F3A0000537000006431000030200000C8
:1057B00020200000202000002020000000490000E0
:1057C0005F4F00003A530000706400003131000068
:1057D00020200000202000002020000020000000E9
:1057E000495F00004F3A0000537000006431000030
:1057F0003220000020200000202000002020000097
:10580000005700005F4600004C5200003A2800009C
:1058100031290000686D00005F6800006D5F0000C6
:1058200046000000575F0000464C0000523A00005E
:1058300028320000296800006D5F0000686D0000DC
:105840005F460000005700005F4600004C52000019
:105850003A28000033290000686D00005F680000EE
:105860006D5F000046000000575F0000464C0000DE
:10587000523A000028340000296800006D5F0000E3
:10588000686D00005F460000005700005F460000A2
:105890004C5200003A540000696D00006530000071
:1058A000393100003020000020000000575F000068
:1058B000464C0000523A0000546900006D6500003B
:1058C000313000003131000020200000005700007E
:1058D0005F4600004C5200003A540000696D000021
:1058E000653100003131000032200000200000004E
:1058F000575F0000464C0000523A00005469000017
:105900006D650000313200003133000020200000BE
:10591000005700005F4600004C5200003A5400005F
:10592000696D000065310000333100003420000053
:1059300020000000575F0000464C0000523A000073
:10594000546900006D6500003134000031350000FD
:1059500020200000005700005F4600004C5200006D
:105960003A540000696D00006531000035310000D7
:105970003620000020000000575F0000464C000069
:10598000523A0000546900006D6500003136000095
:105990003137000020200000005700005F46000063
:1059A0004C5200003A540000696D0000653100005F
:1059B000373100003820000020000000575F000051
:1059C000464C0000523A0000546900006D6500002A
:1059D000313800003139000020200000005700005D
:1059E0005F4600004C5200003A540000696D000010
:1059F0006531000039320000302000002000000036
:105A0000575F0000464C0000523A00005469000005
:105A10006D650000323000003231000020200000AF
:105A2000005700005F4600004C5200003A5400004E
:105A3000696D000065320000313000003520000043
:105A400020000000575F0000464C0000523A000062
:105A5000546900006D6500003030000030320000F5
:105A600020200000005700005F4600004C5200005C
:105A70003A540000696D00006530000030300000CD
:105A80003320000020000000575F0000464C00005B
:105A9000523A0000546900006D650000303000008B
:105AA0003034000020200000005700005F46000056
:105AB0004C5200003A540000696D0000653000004F
:105AC000303000003520000020000000575F00004B
:105AD000464C0000523A0000546900006D65000019
