:020000040000FA
:1000000000010400000000004A1600006415000012
:100010006E15000078150000821500004A160000D9
:100020004A1600004A1600004A1600004A16000050
:100030004A1600007C1000004A1600004A16000014
:100040004A1600004A1600004A160000B4090000D3
:10005000440900004A1600004A1600004A16000033
:100060004A1600004A1600004A1600004A16000010
:100070004A1600004A1600004A1600004A16000000
:100080004A1600004A160000C20C00006C0C00006A
:100090004A160000681600004A1600004A160000C2
:1000A0004A1600004A1600004A1600004A160000D0
:1000B0004A1600004A1600004A1600004A160000C0
:1000C000CE1900004A1600009C0E00004A160000DF
:1000D0002A1600004A1600004A1600004A160000C0
:1000E0004A1600004A1600004A1600004A16000090
:1000F0004A1600004A1600004A1600004A16000080
:10010000FFFFFF00FFFFFF004A160000641500001C
:100110006E15000078150000821500004A160000D8
:100120004A1600004A1600004A1600004A1600004F
:100130004A1600007C1000004A1600004A16000013
:100140004A1600004A1600004A160000B4090000D2
:10015000440900004A1600004A1600004A16000032
:100160004A1600004A1600004A1600004A1600000F
:100170004A1600004A1600004A1600004A160000FF
:100180004A1600004A160000C20C00006C0C000069
:100190004A160000681600004A1600004A160000C1
:1001A0004A1600004A1600004A1600004A160000CF
:1001B0004A1600004A1600004A1600004A160000BF
:1001C000CE1900004A1600009C0E00004A160000DE
:1001D0002A1600004A1600004A1600004A160000BF
:1001E0004A1600004A1600004A1600004A1600008F
:1001F0004A1600004A1600004A1600004A1600007F
:100200000F1A210080792200000188000000000000
:10021000050007000C00070092E00200000000004B
:100220000040DA000000FE004440A90000992600CA
:100230000000E0000300320000002000A001880060
:100240004440A80000000600A0A5260011002000E0
:100250001600370062004000E080480091018800ED
:100260009001BA0062004000E080480091018800DF
:100270009002BA0062004000E08048000002EB00FB
:100280006028E10005003A008301E900070033001F
:10029000038009000059EB00040037006128E100E9
:1002A000010032000082EB00050007009101880088
:1002B0001001BA000200E000E6FF3A00000005006D
:1002C000910188008002780062004000E0804800D0
:1002D0003559BA008301E900080032002559BA00F7
:1002E0008301E900050032000400E000F4FF320061
:1002F00015D9BA008301E900F1FF3A0000000600B9
:100300006022B800060220000000D0008180D200E8
:100310000482D2008582D2000000A00002025200B6
:1003200083825A0003003B000202420083824A009B
:100330000000A1000603E900F3FF3A0000000600F8
:10034000EFFF07000400BE00000006000E00FA00E8
:10035000000F78001E007800600798006E00900083
:10036000E20F5000700032006E009000E20F50006B
:1003700007003E006E0090000000E0000B0032001D
:100380006E009000E10F50001F003200A600370001
:100390006E009000E30F5000740032006E00900079
:1003A000E40F50008A0032009F00370060042D00E7
:1003B0009080FB004047800001004000808A880058
:1003C00050478000908A880060478000A08A88009B
:1003D00070478000B08A880080478000C08A88000B
:1003E00060042D009080FB009047800001004000D9
:1003F000D08A8800A0478000E08A8800B04780004B
:10040000F08A88008800370060042D001080FB000F
:1004100010079800F8C8BF00004F9800FAC8BF0046
:10042000104F9800FCC8BF00204F9800FEC8BF00C6
:10043000304F98004E009000DE0090001E019000AA
:100440000201E90003003300000040008180480001
:10045000FBFF370040079800510798000E489000B6
:100460000080FB00808A88001E4890000080FB000E
:10047000908A88002E4890000080FB00A08A8800A7
:100480003E4890000080FB00B08A88000000EB002E
:10049000C08A88000000EB00D08A88000000EB00D2
:1004A000E08A880001488000000E20000080600083
:1004B0000000E0000500320060042D009080FB0089
:1004C0000048800001004000C08A88001048800079
:1004D000010E2000010060000000E0000500320075
:1004E00060042D009080FB00104880000100400057
:1004F000D08A880020488000010E200001006000A2
:100500000000E0000500320060042D009080FB0038
:100510002048800001004000E08A880030488000C8
:10052000F08A880040003700804A8000808A880076
:10053000904A8000908A8800A04A8000A08A8800A3
:10054000B04A8000B08A8800C04A8000C08A880013
:10055000C0488000D08A880090498000E08A8800E6
:10056000A0498000F08A88002F003700B049800041
:10057000808A8800C0498000908A8800D049800025
:10058000A08A8800E0498000B08A8800F049800095
:10059000C08A880060042D009080FB00504B8000D2
:1005A00001004000D08A880060042D001080FB000C
:1005B000E08A880000042D009080FB0060042D007C
:1005C0001080FB0000804000F08A88001600370091
:1005D00090748000A1748000200798004E40900025
:1005E0000080FB00808A88002E0090004800DE001A
:1005F0000080FB00908A8800A04B8000A08A8800C1
:10060000004A8000B08A8800104A8000C08A8800B2
:10061000D04B8000D08A8800E04B8000E08A8800C0
:10062000F04B8000F08A88000080FA00000006008D
:100630000800FA00000F7800110798001E009000D3
:10064000C500DD0000802F000080600020079800BA
:100650001E009000C200DD00C00F2000008060007E
:10066000100798009E0090002E00900000807000FF
:10067000100798001E007800300798003E00900098
:10068000E10F5000160032003E009000E10F5000D4
:1006900004003C003E0090000000E0000500320035
:1006A000250037003E009000E20F50001700320096
:1006B00021003700001B800063006000001B8800E1
:1006C000011B80001E00900000807000001B88004D
:1006D000001B80000000A000001B880020003700E5
:1006E000801A800063006000801A8800811A8000F0
:1006F0001E00900000807000801A8800801A800020
:100700000000A000801A880015003700001A800041
:1007100063006000001A8800011A80001E0090002B
:1007200000807000001A8800001A80000000A000FD
:10073000001A88000A003700001B80006300600078
:10074000001B8800011B80001E00900000807000CC
:10075000001B8800001B80000000A000001B880018
:100760000080FA00000006000C00FA00000F78007C
:1007700011079800220798001E009000CE00DD00AF
:1007800000002C0000806000300798002E009000D0
:10079000C200DE00000023000080600040079800D7
:1007A000BE0090004E00900000807000300798005E
:1007B0002E009000C600DE00F00F200000806000D8
:1007C00040079800BE0090004E009000008070002E
:1007D000300798002E009000CA00DD0000C02F00F6
:1007E00000806000400798001E00780050079800C5
:1007F0005E009000E10F5000160032005E00900095
:10080000E10F500004003C005E0090000000E0009A
:1008100005003200250037005E009000E20F500016
:1008200017003200210037003E009000101B8800A6
:10083000211B8000F03F200000806000201B88000A
:10084000211B80004E00900000807000201B88005B
:10085000200037003E009000901A8800A11A800006
:10086000F03F200000806000A01A8800A11A8000DC
:100870004E00900000807000A01A8800150037001C
:100880003E009000101A8800211A8000F03F2000DE
:1008900000806000201A8800211A80004E0090001D
:1008A00000807000201A88000A0037003E00900087
:1008B000101B8800211B8000F03F2000008060009A
:1008C000201B8800211B80004E00900000807000DB
:1008D000201B88000080FA00000006001000FA00CB
:1008E000000F78001107980022079800330798003E
:1008F0001E009000C200DD00C0FF210000806000EB
:10090000100798003E009000CA00DD0000C02F00D4
:1009100000806000400798003E009000C600DE00A6
:10092000F03F200000806000500798002E009000EB
:10093000CA00DD0000C02000008060006007980051
:10094000DE0090006E00900000807000500798005C
:100950001E007800700798007E009000E20F5000A3
:100960002C0032007E009000E20F500007003C0097
:100970007E0090000000E0000E0032007E0090003B
:10098000E10F500017003200520037007E00900047
:10099000E40F5000370032007E009000E30F50005B
:1009A000280034007E009000E50F50003D0032002A
:1009B00048003700011880001E0090000080700081
:1009C00000188800001880000000A00000188800AF
:1009D0005E009000101888004E00900020188800DB
:1009E00047003700411880001E0090000080700012
:1009F00040188800401880000000A00040188800BF
:100A00005E009000501888004E009000601888002A
:100A10003B003700811880001E00900000807000AD
:100A200080188800801880000000A00080188800CE
:100A30005E009000901888004E009000A01888007A
:100A40002F003700C11880001E0090000080700049
:100A5000C0188800C01880000000A000C0188800DE
:100A60005E009000D01888004E009000E0188800CA
:100A700023003700011980001E00900000807000E4
:100A800000198800001980000000A00000198800EB
:100A90005E009000101988004E0090002019880018
:100AA00017003700411980001E0090000080700080
:100AB00040198800401980000000A00040198800FB
:100AC0005E009000501988004E0090006019880068
:100AD0000B003700011880001E009000008070009D
:100AE00000188800001880000000A000001888008E
:100AF0005E009000101888004E00900020188800BA
:100B00000080FA00000006001000FA00000F7800D4
:100B10001107980022079800330798001E009000E4
:100B2000C200DD00C0FF21000080600010079800B7
:100B30003E009000CA00DD0000C02F000080600071
:100B4000400798003E009000C600DE00F03F200005
:100B500000806000500798002E009000CA00DD0061
:100B600000C020000080600060079800DE00900058
:100B70006E00900000807000500798001E00780002
:100B8000700798007E0090000000E0000400320032
:100B90007E009000E10F50000D0032001800370079
:100BA000811980001E00900000807000801988006C
:100BB0008019800061006000801988005E0090004C
:100BC000901988004E009000A01988001700370087
:100BD000C11980001E00900000807000C0198800BC
:100BE000C019800061006000C01988005E0090009C
:100BF000D01988004E009000E01988000B003700E3
:100C0000811980001E00900000807000801988000B
:100C10008019800061006000801988005E009000EB
:100C2000901988004E009000A01988000080FA00FA
:100C3000000006001000FA00000F7800110798006D
:100C400022079800330798001E009000C200DD00C4
:100C5000C0FF210000806000100798003E00900057
:100C6000CA00DD0000C02F0000806000400798002F
:100C70003E009000C600DE00F03F200000806000D3
:100C8000500798002E009000CA00DD0000C0200030
:100C90000080600060079800DE0090006E00900009
:100CA00000807000500798001E00780070079800C0
:100CB0007E009000E20F5000300032007E00900075
:100CC000E20F500007003C007E0090000000E000B2
:100CD0000E0032007E009000E10F5000190032003B
:100CE0005E0037007E009000E40F50003F003200AD
:100CF0007E009000E30F50002E0034007E00900034
:100D0000E50F500047003200540037000000EB00B0
:100D1000001E8800011E80001E00900000807000F0
:100D2000001E8800001E80000000A000001E880039
:100D30005E009000101E88004E009000201E88006B
:100D4000530037000000EB00401E8800411E800069
:100D50001E00900000807000401E8800401E800031
:100D60000000A000401E88005E009000501E880019
:100D70004E009000601E8800450037000000EB0028
:100D8000801E8800811E80001E0090000080700080
:100D9000801E8800801E80000000A000801E880049
:100DA0005E009000901E88004E009000A01E8800FB
:100DB000370037000000EB00C01E8800C11E800015
:100DC0001E00900000807000C01E8800C01E8000C1
:100DD0000000A000C01E88005E009000D01E8800A9
:100DE0004E009000E01E8800290037000000EB0054
:100DF000001F8800011F80001E009000008070000E
:100E0000001F8800001F80000000A000001F880055
:100E10005E009000101F88004E009000201F880088
:100E20001B0037000000EB00401F8800411F8000BE
:100E30001E00900000807000401F8800401F80004E
:100E40000000A000401F88005E009000501F880036
:100E50004E009000601F88000D0037000000EB007E
:100E6000001E8800011E80001E009000008070009F
:100E7000001E8800001E80000000A000001E8800E8
:100E80005E009000101E88004E009000201E88001A
:100E90000080FA00000006001000FA00000F780041
:100EA0001107980022079800330798001E00900051
:100EB000C200DD00C0FF2100008060001007980024
:100EC0003E009000CA00DD0000C02F0000806000DE
:100ED000400798003E009000C600DE00F03F200072
:100EE00000806000500798002E009000CA00DD00CE
:100EF00000C020000080600060079800DE009000C5
:100F00006E00900000807000500798001E0078006E
:100F1000700798007E0090000000E000040032009E
:100F20007E009000E10F50000F0032001C003700DF
:100F30000000EB00801F8800811F80001E009000D1
:100F400000807000801F8800801F80000000A000CB
:100F5000801F88005E009000901F88004E00900067
:100F6000A01F88001B0037000000EB00C01F880096
:100F7000C11F80001E00900000807000C01F88000C
:100F8000C01F80000000A000C01F88005E0090000D
:100F9000D01F88004E009000E01F88000D00370031
:100FA0000000EB00801F8800811F80001E00900061
:100FB00000807000801F8800801F80000000A0005B
:100FC000801F88005E009000901F88004E009000F7
:100FD000A01F88000080FA00000006000800FA0048
:100FE000000F7800110798001E009000C500DD007A
:100FF00000802F0000806000200798001E009000F5
:10100000C200DD00C00F20000080600010079800C3
:101010009E0090002E009000008070001007980045
:101020001E007800300798003E009000E10F50004D
:10103000160032003E009000E10F500004003C001A
:101040003E0090000000E00005003200250037005F
:101050003E009000E20F50001700320021003700E0
:1010600000218000630060000021880001218000D1
:101070001E00900000807000002188000021800088
:101080000000A000002188002000370080208000A0
:101090006300600080208800812080001E00900096
:1010A0000080700080208800802080000000A00068
:1010B0008020880015003700002080006300600059
:1010C00000208800012080001E0090000080700039
:1010D00000208800002080000000A0000020880080
:1010E0000A003700002180006300600000218800B2
:1010F000012180001E009000008070000021880007
:10110000002180000000A000002188000080FA007B
:10111000000006000C00FA00000F7800110798008C
:10112000220798001E009000CE00DD0000002C0079
:1011300000806000300798002E009000C200DE00A2
:10114000000023000080600040079800BE0090006F
:101150004E00900000807000300798002E00900034
:10116000C600DE00F00F20000080600040079800FD
:10117000BE0090004E009000008070003007980084
:101180002E009000CA00DD0000C02F00008060002B
:10119000400798001E007800500798005E009000FD
:1011A000E10F5000160032005E009000E10F500089
:1011B00004003C005E0090000000E00005003200EA
:1011C000250037005E009000E20F5000170032004B
:1011D000210037003E00900010218800212180006E
:1011E000F03F200000806000202188002121800045
:1011F0004E00900000807000202188002000370001
:101200003E00900090208800A1208000F03F200048
:1012100000806000A0208800A12080004E00900087
:1012200000807000A0208800150037003E0090006C
:101230001020880021208000F03F20000080600006
:1012400020208800212080004E0090000080700047
:10125000202088000A0037003E00900010218800FE
:1012600021218000F03F20000080600020218800C4
:10127000212180004E009000008070002021880015
:101280000080FA0000000600809FBE00821F7800E8
:101290000200FA008540A900208080000000D000F4
:1012A000A1F32000010040001000E00012003A000D
:1012B0000000EB00000F78000FC2BF000080FB00B1
:1012C000610060000000E00005003A00F07C2000B2
:1012D0009E0F100002003E001E0FE800F6FF3700D0
:1012E000E302A8000000EB00308088000000EB0063
:1012F0001080880018003700208080000000D00097
:10130000A2F3200002004000100078008010880046
:10131000208080000000E800208088000000EB00B2
:101320003080880090002000108088005004200049
:101330000410E300080036000000EB002080880065
:10134000208080000000D000A2F320008200400036
:101350000000EB00800878000080FA004F01780060
:101360004F00BE0000400600809FBE00829FBE006E
:101370001200FA000000EB00000F78000000EB0004
:10138000100798008520A9000EC2BF000080FB0056
:10139000610060000000E000020032009010800058
:1013A000000F78000EC2BF000080FB0061006000EB
:1013B0000000E0000200320091108000010F780070
:1013C0000EC2BF000080FB00610060000000E00072
:1013D0000200320092108000020F78000EC2BF009F
:1013E0000080FB00610060000000E00002003200AD
:1013F00093108000030F78000EC2BF000080FB0036
:10140000610060000000E0000200320090108000E7
:10141000000F78000EC2BF000080FB00610060007A
:101420000000E0000200320091108000010F7800FF
:101430000000EB00308088000EC2BF000080FB007F
:101440000000D1000080FB00610060000000E000AF
:10145000010032000E22A9000EC2BF000080FB0076
:101460004200DE000080FB00610060000000E00040
:10147000010032000E42A9000EC2BF000080FB0036
:101480004300DE000080FB00610060000000E0001F
:10149000010032000E62A900900020000210E3005B
:1014A000090132000000EB00308088004004200079
:1014B0000410E30004003E00208080000000E800EB
:1014C00020808800020037000000EB0020808800A8
:1014D000208080000000D000A1F320000100400027
:1014E0001E08780012808000020F98008E0990007C
:1014F000E78F5100EB0032000E089000E70F50001C
:1015000007003E008E0890000100E0000B00320052
:101510000E099000E60F510017003200E600370078
:101520008E099000ED8F51002B0032000E089000C4
:10153000EE0F500048003200DF003700610020004D
:101540009E8F100003003200520020009E0F1100F9
:10155000DD003A0060002000108088009E017800C5
:10156000D37988000000EB00208088001E007800FE
:1015700040808800D4003700408080001E0040007A
:1015800040808800310020009E8F10000300320050
:10159000420020009E0F110009003A0020808000C8
:1015A0000000D000A3F32000830040000000EB0007
:1015B00080087800D000200010808800C20037002A
:1015C000F00220009E0F1000BF003E000000EB0064
:1015D00010808800BC003700900320009E0F100090
:1015E00004003E0000FD2F001E0040002007980070
:1015F0000300370091FC2F009E80400021079800D7
:101600002E019000020F7800208080000000D000A2
:10161000A3F32000830040000000EB008008780066
:1016200041808000000F2000008060004400DE0048
:10163000100798001E0090009E0F500003003A0013
:10164000E0002000108088009F0037000000EB00C1
:10165000108088009C003700900320009E0F10002F
:1016600004003E0000FD2F001E00400030079800DF
:101670000300370091FC2F009E8040003107980046
:101680003E019000020F7800408080006F006000F3
:1016900010079800208080000000D000A3F32000F5
:1016A000830040000000EB00800878000000EB00A1
:1016B000207E88001E0090009E0F500076003A00A9
:1016C000500420000410E30073003E000000EB0013
:1016D000000F780010002000100798001E009000F6
:1016E0000000D000A2F3200082004000F0022000A1
:1016F000910F1000650036001E0090000000D00021
:10170000A3F3200083014000430798001E009000CF
:101710000000D000A2F320008200400090032000CF
:10172000910F100008003E001E0090000000D00045
:10173000A3F320000300400001FD2F009080400033
:1017400051079800070037001E0090000000D000ED
:10175000A2F320000200400093FC2F009081410082
:1017600053079800DE0090004E00900001087800BA
:101770001E0090000000D000A2F320008200400074
:101780001E0090000000D000A3F3200003004000E2
:10179000100078004400DD00800878001E009000F2
:1017A0000000E800100798001E0090000000D00024
:1017B000A1F3200081004000610798001E00900006
:1017C0000000D000A2F3200082004000900320001F
:1017D000910F100008003E001E0090000000D00095
:1017E000A3F320000300400001FD2F009080400083
:1017F00071079800070037001E0090000000D0001D
:10180000A2F320000200400093FC2F0090814100D1
:1018100073079800FE0090006E00900001087800A9
:101820001E0078000000D00063FC2000030140008F
:101830001E0090000000D00083F3200083004000D1
:101840001E0090000000D000A3F320000300400021
:1018500091007800108970001E0FE800E001200060
:101860009E0F1000050036000000EB00108088007D
:101870000000EB0020808800040037001E0090006C
:101880000000E8001007980094FF37008000200057
:10189000108088000C0037000000EB0010808800EA
:1018A000090037000000EB00108088000000EB000A
:1018B00020808800040037000000EB0010808800C2
:1018C0000000EB00208088000080FA004F01BE007D
:1018D0004F00BE0000400600809FBE00821F7800BF
:1018E0000000FA008720A900A08680000000D00038
:1018F000A1002100010040001000E00005003A00B6
:101900000000EB00B08688000000EB0090868800A5
:1019100018003700A08680000000D000A20021003F
:101920000200400010007800D0108800A0868000DF
:101930000000E800A08688000000EB00B086880068
:10194000900020009086880050042000D410E3000E
:10195000080036000000EB00A0868800A08680000A
:101960000000D000A2002100820040000000EB0037
:10197000800878000080FA004F0178004F00BE0018
:1019800000400600809FBE00821F78000A00FA0017
:101990000000EB00000F78000000EB00100798003B
:1019A0008700A90018C2BF000080FB006100600032
:1019B0000000E00002003200E0108000000F78001C
:1019C00018C2BF000080FB00610060000000E00062
:1019D00002003200E1108000010F780018C2BF0041
:1019E0000080FB00610060000000E00002003200A7
:1019F000E2108000020F780018C2BF000080FB00D8
:101A0000610060000000E00002003200E010800091
:101A1000000F78000000EB00B086880018C2BF00FD
:101A20000080FB000000D1000080FB00610060002E
:101A30000000E000010032001822A90018C2BF0017
:101A40000080FB004200DE000080FB0061006000BF
:101A50000000E000010032001842A90018C2BF00D7
:101A60000080FB004300DE000080FB00610060009E
:101A70000000E000010032001862A9009000200080
:101A8000D210E300A80032000000EB00B08688000E
:101A900040042000D410E30004003E00A086800033
:101AA0000000E800A0868800020037000000EB007C
:101AB000A0868800A08680000000D000A100210040
:101AC000010040001E0878009286800042079800BE
:101AD0004E009000E70F50008A003200CE009000C8
:101AE000E78F500007003E004E0190000200E0002A
:101AF0000B0032004E009000E60F5000170032003D
:101B000085003700CE009000ED8F50002500320098
:101B10004E019000EE0F5100420032007E0037006F
:101B2000600020009E0F10000300320051002000D2
:101B30009E8F10007C003A00600020009086880094
:101B40001E017800528088000000EB00A08688000B
:101B50001E007800C086880073003700C0868000B1
:101B60001E004000C0868800310020009E8F1000BB
:101B700003003200420020009E0F11006A003A006C
:101B8000A08680000000D000A2002100820040005A
:101B90000000EB0080087800D000200090868800CC
:101BA00061003700900320009E0F100004003E00EB
:101BB00000FD2F001E0040002007980003003700A2
:101BC00091FC2F009E804000210798002E0190007C
:101BD000020F7800A08680000000D000A200210043
:101BE000820040000000EB0080087800C186800081
:101BF000000F2000008060004400DE001007980005
:101C00001E0090009E0F500003003A00E0002000EC
:101C100090868800440037000000EB009086880022
:101C200041003700900320009E0F100004003E008A
:101C300000FD2F001E004000300798000300370011
:101C400091FC2F009E804000310798003E019000DB
:101C5000020F7800C08680006F00600010079800B7
:101C6000A08680000000D000A20021008200400079
:101C70000000EB00800878000000EB00A0848800E2
:101C80001E0090009E0F50001B003A000000EB0069
:101C9000100798001E0090000000D000A100210055
:101CA000010040001000E000100032001E00900013
:101CB000FD0F50000D003E001E0090000000D000FF
:101CC00062092100820040001E0090000000D00048
:101CD000A200210002004000900878001E00900041
:101CE0000000E80010079800EAFF3700800020009D
:101CF000908688000C0037000000EB00908688007A
:101D0000090037000000EB00908688000000EB001F
:101D1000A0868800040037000000EB009086880051
:101D20000000EB00A08688000080FA004F017800D8
:101D30004F00BE0000400600801F78000000FA003F
:101D400089C0BF000080FB00610060000000E0006F
:101D5000010032008900A9000080FA004F007800DD
:101D6000004006000000FA00E842A900E842A9008D
:101D7000E842A900E842A900E2E2A900E2E2A900E3
:101D8000E2E2A900E2E2A900E2E2A800E2E2A800A1
:101D9000E2E2A800E2E2A800E2E2A800E2E2A80093
:101DA000E2E2A800E2E2A8000080FA0000000600DB
:101DB0000200FA00000F780011042400013B8800A3
:101DC0006427EF0000F0A100103B880061C7A80065
:101DD00051052000313B8800A10A2000313B8800DA
:101DE00061E7A80000000000000000000000000003
:101DF000000000000080FA00000006000400FA0065
:101E0000000F78001107980013002400033B88009E
:101E100000F0A1003220EF008001EB003108BB0090
:101E20000398BB003108BB000398BB003108BB001E
:101E30000398BB003108BB000398BB003108BB000E
:101E40000398BB003108BB000398BB003108BB00FE
:101E50000398BB003108BB000398BB003108BB00EE
:101E60000398BB003108BB000398BB003108BB00DE
:101E70000398BB003108BB000398BB003108BB00CE
:101E80000398BB003108BB000398BB003108BB00BE
:101E90000398BB003108BB000398BB003108BB00AE
:101EA0000398BB003108BB000398BB003108BB009E
:101EB0000398BB003108BB000398BB003108BB008E
:101EC0000398BB003108BB000398BB003108BB007E
:101ED0000398BB003108BB000398BB003108BB006E
:101EE0000398BB003108BB000398BB003108BB005E
:101EF0000398BB003108BB000398BB003108BB004E
:101F00000398BB003108BB000398BB003108BB003D
:101F10000398BB003108BB000398BB0061C7A80051
:101F200051052000313B8800A10A2000313B880088
:101F300061E7A800000000000000000000000000B1
:101F4000000000000080FA00000006000000FA0017
:101F50000000EB0020088800510920009140780023
:101F6000F0C8B30000C060000044A00095E0B700D6
:101F70000000EB000008880000E82300100888003B
:101F800005E1A8008C60A8000080FA0000000600AF
:101F90000000FA009140A900013A8000F00F2C00E7
:101FA00000806000003A8800013A800000C02100F3
:101FB00000807000003A88008940A9009140A80084
:101FC0000080FA00000006000000FA003003200044
:101FD000A01088000000EB0070108800810920002C
:101FE00091407800F0C8B30000C0600001C4B300A5
:101FF0000140700098E0B7009109200091407800FE
:1020000080CFB30000C060000024A00099E0B700BA
:10201000C12020009140780090CFB30000C0600044
:102020000CE2B7000C02A9000CA2A9000CC2A90086
:102030000CE2A9000D42A9000DA2A9000DE2A80022
:102040000F42A8000FE2A8008540A9008520A90042
:102050008D20A8008D40A8000080FA000000060036
:102060000000FA0030032000F01088000000EB00B0
:10207000C0108800010A20009140780080CFB30092
:1020800000C060000024A000A0E0B700010A20000A
:1020900091407800F0C8B30000C0600001C4B300F4
:1020A00001407000A0E0B70061212000914078005D
:1020B00090CFB30000C0600016E2B7001602A9007E
:1020C00016A2A90016C2A90016E2A9001742A9008B
:1020D00017A2A90017E2A8001942A80019E2A80057
:1020E0008720A9008700A9008F00A8008F20A800E2
:1020F0000080FA00000006003600F800809FBE0055
:10210000829FBE00849FBE00869FBE000400FA002E
:1021100084C0BF000080FB004300DE000080FB00A5
:10212000610060000000E000600232008460A900ED
:102130000000EB000008880010032000320DE300CF
:1021400003003E00906980000000E800906988006C
:10215000107780000000E80010778800207780006A
:102160000000E80020778800307780000000E80059
:1021700030778800407780000000E80040778800D2
:10218000507780000000E80050778800607780007A
:102190000000E80060778800707780000000E800A9
:1021A00070778800807780000000E80080778800E2
:1021B000907780000000E80090778800A07780008A
:1021C0000000E800A0778800B07780000000E800F9
:1021D000B0778800C07780000000E800C0778800F2
:1021E000D07780000000E800D0778800E07780009A
:1021F0000000E800E0778800F07780000000E80049
:10220000F0778800007880000000E80000788800FF
:10221000107880000000E8001078880020788000A6
:102220000000E80020788800307880000000E80096
:1022300030788800407880000000E800407888000E
:10224000507880000000E8005078880060788000B6
:102250000000E80060788800707880000000E800E6
:1022600070788800807880000000E800807888001E
:10227000907880000000E80090788800A0788000C6
:102280000000E800A0788800B07880000000E80036
:10229000B0788800C07880000000E800C07888002E
:1022A000D07880000000E800D0788800E0788000D6
:1022B0000000E800E0788800F07880000000E80086
:1022C000F0788800007980000000E800007988003C
:1022D000107980000000E8001079880020798000E3
:1022E0000000E80020798800307980000000E800D4
:1022F00030798800407980000000E800407988004B
:10230000507980000000E8005079880060798000F2
:102310000000E80060798800707980000000E80023
:1023200070798800807980000000E800807988005A
:10233000306880000000E800306888004068800055
:102340000000E80040688800506880000000E80055
:1023500050688800606880000000E80060688800BD
:10236000706880000000E800706888008068800065
:102370000000E80080688800808B80000000E80092
:10238000808B8800408C80000000E800408C880032
:10239000B08680000000E800B086880030808000B1
:1023A0000000E80030808800A00020000610E30054
:1023B00005003600906780000000E8009067880004
:1023C0000000EB003080880094CDBF000080FB004F
:1023D0004500DE000080FB00610060000000E000BE
:1023E00006003200900F20002A0DE30003003E009B
:1023F000506980000000E80050698800E0102D005E
:102400001080FB0008290200010000000000E0002D
:1024100006003200F0102D001080FB000829020099
:10242000010000000000E0000B003A00F0342C0036
:102430006C0DE30008003E009CCDBF000080FB0057
:10244000610060000000E00003003200606B80006B
:102450000000E800606B880010E22400E40DE30057
:1024600003003E00206F80000000E800206F88001D
:10247000706980000000E800706988004006200054
:102480002E0DE300890136000000EB007069880022
:102490008000EB00010F7800DCC2BF000080FB0071
:1024A0004500DE000080FB00610060000000E000ED
:1024B00002003A0010002000000F78009E407800D3
:1024C00061C060004501DD00C12D20009140780011
:1024D000F0CDB30000C0600002407000DCE2B70045
:1024E00090FF2F00D40DE30003003E00A06E80009B
:1024F0000000E800A06E8800C08C80000000E800AA
:10250000C08C880032748000437480005074800056
:1025100061748000800F5100818F59000E003600D9
:1025200032748000437480005074800061748000B5
:102530000000510081805900707588008175880005
:102540000000EB00A06A8800B06A80000000E8008C
:10255000B06A880021003700327480004374800024
:102560005074800061748000800F5100818F590089
:102570000E0031005274800063748000307480005B
:1025800041748000000051008180590070758800FE
:10259000817588000000EB00B06A8800A06A8000A6
:1025A0000000E800A06A88000C0037005274800028
:1025B000637480003074800041748000000051001A
:1025C0008180590070758800817588000000EB00DB
:1025D000B06A88000000EB00A06A880030748000B8
:1025E000417480005074880061748800C08F860038
:1025F000D18F8600507588006175880071758000E4
:1026000050758000000AB800717580006075800008
:102610000088B90005017800000141005175800073
:10262000807580000088B9000001410082027800B6
:1026300094748800A574880090748000A174800050
:1026400002242400F30020008001020000000000AA
:1026500090748800A174880070A22000260DE30009
:1026600003003E00306980000000E8003069880007
:10267000900F2000C40DE30003003E00206E800098
:102680000000E800206E8800900F2000C20DE300DB
:1026900003003E00106E80000000E800106E88000D
:1026A00030062000D20DE30003003E00906E800053
:1026B0000000E800906E88007ECDBF000080FB0027
:1026C0004400DE000080FB00610060000000E000CC
:1026D0000B003A000000EB00706B88000000EB007C
:1026E000506E8800900F2000C80DE30012003E00DD
:1026F000406E80000000E800406E88000E00370049
:102700000000EB00406E8800900F20006E0DE3008B
:1027100003003E00706B80000000E800706B8800D2
:10272000900F2000CA0DE30003003E00506E8000B1
:102730000000E800506E880096CDBF000080FB00CE
:102740004700DE000080FB000000E0000C003200CB
:10275000900F20004A0DE30003003E00506A800005
:102760000000E800506A8800000F20004A0DE300D6
:1027700005003600F6740200000000000200370079
:102780000000EB00506A8800006980000000E8004B
:1027900000698800006A80000000E800006A880084
:1027A000106A80000000E800106A8800E06980007C
:1027B0000000E800E0698800406980000000E8004F
:1027C00040698800906B80000000E800906B8800F2
:1027D000406B80000000E800406B880010698000BA
:1027E0000000E80010698800206980000000E8000F
:1027F00020698800406A80000000E800406A880084
:1028000030062000780DE30003003E00C06B80001E
:102810000000E800C06B8800300620007A0DE3005D
:1028200003003E00D06B80000000E800D06B880001
:10283000300620003E0DE30003003E00F0698000FA
:102840000000E800F0698800300620007411E30001
:1028500003003E00A08B80000000E800A08B8800F1
:10286000300620007611E30003003E00B08B8000AC
:102870000000E800B08B880030E92800C60DE300B6
:1028800003003E00306E80000000E800306E8800DB
:10289000100D2000380DE30003003E00C0698000E9
:1028A0000000E800C0698800900F20001A0DE300C6
:1028B00003003E00D06880000000E800D068880077
:1028C00090CDBF000080FB004500DE000080FB00D3
:1028D000610060000000E0000D003200900F200059
:1028E0001C0DE30003003E00E06880000000E800EB
:1028F000E0688800900F20001E0DE30008003E00F5
:10290000F06880000000E800F068880004003700EC
:102910000000EB00E06888000000EB00F068880031
:1029200098CDBF000080FB004300DE000080FB006C
:10293000610060000000E00006003200900F2000FF
:102940002C0DE30003003E00606980000000E800F9
:1029500060698800806980000000E8008069880064
:1029600090002000300DE3001C0036000000EB005A
:10297000806988008000EB001107980096CDBF00A9
:102980000080FB004600DE000080FB00610060006C
:102990000000E00002003A0010002000100798003C
:1029A000AE40900061C060004601DD0061D92000AA
:1029B00091407800F0CBB30000C06000024070008E
:1029C00096EDB700A06980000000E800A0698800CB
:1029D000D06980000000E800D0698800506B80005A
:1029E0000000E800506B8800702520006A0DE300AD
:1029F0000B0036000000EB00506B8800A06B8000DD
:102A00000000E800A06B880070252000D60DE300D0
:102A100003003E00B06E80000000E800B06E880049
:102A20008CCDBF000080FB004600DE000080FB0074
:102A3000610060000000E000070032003006200066
:102A4000360DE30006003E00B06980000000E8009B
:102A5000B0698800020037000000EB00B069880010
:102A600090CDBF000080FB004300DE000080FB0033
:102A7000610060000000E0000A0032004000200019
:102A80004E09E30007003A00B0032000440DE300C4
:102A900006003E00206A80000000E800206A8800EE
:102AA000020037000000EB00206A88000080FA0076
:102AB0004F03BE004F02BE004F01BE004F00BE00DC
:102AC0003600F900004006000000FA008020A9004E
:102AD0000000FE000080FA00004006000000FA003E
:102AE0008060A9000000FE000080FA00004006009F
:102AF0000000FA008040A9000000FE000080FA00FB
:102B0000004006000000FA008080A9000000FE00DE
:102B10000080FA00004006000200FA00F67402008D
:102B200000000000F674020000000000B0092D0053
:102B30001080FB0063006000E10F500024003A00A9
:102B40008ECDBF000080FB004400DE000080FB0053
:102B5000610060000000E0001D003A005048800065
:102B6000000F78009E00780020102000D67B020025
:102B7000010000000000E000FAFF3A00307480001D
:102B800041748000000F78009E007800E00F200064
:102B9000D67B0200010000000000E000FAFF3A00CE
:102BA00030748000417480004008DE000100200085
:102BB000000F78009E00780000102000D67B0200F5
:102BC000010000000000E000FAFF3A008E8DA8002E
:102BD000A0002000006B8800D0758000E1758000A7
:102BE000E00F5000E08F580008003200D0758000E0
:102BF000E175800061005000E0805800D0758800C9
:102C0000E1758800505B02000000000040062000D3
:102C1000380DE3000D003600F16A8000A01020009E
:102C2000D67B0200010000000000E000FAFF3A003D
:102C300000000000D16A800060102000D67B0200F6
:102C4000010000000000E000FAFF3A000080FA00F6
:102C5000000006003600F800809FBE00829FBE0084
:102C6000849FBE00869FBE000000FA00AAFF0700F6
:102C70008940A9000000FE000080FA004F03BE005A
:102C80004F02BE004F01BE004F00BE003600F900EB
:102C9000004006003600F800809FBE00829FBE0004
:102CA000849FBE00869FBE000000FA009AFF0700C6
:102CB0000000FE000080FA004F03BE004F02BE007D
:102CC0004F01BE004F00BE003600F9000040060074
:102CD0003600F800809FBE00829FBE00849FBE0029
:102CE000869FBE000000FA0096C3BF000080FB0074
:102CF000610060000000E00093013200FC57020018
:102D0000010000000000EB00908B88001000200004
:102D10007C11E30060013A007811E2002A003A00D9
:102D200010002000E80DE30003003A0060042000DA
:102D3000808B88007F01370020002000E80DE30031
:102D400003003A00C0032000808B8800790137001F
:102D500030002000E80DE30003003A0020032000CB
:102D6000808B88007301370040002000E80DE300ED
:102D700003003A0080022000808B88006D0137003C
:102D800050002000E80DE30003003A00E0012000BD
:102D9000808B88006701370060002000E80DE300A9
:102DA00003003A0040012000808B88006101370059
:102DB00070002000E80DE3005E013A00A000200052
:102DC000808B88005B013700100020007811E30041
:102DD00029003A0020002000E80DE30003003A003B
:102DE00060042000808B88005201370030002000F2
:102DF000E80DE30003003A00C0032000808B880048
:102E00004C01370040002000E80DE30003003A00C9
:102E100020032000808B88004601370050002000EE
:102E2000E80DE30003003A0080022000808B880058
:102E30004001370060002000E80DE30003003A0085
:102E4000E0012000808B88003A01370070002000EC
:102E5000E80DE30003003A0040012000808B880069
:102E600034013700E80DE20032013A00A0002000F2
:102E7000808B88002F013700200020007811E300AC
:102E800029003A0030002000E80DE30003003A007A
:102E900060042000808B880026013700400020005D
:102EA000E80DE30003003A00C0032000808B880097
:102EB0002001370050002000E80DE30003003A0035
:102EC00020032000808B88001A013700600020005A
:102ED000E80DE30003003A0080022000808B8800A8
:102EE0001401370070002000E80DE30003003A00F1
:102EF000E0012000808B88000E013700E80DE20021
:102F000003003A0040012000808B8800090137004F
:102F100010002000E80DE30006013A00A0002000A8
:102F2000808B880003013700300020007811E30017
:102F300029003A0040002000E80DE30003003A00B9
:102F400060042000808B8800FA00370050002000C9
:102F5000E80DE30003003A00C0032000808B8800E6
:102F6000F400370060002000E80DE30003003A00A1
:102F700020032000808B8800EE00370070002000C6
:102F8000E80DE30003003A0080022000808B8800F7
:102F9000E8003700E80DE20003003A00E0012000FD
:102FA000808B8800E300370010002000E80DE3006C
:102FB00003003A0040012000808B8800DD003700CC
:102FC00020002000E80DE300DA003A00A000200015
:102FD000808B8800D7003700400020007811E30084
:102FE00029003A0050002000E80DE30003003A00F9
:102FF00060042000808B8800CE0037006000200035
:10300000E80DE30003003A00C0032000808B880035
:10301000C800370070002000E80DE30003003A000C
:1030200020032000808B8800C2003700E80DE200FA
:1030300003003A0080022000808B8800BD0037002A
:1030400010002000E80DE30003003A00E00120003A
:10305000808B8800B700370020002000E80DE300D7
:1030600003003A0040012000808B8800B100370047
:1030700030002000E80DE300AE003A00A000200080
:10308000808B8800AB003700500020007811E300EF
:1030900029003A0060002000E80DE30003003A0038
:1030A00060042000808B8800A200370070002000A0
:1030B000E80DE30003003A00C0032000808B880085
:1030C0009C003700E80DE20003003A0020032000D6
:1030D000808B88009700370010002000E80DE30087
:1030E00003003A0080022000808B880091003700A6
:1030F00020002000E80DE30003003A00E00120007A
:10310000808B88008B00370030002000E80DE30042
:1031100003003A0040012000808B880085003700C2
:1031200040002000E80DE30082003A00A0002000EB
:10313000808B88007F003700600020007811E3005A
:1031400029003A0070002000E80DE30003003A0077
:1031500060042000808B880076003700E80DE200D4
:1031600003003A00C0032000808B88007100370004
:1031700010002000E80DE30003003A0020032000C7
:10318000808B88006B00370020002000E80DE300F2
:1031900003003A0080022000808B88006500370021
:1031A00030002000E80DE30003003A00E0012000B9
:1031B000808B88005F00370040002000E80DE300AE
:1031C00003003A0040012000808B8800590037003E
:1031D00050002000E80DE30056003A00A000200057
:1031E000808B880053003700700020007811E300C6
:1031F00050003A00E80DE20003003A0060042000AD
:10320000808B88004B00370010002000E80DE300A1
:1032100003003A00C0032000808B8800450037007F
:1032200020002000E80DE30003003A002003200006
:10323000808B88003F00370030002000E80DE3005D
:1032400003003A0080022000808B8800390037009C
:1032500040002000E80DE30003003A00E0012000F8
:10326000808B88003300370050002000E80DE30019
:1032700003003A0040012000808B88002D003700B9
:1032800060002000E80DE3002A003A00A0002000C2
:10329000808B880027003700200020007C11E3008D
:1032A00024003A00E00F20007A11E30003003A0006
:1032B00094570200010000001E003700C08B800000
:1032C000E80DE3000B003A00D08B800001082000DD
:1032D000010060000000E00003003200E053020043
:1032E000010000000A003700FC5502000100000048
:1032F00007003700D08B800001082000010060002B
:103300000000E00002003A001E530200010000002D
:10331000D08B80007E09E30006003A00C08B80005D
:10332000E80DE30003003A00008C80000000E80094
:10333000008C88009603A9008EE3A9000000EB0032
:10334000F08B88000D0037009183A8009623A90018
:103350007EE3A90096C3A9000000EB00B01C880022
:1033600096A3A90090FF2F007E11E30003003E000A
:10337000F08B80000000E800F08B88008760A900D7
:103380000080FA004F03BE004F02BE004F01BE0096
:103390004F00BE003600F900004006003600F8007D
:1033A000809FBE00829FBE00849FBE00869FBE009D
:1033B0000000FA0056C4BF000080FB0061006000FE
:1033C0000000E000330032002A6A02000100000021
:1033D00031228000F00F200000806000008B880008
:1033E00030228000C800DE00F00F20000080600066
:1033F000108B880041228000F00F200000806000C8
:10340000208B880040228000C800DE00F00F2000E2
:1034100000806000308B880051228000F00F200077
:1034200000806000408B880050228000C800DE00D1
:10343000F00F200000806000508B88006122800027
:10344000F00F200000806000608B88006022800008
:10345000C800DE00F00F200000806000708B880044
:103460000000EB00408C88000000EB00508C8800CE
:1034700010002000308C8800F0052000408C88006F
:103480005604A9004EE4A9000000EB00C08C88009F
:10349000070037005184A8005624A9003EE4A90083
:1034A00056C4A9000000EB00B022880056A4A90071
:1034B00088C0A9005604A9004EE4A9000080FA00C3
:1034C0004F03BE004F02BE004F01BE004F00BE00C2
:1034D0003600F900004006003030000030000000E7
:1034E00020300000310000002030000032000000D9
:1034F00020300000330000002030000034000000C5
:1035000020300000350000002030000036000000B0
:10351000203000003700000020300000380000009C
:103520002030000039000000203100003000000091
:103530002031000031000000203100003200000086
:103540002031000033000000203100003400000072
:10355000203100003500000020310000360000005E
:10356000203100003700000020310000380000004A
:10357000203100003900000020320000300000003F
:103580002032000031000000203200003200000034
:103590002032000033000000203200003400000020
:1035A000203200003500000020320000360000000C
:1035B00020320000370000002032000038000000F8
:1035C00020320000390000002033000030000000ED
:1035D00020330000310000002033000032000000E2
:1035E000415600004F000000425600004F0000000E
:1035F000435600004F000000445600004F000000FA
:10360000414300003100000041430000320000004F
:10361000414300003300000041430000340000003B
:10362000424300003100000042430000320000002D
:103630004243000033000000424300003400000019
:10364000434300003100000043430000320000000B
:1036500043430000330000004343000034000000F7
:1036600044430000310000004443000032000000E9
:1036700044430000330000004443000034000000D5
:10368000415800004F000000415800003100000088
:10369000425800004F000000425800003100000076
:1036A000435800004F000000435800003100000064
:1036B000445800004F000000445800003100000052
:1036C000415F00004D000000424D0000310000004D
:1036D000424D000032000000434D00003100000068
:1036E000434D000032000000444D00003100000056
:1036F000444D000032000000414C00004400000036
:10370000424C000044000000434C00004400000014
:10371000444C000044000000415000004300000001
:1037200042500000430000004350000043000000EE
:103730004450000043000000464C00003A300000B6
:103740003020000020200000202000002020000069
:1037500020200000202000000055000053450000FC
:10376000523A00005665000072730000696F000055
:103770006E200000202000002000000055530000B3
:10378000455200003A4200006F6100007264000080
:1037900049640000202000002020000000550000A7
:1037A00053450000523A000050610000737300005E
:1037B00077610000726400002020000020000000FB
:1037C00055530000455200003A5500007365000053
:1037D000724C0000616D000070310000202000007C
:1037E0000055000053450000523A00005573000098
:1037F000657200004C6100006D7000003220000016
:103800002000000055530000455200003A530000CC
:1038100065720000696100006C4E00006D200000C0
:10382000202000000055000053450000523A0000DF
:103830004E6F0000726D0000616C000020440000BB
:103840007370000020000000555300004552000036
:103850003A44000072690000766500004D65000082
:10386000746800006F6400000055000053450000BC
:10387000523A0000466800006D20000052750000BA
:103880006E200000202000002000000055530000A2
:10389000455200003A530000756200004D6500007B
:1038A0006E750000204F00006E20000000550000E3
:1038B00053450000523A0000456E00006769000061
:1038C0006E65000065720000204E00006D00000073
:1038D00055530000455200003A5400007420000087
:1038E0005573000065200000546900006D650000FC
:1038F0000055000053450000523A0000496E000098
:103900006974000020440000617400006120000020
:103910002000000055530000455200003A470000C7
:10392000726F000075700000204E00006D200000D6
:10393000202000000055000053450000523A0000CE
:103940004C6F0000636100006C2000004E6D0000B1
:1039500020200000200000005553000045520000C8
:103960003A4900006E760000204900006E420000D7
:103970006420000054700000005500005345000012
:10398000523A0000436100006C6C000028630000A4
:103990002D6600002D660000290000005553000030
:1039A000455200003A680000682D00006D6D00006F
:1039B0002D7300007320000020200000005500003F
:1039C00053450000523A0000797900002D6D000047
:1039D0006D2D000064640000202000002000000025
:1039E00055530000455200003A4500007272000035
:1039F00053740000436E000074200000202000007B
:103A00000055000053450000523A0000436F00008B
:103A10006D700000616E0000792000002020000021
:103A20002000000055530000455200003A4F0000AE
:103A300075740000446100007465000020200000DF
:103A4000202000000055000053450000523A0000BD
:103A500055730000657200004C6100006D7000003D
:103A600033200000200000005553000045520000A4
:103A70003A55000073650000724C0000616D000053
:103A80007034000020200000005500005345000065
:103A9000523A0000557300006572000033200000A8
:103AA00020200000202000002000000055530000CE
:103AB000455200003A550000736500007234000062
:103AC00020200000202000002020000000550000E1
:103AD00053450000523A0000557300006572000023
:103AE00035200000202000002020000020000000E1
:103AF00055530000455200003A5500007365000020
:103B0000723600002020000020200000202000004D
:103B10000055000053450000523A00005573000064
:103B200065720000372000002020000020200000E7
:103B30002000000055530000455200003A55000097
:103B40007365000072380000202000002020000073
:103B5000202000000055000053450000523A0000AC
:103B600041690000726300006F6E00002041000098
:103B700064640000720000005553000045520000CC
:103B80003A200000537400006F70000020500000C5
:103B9000756C000073650000004400005350000085
:103BA0003A4600006C6F00006F7200003031000078
:103BB00020200000202000002000000044530000CE
:103BC000503A0000466C00006F6F00007230000039
:103BD00032200000202000002020000000440000CF
:103BE000535000003A4600006C6F00006F720000F6
:103BF00030330000202000002020000020000000C2
:103C000044530000503A0000466C00006F6F000003
:103C1000723000003420000020200000202000002E
:103C200000440000535000003A4600006C6F000052
:103C30006F720000303500002020000020200000BE
:103C40002000000044530000503A0000466C000081
:103C50006F6F00007230000036200000202000004E
:103C60002020000000440000535000003A460000AD
:103C70006C6F00006F7200003037000020200000E1
:103C8000202000002000000044530000503A0000B3
:103C9000466C00006F6F000072300000382000009A
:103CA00020200000202000000044000053500000AD
:103CB0003A4600006C6F00006F720000303900005F
:103CC00020200000202000002000000044530000BD
:103CD000503A0000466C00006F6F00007231000027
:103CE00030200000202000002020000000440000C0
:103CF000535000003A4600006C6F00006F720000E5
:103D000031310000202000002020000020000000B1
:103D100044530000503A0000466C00006F6F0000F2
:103D2000723100003220000020200000202000001E
:103D300000440000535000003A4600006C6F000041
:103D40006F720000313300002020000020200000AE
:103D50002000000044530000503A0000466C000070
:103D60006F6F00007231000034200000202000003E
:103D70002020000000440000535000003A4600009C
:103D80006C6F00006F7200003135000020200000D1
:103D9000202000002000000044530000503A0000A2
:103DA000466C00006F6F000072310000362000008A
:103DB000202000002020000000440000535000009C
:103DC0003A4600006C6F00006F720000313700004F
:103DD00020200000202000002000000044530000AC
:103DE000503A0000466C00006F6F00007231000016
:103DF00038200000202000002020000000440000A7
:103E0000535000003A4600006C6F00006F720000D3
:103E10003139000020200000202000002000000098
:103E200044530000503A0000466C00006F6F0000E1
:103E3000723200003020000020200000202000000E
:103E400000440000535000003A4600006C6F000030
:103E50006F7200003231000020200000202000009E
:103E60002000000044530000503A0000466C00005F
:103E70006F6F00007232000032200000202000002E
:103E80002020000000440000535000003A4600008B
:103E90006C6F00006F7200003233000020200000C1
:103EA000202000002000000044530000503A000091
:103EB000466C00006F6F000072320000342000007A
:103EC000202000002020000000440000535000008B
:103ED0003A4600006C6F00006F720000323500003F
:103EE000202000002020000020000000445300009B
:103EF000503A0000466C00006F6F00007232000004
:103F00003620000020200000202000000044000097
:103F1000535000003A4600006C6F00006F720000C2
:103F20003237000020200000202000002000000088
:103F300044530000503A0000466C00006F6F0000D0
:103F400072320000382000002020000020200000F5
:103F500000440000535000003A4600006C6F00001F
:103F60006F72000032390000202000002020000085
:103F70002000000044530000503A0000466C00004E
:103F80006F6F00007233000030200000202000001E
:103F90002020000000440000535000003A4600007A
:103FA0006C6F00006F7200003331000020200000B1
:103FB000202000002000000044530000503A000080
:103FC000466C00006F6F000072330000322000006A
:103FD0002020000020200000004600004C5200007D
:103FE0003A5400006F700000466C00007220000020
:103FF000202000002020000020000000464C00008F
:10400000523A0000507200006B4600006C720000D3
:10401000202000002020000020200000004600009A
:104020004C5200003A4E00006F55000073650000CE
:10403000204700006F200000466C00007200000066
:10404000464C0000523A00004669000072650000CC
:104050005361000066650000204600006C7200009D
:10406000004600004C5200003A5800003720000083
:10407000536100006665000020200000466C0000CF
:1040800072000000464C0000523A000057610000E8
:104090007465000072530000616600006546000010
:1040A0006C720000004600004C5200003A530000C1
:1040B0007461000072740000204600006C72000001
:1040C0002020000020000000464C0000523A000072
:1040D0004F6E000065530000746F000070200000F8
:1040E000466C000072200000004600004C520000A8
:1040F0003A4B000069640000732000004B6500002B
:1041000079200000436E000074000000464C00005F
:10411000523A00005836000020530000616600004B
:1041200065200000204600006C7200000046000080
:104130004C5200003A580000352000005361000046
:104140006665000020200000466C00007200000040
:10415000464C0000523A00004E630000323100002D
:10416000466C00007220000020200000202000008B
:10417000004600004C5200003A4E0000633200003E
:10418000304600006C72000020200000202000005B
:1041900020000000464C0000523A00004E63000030
:1041A00031390000466C0000722000002020000021
:1041B00020200000004600004C5200003A4E000053
:1041C00063310000384600006C72000020200000BF
:1041D0002020000020000000464C0000523A000061
:1041E0004E63000031370000466C00007220000072
:1041F0002020000020200000004600004C5200005B
:104200003A4E000063310000364600006C72000038
:10421000202000002020000020000000464C00006C
:10422000523A00004E63000031350000466C000039
:104230007220000020200000202000000046000026
:104240004C5200003A4E000063310000344600003A
:104250006C720000202000002020000020000000E0
:10426000464C0000523A00004E630000313300001B
:10427000466C00007220000020200000202000007A
:10428000004600004C5200003A4E0000633100002E
:10429000324600006C720000202000002020000048
:1042A00020000000464C0000523A00004E6300001F
:1042B00031310000466C0000722000002020000018
:1042C00020200000004600004C5200003A4E000042
:1042D00063310000304600006C72000020200000B6
:1042E0002020000020000000464C0000523A000050
:1042F0004E63000030390000466C00007220000060
:104300002020000020200000004600004C52000049
:104310003A4E000063300000384600006C72000026
:10432000202000002020000020000000464C00005B
:10433000523A00004E63000030370000466C000027
:104340007220000020200000202000000046000015
:104350004C5200003A4E0000633000003646000028
:104360006C720000202000002020000020000000CF
:10437000464C0000523A00004E6300003035000009
:10438000466C000072200000202000002020000069
:10439000004600004C5200003A4E0000633000001E
:1043A000344600006C720000202000002020000035
:1043B00020000000464C0000523A00004E6300000E
:1043C00030330000466C0000722000002020000006
:1043D00020200000004600004C5200003A4E000031
:1043E00063300000324600006C72000020200000A4
:1043F0002020000020000000464C0000523A00003F
:104400004E63000030310000466C00007220000056
:104410002020000020200000005400004D52000029
:104420003A4F0000702000005761000069740000DE
:1044300020540000696D000065000000544D00002C
:10444000523A00004F700000205400006F740000CA
:10445000616C0000205400006D200000005400003A
:104460004D5200003A4E00006F20000055730000CE
:1044700065200000546900006D6500002000000008
:10448000544D0000523A00004E6500007874000060
:10449000466C000072200000546900006D65000049
:1044A000005400004D5200003A4C0000754C0000D2
:1044B000644F00006666000020540000696D000033
:1044C00065000000544D0000523A000046610000B3
:1044D0006E2000004F660000662000005469000056
:1044E0006D650000005400004D5200003A4C000081
:1044F00069740000204F0000666600002054000030
:10450000696D000065000000544D0000523A000043
:104510004F700000436C0000576100006974000098
:10452000546900006D650000005400004D52000009
:104530003A440000724A00006D70000043680000B9
:104540006B540000696D000065000000544D0000D0
:10455000523A0000446900007220000053650000D8
:1045600074200000546900006D65000000540000D4
:104570004D5200003A5600006F690000636500006C
:10458000204F00006E540000696D000065000000BF
:10459000544D0000523A0000427200006B200000AF
:1045A0004D67000074200000546900006D65000034
:1045B000005400004D5200003A520000654F0000C8
:1045C000706500006E20000020540000696D00003E
:1045D00065000000544D0000523A000050340000C5
:1045E000202000004F6E00002020000054690000D1
:1045F0006D650000005400004D5200003A55000067
:104600002F440000204F00006E20000020540000C6
:10461000696D000065000000544D0000523A000032
:10462000426B0000322000004F6E0000202000008E
:10463000546900006D650000005400004D520000F8
:104640003A4200006B310000204F00006E20000055
:1046500020540000696D000065000000544D00000A
:10466000523A0000527500006E2000004F6E0000AC
:1046700020200000546900006D6500000054000017
:104680004D5200003A520000756E0000204F0000AD
:104690006666000020540000696D0000650000009F
:1046A000544D0000523A0000426B000031200000DF
:1046B0004F66000066200000546900006D65000030
:1046C000005400004D5200003A4200006B320000DE
:1046D000204F00006666000020540000696D000055
:1046E00065000000544D0000523A0000552F0000B4
:1046F000442000004F66000066200000546900005E
:104700006D650000005400004D5200003A5000005A
:1047100034200000204F0000666600002054000096
:10472000696D000065000000544D0000523A000021
:10473000536F00006C2000004F6E0000202000002E
:10474000546900006D650000005400004D520000E7
:104750003A4400006F6F00007220000053740000A4
:1047600020540000696D000065000000544D0000F9
:10477000523A0000537400006F70000039200000AE
:1047800020200000546900006D6500000054000006
:104790004D5200003A530000746F00007031000069
:1047A0003020000020540000696D0000650000000A
:1047B000544D0000523A0000537400006F70000026
:1047C0003131000020200000546900006D650000B8
:1047D000005400004D5200003A530000746F000076
:1047E000703100003220000020540000696D00008C
:1047F00065000000544D0000523A00005374000060
:104800006F70000031330000202000005469000068
:104810006D650000005400004D5200003A53000046
:10482000746F00007031000034200000205400003C
:10483000696D000065000000544D0000523A000010
:10484000537400006F70000031350000202000001C
:10485000546900006D650000004F00004E4F0000DD
:1048600046460000313A0000466C00006F6F0000C1
:104870007230000031200000200000004F4E000088
:104880004F460000463100003A4600006C6F0000C1
:104890006F7200003032000020200000004F000046
:1048A0004E4F000046460000313A0000466C0000C2
:1048B0006F6F000072300000332000002000000005
:1048C0004F4E00004F460000463100003A460000BF
:1048D0006C6F00006F720000303400002020000078
:1048E000004F00004E4F000046460000313A0000E5
:1048F000466C00006F6F0000723000003520000031
:10490000200000004F4E00004F46000046310000DE
:104910003A4600006C6F00006F72000030360000F5
:1049200020200000004F00004E4F000046460000CF
:10493000313A0000466C00006F6F000072300000DA
:1049400037200000200000004F4E00004F460000BE
:10495000463100003A4600006C6F00006F720000A4
:104960003038000020200000004F00004E4F0000B3
:1049700046460000313A0000466C00006F6F0000B0
:104980007230000039200000200000004F4E00006F
:104990004F460000463100003A4600006C6F0000B0
:1049A0006F7200003130000020200000004F000036
:1049B0004E4F000046460000313A0000466C0000B1
:1049C0006F6F0000723100003120000020000000F5
:1049D0004F4E00004F460000463100003A460000AE
:1049E0006C6F00006F720000313200002020000068
:1049F000004F00004E4F000046460000313A0000D4
:104A0000466C00006F6F0000723100003320000020
:104A1000200000004F4E00004F46000046310000CD
:104A20003A4600006C6F00006F72000031340000E5
:104A300020200000004F00004E4F000046460000BE
:104A4000313A0000466C00006F6F000072310000C8
:104A500035200000200000004F4E00004F460000AF
:104A6000463100003A4600006C6F00006F72000093
:104A70003136000020200000004F00004E4F0000A3
:104A800046460000313A0000466C00006F6F00009F
:104A90007231000037200000200000004F4E00005F
:104AA0004F460000463100003A4600006C6F00009F
:104AB0006F7200003138000020200000004F00001D
:104AC0004E4F000046460000313A0000466C0000A0
:104AD0006F6F0000723100003920000020000000DC
:104AE0004F4E00004F460000463100003A4600009D
:104AF0006C6F00006F720000323000002020000058
:104B0000004F00004E4F000046460000313A0000C2
:104B1000466C00006F6F0000723200003120000010
:104B2000200000004F4E00004F46000046310000BC
:104B30003A4600006C6F00006F72000032320000D5
:104B400020200000004F00004E4F000046460000AD
:104B5000313A0000466C00006F6F000072320000B6
:104B600033200000200000004F4E00004F460000A0
:104B7000463100003A4600006C6F00006F72000082
:104B80003234000020200000004F00004E4F000093
:104B900046460000313A0000466C00006F6F00008E
:104BA0007232000035200000200000004F4E00004F
:104BB0004F460000463100003A4600006C6F00008E
:104BC0006F7200003236000020200000004F00000D
:104BD0004E4F000046460000313A0000466C00008F
:104BE0006F6F0000723200003720000020000000CC
:104BF0004F4E00004F460000463100003A4600008C
:104C00006C6F00006F72000032380000202000003E
:104C1000004F00004E4F000046460000313A0000B1
:104C2000466C00006F6F00007232000039200000F7
:104C3000200000004F4E00004F46000046310000AB
:104C40003A4600006C6F00006F72000033300000C5
:104C500020200000004F00004E4F0000464600009C
:104C6000313A0000466C00006F6F000072330000A4
:104C700031200000200000004F4E00004F46000091
:104C8000463100003A4600006C6F00006F72000071
:104C90003332000020200000004F00004E4F000083
:104CA00046460000323A0000464800004D20000011
:104CB000436800006B200000200000004F4E000001
:104CC0004F460000463200003A440000724A00009D
:104CD0006D700000436800006B200000004F000072
:104CE0004E4F000046460000323A0000456E00007C
:104CF000636F0000646500007250000068000000EF
:104D00004F4E00004F460000463200003A57000068
:104D10006172000064500000726900006F72000050
:104D2000004F00004E4F000046460000323A00009F
:104D30004E6F00006E530000746F00007020000082
:104D4000200000004F4E00004F4600004632000099
:104D50003A4F0000706500006E5400006F74000050
:104D6000616C0000004F00004E4F000046460000FE
:104D7000323A00005761000069740000546F00006F
:104D8000746100006C0000004F4E00004F460000B0
:104D9000463200003A4300006C6F0000735400007C
:104DA0006F740000616C0000004F00004E4F000067
:104DB00046460000323A0000435F000044720000A3
:104DC00031200000436800006B0000004F4E0000DF
:104DD0004F460000463200003A4300005F440000A6
:104DE0007232000020430000686B0000004F00009A
:104DF0004E4F000046460000323A0000485F000077
:104E00004472000031200000436800006B00000085
:104E10004F4E00004F460000463200003A48000066
:104E20005F4400007232000020430000686B000005
:104E3000004F00004E4F000046460000323A00008E
:104E4000535F0000536600007420000043680000B8
:104E50006B0000004F4E00004F460000463200003D
:104E60003A4D0000677400004D6F00006E43000073
:104E7000686B0000004F00004E4F000046460000E7
:104E8000323A0000456E0000636F000064200000AD
:104E9000436800006B0000004F4E00004F460000CA
:104EA000463200003A520000656C00006576000052
:104EB00065430000686B0000004F00004E4F00008B
:104EC00046460000323A00004F6900006C4C00007A
:104ED0006F70000065540000790000004F4E000024
:104EE0004F460000463200003A31000020430000E7
:104EF000616C00006C430000686B0000004F000014
:104F00004E4F000046460000323A00004D6100005E
:104F10006E53000075730000436800006B000000D2
:104F20004F4E00004F460000463200003A4200005B
:104F3000726B00004D6F00006E430000686B000054
:104F4000004F00004E4F000046460000323A00007D
:104F50004B690000644B000065790000436C000061
:104F6000720000004F4E00004F4600004632000025
:104F70003A4600005F430000617200004B6500008C
:104F800079200000004F00004E4F00004646000010
:104F9000323A0000536900006E6700006C65000043
:104FA00043610000720000004F4E00004F460000B9
:104FB000463200003A4F0000704F00007574000048
:104FC0005365000074200000004F00004E4F0000A9
:104FD00046460000323A0000536600007455000057
:104FE00073650000205200004C0000004F4E00008E
:104FF0004F460000463200003A4600006C6F000049
:105000006F72000020530000656C0000004F00002C
:105010004E4F000046460000323A00004E6F00003E
:10502000742000005573000065200000200000007F
:105030004F4E00004F460000463200003A4E00003E
:105040006F740000205500007365000020200000F0
:10505000004F00004E4F000046460000323A00006C
:105060004E6F0000742000005573000065200000A2
:10507000200000004F4E00004F4600004632000066
:105080003A4E00006F740000205500007365000068
:1050900020200000004F00004E4F00004646000058
:1050A000323A00004E6F000074200000557300007B
:1050B00065200000200000004F4E00004F46000019
:1050C000463200003A5700006F7200006B2000006B
:1050D0004D6F000064650000004400004F4F000069
:1050E000522D0000533A0000466C00006F6F000024
:1050F000723000003120000020000000444F00000A
:105100004F5200002D5300003A4600006C6F000023
:105110006F720000303200002020000000440000C8
:105120004F4F0000522D0000533A0000466C000023
:105130006F6F00007230000033200000200000007C
:10514000444F00004F5200002D5300003A4600002B
:105150006C6F00006F7200003034000020200000EF
:10516000004400004F4F0000522D0000533A000051
:10517000466C00006F6F00007230000035200000A8
:1051800020000000444F00004F5200002D5300004B
:105190003A4600006C6F00006F720000303600006D
:1051A00020200000004400004F4F0000522D00005E
:1051B000533A0000466C00006F6F00007230000030
:1051C0003720000020000000444F00004F52000034
:1051D0002D5300003A4600006C6F00006F72000013
:1051E0003038000020200000004400004F4F000035
:1051F000522D0000533A0000466C00006F6F000013
:10520000723000003920000020000000444F0000F0
:105210004F5200002D5300003A4600006C6F000012
:105220006F720000313000002020000000440000B8
:105230004F4F0000522D0000533A0000466C000012
:105240006F6F00007231000031200000200000006C
:10525000444F00004F5200002D5300003A4600001A
:105260006C6F00006F7200003132000020200000DF
:10527000004400004F4F0000522D0000533A000040
:10528000466C00006F6F0000723100003320000098
:1052900020000000444F00004F5200002D5300003A
:1052A0003A4600006C6F00006F720000313400005D
:1052B00020200000004400004F4F0000522D00004D
:1052C000533A0000466C00006F6F0000723100001E
:1052D0003520000020000000444F00004F52000025
:1052E0002D5300003A4600006C6F00006F72000002
:1052F0003136000020200000004400004F4F000025
:10530000522D0000533A0000466C00006F6F000001
:10531000723100003720000020000000444F0000E0
:105320004F5200002D5300003A4600006C6F000001
:105330006F7200003138000020200000004400009F
:105340004F4F0000522D0000533A0000466C000001
:105350006F6F000072310000392000002000000053
:10536000444F00004F5200002D5300003A46000009
:105370006C6F00006F7200003230000020200000CF
:10538000004400004F4F0000522D0000533A00002F
:10539000466C00006F6F0000723200003120000088
:1053A00020000000444F00004F5200002D53000029
:1053B0003A4600006C6F00006F720000323200004D
:1053C00020200000004400004F4F0000522D00003C
:1053D000533A0000466C00006F6F0000723200000C
:1053E0003320000020000000444F00004F52000016
:1053F0002D5300003A4600006C6F00006F720000F1
:105400003234000020200000004400004F4F000014
:10541000522D0000533A0000466C00006F6F0000F0
:10542000723200003520000020000000444F0000D0
:105430004F5200002D5300003A4600006C6F0000F0
:105440006F7200003236000020200000004400008F
:105450004F4F0000522D0000533A0000466C0000F0
:105460006F6F000072320000372000002000000043
:10547000444F00004F5200002D5300003A460000F8
:105480006C6F00006F7200003238000020200000B6
:10549000004400004F4F0000522D0000533A00001E
:1054A000466C00006F6F000072320000392000006F
:1054B00020000000444F00004F5200002D53000018
:1054C0003A4600006C6F00006F720000333000003D
:1054D00020200000004400004F4F0000522D00002B
:1054E000533A0000466C00006F6F000072330000FA
:1054F0003120000020000000444F00004F52000007
:105500002D5300003A4600006C6F00006F720000DF
:105510003332000020200000004900005F4F0000EF
:105520003A4D0000616E00005370000064200000DE
:10553000205000006F72000074000000495F0000FE
:105540004F3A000042610000745300007064000094
:1055500020200000506F000072740000004900001D
:105560005F4F00003A440000656300005370000084
:1055700064200000205000006F72000074000000E2
:10558000495F00004F3A0000464800004D530000BC
:105590007064000020200000506F00007274000052
:1055A000004900005F4F00003A53000070640000A3
:1055B0003330000020200000205000006F720000F7
:1055C00074000000495F00004F3A00005370000073
:1055D000643400003520000020200000506F0000DF
:1055E00072740000004900005F4F00003A53000051
:1055F00070640000363000002020000020500000C1
:105600006F72000074000000495F00004F3A000014
:10561000537000006439000030200000202000009A
:10562000506F000072740000004900005F4F0000DE
:105630003A53000070640000313000003520000053
:10564000205000006F72000074000000495F0000ED
:105650004F3A000053700000643100003230000007
:1056600020200000506F000072740000004900000C
:105670005F4F00003A5300007064000031350000B5
:1056800030200000205000006F7200007400000005
:10569000495F00004F3A0000537000006431000081
:1056A0003830000020200000506F000072740000AD
:1056B000004900005F4F00003A5300007064000092
:1056C0003231000030200000205000006F720000D6
:1056D00074000000495F00004F3A0000457400006C
:1056E000633100005370000064200000506F000020
:1056F00072740000004900005F4F00003A4500004E
:1057000074630000325300007064000020500000F9
:105710006F72000074000000495F00004F3A000003
:10572000456C000065760000204D000061780000A7
:105730002053000070640000004900005F4F00002B
:105740003A4C0000696D0000742000004D610000BB
:10575000782000005370000064000000495F0000E2
:105760004F3A00004D61000078530000755300006F
:105770006431000020530000706400000049000004
:105780005F4F00003A4D0000617800005375000043
:1057900053640000322000005370000064000000D9
:1057A000495F00004F3A00004D610000785800004A
:1057B00030580000312000002053000070640000C9
:1057C000004900005F4F00003A5300007064000081
:1057D00031200000202000002020000020200000B8
:1057E00020000000495F00004F3A000053700000A5
:1057F0006432000020200000202000002020000053
:1058000020200000004900005F4F00003A530000D4
:1058100070640000332000002020000020200000E1
:105820002020000020000000495F00004F3A0000E7
:10583000537000006434000020200000202000008D
:105840002020000020200000004900005F4F0000E1
:105850003A53000070640000352000002020000052
:10586000202000002020000020000000495F0000F0
:105870004F3A000053700000643600002020000002
:10588000202000002020000020200000004900000F
:105890005F4F00003A5300007064000037200000A2
:1058A0002020000020200000202000002000000018
:1058B000495F00004F3A0000537000006438000058
:1058C00020200000202000002020000020200000D8
:1058D000004900005F4F00003A5300007064000070
:1058E000392000002020000020200000202000009F
:1058F00020000000495F00004F3A00005370000094
:105900006431000030200000202000002020000032
:1059100020200000004900005F4F00003A530000C3
:1059200070640000313100002020000020200000C1
:105930002020000020000000495F00004F3A0000D6
:10594000537000006431000032200000202000006D
:105950002020000020200000005700005F460000CB
:105960004C5200003A28000031290000686D000008
:105970005F6800006D5F000046000000575F000098
:10598000464C0000523A000028320000296800000E
:105990006D5F0000686D00005F460000005700006A
:1059A0005F4600004C5200003A28000033290000F6
:1059B000686D00005F6800006D5F00004600000039
:1059C000575F0000464C0000523A000028340000A7
:1059D000296800006D5F0000686D00005F460000F0
:1059E000005700005F4600004C5200003A5400008F
:1059F000696D000065300000393100003020000082
:105A000020000000575F0000464C0000523A0000A2
:105A1000546900006D650000313000003131000034
:105A200020200000005700005F4600004C5200009C
:105A30003A540000696D000065310000313100000A
:105A40003220000020000000575F0000464C00009C
:105A5000523A0000546900006D65000031320000C8
:105A60003133000020200000005700005F46000096
:105A70004C5200003A540000696D0000653100008E
:105A8000333100003420000020000000575F000088
:105A9000464C0000523A0000546900006D65000059
:105AA0003134000031350000202000000057000094
:105AB0005F4600004C5200003A540000696D00003F
:105AC0006531000035310000362000002000000064
:105AD000575F0000464C0000523A00005469000035
