:020000040000fa
:080000000001040000000000f3
:020000040000fa
:100200002fed20008079220000018800000000000e
:10021000050007000c0007000a1f02000000000094
:100220000040da000000fe004440a900c067220040
:100230000000e0000300320000002000a001880060
:100240004440a80000000600007c2b0001002000b4
:100250001600370062004000e080480091018800ed
:100260009001ba0062004000e080480091018800df
:100270009002ba0062004000e08048000002eb00fb
:100280006028e10005003a008301e900070033001f
:10029000038009000059eb00040037006128e100e9
:1002a000010032000082eb00050007009101880088
:1002b0001001ba000200e000e6ff3a00000005006d
:1002c000910188008002780062004000e0804800d0
:1002d0003559ba008301e900080032002559ba00f7
:1002e0008301e900050032000400e000f4ff320061
:1002f00015d9ba008301e900f1ff3a0000000600b9
:100300006022b800060220000000d0008180d200e8
:100310000482d2008582d2000000a00002025200b6
:1003200083825a0003003b000202420083824a009b
:100330000000a1000603e900f3ff3a0000000600f8
:100340000400fa000000eb00d06488000000eb001d
:10035000000f78001e0078000000d000c1bc200013
:10036000010040001000e000090032001e0078008b
:100370000000d000c2bc200082004000d064800099
:1003800011004000d06488001e0fe800f1ff370024
:10039000d1648000000f2000008060004400de0077
:1003a000100798001e009000e90f500004003e0066
:1003b0001e0090000003b0001007980003003700f3
:1003c0001e0090007003b000100798001e00780017
:1003d0000000d000c1bc2000010040001e019000c0
:1003e00002087800d06480006f0060001007980059
:1003f0001e009000e90f500004003e001e00900017
:100400000003b00010079800030037001e009000a2
:100410007003b000100798001e0078000000d000a4
:10042000e1bc2000010040001e019000020878009d
:100430001e0078000000d00002bd200082004000b5
:100440000000eb00800878000080fa000000060041
:100450000000fa00baff07000000eb00b06488005b
:1004600090002000a0648800b06480000000d000ec
:10047000c1bc2000010040001000780080108800fe
:1004800010002000b06488000080fa000000060020
:10049000809fbe00821f78000200fa008540a900fc
:1004a000b06480000000d000c1bc2000010040000a
:1004b0001000e00012003a000000eb00000f78008e
:1004c0000fc2bf000080fb00610060000000e00080
:1004d00005003a00f07c20009e0f100002003e0054
:1004e0001e0fe800f6ff3700e302a8000000eb0053
:1004f000c06488000000eb00a0648800180037008a
:10050000b06480000000d000c2bc200002004000a7
:100510001000780080108800b06480000000e800bf
:10052000b06488000000eb00c064880090002000e8
:10053000a064880050042000960ce30008003600f8
:100540000000eb00b0648800b06480000000d000c0
:10055000c2bc2000820040000000eb008008780050
:100560000080fa004f0178004f00be0000400600f6
:10057000809fbe00829fbe001200fa000000eb00c8
:10058000000f78000000eb00100798008520a900fc
:100590000ec2bf000080fb00610060000000e000b0
:1005a0000200320090108000000f78000ec2bf00e1
:1005b0000080fb00610060000000e00002003200eb
:1005c00091108000010f78000ec2bf000080fb0078
:1005d000610060000000e000020032009210800024
:1005e000020f78000ec2bf000080fb0061006000b7
:1005f0000000e0000200320093108000030f78003a
:100600000ec2bf000080fb00610060000000e0003f
:100610000200320090108000000f78000ec2bf0070
:100620000080fb00610060000000e000020032007a
:1006300091108000010f78000000eb00c06488007a
:100640000ec2bf000080fb000000d1000080fb0054
:10065000610060000000e000010032000e22a900ed
:100660000ec2bf000080fb004200de000080fb00e5
:10067000610060000000e000010032000e42a900ad
:100680000ec2bf000080fb004300de000080fb00c4
:10069000610060000000e000010032000e62a9006d
:1006a00090002000940ce300090132000000eb00f0
:1006b000c064880040042000960ce30004003e0063
:1006c000b06480000000e800b064880002003700d9
:1006d0000000eb00b0648800b06480000000d0002f
:1006e000c1bc2000010040001e087800a264800008
:1006f000020f98008e099000e78f5100eb00320046
:100700000e089000e70f500007003e008e08900092
:100710000100e0000b0032000e099000e60f5100ce
:1007200017003200e60037008e099000ed8f51006f
:100730002b0032000e089000ee0f500048003200ef
:10074000df003700610020009e8f100003003200a0
:10075000520020009e0f1100dd003a0060002000d2
:10076000a06488009e017800635e88000000eb00b2
:10077000b06488001e007800d0648800d400370080
:10078000d06480001e004000d0648800310020004a
:100790009e8f100003003200420020009e0f1100c7
:1007a00009003a00b06480000000d000c3bc200003
:1007b000830040000000eb0080087800d00020009b
:1007c000a0648800c2003700f00220009e0f1000d5
:1007d000bf003e000000eb00a0648800bc003700b2
:1007e000900320009e0f100004003e0000fd2f002b
:1007f0001e004000200798000300370091fc2f00e6
:100800009e804000210798002e019000020f780082
:10081000b06480000000d000c3bc20008300400012
:100820000000eb0080087800d1648000000f2000f9
:10083000008060004400de00100798001e00900059
:100840009e0f500003003a00e0002000a0648800e2
:100850009f0037000000eb00a06488009c00370078
:10086000900320009e0f100004003e0000fd2f00aa
:100870001e004000300798000300370091fc2f0055
:100880009e804000310798003e019000020f7800e2
:10089000d06480006f00600010079800b064800092
:1008a0000000d000c3bc2000830040000000eb002b
:1008b000800878000000eb00b06288001e00900005
:1008c0009e0f500076003a0050042000960ce30082
:1008d00073003e000000eb00000f780010002000c5
:1008e000100798001e0090000000d000c2bc20003d
:1008f00082004000f0022000910f100065003600d9
:100900001e0090000000d000c3bc20008301400006
:10091000430798001e0090000000d000c2bc2000d9
:100920008200400090032000910f100008003e005c
:100930001e0090000000d000c3bc20000300400057
:1009400001fd2f00908040005107980007003700fc
:100950001e0090000000d000c2bc20000200400039
:1009600093fc2f009081410053079800de00900017
:100970004e009000010878001e0090000000d0009a
:10098000c2bc2000820040001e0090000000d00089
:10099000c3bc200003004000100078004400dd00cc
:1009a000800878001e0090000000e8001007980002
:1009b0001e0090000000d000c1bc2000810040005b
:1009c000610798001e0090000000d000c2bc20000b
:1009d0008200400090032000910f100008003e00ac
:1009e0001e0090000000d000c3bc200003004000a7
:1009f00001fd2f009080400071079800070037002c
:100a00001e0090000000d000c2bc20000200400088
:100a100093fc2f009081410073079800fe00900026
:100a20006e009000010878001e0078000000d000e1
:100a300083c52000030140001e0090000000d0008c
:100a4000a3bc2000830040001e0090000000d000e6
:100a5000c3bc2000030040009100780010897000a2
:100a60001e0fe800e00120009e0f10000500360078
:100a70000000eb00a06488000000eb00b064880078
:100a8000040037001e0090000000e80010079800e6
:100a900094ff370080002000a06488000c0037001d
:100aa0000000eb00a0648800090037000000eb00a4
:100ab000a06488000000eb00b064880004003700e8
:100ac0000000eb00a06488000000eb00b064880028
:100ad0000080fa004f01be004f00be00004006003b
:100ae0000400fa000000eb00506b88000000eb00ef
:100af000000f78001e0078000000d000c1c920005f
:100b0000010040001000e000090032001e007800e3
:100b10000000d000c2c9200082004000506b80005d
:100b200011004000506b88001e0fe800f1ff3700f5
:100b3000516b8000000f2000008060004400de0048
:100b4000100798001e009000e90f500004003e00be
:100b50001e0090000003b00010079800030037004b
:100b60001e0090007003b000100798001e0078006f
:100b70000000d000c1c92000010040001e0190000b
:100b800002087800506b80006f006000100798002a
:100b90001e009000e90f500004003e001e0090006f
:100ba0000003b00010079800030037001e009000fb
:100bb0007003b000100798001e0078000000d000fd
:100bc000e1c92000010040001e01900002087800e9
:100bd0001e0078000000d00002ca20008200400001
:100be0000000eb00800878000080fa00000006009a
:100bf0000000fa00baff07000000eb00306b88002d
:100c000090002000206b8800306b80000000d00036
:100c1000c1c920000100400010007800d0108800f9
:100c200010002000306b88000080fa0000000600f1
:100c3000809fbe00821f78000000fa008720a90074
:100c4000306b80000000d000c1c9200001004000ce
:100c50001000e00005003a000000eb00406b880047
:100c60000000eb00206b880018003700306b80001c
:100c70000000d000c2c9200002004000100078002f
:100c8000d0108800306b80000000e800306b8800d6
:100c90000000eb00406b880090002000206b880073
:100ca00050042000660de300080036000000eb0051
:100cb000306b8800306b80000000d000c2c920007b
:100cc000820040000000eb00800878000080fa00fd
:100cd0004f0178004f00be0000400600809fbe001c
:100ce000821f78000a00fa000000eb00000f780075
:100cf0000000eb00100798008700a90018c2bf0091
:100d00000080fb00610060000000e0000200320093
:100d1000e0108000000f780018c2bf000080fb00c8
:100d2000610060000000e00002003200e11080007d
:100d3000010f780018c2bf000080fb006100600056
:100d40000000e00002003200e2108000020f780094
:100d500018c2bf000080fb00610060000000e000de
:100d600002003200e0108000000f78000000eb006d
:100d7000406b880018c2bf000080fb000000d1005b
:100d80000080fb00610060000000e0000100320014
:100d90001822a90018c2bf000080fb004200de003c
:100da0000080fb00610060000000e00001003200f4
:100db0001842a90018c2bf000080fb004300de00fb
:100dc0000080fb00610060000000e00001003200d4
:100dd0001862a90090002000640de300a800320012
:100de0000000eb00406b880040042000660de3002b
:100df00004003e00306b80000000e800306b88008b
:100e0000020037000000eb00306b8800306b800080
:100e10000000d000c1c92000010040001e08780079
:100e2000226b8000420798004e009000e70f5000b0
:100e30008a003200ce009000e78f500007003e008d
:100e40004e0190000200e0000b0032004e009000c6
:100e5000e60f50001700320085003700ce009000ea
:100e6000ed8f5000250032004e019000ee0f510032
:100e7000420032007e003700600020009e0f10000c
:100e800003003200510020009e8f10007c003a00c9
:100e900060002000206b88001e017800e26488005a
:100ea0000000eb00306b88001e007800506b88005b
:100eb00073003700506b80001e004000506b8800ac
:100ec000310020009e8f10000300320042002000fd
:100ed0009e0f11006a003a00306b80000000d000c5
:100ee000c2c92000820040000000eb0080087800aa
:100ef000d0002000206b88006100370090032000a4
:100f00009e0f100004003e0000fd2f001e00400058
:100f1000200798000300370091fc2f009e804000be
:100f2000210798002e019000020f7800306b80009e
:100f30000000d000c2c92000820040000000eb0089
:100f400080087800516b8000000f20000080600056
:100f50004400de00100798001e0090009e0f500015
:100f600003003a00e0002000206b880044003700b6
:100f70000000eb00206b8800410037009003200048
:100f80009e0f100004003e0000fd2f001e004000d8
:100f9000300798000300370091fc2f009e8040002e
:100fa000310798003e019000020f7800506b8000de
:100fb0006f00600010079800306b80000000d000c8
:100fc000c2c92000820040000000eb0080087800c9
:100fd0000000eb00306988001e0090009e0f50005a
:100fe0001b003a000000eb00100798001e00900064
:100ff0000000d000c1c92000010040001000e00046
:10100000100032001e009000fd0f50000d003e0049
:101010001e0090000000d00082d22000820040001c
:101020001e0090000000d000c2c920000200400055
:10103000900878001e0090000000e800100798005b
:10104000eaff370080002000206b88000c0037008a
:101050000000eb00206b8800090037000000eb0067
:10106000206b88000000eb00306b88000400370024
:101070000000eb00206b88000000eb00306b880064
:101080000080fa004f0178004f00be0000400600cb
:101090000000fa000080eb00401588002201a90042
:1010a0002221a9002241a90022a1a90022c1a90050
:1010b00022e1a90023a1a90023e1a9002112200017
:1010c0009140780070ceb30000c0600022e1b7000c
:1010d00023c1bf007040b30023e1b7002501a80081
:1010e0002461a80024e1a80024c1bf007040b3001f
:1010f00024e1b7004112200091407800f0c8b3000d
:1011000000c0600001c3b3000140700024e1b700db
:101110000000eb003009880000042000400988002e
:101120008900a9009100a8000080fa0000000600d4
:10113000809fbe000000fa0089c0bf000080fb0055
:10114000610060000000e0001f0032008900a9007b
:1011500023c1bf000080fb004300de000080fb00d5
:10116000610060000000e00007003200f06f8000c6
:101170000170800061004000e0804800f06f88004e
:10118000017088000b003700f06f80000170800054
:10119000e00f5000e08f580006003200f06f800032
:1011a0000170800061005000e0805800f06f8800fe
:1011b000017088000000eb00505c8800a05880009f
:1011c0000000e800a05888000080fa004f00be0030
:1011d000004006000200fa00000f78001e00e00048
:1011e00002003a00c4eba90001003700c4eba800dc
:1011f0000080fa00000006000000fa00be6ba900a3
:10120000be4ba900be2ba900be0ba800aa2ba900ab
:10121000aa0ba800333307000000e00001003200f1
:10122000ae8ba8000080fa00000006000000fa0063
:10123000be2ba900be0ba900be6ba900be4ba80027
:10124000aa2ba900ae8ba8000080fa0000000600bf
:101250000000fa00be0ba900be2ba8000080fa0017
:10126000000006000000fa00be4ba900be6ba800fb
:101270000080fa00000006000000fa00be0ba90082
:101280000080fa00000006000000fa00be4ba90032
:101290000080fa00000006000000fa00be2ba90042
:1012a0000080fa00000006000000fa00be6ba900f2
:1012b0000080fa00000006000000fa00eeff0700c0
:1012c000f1ff07000080fa00000006000000fa00ad
:1012d000f1ff0700f4ff07000080fa00000006009d
:1012e0000000fa00daff0700deff07000080fa00c6
:1012f000000006000000fa00fa3207000000e000db
:1013000001003200c4eba900c4cbbf000080fb0089
:101310004700de000080fb000000e00002003a0011
:10132000b5ff070001003700c0ff07000080fa008a
:10133000000006000000fa00ea3207000000e000aa
:1013400001003200c4eba900c4cbbf000080fb0049
:101350004700de000080fb000000e00002003a00d1
:10136000bbff070001003700beff0700b0012000ef
:10137000a008e30002003600c001200000458800fc
:101380000080fa00000006000000fa00b4cbbf00a5
:101390000080fb004500de000080fb006100600073
:1013a0000000e00002003200c40ba9000500370075
:1013b000c40ba800800c20005c0be3000100360089
:1013c000bdff07000080fa00000006000200fa00de
:1013d000000f7800b4cbbf000080fb004700de00a8
:1013e0000080fb000000e000050032001e00e0006d
:1013f00001003200c48ba800c44ba90002003700d2
:10140000c44ba800c48ba900b4cbbf000080fb0074
:101410004600de000080fb00610060000000e0008c
:10142000050032001e00e00001003200c4aba8003d
:10143000c42ba90002003700c42ba800c4aba9002c
:10144000c4cbbf000080fb004200de000080fb0038
:10145000610060000000e00010003200c4cbbf005b
:101460000080fb000000d1000080fb0061006000f4
:101470000000e00009003200c46ba800aa0ba9001c
:10148000ae8ba900aa2ba800e00120005e0be300b0
:10149000030036008dff070001003700c46ba90070
:1014a0001e00e000030032008dff07000000eb008b
:1014b000f05a88000080fa00000006000000fa00e0
:1014c000e842a900e842a900e842a900e842a900d0
:1014d000e2e2a900e2e2a900e2e2a900e2e2a90058
:1014e000e2e2a800e2e2a800e2e2a800e2e2a8004c
:1014f000e2e2a800e2e2a800e2e2a800e2e2a8003c
:101500000080fa00000006000400fa00000f7800d6
:101510000000eb00100798001e009000e70f50003d
:101520001d003e00e862a9009e0078006180600016
:101530000000e00001003200e862a800e842a900d3
:10154000e842a900e842a900e842a900e842a9004f
:10155000e842a900e842a900e842a900e842a80040
:10156000e842a800e842a800e842a800e842a80033
:10157000e842a800e842a800e842a8001e0078005f
:101580000000d100000f78001e0090000000e8006d
:1015900010079800e0ff37000080fa000000060006
:1015a0000200fa00201780000030a00020178800f9
:1015b0000000eb00607688000000eb00000f780070
:1015c000700020009e0f100020003e00e842a8009e
:1015d000e842a800e842a800e842a800e842a800c3
:1015e000e842a800e842a800e842a800e842a900b2
:1015f000e842a900e842a900e842a900e842a9009f
:10160000e842a900e842a900e842a900607680000b
:101610000000d10060768800e6c2bf000080fb00b9
:101620004300de000080fb00610060000000e0007d
:101630000400320060768000010820000100700084
:10164000607688001e0fe800ddff3700211780005c
:1016500070ff2f00008060002017880060768000f7
:101660000080fa00000006000000fa000080fa0086
:10167000000006000000fa000080fa0000000600ea
:101680000000fa008dff0700f00b20009eff07000e
:10169000c3ff0700c0458800c1ff0700b0458800b0
:1016a000bfff0700a0458800bdff070090458800e8
:1016b000bbff070080458800b9ff0700b8ff07009f
:1016c000704588007dff07000080fa0000000600da
:1016d0000000fa000080fa00000006000000fa0096
:1016e0000000eb00c04588000000eb00b04588001a
:1016f00060002000a045880020012000904588005f
:10170000400020008045880050002000704588007f
:101710006aff0700e00820007bff07000000eb00e5
:1017200079ff070065ff07000009200076ff07002a
:10173000b00a200074ff070060ff0700e00b2000e4
:1017400071ff0700c04580006fff0700b0458000b3
:101750006dff0700a04580006bff070090458000eb
:1017600069ff07008045800067ff07003000200008
:1017700065ff07007045800063ff07000000eb0075
:1017800061ff07004dff07000080fa00000006001f
:101790000000fa0061c7bf000080fb004700de00c8
:1017a0000080fb000080fb000080fa0000000600c3
:1017b0000000fa0061c7a8000000eb000080fa00fa
:1017c000000006000000fa0061c7a9000000eb005d
:1017d0000080fa00000006000200fa00000f780006
:1017e0000000eb00205b88001e007800003b8800b2
:1017f00050052000303b8800a00a2000303b8800c4
:1018000061e7a80000000000000000000000eb00fd
:10181000707688000000eb00205b88000060fe000e
:1018200061c7bf000080fb004700de000080fb00b6
:101830000000e000faff3a000080fa000000060015
:101840000200fa00000f7800f0c7b30064e7b700a9
:1018500001002f001e804000103b8800400424003f
:10186000ddff070061c7a9000080fa000000060044
:101870000400fa00000f780011079800f0c7b300c9
:1018800032e0b70000002f001e0f40001e0078005d
:101890009e0090000108bb0040002400ceff07001e
:1018a00061c7a9000080fa00000006000400fa00e9
:1018b000000f7800f0c7b30032e0b70000002f003f
:1018c0001e0f40001e0078009040ba00214798008b
:1018d0002e4090000080fb000080fa00000006000f
:1018e0000400fa00000f7800f0c7b30032e0b70040
:1018f00000002f001e0f40001e0078009000ba006c
:10190000110798001e0090000080fa0000000600f9
:101910000600fa00000f7800110798009cff0700ee
:101920000004e000030032001000200020079800af
:10193000070037001e007800c1ff07009e009000de
:101940001e007800caff07000000eb002007980087
:101950002e0090000080fa00000006000800fa0047
:10196000000f780011079800e0ff2f001e006000b4
:10197000dbff0700200798009e0078006180600070
:101980000000e00008003200ae009000f00f2000e0
:10199000808060001e0090004800dd000080700024
:1019a0002007980006003700ae00900000f02f00de
:1019b000808060001e00900000807000200798006a
:1019c00073ff07000004e000030032001000200055
:1019d000300798000a003700e0ff2f001e0060006b
:1019e00097ff0700ae0090001e007800a0ff0700e0
:1019f0001e007800baff07008000eb003107980056
:101a00003e0090000080fa00000006000200fa008c
:101a1000b0468000000f78001e007800e20f5000f2
:101a2000a40032001e007800e20f500007003e00c4
:101a30001e0078000000e0005a0132001e0078000d
:101a4000e10f500008003200560137001e007800f8
:101a5000e30f5000c40032001e007800e40f500075
:101a6000d10032004f01370096eba80094cbbf00a5
:101a70000080fb004400de000080fb00610060008d
:101a80000000e0004c003200c0cbbf000080fb0033
:101a9000610060000000e0002000320090448000ff
:101aa0007c0be3000b003100bacbbf000080fb00d1
:101ab0004700de000080fb000000e00039013a0032
:101ac000904480000102200001007000c0448800a2
:101ad00034013700904480007c0be3003101360074
:101ae000bacbbf000080fb004700de000080fb0097
:101af0000000e0002b013a00e15b800000022000c2
:101b00000080700050448800e15b800000022000eb
:101b100000807000c044880022013700c0cbbf00a5
:101b20000080fb000000d1000080fb00610060002d
:101b30000000e0001b013200904480007c0be300b9
:101b40000b003600bacbbf000080fb004700de0070
:101b50000080fb000000e00012013a009044800089
:101b60000102200001007000c04488000d01370010
:101b7000904480007c0be3000a013100bacbbf0027
:101b80000080fb004700de000080fb000000e0005a
:101b900004013a00e15b8000000220000080700038
:101ba00060448800e15b800000022000008070003b
:101bb000c0448800fb003700904480007c0be300a9
:101bc00032003a00c4cbbf000080fb00610060001f
:101bd0000000e00008003200b8cbbf000080fb002e
:101be000610060000000e00003003a0020002000d7
:101bf000b0468800eb00370096cbbf000080fb00aa
:101c00000000d1000080fb00610060000000e000e7
:101c100011003200a6cbbf000080fb004200de00b6
:101c20000080fb00610060000000e0000a0032005c
:101c30002b320700a4cba8000000eb00205c88003a
:101c4000200020009e08e300d60036000000eb00d4
:101c5000f0448800d300370096cbbf000080fb0023
:101c60000000d1000080fb00610060000000e00087
:101c7000cc003200200020009e08e300c90036009e
:101c80000000eb00f0448800c60037009a6ba80003
:101c9000e15b80000002200000807000c0448800ea
:101ca000e15b80000002200000807000d0448800ca
:101cb000bc003700b8cbbf000080fb0061006000b3
:101cc0000000e00022003a0005320700aecba80079
:101cd000f13107000000e000060032008a08e2004f
:101ce00004003a008c08e20002003a0081fd07007f
:101cf00008003700c4cbbf000080fb004300de00bb
:101d00000080fb00610060000000e00001003a007c
:101d100073fd0700c4cbbf000080fb004300de0062
:101d20000080fb00610060000000e0009d003200c8
:101d3000500020005e0be3009a00360040002000b7
:101d4000b04688000000eb00704488009500370022
:101d5000aecba90010002000b04688004000200053
:101d6000f04488008f003700b00020009e08e30098
:101d700001003a00aecba800c4cbbf000080fb003e
:101d80004300de000080fb00610060000000e00016
:101d900084003a0040002000b04688009aeba8007a
:101da000aecba9007f003700b8cbbf000080fb009e
:101db000610060000000e00074003a00aecba800b3
:101dc000c7310700a23107000000e0000b003a0015
:101dd00048fd07000000eb00604488000000eb00b5
:101de000504488000000eb00d04488000000eb0065
:101df000c0448800ba3107000400370050002000ba
:101e00005e0be30001003e0035fd0700b8cbbf00cc
:101e10000080fb000000d1000080fb00610060003a
:101e20000000e00012003a00aecba8008a08e200f1
:101e300002003a008c08e2000c003200a66ba800f9
:101e4000b05b800052002000110009000280d80021
:101e5000610060000000e00002003200c24ba800f8
:101e600003003700c24ba90001003700a66ba90090
:101e7000c4cbbf000080fb00610060000000e000f8
:101e8000080032000000eb00d05a8800200020003b
:101e9000b04688000000eb0070448800c24ba900e7
:101ea00040003700c4cbbf000080fb004300de00d1
:101eb0000080fb00610060000000e0002a003200aa
:101ec000500020005e0be30036003600b8cbbf00a8
:101ed0000080fb000000d1000080fb00610060007a
:101ee0000000e0000a003a00b8cbbf000080fb0011
:101ef0000000d1000080fb00610060000000e000f5
:101f000028003a0020032000760be300250036006d
:101f10008a08e20009003200aecba900c24ba9003a
:101f200050448000d044880040002000f0448800e5
:101f300030002000b04688001a0037008c08e2000c
:101f400018003200aecba900c24ba900604480004b
:101f5000d044880040002000f04488003000200079
:101f6000b04688000f0037000000eb006044880096
:101f70000000eb00504488000000eb00d0448800d3
:101f80000000eb00c044880006003700aecba9007b
:101f900010002000b046880040002000f044880077
:101fa000c24ba9000080fa00000006000000fa0001
:101fb00094cbbf000080fb00610060000000e000e7
:101fc00057003200b6cbbf000080fb004300de00ac
:101fd0000080fb00610060000000e00011003200a2
:101fe000bccbbf000080fb004700de000080fb0090
:101ff0000000e0000b003200b8cbbf000080fb0007
:10200000610060000000e000060032000000eb000c
:10201000b0468800aecba900ac8ba900a4cba90028
:102020004400370010012000a008e3000200360041
:102030001001200000458800bccbbf000080fb00e1
:102040004700de000080fb000000e00004003a00d2
:1020500070142d001080fb00e05b88000300370047
:1020600030142d001080fb00e05b8800ac8ba800d2
:10207000b6cbbf000080fb004300de000080fb0009
:10208000610060000000e00006003200bccbbf0031
:102090000080fb004700de000080fb000000e00045
:1020a00005003a00d608e20016003a0010002000b1
:1020b000b046880013003700b8cbbf000080fb009b
:1020c000610060000000e0000e003a00d608e20067
:1020d0000c003a0094cbbf000080fb004400de00ff
:1020e0000080fb00610060000000e000030032009f
:1020f00030002000b0468800020037004000200079
:10210000b046880000142d001080fb007c0be3001b
:10211000080036000000eb00e05b88000500370097
:102120000000eb00b0468800aecba900ac8ba90044
:10213000a4cba900b8cbbf000080fb006100600009
:102140000000e00007003a00b8cbbf000080fb00b1
:102150000000d1000080fb00610060000000e00092
:1021600001003200a66ba90028fe07000080fa00db
:10217000000006000200fa00000f7800110424009d
:10218000013b88006427ef0000f0a100103b8800ad
:1021900061c7a80051052000313b8800a10a20003a
:1021a000313b880061e7a80000000000000000004b
:1021b00000000000000000000080fa00000006009f
:1021c0000400fa00000f78001107980013002400a3
:1021d000033b880000f0a1003220ef008001eb00fb
:1021e0003108bb000398bb003108bb000398bb005b
:1021f0003108bb000398bb003108bb000398bb004b
:102200003108bb000398bb003108bb000398bb003a
:102210003108bb000398bb003108bb000398bb002a
:102220003108bb000398bb003108bb000398bb001a
:102230003108bb000398bb003108bb000398bb000a
:102240003108bb000398bb003108bb000398bb00fa
:102250003108bb000398bb003108bb000398bb00ea
:102260003108bb000398bb003108bb000398bb00da
:102270003108bb000398bb003108bb000398bb00ca
:102280003108bb000398bb003108bb000398bb00ba
:102290003108bb000398bb003108bb000398bb00aa
:1022a0003108bb000398bb003108bb000398bb009a
:1022b0003108bb000398bb003108bb000398bb008a
:1022c0003108bb000398bb003108bb000398bb007a
:1022d0003108bb000398bb003108bb000398bb006a
:1022e00061c7a80051052000313b8800a10a2000e9
:1022f000313b880061e7a8000000000000000000fa
:1023000000000000000000000080fa00000006004d
:102310000400fa00904480000000d000000f780014
:10232000904480000000e800804388001e00780090
:10233000c200de00400020000008b80002102d009e
:10234000820040001e007800630060000100400031
:102350001080fb00e04388001e00e800c200de00a1
:10236000400020000008b80002102d00820040004c
:102370001e00e80063006000010040001080fb00c8
:10238000f0438800904480000000e80010079800a7
:102390001e009000a2002000110009000280d80059
:1023a0008000fd00000f7800e1e62c001e007800a0
:1023b0000000d000010040001080ea00906b88000f
:1023c0001e009000a2002000110009000280d80029
:1023d000000f7800e1e62c001e0078000000d0001d
:1023e000010040001080ea00a06b8800f00f200080
:1023f000b06b88000080fa00000006000000fa00c0
:10240000c04ba900c06ba900c08ba8000080fa00d7
:10241000000006000000fa00c04ba800c06ba90035
:10242000c08ba9000080fa00000006000000fa003e
:10243000c04ba800c06ba800c08ba9000080fa00a8
:10244000000006000000fa00c04ba900c06ba90004
:10245000c08ba9000080fa00000006000000fa000e
:10246000ecff07009acbbf000080fb004400de00b9
:102470000080fb00610060000000e00022003200ec
:10248000b2cbbf000080fb004600de000080fb00f6
:10249000610060000000e00006003200b2cbbf0027
:1024a0000080fb004700de000080fb000000e00031
:1024b00036003a00b2cbbf000080fb006100600034
:1024c0000000e0000e003200a4cbbf000080fb0043
:1024d000610060000000e00009003a00a2cbbf00ec
:1024e0000080fb004700de000080fb000000e000f1
:1024f00026003200500a2000ac08e30023003a0016
:10250000caff0700210037009acbbf000080fb0004
:102510004500de000080fb00610060000000e0007c
:102520001a003200b2cbbf000080fb004600de0084
:102530000080fb00610060000000e0000600320047
:10254000b2cbbf000080fb004700de000080fb0034
:102550000000e0000d003a00b2cbbf000080fb009d
:102560000000d1000080fb00610060000000e0007e
:1025700005003200a4cbbf000080fb0061006000ba
:102580000000e00001003200a8ff07000080fa0010
:10259000000006000200fa00e0012000a008e300ad
:1025a00002003600f001200000458800e044800071
:1025b000000f78001e007800e20f50002200320069
:1025c0001e007800e20f500007003e001e00780059
:1025d0000000e0000b0032001e007800e10f500008
:1025e0000b003200410037001e007800e30f50005e
:1025f0001d0032001e007800e40f5000260032005b
:102600003a00370010002000e0448800370037000f
:1026100020002000e04488000000eb00c05a880041
:10262000aacbbf000080fb004400de000080fb005e
:10263000610060000000e0002c003200108b86007a
:10264000405c8800290037007eff0700108b860061
:10265000880be30025003600beeba9003000200007
:10266000e044880021003700208b8600880be300bf
:102670001e003600be8ba90010022000a008e30057
:1026800002003600100220000045880040002000b3
:10269000e044880015003700308b8600880be3008b
:1026a0001200360042310700c00ba900c02ba90060
:1026b000beeba900be8ba90062ff0700982ba90002
:1026c000948ba900a42ba900a44ba900ac2ba900b2
:1026d000982ba90094cbbf000080fb006100600034
:1026e0000000e00001003a007d2f07000080fa00a2
:1026f000000006000200fa00a2cba90094cbbf00a4
:102700000080fb004200de000080fb0061006000f2
:102710000000e0005b003200792f070094cbbf007f
:102720000080fb00610060000000e0000700320054
:10273000d0012000a008e30002003600d0012000f4
:1027400000458800e6fa0700050037007001200008
:10275000a008e30002003600700120000045880058
:10276000e0448000000f78001e007800e10f500068
:10277000140032001e0078000000e0000700320064
:102780001e007800e20f5000180032001e00780092
:10279000e30f500021003200370037000000eb004b
:1027a000c05a880027ff0700c00ba900c02ba90052
:1027b000beeba900be8ba90010002000e0448800f9
:1027c000320037001fff0700c00ba800c0152d0006
:1027d0001080fb00580be3002c003600be8ba800d5
:1027e00020002000e044880028003700ac2ba8001f
:1027f000948ba800a42ba800a44ba900d0152d00f1
:102800001080fb00580be30020003600beeba80050
:1028100030002000e04488001c003700e0152d0047
:102820001080fb00580be30018003600c00ba80016
:1028300094cbbf000080fb00610060000000e0005e
:1028400002003200edfe070010003700aacbbf00e7
:102850000080fb004400de000080fb00610060009f
:102860000000e00002003200f0fe07000700370021
:10287000fafe0700050037000000eb00e044880086
:10288000020037000000eb00e04488000080fa00fe
:10289000000006000200fa00a2cba90094cbbf0002
:1028a0000080fb004300de000080fb006100600050
:1028b0000000e0005b003200202f070094cbbf0037
:1028c0000080fb00610060000000e00007003200b3
:1028d000e0012000a008e30002003600e001200033
:1028e000004588007efa07000500370080012000bf
:1028f000a008e300020036008001200000458800a7
:10290000e0448000000f78001e007800e10f5000c6
:10291000140032001e0078000000e00007003200c2
:102920001e007800e20f5000180032001e007800f0
:10293000e30f500021003200370037000000eb00a9
:10294000c05a8800bffe0700c00ba900c02ba90019
:10295000beeba900be8ba90010002000e044880057
:1029600032003700b7fe0700c02ba800c0152d00ad
:102970001080fb00580be3002c003600be8ba80033
:1029800020002000e044880028003700ac2ba8007d
:10299000948ba800a42ba800a44ba900d0152d004f
:1029a0001080fb00580be30020003600beeba800af
:1029b00030002000e04488001c003700e0152d00a6
:1029c0001080fb00580be30018003600c02ba80055
:1029d00094cbbf000080fb00610060000000e000bd
:1029e0000200320085fe070010003700aacbbf00ae
:1029f0000080fb004400de000080fb0061006000fe
:102a00000000e0000200320088fe070007003700e7
:102a100092fe0700050037000000eb00e04488004c
:102a2000020037000000eb00e04488000080fa005c
:102a3000000006000000fa00bacbbf000080fb00d7
:102a40004600de000080fb00610060000000e00046
:102a500007003200d15d8000f0032000008060009c
:102a6000b04488000000eb00a05b8800060037003f
:102a7000d05d80007f0060009044880024fe070045
:102a80000000eb00905b88000080fa000000060068
:102a90000000fa00a0002000720be30003003e00db
:102aa000a0002000740be3000c00360094cbbf00a4
:102ab0000080fb00610060000000e00002003200c6
:102ac0009c2ba800a0eba800b0002000905b880021
:102ad000b0002000a05b880001003700a0eba90037
:102ae0000080fa00000006000400fa00000f7800e1
:102af0001e007800100798001e009000e30f5000a1
:102b0000260032001e009000e30f500007003e0038
:102b10001e009000e10f5000160032001e009000d1
:102b2000e10f500018003e000d0037001e0090001d
:102b3000e50f5000230032001e009000e40f50000b
:102b40001b0036001e009000e60f500022003200ed
:102b50001e009000e70f50002400320028003700cc
:102b6000c04ba900c06ba900c08ba900c0aba900d5
:102b700027003700c04ba800c06ba900c08ba9007c
:102b8000c0aba90022003700c04ba900c06ba80051
:102b9000c08ba900c0aba9001d003700c04ba80026
:102ba000c06ba800c08ba900c0aba90018003700fb
:102bb000c04ba900c06ba900c08ba800c0aba90086
:102bc00013003700c04ba800c06ba900c08ba80041
:102bd000c0aba9000e003700c04ba900c06ba80015
:102be000c08ba800c0aba90009003700c04ba800eb
:102bf000c06ba800c08ba800c0aba90004003700c0
:102c0000c04ba900c06ba900c08ba900c0aba80035
:102c10000080fa00000006000200fa00f05b80006d
:102c2000000f78001e007800e40f50002d003200e5
:102c30001e007800e40f50000d003e001e007800da
:102c4000e10f50001b0032001e0078000000e00081
:102c5000140032001e007800e20f5000190032000c
:102c60001e007800e30f50001a00320031003700d8
:102c70001e007800e60f5000220032001e0078008f
:102c8000e50f50001b0036001e007800e70f5000d3
:102c9000200032001e007800e80f500021003200b2
:102ca0002400370060182d001080fb008eff070005
:102cb0002200370070182d001080fb008aff0700eb
:102cc0001e00370080182d001080fb0086ff0700d3
:102cd0001a00370090182d001080fb0082ff0700bb
:102ce00016003700a0182d001080fb007eff0700a3
:102cf00012003700b0182d001080fb007aff07008b
:102d00000e003700c0182d001080fb0076ff070072
:102d10000a003700d0182d001080fb0072ff07005a
:102d200006003700e0182d001080fb006eff070042
:102d3000020037000000eb006bff07000080fa0084
:102d4000000006000000fa0000182d001080fb00b3
:102d500065ff07000080fa00000006000000fa008e
:102d600010182d001080fb005fff07000080fa00a4
:102d7000000006000000fa0030182d001080fb0053
:102d800059ff07000080fa00000006000000fa006a
:102d900040182d001080fb0053ff07000080fa0050
:102da000000006000000fa0050182d001080fb0003
:102db0004dff07000080fa00000006000000fa0046
:102dc00020182d001080fb0047ff07000080fa004c
:102dd000000006000000fa000000eb0042ff0700c0
:102de0000080fa00000006000000fa0094cbbf004b
:102df0000080fb00610060000000e0002300320062
:102e000094cbbf000080fb004500de000080fb008b
:102e1000610060000000e0001c00320094cbbf00a5
:102e20000080fb004300de000080fb0061006000ca
:102e30000000e0001300320094cbbf000080fb00d4
:102e40004200de000080fb00610060000000e00046
:102e50000c003200e0012000a008e3000200360070
:102e6000f001200000458800d4ff0700982ba8003f
:102e7000008b8600880be30004003600d5ff0700b6
:102e8000020037000000eb00e04488000080fa00f8
:102e9000000006000000fa00aaff07009acbbf005e
:102ea0000080fb004400de000080fb006100600049
:102eb0000000e00022003200b2cbbf000080fb0027
:102ec0004600de000080fb00610060000000e000c2
:102ed00006003200b2cbbf000080fb004700de00de
:102ee0000080fb000000e00036003a00b2cbbf00db
:102ef0000080fb00610060000000e0000e00320076
:102f0000a4cbbf000080fb00610060000000e00077
:102f100009003a00a2cbbf000080fb004700de00a2
:102f20000080fb000000e00026003200500a200074
:102f3000ac08e30023003a00a0ff0700210037009f
:102f40009acbbf000080fb004500de000080fb0044
:102f5000610060000000e0001a003200b2cbbf0048
:102f60000080fb004600de000080fb006100600086
:102f70000000e00006003200b2cbbf000080fb0082
:102f80004700de000080fb000000e0000d003a007a
:102f9000b2cbbf000080fb000000d1000080fb002e
:102fa000610060000000e00005003200a4cbbf001b
:102fb0000080fb00610060000000e00001003200c2
:102fc0007eff07000080fa00000006000200fa0001
:102fd000e0448000000f78001e007800e20f5000ef
:102fe000190032001e007800e20f500007003e007a
:102ff0001e0078000000e0000b0032001e00780088
:10300000e10f50000b003200320037001e00780044
:10301000e30f5000140032001e007800e40f50004f
:10302000180032002b00370010002000e044880018
:103030002800370020002000e04488000000eb005a
:10304000c05a88002300370062ff0700108b8600fb
:10305000880be3001f00360030002000e0448800a9
:10306000beeba9001b003700208b8600880be30015
:1030700018003600be8ba90040002000e044880004
:1030800014003700308b8600880be30011003600f7
:10309000c72e07004fff0700c00ba900c02ba900d7
:1030a000beeba900be8ba900948ba900a42ba9009c
:1030b000a44ba900ac2ba90094cbbf000080fb005f
:1030c000610060000000e00001003a00042d0700ec
:1030d000982ba9000080fa00000006000200fa0008
:1030e000a2cba90094cbbf000080fb004200de0011
:1030f0000080fb00610060000000e0005a00320028
:10310000ff2c070094cbbf000080fb006100600033
:103110000000e00007003200d0012000a008e3001a
:1031200002003600d0012000004588006cf807003e
:103130000500370070012000a008e30002003600ff
:103140007001200000458800e0448000000f7800f6
:103150001e007800e10f5000140032001e007800bd
:103160000000e000070032001e007800e20f50006f
:10317000180032001e007800e30f500021003200da
:10318000360037000000eb00c05a880011ff07002e
:10319000c00ba900c02ba900beeba900be8ba900e3
:1031a00010002000e04488003100370009ff0700cc
:1031b000c00ba800c0152d001080fb00580be300c9
:1031c0002b003600be8ba80020002000e0448800c1
:1031d00027003700ac2ba800948ba800a42ba800d4
:1031e000a44ba900d0152d001080fb00580be30064
:1031f0001f003600beeba80030002000e04488002d
:103200001b003700e0152d001080fb00580be30079
:1032100017003600c00ba80094cbbf000080fb0055
:10322000610060000000e000020032007afe07004a
:103230000100370017ff0700aacbbf000080fb008a
:103240004400de000080fb00610060000000e00040
:10325000070032000fff0700050037000000eb00f9
:10326000e0448800020037000000eb00e0448800e2
:103270000080fa00000006000200fa00a2cba900bc
:1032800094cbbf000080fb004300de000080fb0009
:10329000610060000000e0005a003200a72c070027
:1032a00094cbbf000080fb00610060000000e000e4
:1032b00007003200e0012000a008e3000200360011
:1032c000e00120000045880005f8070005003700f0
:1032d00080012000a008e3000200360080012000e9
:1032e00000458800e0448000000f78001e00780050
:1032f000e10f5000140032001e0078000000e000d2
:10330000070032001e007800e20f50001800320063
:103310001e007800e30f5000210032003600370015
:103320000000eb00c05a8800aafe0700c00ba900ed
:10333000c02ba900beeba900be8ba9001000200085
:10334000e044880031003700a2fe0700c02ba8002f
:10335000c0152d001080fb00580be3002b00360039
:1033600020002000e0448800be8ba8002700370022
:10337000ac2ba800948ba800a42ba900a44ba800f8
:10338000d0152d001080fb00580be3001f00360005
:10339000beeba80030002000e04488001b0037008e
:1033a000e0152d001080fb00580be30017003600dd
:1033b000c02ba80094cbbf000080fb006100600020
:1033c0000000e0000200320013fe07000100370099
:1033d000b0fe0700aacbbf000080fb004400de0067
:1033e0000080fb00610060000000e0000700320088
:1033f000a8fe0700050037000000eb00e04488004d
:10340000020037000000eb00e04488000080fa0072
:10341000000006000c00fa000000eb00905b880042
:103420000000eb00a05b8800a2cbbf000080fb0087
:103430004700de000080fb000000e00069013a0068
:10344000f00120009208e300020036000000eb00cb
:1034500090448800b2cbbf000080fb006100600098
:103460000000e00003003a0000142d001080fb0073
:1034700090448800b2cbbf000080fb000000d10068
:103480000080fb00610060000000e00002003a00e4
:103490000000eb0090448800a4cbbf000080fb003c
:1034a0000000d1000080fb00610060000000e0002f
:1034b000a5003200b2cbbf000080fb0061006000bd
:1034c0000000e00010003a00507080006170800041
:1034d000a20020000300200089f307000001be00c5
:1034e00000192d00104078000080fb000100200032
:1034f000800f5100818f5900010036009aeba8001f
:10350000baeba80038fe0700b8cbbf000080fb0074
:103510004400de000080fb00610060000000e0006d
:1035200013003a005070800061708000a2002000fb
:103530000300200072f307000001be0010192d00e7
:10354000104078000080fb0001002000800f510037
:10355000818f5900010036009aeba800200020005e
:103560007e0be30002003600baeba8001efe070047
:10357000b8cbbf000080fb004600de000080fb00ef
:10358000610060000000e00013003a00507080000d
:1035900061708000a20020000300200058f30700a3
:1035a0000001be0020192d00104078000080fb00b3
:1035b00001002000800f5100818f5900010036006a
:1035c0009aeba800400020007e0be30002003600ca
:1035d000baeba80004fe070000142d001080fb00c9
:1035e0009208e3000b003a0000142d001040780010
:1035f0008080fb00400020000008b80002f02c0092
:10360000020040001001be00220798003307980016
:103610000800370091448000400020000008b800f6
:1036200043f02c00030040001001be002207980068
:1036300033079800b0708000c17080004007980088
:10364000510798002e009000be0090004e0190009f
:10365000de019000021f500003975800f06f8000b9
:1036600001708000be0f5000ae8f5800130039006b
:1036700000142d001080fb009208e30003003100cd
:10368000904480000000e80090448800c0cbbf0058
:103690000080fb004700de000080fb000000e0002f
:1036a00004003a0000142d001080fb009208e30093
:1036b00002003900baeba800cbfd0700bacbbf006f
:1036c0000080fb004700de000080fb000000e000ff
:1036d00002003200c4fd0700c100370000142d00b5
:1036e0001080fb009208e30012003100f26f8000ae
:1036f0000370800090708000a1708000800f5100e6
:10370000818f590006003600904480008000e80058
:103710000002200000807000b0448800b000370034
:10372000b0448000f1fd2f0001006000b04488002b
:10373000ab003700904480000102200001007000bf
:10374000b0448800a6003700a4cbbf000080fb0077
:103750004200de000080fb00610060000000e0002d
:103760009c003200b2cbbf000080fb000000d10003
:103770000080fb00610060000000e00010003a00e3
:103780005070800061708000a200200003002000c3
:10379000dbf207000001be0000192d001040780088
:1037a0000080fb0001002000800f5100818f590034
:1037b000010036009aeba800baeba8008afd0700ca
:1037c000b8cbbf000080fb004500de000080fb009e
:1037d000610060000000e00013003a0050708000bb
:1037e00061708000a200200003002000c4f20700e6
:1037f0000001be0010192d00104078000080fb0071
:1038000001002000800f5100818f59000100360017
:103810009aeba800200020007e0be3000200360097
:10382000baeba80070fd0700b8cbbf000080fb001a
:103830004700de000080fb000000e00013003a00bb
:103840005070800061708000a20020000300200002
:10385000abf207000001be0020192d0010407800d7
:103860000080fb0001002000800f5100818f590073
:10387000010036009aeba800400020007e0be30018
:1038800002003600baeba80057fd07009208e200dc
:1038900009003a0091448000400020000008b80070
:1038a00002f02c00020040001001be002207980028
:1038b0003307980008003700914480004000200042
:1038c0000008b800c3ef2c00030040001001be0048
:1038d0002207980033079800b0708000c170800004
:1038e00040079800510798002e009000be009000fd
:1038f0004e019000de019000021f40000397480037
:10390000f06f800001708000be0f5000ae8f580035
:103910000f003e009208e200030032009044800055
:103920000000e90090448800c0cbbf000080fb008d
:103930004700de000080fb000000e00002003a00cb
:103940009208e20002003a00baeba80026fd070048
:10395000bacbbf000080fb004700de000080fb0008
:103960000000e000020032001ffd07001c003700cd
:103970009208e20012003200f26f800003708000b3
:1039800090708000a1708000800f5100818f5900dd
:1039900006003100904480008000e9000002200011
:1039a00000807000b04488000d003700b0448000f3
:1039b000f1fd2f0001006000b044880008003700ce
:1039c000904480000102200001007000b044880093
:1039d00003003700baeba90091448000b14488008d
:1039e0004bfa07000080fa00000006000000fa0011
:1039f000a0eba9000080fa00000006000000fa0019
:103a000096cbbf000080fb000000d1000080fb00cf
:103a1000610060000000e00001003a009aeba8009d
:103a2000dcfa07000080fa00000006000000fa003f
:103a3000a48ba9002ffb07000080fa0000000600fd
:103a40000000fa00a48ba90092fb07000080fa0096
:103a5000000006000000fa00f6fb07000080fa00f4
:103a6000000006000000fa0009fc07000080fa00d0
:103a7000000006000000fa00b044800001022000af
:103a8000010060000000e00003003200b04480004c
:103a9000c0448800d04388000080fa00000006007f
:103aa0000000fa000000eb00200888005109200007
:103ab00091407800f0c8b30000c060000044a0004e
:103ac00095e0b7000000eb000008880000e8230044
:103ad0001008880005e1a8008c60a8000080fa00aa
:103ae000000006000000fa009140a900013a8000a1
:103af000f00f2c0000806000003a8800013a80003e
:103b000000c0210000807000003a88008940a900b0
:103b10009140a8000080fa00000006000000fa00b2
:103b200030032000a01088000000eb007010880017
:103b30008109200091407800f0c8b30000c0600007
:103b400001c4b3000140700098e0b7009109200063
:103b50009140780080cfb30000c060000024a00036
:103b600099e0b700c12020009140780090cfb300c9
:103b700000c060000ce2b7000c02a9000ca2a90072
:103b80000cc2a9000ce2a9000d42a9000da2a900d7
:103b90000de2a8000f42a8000fe2a8008540a9008e
:103ba0008520a9008d20a8008d40a8000080fa0083
:103bb000000006000000fa0030032000f01088002a
:103bc0000000eb00c0108800010a2000914078003e
:103bd00080cfb30000c060000024a000a0e0b700c8
:103be000010a200091407800f0c8b30000c06000d6
:103bf00001c4b30001407000a0e0b70061212000c3
:103c00009140780090cfb30000c0600016e2b7008a
:103c10001602a90016a2a90016c2a90016e2a90060
:103c20001742a90017a2a90017e2a8001942a8008c
:103c300019e2a8008720a9008700a9008f00a8002a
:103c40008f20a8000080fa00000006000200fa00a1
:103c5000c005200022f70700000f78001e00780042
:103c6000904488006000b800f06f88000170880000
:103c7000a00520001af70700000f78001e0078004a
:103c800001002000f06f880001708800f06f800054
:103c900001708000c001dd00020020000000200053
:103ca000f1ff2f000000610081806100f06f88004b
:103cb000017088008005200009f70700000f7800d8
:103cc0001e0078006101b800f06f80000170800074
:103cd0000200700083807000f06f8800017088001f
:103ce00093448000030f78009208e2000d003a0030
:103cf000f26f8000037080002078860031788600a3
:103d0000800f5100818f59003f0039000000eb0007
:103d1000904488006000b800f06f8800017088004f
:103d20003900370000142d001080fb009208e300da
:103d3000060036000000eb00904488006000b800e8
:103d4000f06f8800017088002f00370000142d00ec
:103d50001080fb009208e30012003a0000142d00ce
:103d6000104078008080fb00400020000008b80070
:103d7000c3ef2c0003014000f06f80000170800051
:103d8000b20f5000a28f58001f003e000000eb0051
:103d9000904488006000b800f06f880001708800cf
:103da000190037009e007800400020000008b8008d
:103db00043f02c0003014000f06f80000170800090
:103dc000b20f5000a28f58000a0031009e00780008
:103dd000400020000008b800c3ef2c0003014000a1
:103de000f06f800001708000b20f5000a28f580069
:103df000050031000000eb00904488006000b8002e
:103e0000f06f88000170880041f907000080fa0017
:103e1000000006000200fa000000eb005058880085
:103e20000000eb00605888000000eb00705888002c
:103e30000000eb00805888000000eb0090588800dc
:103e40000000eb00a05888000080eb0000168800fe
:103e50000080eb00301688000000eb006016880040
:103e60000080eb00901688000000eb00c016880070
:103e700050052000f0168800100020002017880050
:103e80000080eb0040158800e302a800a48ba80086
:103e9000dcc2a800dce2a800e8e2a800e902a80071
:103ea000e922a800d1a2a800d1c2a800d022a9006e
:103eb000d062a900e8c2a900dd22a900dd02a900a4
:103ec000dd02a900f00f2000905d8800f00f2000b7
:103ed000a05d8800f00f2000b05d8800f00f20008a
:103ee000c05d8800f00f2000d05d8800f00f20003a
:103ef000e05d88000000eb00f05d88000008200015
:103f0000005e88000000eb00105e8800a05d80006d
:103f100000468800925d800012468800b35d8000f4
:103f200023468800c05d800030468800e25d800046
:103f300042468800d35d800053468800f05d8000d3
:103f4000d0458800025e8000e2458800135e800054
:103f5000f3458800c9290700dd02a900dd02a90098
:103f6000353a0700343a0700333a07000000eb0007
:103f700010598800c0022000220be3000b003e0015
:103f800011598000400020000008b800e3d720004d
:103f9000030140006000b8000089be001059800095
:103fa0000000e80010598800f2ff37009aeba900e2
:103fb0009c2ba90094aba900980ba900ae3a07006e
:103fc0000000eb001059880040022000220be300a3
:103fd0000a003e00f04480000000d000028720006c
:103fe000820040000000eb0080087800105980003b
:103ff0000000e80010598800f3ff37000000eb00d4
:1040000010598800b0042000220be30010003e008d
:10401000f04480000000d000239b2000830040007b
:104020000000eb0080087800f04480000000d00021
:10403000a2912000820040000000eb008008780080
:10404000105980000000e80010598800edff37008b
:1040500040002000f04488000000eb00d05a8800a7
:104060000000eb00b04488000000eb00c044880072
:104070000000eb00d04488000000eb009044880072
:104080000000eb00404488000000eb005044880032
:104090000000eb00604488000000eb00505d8800e9
:1040a0000000eb00904388000000eb00605d88009a
:1040b0000000eb00a04388000000eb00705d88006a
:1040c0000000eb00b04388000000eb00805d88003a
:1040d0000000eb00c04388000000eb00205e880079
:1040e0000000eb00604688000000eb000040880004
:1040f0000000eb00104088000000eb00204088002a
:104100000000eb00304088000000eb0040408800d9
:104110000000eb00504088000000eb006040880089
:104120000000eb00704088000000eb008040880039
:104130000000eb00904088000000eb00a0408800e9
:104140000000eb00b04088000000eb00c040880099
:104150000000eb00d04088000000eb00e040880049
:104160000000eb00f04088000000eb0000418800f8
:104170000000eb00104188000000eb0020418800a7
:104180000000eb00304188000000eb004041880057
:104190000000eb00504188000000eb006041880007
:1041a0000000eb00704188000000eb00105988000f
:1041b0000000eb00f05888000000eb002059880058
:1041c0000000eb00d05888000000eb000059880088
:1041d0000000eb00c06488009a4ba90094aba900d2
:1041e000968ba9000000eb00600488000000eb0043
:1041f000700488000000eb008004880081e0a800c3
:10420000a3f3070037fe070025fe070043fe070063
:1042100068fe0700300607008b07070081e0a80052
:104220000060fe009f1c07000060fe000000eb0025
:10423000a06488000000eb00205a8800d001200014
:10424000440be30028003e00320420008000eb0015
:10425000d00320007a220700940ce2000200320012
:104260000060fe00fcff37000000eb0040598800b2
:10427000700c2000280be30004003e004059800031
:104280000000e80040598800f9ff37000000eb000b
:1042900040598800700c2000280be30004003e0009
:1042a000405980000000e80040598800f9ff3700bd
:1042b0000000eb0040598800700c2000280be30040
:1042c00004003e00405980000000e800405988008a
:1042d000f9ff37000060fe00205a80000000e8006f
:1042e000205a8800d5ff37000000eb00a06488004a
:1042f000ff2107000000eb00404588000000eb00b4
:10430000205a88000000eb00505b88000000eb00a2
:10431000905b88000000eb00a05b8800f00f20009d
:1043200070468800f00f200080468800f00f2000c3
:1043300090468800f00f2000a04688000000eb00a7
:104340009047880080142d001080fb00a047880053
:104350000000eb009ff30700900020006a0be300d1
:1043600002003e000060fe00fbff37000000eb0093
:10437000507588000000eb00d0758800be3907003a
:104380000000eb00606b8800db3b0700182607008d
:10439000c3260700b0fd2f00aa0ee30001003e0077
:1043a00092020700b0fd2f00ba0ee30001003e00ac
:1043b000f00707000060fe00f0ff37003600f8004d
:1043c000809fbe00829fbe00849fbe00869fbe006d
:1043d0000200fa0084c0bf000080fb004300de0042
:1043e0000080fb00610060000000e0007b01320003
:1043f0008460a9000000eb00000888001003200082
:10440000640be30003003e00205b80000000e80036
:10441000205b8800c05980000000e800c059880077
:10442000d05980000000e800d0598800e059800091
:104430000000e800e0598800f05980000000e80022
:10444000f0598800005a80000000e800005a8800f7
:10445000105a80000000e800105a8800e0748000c4
:104460000000e800e0748800607580000000e8004b
:1044700060758800b4cbbf000080fb004500de0003
:104480000080fb00610060000000e00003003200db
:104490000000eb00e05a880006003700900f200073
:1044a0005c0be30003003e00e05a80000000e800df
:1044b000e05a8800406b80000000e800406b8800f4
:1044c000c06480000000e800c0648800a0002000f4
:1044d000980ce30005003600205980000000e80039
:1044e000205988000000eb00c064880096cbbf0014
:1044f0000080fb000000d1000080fb006100600034
:104500000000e00007003200f0342c00880be300cc
:1045100006003e00405c80000000e800405c88002f
:10452000020037000000eb00405c8800900f200084
:10453000580be30003003e00c05a80000000e80072
:10454000c05a8800005b80000000e800005b880023
:1045500040062000600be300200136000000eb0065
:10456000005b88008000eb00010f7800dcc2bf0018
:104570000080fb004500de000080fb006100600061
:104580000000e00002003a0010002000000f780058
:104590009e40780061c060004501dd00c12d200013
:1045a00091407800f0cdb30000c060000240700080
:1045b000dce2b700f26f80000370800010708000b2
:1045c00021708000800f5100818f59000900360052
:1045d000f06f8000017080001270800023708000f6
:1045e00002005000838058003071880041718800bb
:1045f000080037001070800021708000f26f80008a
:1046000003708000020050008380580030718800e1
:1046100041718800f06f8000017080001070880088
:1046200021708800607c8600717c86001071880093
:10463000217188003171800010718000000ab8007b
:1046400031718000207180000088b9000501780078
:104650000001410011718000407180000088b900a4
:104660000001410082027800547088006570880063
:10467000507080006170800002242400f30020004c
:104680001fef07005070880061708800900f2000b5
:10469000ca0be30003003e00505e80000000e8000b
:1046a000505e8800900f2000c80be30003003e001e
:1046b000405e80000000e800405e880094cbbf00b0
:1046c0000080fb004400de000080fb006100600011
:1046d0000000e00003003a000000eb00505c88009e
:1046e00006003700900f20008a0be30003003e0015
:1046f000505c80000000e800505c8800900f2000b3
:104700008e0be30003003e00705c80000000e800b8
:10471000705c8800805a80000000e800805a8800a1
:10472000905b80000000e800905b8800a05b800048
:104730000000e800a05b8800705b80000000e800db
:10474000705b8800d05a80000000e800d05a8800d2
:10475000605c80000000e800605c8800205c8000f5
:104760000000e800205c8800305b80000000e8006a
:10477000305b8800a05a80000000e800a05a880042
:10478000b05a80000000e800b05a8800905a8000bb
:104790000000e800905a8800d05b80000000e8002c
:1047a000d05b880030062000700be30003003e0061
:1047b000805b80000000e800805b8800bacbbf000f
:1047c0000080fb004700de000080fb000000e000ee
:1047d00004003200705a80000000e800705a88001f
:1047e000020037000000eb00705a8800b4cbbf0015
:1047f0000080fb004700de000080fb000000e000be
:1048000007003a00b4cbbf000080fb004600de008a
:104810000080fb00610060000000e0000300320047
:104820000000eb00f05a880006003700900f2000cf
:104830005e0be30003003e00f05a80000000e80039
:10484000f05a8800d00620006a0be30003003e0007
:10485000505b80000000e800505b8800105b800027
:104860000000e800105b880090002000620be3006d
:104870002c0036000000eb00105b880094cbbf00da
:104880000080fb004400de000080fb00610060004f
:104890000000e00021003a0094cbbf000080fb0044
:1048a000610060000000e0001c0032009acbbf00f5
:1048b0000080fb004400de000080fb00610060001f
:1048c0000000e00015003a009acbbf000080fb001a
:1048d0004500de000080fb00610060000000e00099
:1048e0000e003a00c4cbbf000080fb004300de0096
:1048f0000080fb00610060000000e0000700320063
:10490000f0a52e00900be30006003e00805c8000c6
:104910000000e800805c8800020037000000eb0027
:10492000805c8800305c80000000e800305c88001b
:1049300070252000860be300050036000000eb0028
:10494000305c8800605b80000000e800605b8800ed
:10495000a2cbbf000080fb004600de000080fb0011
:10496000610060000000e00007003200300120001c
:10497000680be30006003e00405b80000000e8009a
:10498000405b8800020037000000eb00405b8800bd
:10499000a6cbbf000080fb004300de000080fb00d0
:1049a000610060000000e0000a00320040002000ca
:1049b000d608e30007003a00b0032000760be300be
:1049c00006003e00b05b80000000e800b05b88009d
:1049d000020037000000eb00b05b88000080fa00a6
:1049e0004f03be004f02be004f01be004f00be008d
:1049f0003600f900004006003600f800809fbe0037
:104a0000829fbe00849fbe00869fbe000000fa0009
:104a10008020a90019270700dd02a900dd02a900f6
:104a2000853707000080fa004f03be004f02be002a
:104a30004f01be004f00be003600f90000400600e6
:104a40003600f800809fbe00829fbe00849fbe009b
:104a5000869fbe000000fa008060a90007270700bb
:104a6000dd02a900dd02a900733707000080fa000b
:104a70004f03be004f02be004f01be004f00be00fc
:104a80003600f900004006003600f800809fbe00a6
:104a9000829fbe00849fbe00869fbe000000fa0079
:104aa000f6260700dd02a900dd02a9006237070033
:104ab0008040a9000080fa004f03be004f02be00f4
:104ac0004f01be004f00be003600f9000040060056
:104ad0003600f800809fbe00829fbe00849fbe000b
:104ae000869fbe000000fa008080a900e326070030
:104af000dd02a900dd02a9004f3707000080fa009f
:104b00004f03be004f02be004f01be004f00be006b
:104b10003600f900004006003600f800809fbe0015
:104b2000829fbe00849fbe00869fbe000200fa00e6
:104b3000d2260700dd02a900dd02a9003e370700ea
:104b4000ce260700dd02a900dd02a9003a370700e2
:104b50008940a9000080fa004f03be004f02be004a
:104b60004f01be004f00be003600f90000400600b5
:104b70003600f800809fbe00829fbe00849fbe006a
:104b8000869fbe000200fa00bc260700dd02a900d5
:104b9000dd02a90028370700b8260700dd02a900ba
:104ba000dd02a90024370700b4260700dd02a900b2
:104bb000dd02a900203707000080fa004f03be0085
:104bc0004f02be004f01be004f00be003600f9008c
:104bd000004006000c00fa00004f78001107980012
:104be000220798000000eb0030079800be009000fc
:104bf0002e009000808f5000370031001e00fb0017
:104c000040079800ce009000e18f50001400320061
:104c10004e009000e10f500004003c00ce009000d8
:104c20000100e000050032001f0037004e00900038
:104c3000e20f5000130032001b0037003e009000ce
:104c400061362000010140003e0090008000d0004d
:104c50001e00900000804000104978001a003700c4
:104c60003e00900061352000010140003e009000b0
:104c70008000d0001e0090000080400010497800a5
:104c8000110037003e009000613420000101400017
:104c90003e0090008000d0001e0090000080400088
:104ca00010497800080037003e009000613620006f
:104cb000010140003e0090008000d0001e009000e6
:104cc00000804000104978003e0090000000e8009d
:104cd00030079800c5ff37001e00fb005007980002
:104ce000de009000e18f5000180032005e0090005e
:104cf000e10f500004003c00de0090000100e000e5
:104d0000050032002b0037005e009000e20f5000db
:104d10001b003200270037004e4090006f406000bb
:104d20004301dd00413620009140780070c8b30097
:104d300000c060000240700064e3b7007000200013
:104d4000701b88006e63a800260037004e4090005c
:104d50006f4060004301dd00413520009140780044
:104d600070c8b30000c060000240700054e3b70098
:104d700070002000f01a88005e63a8001900370058
:104d80004e4090006f4060004301dd004134200040
:104d90009140780070c8b30000c06000024070000d
:104da00044e3b70070002000701a88004e63a8002a
:104db0000c0037004e4090006f4060004301dd0062
:104dc000413620009140780070c8b30000c06000f8
:104dd0000240700064e3b70070002000701b880080
:104de0006e63a8000080fa00000006000a00fa00c6
:104df0000000eb00000f7800d01c80001007980026
:104e0000d11c8000f00f2000008060002007980077
:104e10009e009000f00f2800808f500002003600a6
:104e20002d03070005003700ae00900000082000a9
:104e3000808f500001003600270307001004200077
:104e400030079800606b8000400798004e0090008b
:104e50004700dd0040079800ce0090003e00900023
:104e60000080700040079800806b80000000d00038
:104e700010079800706b80004200de006100600047
:104e8000200798009e0090002e0090000080700087
:104e900010079800706b80004e00dd00200798001e
:104ea000ae009000000022000080700020079800f3
:104eb0006ec3bf000080fb004300de000080fb00eb
:104ec000610060000000e0007f003a006004200004
:104ed0009c0ee30016003600400020009e0ee3000a
:104ee00013003a00ce0090001e0078000d07070066
:104ef0002e009000680140009e0090001e00780087
:104f000056070700f0748000850607008200200025
:104f1000c1eb20001e4078002eff07000000eb00d0
:104f2000e07488000000eb00f07488006600370031
:104f3000100420009c0ee300140036003000200016
:104f40009e0ee30011003a00ce0090001e00780093
:104f5000f40607002e009000630140009e009000c0
:104f60001e0078003d070700f07480006c06070003
:104f700082002000c1eb20001e40780015ff0700d2
:104f800040002000f07488004f003700c00320006c
:104f90009c0ee30014003600200020009e0ee3006b
:104fa00011003a00ce0090001e007800dd060700d8
:104fb0002e0090000081e8009e0090001e00780006
:104fc00026070700f07480005506070082002000c5
:104fd000c1eb20001e407800fefe070030002000dc
:104fe000f074880038003700700320009c0ee30046
:104ff00014003600100020009e0ee30011003a005d
:10500000ce0090001e007800c60607002e0090001b
:105010000001e8009e0090001e0078000f070700c6
:10502000f07480003e06070082002000c1eb2000e3
:105030001e407800e7fe070020002000f074880082
:1050400021003700200320009c0ee30014003600ee
:105050009e0ee20012003a00ce0090001e00780082
:10506000b00607002e0190009e0090001e00780000
:10507000fa060700f074800029060700820020006d
:10508000c1eb20001e407800d2fe07001000200077
:10509000f074880020032000e07488000a003700c4
:1050a000600420009c0ee300070036004000200052
:1050b0009e0ee300040036000000eb00e074880060
:1050c0000000eb00f07488000080fa000000060089
:1050d0000600fa000000eb0020079800311c800059
:1050e000f00f20000080600010079800301c800046
:1050f000c800de00f00f2000008f60001e0090004e
:105100000000e00017003200000e20001e006000ca
:105110000000e000110032001e0078007f0f6000e8
:10512000a04780001e0f100000142d001080fb000f
:105130009e0f10000300360010002000200798008a
:10514000080037001e007800f408e3000500360070
:1051500010002000200798000200370010002000f7
:10516000200798002e0090000080fa000000060042
:105170000800fa00411c8000f00f20000080600051
:10518000c0468800401c8000c800de00f00f2000f0
:1051900000806000d0468800511c8000f00f200085
:1051a00000806000e0468800501c8000c800de00df
:1051b000f00f200000806000f0468800611c800035
:1051c000f00f20000080600000478800311c800044
:1051d000f00f20000080600020079800301c800045
:1051e000c800de00f00f2000008f6000ae009000cd
:1051f000d00f2000808f50000b003a000000eb0021
:10520000704488000000eb00404488000000eb0080
:10521000504488000000eb00604488000000eb0070
:1052200030079800aa0037002e0090000000e00030
:1052300012003200000e20001e0060000000e0009e
:105240000b0032009e0078007f80600010079800fd
:1052500000142d009080fb001e009000810f500074
:105260000600360010002000300798009800370034
:105270001100200031079800950037002e009000a3
:105280000000e00003003a001e007800704488002f
:105290008d0037002e009000e10f50003d003a00d5
:1052a0004044800001022000010060000000e00096
:1052b0000a0032009e0078007f8060004144800038
:1052c000ff806000810f500004003a0040448000dd
:1052d000f1fd2f0001006000404488005044800030
:1052e00001022000010060000000e0000a0032001e
:1052f0009e0078007f80600051448000ff80600045
:10530000810f500004003a0050448000f1fd2f004e
:1053100001006000504488006044800001022000c9
:10532000010060000000e0000a0032009e007800ea
:105330007f80600061448000ff806000810f50002a
:1053400004003a0060448000f1fd2f00010060007d
:105350006044880090478000010220000100600046
:105360000000e000580032009e0078007f8060005e
:1053700091478000ff806000810f500052003a008a
:1053800090478000f1fd2f000100600090478800e9
:105390004d0037002e009000e20f500010003a0040
:1053a0009e0078007f806000100798009047800082
:1053b000ff0060001e009000810f500005003a00c1
:1053c0009047800001022000010070009047880093
:1053d0003d0037001e007800904788003a003700f3
:1053e0002e009000e30f500037003a00000e20001e
:1053f0001e0060000000e000330032009e007800d4
:105400007f806000100798001e0090009208e30063
:1054100008003a0041448000000c20000080600039
:1054200040448800404480001e00700040448800d2
:10543000250037001e0090009208e30010003100a4
:1054400050448000ff0060001e009000808f5000dc
:1054500008003a0051448000000c200000806000e9
:1054600050448800504480001e0070005044880062
:10547000150037001e0078005044880012003700e5
:105480001e0090009208e3000f0036006044800088
:10549000ff0060001e009000808f500008003a005e
:1054a00061448000000c200000806000604488009f
:1054b000604480001e0070006044880002003700d5
:1054c0009e007800614488000000eb0030079800df
:1054d0003e0090000080fa00000006000800fa007c
:1054e000fbfe07000000e000030032001000200077
:1054f000300798005d003700311c8000f00f20005d
:105500000080600020079800301c8000c800de008a
:10551000f00f2000008f60002e0090000000e000df
:1055200002003200a04780001e0f10002e009000e5
:10553000e20f50000f003a009e0078007f8060006c
:105540001007980090478000ff0060001e00900048
:10555000810f500004003a00904780001e00700048
:10556000904788003f0037001e0078009047880071
:105570003c0037002e009000e30f500039003a0045
:10558000000e20001e0060000000e0003500320028
:105590009e0078007f806000100798001e00900039
:1055a0009208e3000a003a00414480000002200013
:1055b0000080600040448800404480001e0070006d
:1055c0004044880010002000704488002500370007
:1055d0001e0090009208e30010003100504480004b
:1055e000ff0060001e009000808f500008003a000d
:1055f0005144800000022000008060005044880078
:10560000504480001e007000504488001500370090
:105610001e00780050448800120037001e009000e1
:105620009208e3000f00360060448000ff00600035
:105630001e009000808f500008003a0061448000f6
:105640000002200000806000604488006044800008
:105650001e00700060448800020037009e00780041
:10566000614488000000eb00300798003e00900085
:105670000080fa00000006000a00fa0094fe07000d
:105680000000e000030032001000200040079800f6
:105690004a003700311c8000f00f2000008f6000ae
:1056a000301c8000c800de00f00f20000080600089
:1056b000100798001e00e000040032001e00900059
:1056c000a147800001005000100798003000200022
:1056d0009e0f100003003200200020009e0f1000db
:1056e00034003a001e009000010e2000010060000e
:1056f0000000e0002f0032001e0090007f006000dc
:10570000200798009e009000000e2000008060009e
:105710003007980050448000ff0060002e00900089
:10572000810f500005003a003e0090008080ea00a2
:1057300050448000010060005044880060448000b4
:10574000ff0060002e009000810f500005003a001d
:105750003e0090008080ea0060448000010060000c
:105760006044880040448000ff0060002e009000ec
:10577000810f500005003a003e0090008080ea0052
:105780004044800001006000404488009047800051
:10579000ff0060002e009000810f500005003a00cd
:1057a0003e0090008080ea00904780000100600089
:1057b000904788000000eb00400798004e009000e2
:1057c0000080fa00000006000400fa00001c8000bf
:1057d0004900de006f00600010758800101c80001a
:1057e0004800de006700600020758800111c800002
:1057f00000082000008060000000e000030032008c
:1058000010002000407588000d00370020002000a7
:1058100040758800201c80004a00de00670f600091
:10582000101c8000c600dd00000c2000008060001d
:10583000100798001e0090001e0070003075880050
:105840000080fa00000006003600f800809fbe00cd
:10585000829fbe00849fbe00869fbe000000fa00ab
:1058600096c3bf000080fb00610060000000e00004
:1058700082003200d4ff07000000eb00f0748800c3
:1058800010002000a80ee3005c003a003000200069
:10589000a40ee30014003a006e0de20003003a008b
:1058a00090012000e074880069003700100020009b
:1058b0006e0de30003003a0040012000e074880010
:1058c00063003700200020006e0de30003003a0063
:1058d000f0002000e07488005d0037000000eb005d
:1058e000e07488005a00370020002000a40ee30076
:1058f00014003a00300020006e0de30003003a006f
:1059000090012000e0748800510037006e0de20025
:1059100003003a0040012000e07488004c0037008a
:10592000100020006e0de30003003a00f00020009c
:10593000e0748800460037000000eb00e074880047
:105940004300370010002000a40ee30014003a00ca
:10595000200020006e0de30003003a0090012000bb
:10596000e07488003a003700300020006e0de3003c
:1059700003003a0040012000e07488003400370042
:105980006e0de20003003a00f0002000e074880091
:105990002f0037000000eb00e07488002c00370077
:1059a000a40ee2002a003a00100020006e0de30071
:1059b00003003a0090012000e074880024003700c2
:1059c000200020006e0de30003003a00400120009b
:1059d000e07488001e003700300020006e0de300e8
:1059e00003003a00f0002000e0748800180037003f
:1059f0000000eb00e0748800150037002000200054
:105a0000a80ee30012003a00207580006e0de3003e
:105a100009003a0030758000010820000100600094
:105a20000000e00002003200d1fd0700080037004e
:105a3000aafe07000600370030758000010820002c
:105a4000010060000000e00001003a000aff0700ca
:105a50009603a9008ee3a9000000eb0050758800b2
:105a6000700c2000100be30013003e0080588000f3
:105a70000000e800805888000f0037000000eb00ad
:105a8000805888009183a8009623a9007ee3a9008e
:105a900096c3a9000000eb00b01c880096a3a900e3
:105aa00090ff2f00aa0ee30003003e005075800017
:105ab0000000e800507588008760a9000080fa00a7
:105ac0004f03be004f02be004f01be004f00be009c
:105ad0003600f900004006000200fa0011392000eb
:105ae0009140780080cfb30000c060000024a00087
:105af00091e3b70091e3a90091a3a8009183a800c6
:105b00009163a80094c3a80095c3a90094e3a800da
:105b1000213920009140780000ccb30000c0600023
:105b20003041b30092e3b70092c3bf00f043b2002c
:105b300092e3b700413920009140780070ccb30067
:105b400000c060000034a00094e3b7004139200099
:105b50009140780080cfb30000c060000014a00026
:105b600094e3b700513920009140780080cfb30012
:105b700000c060000004a00095e3b70030002000e2
:105b8000701b880030002000f01a88006003a80015
:105b90006023a90064e3a9006503a9006523a900a7
:105ba0005003a8005023a90054e3a9005503a900fd
:105bb0005523a9004003a8004023a80044e3a900fe
:105bc0004503a9004523a9000000eb0080198800c7
:105bd0000000eb00901988000000eb00a01988007d
:105be0003003a9000000eb00c01988000000eb00a2
:105bf000d01988000000eb00e01988003803a900e4
:105c00000000eb00001888000000eb00101888006e
:105c10000000eb00201888000003a9000000eb0042
:105c2000401888000000eb00501888000000eb00ce
:105c3000601888000803a9000000eb0080188800a5
:105c40000000eb00901888000000eb00a01888000e
:105c50001003a9000000eb00c01888000000eb0052
:105c6000d01888000000eb00e01888001803a90095
:105c70000000eb00001988000000eb0010198800fc
:105c80000000eb00201988002003a9000000eb00b1
:105c9000401988000000eb00501988000000eb005c
:105ca000601988002803a9008ee3a9008e43a9008b
:105cb0008e23a9008e03a9007ee3a9000000eb005b
:105cc000c01c880098a3a8009803a8009823a800e7
