:040000000CEF00F011
:10000800E9CF3AF0EACF3BF0E1CF3CF040EF11F016
:1000180002EE23F05A0EF66E0E0EF76E10EE05F095
:100028002DEC00F000EE00F02C0EEE6AE806FDE183
:1000380000EE60F011EEC3F026EC00F0000EF86E52
:1000480030EF07F0EE6AE550E150FCE1E250FAE1EA
:1000580012000900F5CFEEFFE550E150FAE1E25059
:04006800F8E11200A9
:100E000000423542344233423242313031303230A6
:100E100033303430353036303730383039313031A6
:100E20003131323133313431353136313731383196
:100E30003932303231323232333234323532363284
:100E4000373238323933303331333200000000006A
:100E500000410000595345000000B001010B400063
:100E6000F29E5FEC0EF035EC10F0A4EC12F0B3EC57
:100E700012F0F28E8FEC0DF0009283BC83AE03D0A3
:100E80000101F76B10D083AC83AE02D0010E09D004
:100E900083BC83BE02D0020E04D083AC83BE03D0D9
:100EA000030E0101F76FF29E7DEC10F0F28E01014E
:100EB000FA6B01D00400090E0101FA65FBD7FA6B49
:100EC000080E306E010EDAEC12F0306A020EDAEC27
:100ED00012F0020E306E050EDAEC12F03068070EDA
:100EE000DAEC12F0306A010EDAEC12F08D80FEECD2
:100EF00012F08B8082A4FDD70088009C009A01012B
:100F0000F46B0201126B0101F66BF86B0094F5694A
:100F10000201136B0101FC6B83BA02D0008601D081
:100F2000009683A8C5EC11F08B90D96AD950010FB7
:100F30002C6E2CC0F6FF0E0EF76EB00ED924E96EA3
:100F4000EA6A010EEA220800F5CFEFFF02011F6BEB
:100F50000101FF6BD92A3F0ED964E8D7F7512A0D5A
:100F6000F3CFE1FF600EE124E96EEA6A000EEA22A7
:100F7000EF6A040082B2E6EC12F082EC12F0000993
:100F800002E0008001D000900101F75131EC0CF03B
:100F90000101F569F751FFEC08F00101F751AFECE1
:100FA0000BF0F751FBEC0DF00101F5291BE08D90E2
:100FB000F5C1F6F100A40CD0FEEC12F0070EF565B9
:100FC00005D0340EF56102D00A0E0BD0140E09D0F4
:100FD000070EF56505D0340EF56102D01E0E01D066
:100FE000280EF86FF8510A0A04E100B436D01E0E3C
:100FF00008D0F851140A09E100B42FD0F6AF03D09D
:10100000320EF86F2AD0280EFCD7F8511E0A06E1DE
:10101000F56BF551F0EC12F01F0EF3D7F8511F0AE3
:1010200004E100A41AD0140EECD7F851280A07E105
:10103000F6C1F5F1F551F0EC12F0290EE2D7F851B6
:10104000290A03E100A409D0DBD7F851320AD8B449
:1010500000B403D0330EF86F8D8000B006D0F85185
:10106000330AD8B4F669009484D7008482D777AE67
:1010700002D0779E120077AC02D0779C120077AA3C
:1010800013D0779A71BE719E71BC719C71BA719ABE
:1010900071B8719871B6719671B4719471B27192A0
:1010A00071B07190716A120077A202D0779212002B
:1010B00077A0120020EC0DF0F1AB7CD0F0A734D07B
:1010C000040E446E456AD89044364536D89044366E
:1010D0004536D89044364536F9512A0D4450F3240C
:1010E000426E4550F420436E660E406E0F0E416E08
:1010F000466A476A71EC0FF046BEE8685BEC0FF099
:10110000464A472A56EC0FF0F5E3000E0101F92597
:10111000E96EEA6A020EEA22EF6AF95114EC0BF06A
:10112000F95121EC12F068D0F051070B446E456A7A
:10113000D89044364536D89044364536D890443613
:101140004536F9512A0D4450F324426E4550F4209F
:10115000436E660E406E0F0E416E466A476A71EC32
:101160000FF046BEE8685BEC0FF0464A472A56ECA3
:101170000FF0F5E3455044103FE10101F95121EC36
:1011800012F0000939E1600E4224E96E000E43209E
:10119000EA6EEF6A610E4224E96E000E4320EA6EA9
:1011A000EF6A620E4224E96E000E4320EA6E000EE2
:1011B000EF6A22D0F95121EC12F000091DE0660E11
:1011C000406E0F0E416E466A476A71EC0FF046BEE4
:1011D000E8684120496E48C0E9FF49C0EAFF46502F
:1011E000010FE16EE26AEFCFE7FF464A472A56EC6D
:1011F0000FF0EBE3C2EC0EF07790609E1200E8CFA8
:10120000E1FFE1502A0DF3CF2DF0F4CF2EF0600E68
:101210002D24E96E000E2E20EA6EEF50FE6F0201C3
:101220001E510101FE1903E0FA6BFEC11EF2B8EC7B
:1012300009F0010ED96E660E2D24E96E000E2E20E7
:10124000EA6EEF50E16EE150420A06E0E150500ACA
:1012500003E0E150470A02E10F0E13D0E150300ADB
:1012600002E10E0E0ED0E150310A02E1180E09D053
:10127000E150320A02E1220E04D0E150330A03E1C8
:101280002C0EF46F0AD0600E2D24E96E000E2E2075
:10129000EA6EEF508009F46FD96AD95040E0670ECA
:1012A0002D24E96E000E2E20EA6EEF50D96ED95033
:1012B000300A04E1180EF46132D02FD0D950460A1A
:1012C0000EE1660E2D24E96E000E2E20EA6E470E0A
:1012D000EF6202D02F0E22D0040EF42720D0D95076
:1012E000470AF8E0D9504D0A02E1300E17D0D95024
:1012F000480A02E1320E12D0300ED9640ED03A0EF6
:10130000D9600BD0F4510F0A04E1D950F45D300FCD
:1013100005D0F451D924D00F01D0FE0EF46F610E28
:101320004EEC0FF02FAA1AD0620E4EEC0FF02FA643
:1013300010D0F45102011219D8A400BA06D0F4C199
:10134000F5F1F4C112F2008A120000B6DEEC0FF0E3
:101350001200009A00B6DEEC0FF01200F451020108
:101360001219D8B41200F4C1F5F1F4C112F212004E
:10137000F7512A0DF3CF37F0F4CF38F0336A610E0E
:101380003724E96E000E3820EA6EEF50326E620E9E
:101390003724E96E000E3820EA6EEF50346E630E8B
:1013A0003724E96E000E3820EA6EEF50306E32AE10
:1013B00034B002D0010E336E34B402D034AA02D05D
:1013C000010E336E330418E1246A1C6A206A146A21
:1013D000186A286A256A1D6A216A156A196A296AC3
:1013E000266A1E6A226A166A1A6A2A6A276A1F6AA7
:1013F000236A176A1B6A2B6A32B002D030A8120027
:10140000600E3724E96E000E3820EA6EEF50396E18
:101410003904356E3538E8461F0B366E3550070BEC
:10142000316E010E356E3128396E02D0D8903536C6
:10143000392EFCD73650240FE96EEA6A3650240F55
:10144000E16EE26AE750396E351C3914EF6E3650A2
:10145000280FE96EEA6A3650280FE16EE26AE7501B
:10146000396E351C3914EF6E3650180FE96EEA6A82
:101470003650180FE16EE26AE750396E351C3914A8
:10148000EF6E3650140FE96EEA6A3650140FE16EB3
:10149000E26AE750396E351C3914EF6E3650200F72
:1014A000E96EEA6A3650200FE16EE26AE750396E63
:1014B000351C3914EF6E36501C0FE96EEA6A36504F
:1014C0001C0FE16EE26AE750396E351C3914EF6E7D
:1014D0001200F7512A0DF3CF59F0F4CF5AF0556AA4
:1014E000610E5924E96E000E5A20EA6EEF50546ED8
:1014F000620E5924E96E000E5A20EA6EEF50566EC5
:10150000630E5924E96E000E5A20EA6EEF50526EB7
:1015100054AE56B002D0010E556E56B402D056AA43
:1015200002D0010E556E550418E1246A1C6A206A27
:10153000146A186A286A256A1D6A216A156A196A76
:10154000296A266A1E6A226A166A1A6A2A6A276A3B
:101550001F6A236A176A1B6A2B6A54B002D052A80A
:101560001200600E5924E96E000E5A20EA6EEF5008
:101570005B6E5B04576E5738E8461F0B586E57502A
:10158000070B536E010E576E53285B6E02D0D89036
:1015900057365B2EFCD75850240FE96EEA6A585034
:1015A000240FE16EE26AE7505B6E571C5B14EF6E2E
:1015B0005850280FE96EEA6A5850280FE16EE26A27
:1015C000E7505B6E571C5B14EF6E5850180FE96EB6
:1015D000EA6A5850180FE16EE26AE7505B6E571CDA
:1015E0005B14EF6E5850140FE96EEA6A5850140FEE
:1015F000E16EE26AE7502CEC0FF0200FE96EEA6A28
:101600005850200FE16EE26AE7502CEC0FF01C0FEF
:10161000E96EEA6A58501C0FE16EE26AE7505B6EB1
:10162000571C5B14EF6E1200E8CF4CF04C502A0DA3
:10163000F3CF4EF0F4CF4FF0660E4E24E96E000E5D
:101640004F20EA6E390EEF62390C670E4E24E96EB8
:10165000000E4F20EA6E310EEF62310C610E4E2407
:10166000E96E000E4F20EA6EEF50506E50BA120035
:10167000700E4E24E96E000E4F20EA6EEF50C00B44
:10168000C00AD8A41200700E4E24E96E000E4F203E
:10169000EA6EEF50030B4D6E526A4DC051F00F0EC3
:1016A00075EC11F0700E32EC0FF0D8904D32D890EE
:1016B0004D32010E3BEC0FF075EC11F0700E4E2424
:1016C000E96E000E4F20EA6EEF50300B4D6E4D3A32
:1016D0000F0E4D16020E3BEC0FF075EC11F0740E70
:1016E0004E24E96E000E4F20EA6EEF50030B4D6E54
:1016F000030E3BEC0FF075EC11F0740E32EC0FF0B2
:10170000D8904D32D8904D32040E3BEC0FF075EC72
:1017100011F0710E4E24E96E000E4F20EA6EEF506C
:10172000516E100E4AEC12F0720E4E24E96E000E4D
:101730004F20EA6EEF50516E0D0E4AEC12F0730E10
:101740004E24E96E000E4F20EA6EEF50516E0C0EE3
:101750004AEC12F04C28516E090E4AEF12F0E8CF15
:10176000D9FFD9502A0DF3CF2DF0F4CF2EF0640E0F
:1017700040EC0FF02FB81200610E40EC0FF02FBAC2
:1017800023D0620E40EC0FF02FA21CD000BC5ED024
:10179000FC050AE0610E40EC0FF02FAE05D0010E03
:1017A000FC6FFCC1F5F1008CFC51020A4FE0620EA7
:1017B00040EC0FF02FA04AD0020EFC6FFCC1F5F1F7
:1017C000008C44D0FC6B41D0320EFB6518D0610E0A
:1017D00040EC0FF02FB000BC12D000B810D0610E5A
:1017E00040EC0FF02FAE03D0010EF56F008C620EAF
:1017F00040EC0FF02FA003D0020EF56F008C620EAC
:1018000040EC0FF02FB220D0750E2D24E96E000EA3
:101810002E20EA6E390EEF6208D000B800B405D071
:101820005C0EF56F0098FB6B11D0750E2D24E96EE0
:10183000000E2E20EA6E3A0EEF6208D000B806D0F5
:10184000060EF56F008802D0FB6B009C620E40EC28
:101850000FF02FA21200610E40EC0FF02FAA120021
:101860001200E8CFE1FFE1502A0DF3CF2DF0F4CFC5
:101870002EF0600E2D24E96E000E2E20EA6EEF5041
:10188000D96E200ED96401D0200C010ED96001D090
:10189000010CD906D95002011F6303D00101FF6B6F
:1018A0001200030E0101FF65030CD9CF1FF2020ED7
:1018B000D902F350D96EFF6B660E2D24E96E000E2F
:1018C0002E20EA6ED950010F2F6E2FC0F6FF0E0E9C
:1018D000F76E0800F550EF6217D0D9CF2FF02F2AFE
:1018E0002F50010F306E30C0F6FF0E0EF76E08005D
:1018F000F5CF31F0670E2D24E96E000E2E20EA6E32
:10190000EF503118D8B41200660E2D24E96E000E87
:101910002E20EA6EB00ED924E16EE26A010EE222B8
:10192000EFCFE7FF670E2D24E96E000E2E20EA6E42
:10193000D950010F2F6EB00FE16EE26A010EE22264
:10194000EFCFE7FF25C236F0400E346E356A23C272
:1019500032F024C233F007EF11F0E8CFE9FF010EB7
:10196000E16EE950020DF3CFD9FFD950010F346E6B
:1019700034C0F6FF0E0EF76E0800F5CFE9FFE95010
:10198000420A03E0E950500A02E13B0E13D0E9504D
:10199000300A02E13A0E0ED0E950310A02E1440E5B
:1019A00009D0E950320A02E14E0E04D0E950330A60
:1019B00004E1580E0101F46F01D0E16AE1503BE00F
:1019C000D9CF34F0342A3450010F356E35C0F6FFCC
:1019D0000E0EF76E0800F5CFE1FFE150300A06E188
:1019E000440E0101F46127D0FE0E24D0E150460AD6
:1019F00004E1040E0101F4271ED0E150470A1BE068
:101A0000E1504D0A18E0E150480A15E0300EE1645B
:101A10000FD03A0EE1600CD00101F4513B0A04E111
:101A2000E150F45D300F06D0F451E124D00F02D024
:101A3000FE0E0101F46FF4C1F5F1F4C112F21200CF
:101A400061504E6E4D6A62CF4FF0506A6250030B88
:101A5000516E526A536A546A51C055F052C056F0E2
:101A600053C057F054C058F056C058F055C057F006
:101A7000566A556A55C0F0F156C0F1F157C0F2F1FF
:101A800058C0F3F16350516E526A536A546A53C09E
:101A900054F052C053F051C052F0516A51500101FC
:101AA000F0135250F1135350F2135450F313645087
:101AB000516E526A536A546A5150F0135250F113E6
:101AC0005350F2135450F313556AC00EF115566E6D
:101AD000576A586A0F0E02D048EC0FF0E82EFCD778
:101AE00055504C6E4C50030BF96F4C50030BFD6F6F
:101AF000556AC00EF115566E030EF215576E586AF0
:101B00000F0E02D048EC0FF0E82EFCD755504C6E6B
:101B10004C50070BF96F4C50070BFD6F120036EC61
:101B200012F04C0EF66E0E0EF76E0800F5CFF7F1C0
:101B30004C0E2D6E030E2D262DC0F6FF0E0EF76EE9
:101B400008000201F5CF15F2020E156501D0156BE4
:101B50004C0E2D6E040E2D262DC0F6FF0E0EF76EC8
:101B60004C0E2D6E050E2D262DC0F6FF0E0EF76EB7
:101B70000800F5CF1CF24C0E2D6E060E2D262DC042
:101B8000F6FF0E0EF76E0800F5CF2EF04C0E2D6E00
:101B9000060E2D262DC0F6FF0E0EF76E0800F5CFAF
:101BA0002EF04C0E2D6E060E2D262DC0F6FF0E0EBD
:101BB000F76E0800F5CF2EF04C0E2D6E060E2D267A
:101BC0002DC0F6FF0E0EF76E0800F5CF2EF04C0E6E
:101BD0002D6E060E2D262DC0F6FF0E0EF76E080098
:101BE000F5CF2EF04C0E2D6E070E2D262DC0F6FFD4
:101BF0000E0EF76E1200E8CFD9FFD9502A0DF3CFA1
:101C00002DF0F4CF2EF0640E24EC0FF02FA805D0A9
:101C1000F6515B0A02E05B0EF56F630E24EC0FF0E9
:101C20002FA208D0F6515B0AD8B400A403D0FEEC72
:101C300012F00094610E24EC0FF02FB005D0630E6B
:101C400024EC0FF02FA80AD0610E24EC0FF02FA483
:101C500005D0F651040A02E0040EF56F620E24EC82
:101C60000FF02FA805D0F651030A02E0030EF56F1E
:101C7000610E24EC0FF02FA60ED0F651050A0BE0F2
:101C80000A0E0201136101D0132B060E136103D05B
:101C9000050E0101F56F610E24EC0FF02FB602D096
:101CA0000201136B610E24EC0FF02FA8120001014A
:101CB000F651070AD8B41200070EF56F070CF29E12
:101CC000F29CF28AF298F296F294F292F290F18EED
:101CD000F19CF19AF198F184F190F06AD58ED59C3F
:101CE000D59AD598D596D594D592D580D390D392C0
:101CF000A89AA888A886A884A892A880D190D09EE7
:101D0000D098D096D094D092D090CD8ACD88CD82E4
:101D1000CD86CD94CD9CCD9ECD80CA6AC76AC69E25
:101D2000C69CC69AC698C696C684C692C680C56A20
:101D3000C26AC16AC06A0F015D6B5C6BBB6A506BA3
:101D40004D6B4A6B476BBF6ABE6AB56AB16AAC6AD3
:101D5000AB6A7F9E7F9C7F9C7F987F967F947F92CB
:101D60007F90786A776A766AA56AA46AA36AA26A8B
:101D7000A16AA06A9F6A9E6A9D6A469F469D469B8D
:101D8000469912004C6A4D6A4E6A4F6A0101F0C1D1
:101D90004CF04D6A2FD003C01DF204C018F005C0EE
:101DA00019F006C01AF007C01BF020D003C016F2CD
:101DB00004C014F005C015F006C016F007C017F0F7
:101DC00015D003C014F204C020F005C021F006C0F5
:101DD00022F007C023F00AD003C019F204C01CF09F
:101DE00005C01DF006C01EF007C01FF0010E4E6EAC
:101DF0004F6A11D04CC050F04DC051F00AD0505035
:101E0000800AC9E0010AD2E0030ADBE0010AE4E04B
:101E100002D05150F4E04E044F1014E11850141049
:101E200020101C10286E1950151021101D10296E3D
:101E30001A50161022101E102A6E1B501710231055
:101E40001F102B6E69EF0AF02D24E96E000E2E2074
:101E5000EA6EEF502F6E12005B6E571C5B14EF6E34
:101E6000585012004E24E96E000E4F20EA6EEF50DB
:101E70000C0B4D6E1200526E4DC051F00F0E120041
:101E80002D24E96E000E2E20EA6EEF502F6E120008
:101E9000D890583257325632553212002D24E96EFE
:101EA000000E2E20EA6EEF502F6E1200080E465CD8
:101EB000000E475812004120496E48C0E9FF49C052
:101EC000EAFF600E4A6E4B6A42504A2643504B224C
:101ED00046504A24E16E47504B20E26EEFCFE7FFB9
:101EE000120046504024486EE86A12003250240F17
:101EF000E96EEA6AEF5031141200280FE96EEA6ABF
:101F0000EF5031141200E8CFE9FF2DC035F02EC09C
:101F100036F0050ED89035363636E82EFBD7E00E73
:101F200035142D6E36502E6E030E3116326A31C0C6
:101F300033F032C034F033502D1234502E122FC0F3
:101F4000F3FF30C0F4FFE9500AE0010A0BE0030A96
:101F50000CE0010A0DE0070A0EE0010A0FE00E0195
:101F6000E00E0ED00E01E40E0BD00E01E80E08D0EC
:101F70000E01EC0E05D00E01F00E02D00E01F40E93
:101F8000E16E0E0EE26E2E50E76EE128E96E000E55
:101F9000E220EA6E2D500809EF6E020EE124E96E90
:101FA000000EE220EA6EF450EF6E030EE124E96EBB
:101FB000000EE220EA6EF3CFEFFF12000101F629D6
:101FC000D8A41200010E316E326A306A3250240FEA
:101FD000E96EEA6AEF50336E3250280FE96EEA6A12
:101FE000EF50331838E032507DEC0FF012E076EC11
:101FF0000FF00FE13050ADEC0CF03250240FE96ED1
:10200000EA6A3250240FE16EE26AE7503110EF6E57
:10201000120032507DEC0FF016E176EC0FF013E079
:102020003250240FE96EEA6A3250240FE16EE26A00
:10203000E750336E311C3314EF6E5D0E0101F56F06
:102040000201126F5D0CD8903136316609D0322A08
:10205000010E316E05D0322A010E316E070E302688
:10206000302A1F0E3064B2D71F0C96849682968059
:10207000958E958C958A9588958695849582958080
:10208000948E948C948A9488948694849482948078
:10209000938E938C938A9388938693849382938070
:1020A000928E928C928A928692849282928094905E
:1020B0008D848D828D808C8E8C8C8C8A8C888C8685
:1020C0008C848C828C808B8E8B8C8B8A8B888B867D
:1020D0008B848B828B808A8E8A8C8A8A8A888A8675
:1020E0008A848A828A80898E898C898A8986898471
:1020F0008982898096908D801200F7EC12F006ECB0
:1021000012F0708A70980E01459D609E608C609AF6
:1021100060946090609660920F01309F308D309B8C
:1021200030953083309130970E01E187E587E9875C
:10213000ED87F187F5875DEC12F0A2EC11F00F014D
:10214000259D2097109700977892786A769E769CC6
:10215000768A0E017F997F977F957E837E811F0E01
:102160006F16F36AF46A600EF324E96E000EF42031
:10217000EA6EEF6AF34AF42A500EF35C010EF4584B
:10218000D8B01200F0D7E8CFE1FF2DC035F02EC057
:1021900036F0050ED89035363636E82EFBD7E00EF1
:1021A00035142D6E36502E6E030E3116326A31C044
:1021B00033F032C034F033502D1234502E122FC071
:1021C000F3FF30C0F4FF1ED02E500E01F86F2DC06B
:1021D000F9FEF450FA6FF3CFFBFE12002E500E0101
:1021E000FC6F2DC0FDFEF450FE6FF3CFFFFE12001A
:1021F0002E500E01F86F2DC0F9FEF450FA6FF3CF98
:10220000FBFE1200E150E0E0010AE8E0F1D7F7CF71
:10221000F3FFF8CFF4FF36503F0BE16EE150365E2E
:1022200036C0F6FF0A003550341025E0D96A0B009D
:10223000E150D95C11E3355034100EE032C0E9FFB3
:1022400033C0EAFFEF50F56E324A332A3650D924B4
:10225000F66E3406D8A035060C00D92A3F0ED96494
:10226000E6D7940E7F6E70EC12F070EC12F0400E18
:102270003626E16AD8D7F3CFF7FFF4CFF8FF120084
:10228000E2CF3DF0F3CF3EF0F4CF3FF0F2A41CD00C
:10229000F294180ED66EFC0ED76E0201182B202B6E
:1022A000214B222B172B640E17650ED0176BC80E0F
:1022B0000101FB6101D0FB2BC80EFF6101D0FF2B98
:1022C000C80EFA6101D0FA2B7750D8A437EC08F089
:1022D0003FC0F4FF3EC0F3FF3DC0E2FF3CC0E1FF62
:1022E0003BC0EAFF3AC0E9FF1100E8CF53F0010E0E
:1022F000546E5228556E02D0D8905436552EFCD7C5
:102300005350E96EEA6AEF5054140FE05104D8A418
:1023100012005350E96EEA6A5350E16EE26AE750E8
:10232000556E541C5514EF6E1200010E5164010CD1
:102330005350E96EEA6A5350E16EE26AE750541076
:10234000EF6E1200E7EC11F02F6A306A316A326AE0
:1023500000A20DD07F0E2D6E000E2E6AC3EC10F081
:102360002F6A306A316A326A7F0E2D6E0AD0000EF3
:102370002D6A2E6AC3EC10F02F6A306A316A326A15
:102380002D6A2E6A010EC3EF10F0F56B0201186B77
:102390008D90040082B2E6EC12F082EC12F000099B
:1023A00002E0008001D00090040000B00DD0C80E03
:1023B00002011865EED70101F551F0EC12F0F52B92
:1023C000640EF56501D0F56B0201186BE2D70201CE
:1023D0001CC22DF02E6AF36AF46A070ED890F33609
:1023E000F436E82EFBD7F3502D10106FF4502E105A
:1023F000116F2F6A306A316A326A0E0ED8902F360A
:10240000303631363236E82EF9D712000E01448FBD
:10241000448D459545934581449544834491449B1F
:1024200044994487439F439D439B438943974395E6
:1024300043834381438B439943974385438343813C
:102440001200F751FD63000CF1BB010CF0C14CF020
:102450004C50800A09E04C50810A06E04C50820A38
:1024600003E04C50830A01E1010C000CF36A0ED02A
:10247000F350090FE96EEA6AF3504C0F2F6E306A81
:10248000316A326A93EC12F0EF6EF32A0A0EF364AB
:10249000EFD70A0CE8CF52F05150D8B412005106D1
:1024A0005250E96EEA6AEF505118D8B412005250F7
:1024B000E96EEA6A51C0EFFF1200E7EC11F0D96A49
:1024C0002F6A306A316A326A10C22DF011C22EF0C2
:1024D000D95083EC0FF0D92A050ED964F1D7050C39
:1024E0007FB2FED7D890F2BED880F29E7F84550E80
:1024F0007E6EAA0E7E6E7F8200F0B79C7F94D8B06D
:10250000F28EAA0C020ECDEC12F0D96ED9AE06D026
:10251000F00E306E070EDAEC12F0010C306A070E86
:10252000DAEC12F0000CF7CFD9FFF8CFE1FF2FC0A3
:10253000F6FF30C0F7FF31C0F8FF0800D9CFF7FF32
:10254000E1CFF8FFF5501200F28AF294D58ED59CB7
:10255000D59AD598D596D594D582D590180ED66EA5
:10256000FC0ED76EFC0C94969488949A929AC00EA6
:10257000C76E210EC66EC79CC6888B888288210CC8
:10258000E8CFE9FFE9CFC9FFE16A01D0E12A090EEE
:10259000E164FCD7C7B01200FDD7E8CFF3FF899AFA
:1025A000F3504009C0EC12F0000EC0EC12F0898A22
:1025B000C9501200E8CFF3FF899AF350C0EC12F033
:1025C0003050C0EC12F0898AC9501200C69AC66A0F
:1025D00094869488948A928A040082B2FDD7FFD7A9
:1025E000E8CFD9FFD9CF30F0030EDAEF12F093869F
:1025F00093946F501F0B80096F6E1200020E306EA5
:06260000050EDAEF12F0F6
:020000040030CA
:0E00000011130A19FF8991FF0FC00FE00F4086
:00000001FF
