:020000040000FA
:040000000CEF00F011
:10000800D8CFFFF2FACFFEF2E0CF0FF05DEF06F0A7
:1000180001EEB6F012EEE3F078EC01F000EE10F02D
:1000280010EE13F078EC01F000EE99F011EE00F00C
:1000380078EC01F001EEA1F011EEB6F0780EF66E54
:10004800000EF76E000EF86E55EC0DF000EEF8F0AD
:1000580011EE00F0700EF66E000EF76E000EF86EE0
:1000680055EC0DF04BEF05F0A1010003A3020C03C2
:1000780000000000000000000000000B400000002D
:0600880000000000000072
:10008E00F28AF294D58ED59CD59AD598D596D594DC
:10009E00D582D590180ED66EFC0ED76E1200F29E3B
:1000AE00F29CF28AF298F296F294F292F290F18E1B
:1000BE00F19CF19AF198F184F190F06AD58ED59C6D
:1000CE00D59AD598D596D594D592D580D390D392EE
:1000DE00D29AD288D286D284D292D280D190D09E19
:1000EE00D098D096D094D092D0908382CD8ACD885D
:1000FE00CD96CD94CD92CD80CA6AC76AC69EC69C57
:10010E00C69AC698C696C684C692C680C56AC28A64
:10011E00C288C286C284C292C290C186C184C18284
:10012E00C180C198C19AC06ABD9ABD98BD96BD9452
:10013E00BD82BD80BA9EBA9CBA9ABA98BA96BA9443
:10014E00BA92BA80B76AB69EB69CB69AB698B6867A
:10015E00B694B682B690B56AB49EB49CB49AB4986E
:10016E00B496B484B482B480B16AAC6AAB6AA69E0B
:10017E00A69CA69CA698A696A694A692A690A56ABC
:10018E00A46AA36AA26AA16AA06A9F6A9E6A9D6A0D
:10019E00969E969C969A96981200AE000001B151CA
:1001AE003F0BF36EF350B15F000EB25B0001B05126
:1001BE00D8B41200D96AF350D95CD8A01FD0000170
:1001CE00B051D8B41BD0AEC0F6FFAFC0F7FFD950B8
:1001DE0010EEB4F0E126000EE222020EF76403D018
:1001EE000800F55005D0F6CFE9FFF7CFEAFFEF5044
:1001FE00E76E0001AE4BAF2BB0071DD0D9500001FA
:10020E00B125006E000EB221016E00C0F6FF01C0D6
:10021E00F7FFD95000EEB4F0E926000EEA22020EE6
:10022E00F76403D00800F55005D0F6CFE1FFF7CF05
:10023E00E2FFE750EF6ED92A3F0ED964BCD7B1C0AA
:10024E00F6FFB2C0F7FF940EA66E66EC01F0000149
:10025E00B36B0001B35100EEB4F0E926000EEA22B2
:10026E00EF50F56EB351D8A402D00C0001D00F00A0
:10027E000001B351070B070AD8B466EC01F0000178
:10028E00B32B3F0EB365E5D7400EB127000EB22358
:10029E00F36A8CD7066A01AE06D0001E004A01062C
:1002AE00011E068C068E0350800B061A03AEFEEF5F
:1002BE000CF0021E024A0306031EFEEF0CF05CEC6D
:1002CE000DF0A684D890F2BED880F29E550EA76E81
:1002DE00AA0EA76EA68200F0D8B0F28EA6941200D7
:1002EE00EE6AEA50E262FCD7E950E162F9D71200F9
:100300000000000000414A53595345004235423431
:100310004233423242313031303230333034303592
:1003200030363037303830393130313131323133A5
:10033000313431353136313731383139323032318B
:100340003232323332343235323632373238323971
:08035000333033313332000079
:10035800A9001200B1001200000C1200E16EE15079
:100368002A0DF3CF02F0F4CF03F001EEDAF00250D9
:10037800E9260350EA22EF50D96E200ED96401D045
:1003880080D0010ED96001D07CD0D906D9500201A5
:10039800836303D00201846B74D0030E0201846569
:1003A80070D0D9CF83F2D890D936846BD9CF00F0EA
:1003B800016A00500C0FF66E0150F76E030EF7221B
:1003C8000800F550006E01EEE0F00250E9260350F7
:1003D800EA22EF500018D8A41AD0D9CF00F0016A49
:1003E80000500C0FF66E0150F76E030EF722F62A36
:0803F800000EF7220800F55089
:10040000006E01EEE1F00250E9260350EA22EF50BF
:100410000018D8B43AD011EEE0F00250E1260350B3
:10042000E222D95002EEA3F0E926000EEA22E7CF3D
:10043000EFFF11EEE1F00250E1260350E222D95025
:1004400002EEA4F0E926000EEA22E7CFEFFFFCC09F
:10045000AEF0FDC0AFF0ADC1B0F0B10EF66E000E63
:10046000F76E020EF76407D0FEC0F5FF0D00FFC067
:10047000F5FF0C0008D0F6CFE9FFF7CFEAFFFEC08A
:10048000EEFFFFC0EFFFD5EC00F0000CA2C200F0C1
:10049000F00E001600380F0BD96E0A0ED96002D08C
:1004A000300E01D0370ED926D9CF9EF2A2C2E8FF76
:1004B0000F0BD96E0A0ED96002D0300E01D0370E64
:1004C000D926D9CFA0F21200D96AD92A090ED96447
:1004D000FCD7120089828D94F7DF8AC200F00028D1
:1004E000D8A402D0400E01D0B00EE16E8992ECDFAC
:1004F000E96A8D948994E8DFE1AE02D08984E4DF73
:100500008D84E2DFD890E136E92A070EE964F1D75D
:100510008AC2E9FFE16A8D948994D6DFE9AE02D000
:100520008984D2DF8D84D0DFD890E936E12A070EA6
:10053000E164F1D78982C8D78AC2F3FFFF0EE8CF02
:100540008AF2C8DFF3CF8AF2120002018A6B02013D
:100550009D6B8D90040080B00BD0C80E02019D658C
:1005600009D0B8DF02018A2B640E8A6501D08A6B3C
:1005700002019D6B80A002D08D92ECD78D82EAD7CC
:10058000D96ED9502A0DF3CFF6FFF4CFF7FF01EE65
:10059000EBF0F650E926F750EA22EFCFB2F101EE88
:1005A000ECF0F650E926F750EA22EFCFB3F101EE76
:1005B000EDF0F650E926F750EA22EFCFB4F101EE64
:1005C000EEF0F650E926F750EA22EFCFB5F101EE52
:1005D000DAF0F650E926F750EA22EFCF8EF282C227
:1005E000E8FF02018E19D8B404D002018F6B8EC2CD
:1005F00082F201EEDCF0F650E926F750EA22EFCF66
:1006000086F2010EE16E01EEE0F0F650E926F750B9
:10061000EA22EF50D96ED950420AD8A402D0140E63
:1006200017D0D950300AD8A402D0130E11D0D95007
:10063000310AD8A402D01D0E0BD0D950320AD8A44A
:1006400002D0270E05D0D950330AD8A404D0310ED9
:10065000E8CF9FF20BD001EEDAF0F650E926F75022
:10066000EA22EF508009E8CF9FF2E16AE150D8B466
:100670002FD001EEE1F0F650E926F750EA22EF50D4
:10068000D96ED950300AD8A405D01D0E02019F6141
:100690001FD01BD0D950500AD8A402D0190E16D0A2
:1006A000300ED96412D03A0ED9600FD09FC2E8FF45
:1006B000140AD8A405D0D95002019F5D300F06D08E
:1006C000D95002019F25D00F01D0FE0EE8CF9FF236
:1006D00001EEDBF0F650E926F750EA22EF50006E0B
:1006E00000AA19D001EEDCF0F650E926F750EA2214
:1006F000EF50006E00A60DD09FC2E8FF02018919DD
:10070000D8A412BA12D09FC28AF29FC289F2128A6A
:100710000CD0129A0AD09FC2E8FF02018919D8B4FE
:1007200004D09FC28AF29FC289F21200D96ED950BA
:100730002A0DF3CFF6FFF4CFF7FF01EEDBF0F65012
:10074000E926F750EA22EF50006E01EEDCF0F65099
:10075000E926F75000BA36D0EA22EF50006E00A228
:100760002DD012BC7DD09AC200F00004D8B410D0B5
:1007700001EEDBF0F650E926F750EA22EF50006E6A
:1007800000AE06D0010EE8CF9AF29AC28AF2128C1D
:100790009AC2E8FF070AD8B463D001EEDCF0F65045
:1007A000E926F750EA22EF50006E00A059D0070E5C
:1007B000E8CF9AF29AC28AF2128C52D002019A6B56
:1007C000129C4ED0EA22EF50006E00B243D001EEF0
:1007D000EFF0F650E926F750EA22EF50390AD8A494
:1007E0000DD097C2E8FF060AD8A412B807D011BEF0
:1007F00005D0060EE8CF8AF2128832D01E0E020112
:10080000886515D012A611BE12D001EEDAF0F650AE
:10081000E926F750EA22EF50006E0004D8A405D074
:100820001D0EE8CF8AF212861BD01C0EFAD701EEFD
:10083000EFF0F650E926F750EA22EF503A0AD8B422
:1008400012B20ED011BE0CD0090EE8CF8AF212827D
:10085000129406D0129C1298129212940201886B84
:1008600001EEEFF0F650E926F750EA22EF50390A90
:10087000D8A402D01292129401EEDCF0F650E926D0
:10088000F750EA22EF50006E00B20FD097C2E8FF97
:10089000060AD8B40AD001EEF6F0F650E926F75071
:1008A000EA22EF50006E00AC03D00201886B129672
:1008B00001EEDCF0F650E926F750EA22EF50006E28
:1008C00000A20CD001EEDBF0F650E926F750EA2248
:1008D000EF50006E00AA02D0118401D01194000CD8
:1008E000D96ED9502A0DF3CFF6FFF4CFF7FF01EE02
:1008F000DBF0F650E926F750EA22EF50006E00B028
:100900000AD001EEDDF0F650E926F750EA22EF506A
:10091000006E00A812D001EEDBF0F650E926F75089
:10092000EA22EF50006E00A408D097C2E8FF020A46
:10093000D8B403D0020EE8CF8AF201EEDCF0F65014
:10094000E926F750EA22EF50006E00A808D097C2BF
:10095000E8FF040AD8B403D0040EE8CF8AF201EE0F
:10096000DBF0F650E926F750EA22EF50006E00A6C1
:1009700011D097C2E8FF050AD8B40CD00A0E0201C4
:100980008D6101D08D2B060E02018D6103D0050E05
:10099000E8CF8AF201EEDBF0F650E926F750EA22C2
:1009A000EF50006E00B602D002018D6B01EEDBF05D
:1009B000F650E926F750EA22EF50006E00A808D062
:1009C00097C2E8FF030AD8B403D0030EE8CF8AF237
:1009D0001200D96ED9502A0DF3CFF6FFF4CFF7FFEE
:1009E00001EEDFF0F650E926F750EA22EF50006EF4
:1009F00000B409D097C2E8FF030AD8A411A403D019
:100A0000030EE8CF8AF21200969496929690958EF5
:100A1000958C958A95889596959495929590949EA7
:100A2000949C949A94989496949494929490939E6F
:100A3000939C939A93989386939493929390929E77
:100A4000929C929A928892969294929292808D849D
:100A50008D828D808C8E8C8C8C8A8C888C868C84FC
:100A60008C828C808B8E8B8C8B8A8B888B868B84F4
:100A70008B828B808A8E8A8C8A8A8A888A868A84EC
:100A80008A828A80898E898C898A898889868984E4
:100A9000898289801200F29E56EC00F0B5DF47ECA7
:100AA00000F00101C56B0101C46BF28E96EC0CF0F5
:100AB0001092109A83BC83AE03D00101B76B10D0A3
:100AC00083AC83AE02D0010E09D083BC83BE02D0BA
:100AD000020E04D083AC83BE03D0030EE8CFB7F17F
:100AE000F29EEAEC0AF0F28E8D8026DD898A80A8DB
:100AF000FDD70201966B129E1290129C129A02016F
:100B00009F6B0201896B1192119A0201976B02018E
:100B1000956B119EFF0EE8CF8AF20201856B0201F0
:100B2000906B0201946B02018D6B02019A6B210E96
:100B3000E8CF92F283A883AA01D007DD1192899AA7
:100B4000550EE8CF96F2020EE8CFBCF1E8CFBDF12A
:100B50000101BB6BD96AD9CF00F0016A00500C0FBC
:100B6000F66E0150F76E030EF722D95002EEA3F095
:100B7000E926000EEA220800F5CFEFFF0201836BA1
:100B80000201846BD92A3F0ED964E5D7B7C1E8FFCB
:100B90002A0DF350D96ED95001EEDAF0E926000E95
:100BA000EA22EF6A0400B7C1E8FFB2EC01F0FF0EE1
:100BB000E8CF8AF2B7C1E8FFE3DCB7C1E8FFB6DDF2
:100BC000B7C1E8FF8DDE8AC200F00028D8B41DD07E
:100BD0008D908AC297F211AE0CD0AEDC0A0E0201E3
:100BE0008A6505D01B0E8A6102D00A0E0CD0140E45
:100BF0000AD00A0E02018A6505D01B0E8A6102D056
:100C00001E0E01D0280EE8CF95F295C2E8FF0A0A21
:100C1000D8A404D011BE3ED01E0E0BD095C2E8FF62
:100C2000140AD8A409D011BE35D0020197AF09D05B
:100C3000320EE8CF95F22ED095C2E8FF1E0AD8A456
:100C400002D0280EF6D795C2E8FF1F0AD8A404D018
:100C500011AE20D0140EEDD795C2E8FF280AD8A413
:100C600007D097C28AF28AC285F234DC290EE1D716
:100C700095C2E8FF290AD8A403D011AE0BD0D8D76B
:100C800095C2E8FF320AD8B411BE04D0330EE8CFC3
:100C900095F28D8080B00AD095C2E8FF330AD8A4BF
:100CA00003D0FF0EE8CF97F2119E01D0118E80A0E5
:100CB00002D08D9277D78D8275D7E8CFFDF2E9CF3C
:100CC000FCF2EACFFBF2E1CFFAF2E2CFF9F2D9CFB0
:100CD000F8F2DACFF7F20EC0F6F20DC0F5F20CC062
:100CE000F4F20BC0F3F20AC0F2F209C0F1F208C04C
:100CF000F0F207C0EFF206C0EEF205C0EDF204C05C
:100D0000ECF203C0EBF202C0EAF201C0E9F200C06B
:100D1000E8F2F7CFE7F2F6CFE6F2F5CFE5F2F4CF5F
:100D2000E4F2F3CFE3F2F2A427D0F294180ED66ED9
:100D3000FC0ED76E02019D2B0201A12B0001992B05
:100D4000000E9A2302019C2B640E9C6515D09C6BAF
:100D5000C80E02019B6101D09B2BC80E0201846169
:100D600001D0842BC80E02018F6101D08F2BC80ED9
:100D70000201886101D0882BA450D8A4F8EC09F0B6
:100D8000E3C2F3FFE4C2F4FFE5C2F5FFE6C2F6FFFB
:100D9000E7C2F7FFE8C200F0E9C201F0EAC202F0E0
:100DA000EBC203F0ECC204F0EDC205F0EEC206F0B7
:100DB000EFC207F0F0C208F0F1C209F0F2C20AF087
:100DC000F3C20BF0F4C20CF0F5C20DF0F6C20EF057
:100DD000F7C2DAFFF8C2D9FFF9C2E2FFFAC2E1FFB7
:100DE000FBC2EAFFFCC2E9FFFDC2E8FFFEC2FAFF58
:100DF0000FC0E0FFFFC2D8FF1000938693940F014D
:100E00006F8F6F9D6F9B12000F01718F718D7295A7
:100E100072937281719571837191719B71997187D0
:100E2000709F709D709B70897097709570837081B2
:100E3000708B709970977085708370811200A90013
:100E4000D96EA9C000F0AAC001F0050ED8900036F6
:100E50000136E82EFBD7E00E00140001A96F015007
:100E6000AA6F030EAD17AE6BADC0F3FFAEC0F4FFBB
:100E7000F350A913F450AA13ABC000F0ACC001F0BA
:100E800042D04DD00001AAC004FFA9C005FF0F0148
:100E900005870150E8CF06FF00C007FF4CD00001D6
:100EA000AAC008FFA9C009FF0F0109870150E8CFB8
:100EB0000AFF00C00BFF3FD00001AAC00CFFA9C071
:100EC0000DFF0F010D870150E8CF0EFF00C00FFF8F
:100ED00032D00001AAC010FFA9C011FF0F01118775
:100EE0000150E8CF12FF00C013FF25D00001AAC0B7
:100EF00014FFA9C015FF0F0115870150E8CF16FF99
:100F000000C017FF18D0D950BCE0010ABBE0030AAB
:100F1000C6E0010AD1E0070ADCE0010AE7E00001CF
:100F2000AAC000FFA9C001FF0F0101870150E8CF4F
:100F300002FF00C003FF1200A900D96EA9C000F093
:100F4000AAC001F0050ED89000360136E82EFBD776
:100F5000E00E00140001A96F0150AA6F030EAD1737
:100F6000AE6BADC0F3FFAEC0F4FFF350A913F45065
:100F7000AA13ABC000F0ACC001F00CD00FD0000140
:100F8000AAC01CFFA9C01DFF0150E8CF1EFF00C072
:100F90001FFF0ED0D950F2E0010AF1E00001AAC013
:100FA00018FFA9C019FF0150E8CF1AFF00C01BFFAE
:100FB0001200A900D96EA9C000F0AAC001F0050E68
:100FC000D89000360136E82EFBD7E00E0014000161
:100FD000A96F0150AA6F030EAD17AE6BADC0F3FF42
:100FE000AEC0F4FFF350A913F450AA13ABC000F045
:100FF000ACC001F01BD020D00001AAC031FFA9C0B5
:1010000032FF0F0132870150E8CF33FF00C034FFB9
:101010001FD00001AAC021FFA9C022FF0F01228713
:101020000150E8CF23FF00C024FF12D0D950E3E0E5
:10103000010AE2E0030AEDE00001AAC041FFA9C0F5
:1010400042FF0F0142870150E8CF43FF00C044FF39
:101050001200A900D96E07D00CD0A9C035FF0BD063
:10106000A9C025FF08D0D950F7E0010AF6E0030A2D
:10107000F7E0A9C045FF1200766A756AD96AD950AF
:1010800001EEC6F0E926000EEA22EF50006E790E5E
:10109000005CD8A01FD0D9502A0DF3CFF6FFF4CFB3
:1010A000F7FFE16AE150F624006E000EF720016EB2
:1010B000DA0E0024E96E010E0120EA6EEF6AE12AE1
:1010C000290EE164EFD7D95001EEC6F0E926000EF3
:1010D000EA22EF6AD92A030ED964D1D7640E01013E
:1010E000C16503D077DA0101C16B1200C0C1F6FF00
:1010F000F76AF36AF46A070ED890F336F436E82EEE
:10110000FBD7F350F610E8CF9FF0F450F710E8CF7C
:10111000A0F0B7C104F0056A066A076A020ED8900B
:101120000436053606360736E82EF9D7C3C100F077
:10113000016A026A036A005004120150051202504B
:101140000612035007120E0ED890043605360636E6
:101150000736E82EF9D787C200F0016A026A036AEF
:1011600000500412015005120250061203500712DB
:1011700004C0A1F005C0A2F006C0A3F007C0A4F00F
:1011800012006150F76EF66A6250F36EF46AF35023
:10119000F610E8CF9DF0F450F710E8CF9EF0050E62
:1011A000006E00EE9DF0002804D0D890EC32ED5295
:1011B000EF32E82EFAD76250030B0001F46FF56BA3
:1011C000F66BF76B100EF4C000F0F5C001F0F6C03E
:1011D00002F0F7C003F047EC0DF000C0A5F001C02D
:1011E000A6F002C0A7F003C0A8F06350006E016A29
:1011F000026A036A02C003F001C002F000C001F0FD
:10120000006A00EEA5F00050EE120150EE120250FE
:10121000EE120350ED12ED52ED526450006E016A71
:10122000026A036A00EEA5F00050EE120150EE12C1
:101230000250EE120350ED12ED52ED52A5C000F037
:10124000A6C001F0A7C002F0A8C003F0006AC00E5B
:101250000116026A036A0E0E3CEC0DF00050D96EC6
:10126000D950030BE8CFC2F1D950030BE8CFB8F146
:1012700012003CDFE16A9FC0A9F0A0C0AAF0000103
:10128000AB6BAC6BAD6BAE6BE150DADDE12A050EFA
:10129000E164F1D712002ADF10AA15D07F0E0001F9
:1012A000A96FAA6BAB6BAC6BAD6BAE6B000E45DE82
:1012B0007F0E0001A96FAA6BAB6BAC6BAD6BAE6B15
:1012C000010E3BDE12D00001A96BAA6BAB6BAC6BBD
:1012D000AD6BAE6B000E31DE0001A96BAA6BAB6B80
:1012E000AC6BAD6BAE6B010E28DE12000F0140B788
:1012F0003DD00101BF53D8B439D0C3C1E8FF0101CB
:10130000C26334D0F3DEBCC1A9F0000EA3DE9FC0DF
:10131000A9F0A0C0AAF000EEABF0A1C0EEFFA2C001
:10132000EEFFA3C0EEFFA4C0EEFF000E43DEBBC184
:10133000CAF1CAC146FFCBC147FFCCC148FFCDC1EE
:1013400049FFCEC14AFFCFC14BFFD0C14CFFD1C135
:101350004DFFA56AA5840F0140870101BE6B010105
:10136000C453D8B403D00101010EC40712000F0109
:1013700030B73DD00101BF53D8B439D0C3C1E8FF65
:101380000101C26334D0B2DEBDC1A9F0010E62DE3C
:101390009FC0A9F0A0C0AAF000EEABF0A1C0EEFF84
:1013A000A2C0EEFFA3C0EEFFA4C0EEFF010E02DE5E
:1013B000BBC1CAF1CAC136FFCBC137FFCCC138FFB0
:1013C000CDC139FFCEC13AFFCFC13BFFD0C13CFFF9
:1013D000D1C13DFFA56AA5860F0130870101BE6B13
:1013E0000101C553D8B403D00101010EC507120095
:1013F000A4AE02D0A49EEDD0A4AC02D0A49CE9D0AF
:10140000A4AA2BD0A49A0F0174AF02D00F01749F2D
:101410000F0174AD02D00F01749D0F0174AB02D0A7
:101420000F01749B0F0174A902D00F0174990F0171
:1014300074A702D00F0174970F0174A502D00F0199
:1014400074950F0174A302D00F0174930F0174A15E
:1014500002D00F017491746ABCD0A4A202D0A492ED
:10146000B8D0A4A0B6D00101C16B8BDE0001A6AB41
:1014700087D0A5A746D0040EF66EF76AD890F63648
:10148000F736D890F636F736D890F636F736C2C12A
:10149000E8FF2A0DF650F324026EF750F420036E95
:1014A000660ED96E0F0EDA6EF36AF46AF350D92421
:1014B000E96EF450DA20EA6E02C000F003C001F0D9
:1014C000F3500026F4500122DA0E0024E16E010EE2
:1014D0000120E26EEFCFE7FFF34AF42A000EF45C3E
:1014E000080ED8B4F35CD8A0E1D7010EE8CFBFF165
:1014F000C2C1E8FF01EEC6F0E926000EEA22EF6A5B
:1015000065D00101BF6BA5C0E8FF070BF66EF76A57
:10151000D890F636F736D890F636F736D890F636B5
:10152000F736C2C1E8FF2A0DF650F324026EF750D9
:10153000F420036E660ED96E0F0EDA6EF36AF46A4B
:10154000F350D924E96EF450DA20EA6E02C000F0BC
:1015500003C001F0F3500026F4500122DA0E0024FB
:10156000E16E010E0120E26EEFCFE7FFF34AF42AAD
:10157000000EF45C080ED8B4F35CD8B027D0E0D7E6
:101580000101BF6BB0EC01F00009D8B41FD0660EAA
:10159000D96E0F0EDA6EF36AF46AF350D924E16E55
:1015A000F450DA20E26E01EED2F0F350E926F45066
:1015B000EA22E7CFEFFFF34AF42A000EF45C080EAC
:1015C000D8B4F35CD8A0E9D7B1EC01F0A4900F0136
:1015D000609F120012DC18DC0F01738B7399729DEF
:1015E000609F608D609B60956091609B6093509F51
:1015F000508D509B509550835091509B018705878B
:1016000009870D871187158734DE45DE0F01459D5B
:10161000409730972097A592A46AA39EA39CA38A83
:10162000A398A396A394A382A3806F9F6F9D6F9BA3
:10163000F36AF46A01EEDAF0F350E926F450EA2294
:10164000000EEF6AF34AF42AF45CA80ED8B4F35CF7
:10165000D8B01200EFD7000EF66E030EF76E08003A
:10166000F550E8CFB7F1010EF66E030EF76E0800E5
:10167000F5CF8CF2020E02018C6501D08C6B020E4C
:10168000F66E030EF76E0800F5CFB9F1010E0101F9
:10169000B96501D0B96B030EF66E030EF76E080044
:1016A000F5CFBAF1020E0101BA6501D0BA6B040E92
:1016B000F66E030EF76E0800F5CFB6F1050EF66E66
:1016C000030EF76E0800F550E8CFC0F1120011AC20
:1016D0000FD0640E0201996503D0108C109E0FD0BC
:1016E00002019953D8B402D0108E08D0109E06D0B3
:1016F0000201996B10AE02D0109E1180109C11A6B1
:101700000FD0640E02018B6503D0108410960FD0A9
:1017100002018B53D8B402D0108608D0109606D0A0
:1017200002018B6B10A602D0109610881094120044
:10173000AE000001B06F050E0201916508D0916BFB
:1017400011780001AE51B16FB051AFEC01F0120051
:101750000001A96FAA6B0001ACC1E8FFAA5DD8B077
:1017600017D00001000EAA25AE6FAF6B030EAF239A
:10177000B06BB16B31EC0DF0006E0001AA5101EEBF
:10178000A1F0E926000EEA2200C0EFFFAA2BE3D762
:10179000A9C0A6F1F8C0AEF0F9C0AFF0ACC1B0F08E
:1017A000B10EF66E000EF76E020EF76407D0FAC0A7
:1017B000F5FF0D00FBC0F5FF0C0008D0F6CFE9FFE8
:1017C000F7CFEAFFFAC0EEFFFBC0EFFFD5EF00F066
:1017D0000001AC6BAD6BAC6B0001ACC1E8FFAC5D64
:1017E000D8B017D00001000EAC25AE6FAF6B030E62
:1017F000AF23B06BB16B31EC0DF0006E0001AC515A
:1018000001EEA1F0E926000EEA2200C0EFFFAC2BAA
:10181000E3D7040014D01C0E0001AA6F040E04D0FC
:10182000180E0001AA6F020EAB6F14D0230EF9D769
:10183000160E01D0120E0001AA6F030EF5D700019B
:10184000AD51E9E0010AECE0030AF0E0010AF0E042
:10185000070AF0E00001AA51AE6FAD51AF6FAD5174
:1018600001EEA1F0E926000EEA22EF5062DF2FDF41
:1018700011A011D0050E026E036A010EADC000F07A
:10188000016A0026000E012251EC01F00050000117
:10189000AD6F119023D010A821D00001AD5101EE01
:1018A000A1F0E926000EEA22EF50D96EABC002F09B
:1018B000036A010ED9CF00F0016A0026000E012252
:1018C00051EC01F00050D96EAD5101EEA1F0E926C6
:1018D000000EEA22D9CFEFFF1098108010BC02D082
:1018E00010A497D710A01FD0F8C0AEF0F9C0AFF089
:1018F000ACC1B0F0B10EF66E000EF76E020EF764DA
:1019000007D0FAC0F5FF0D00FBC0F5FF0C0008D0B2
:10191000F6CFE9FFF7CFEAFFFAC0EEFFFBC0EFFF1B
:10192000D5EC00F0109097DEFF001200010ED96E8A
:1019300010900201996B02018B6B0201A16B0201F5
:10194000A153D8B4FCD7C3DE10AC02D0D96A03D0FF
:10195000040011BCF8D7D950D8A42DD00001A96B30
:101960000001ACC1E8FFA95DD8B017D00001000E9E
:10197000A925AE6FAF6B030EAF23B06BB16B31EC2B
:101980000DF0006E0001A95101EEA1F0E926000E54
:10199000EA2200C0EFFFA92BE3D7D96A1C0E000191
:1019A000AE6FAF6BA1C1E8FFC4DE91DE040010ACE6
:1019B00010B4F3D70DDF10A04ED6F8C0AEF0F9C0CA
:1019C000AFF0ACC1B0F0B10EF66E000EF76E020EC5
:1019D000F76407D0FAC0F5FF0D00FBC0F5FF0C005F
:1019E00008D0F6CFE9FFF7CFEAFFFAC0EEFFFBC061
:1019F000EFFFD5EC00F010902ED6066A046A056A57
:101A00000250031003E1006A016A000C1F0E061267
:101A1000D890062A02360336FCE303320232025023
:101A2000005C0350015804E3016E0250005ED88050
:101A300004360536062E06BAF0D706AE05D0041ECB
:101A4000042AD8B40506051E0450026E0550036E24
:101A500006AC000C001E002AD8B40106011E000CC2
:101A6000AE000001AE51F66EAF51F76EB051F86E98
:101A70000800F86AF5501200046E042A0406D8B46F
:101A8000000CD8900332023201320032F7D7046ED4
:101A9000042A0406D8B4000CD89000360136023669
:101AA0000336F7D70900F5CFEEFFEA50E262FAD726
:0E1AB000E950E162F7D71200A6A21200FDD79E
:020000040030CA
:0E000000FF06160DFF8081FF0FC00FE00F40BE
:020000040000FA
:00000001FF
